:02000002B0004C
:1040000000400B00601D0C00000006000C000502C3
:084010000401A60F00000000EE
:04401800A4B80B003D
:1040200009480A49884208B505D0094A824202D0A7
:10403000121A07F035FB0748074A0021121A07F049
:104040003DFB014808BD00BFA4E0032088180C0018
:1040500054E5032054E50320EDE7032070B5074E37
:10406000074C05F083FBA41BA4080025AC4200D13B
:1040700070BD56F8043B98470135F7E738180C0037
:1040800060180C0000F01EBB08B500F091FBBDE805
:10409000084005F023BB04F0DDB904F0DBB904F0FF
:1040A000E1B9000008B5034A03490C2004F02EF9D9
:1040B000FEE700BF7D7F0B00B8B80B000078B0FAB8
:1040C00080F04009704701230370704770B50C1EE3
:1040D000064615460BDA0A2A09D12D2104F038FCD0
:1040E0006142EAB23046BDE8704004F04ABC214665
:1040F000F7E70368C9B29B6818470EB403B503AB72
:10410000002153F8042B019304F059FC02B05DF830
:1041100004EB03B07047000038B584690A4B0360B4
:1041200005467CB16368013B63605BB92368204648
:104130009B689847A368013BA3601BB9236820468E
:10414000DB689847284638BDBC150C0010B50446FE
:10415000FFF7E2FF20461C21FFF7A1FF204610BD1C
:104160002DE9F0418CB005460F4668467749DDF8E9
:10417000488014461E4604F09AFDDFF828E2744990
:10418000DEF800307348744ADFF81CC2AB4219D124
:104190000B68BB4216D10368A34213D11368B34224
:1041A00010D1DCF8003043450CD105F0C5F96B495E
:1041B000FFF7A3FF0024684604F02EFD20460CB054
:1041C000BDE8F081CEF800500F6004601660CCF8B6
:1041D0000080002F00F0B5806149684604F095FD2D
:1041E000694608A804F086FD0A22414604A804F0A6
:1041F0009EFD04A908A804F0E2FD5A4904F0EBFD75
:104200000146684604F067FD04A804F005FD08A80F
:1042100004F002FD694608A804F06CFD0A2231464C
:1042200004A804F084FD04A908A804F0C8FD4E49C0
:1042300004F0D1FD0146684604F04DFD04A804F0E9
:10424000EBFC08A804F0E8FC694608A804F052FD5D
:104250000A22214604A804F06AFD04A908A804F073
:10426000AEFD424904F0B7FD0146684604F033FD57
:1042700004A804F0D1FC08A804F0CEFC3C493D4859
:104280000023502204F086FE0446002893D005F057
:1042900053F9394904F06BFB05F04EF9009904F02D
:1042A00066FB3649334804F04FFB3549314804F08A
:1042B0004BFB34492F4804F047FB0A222D4829467E
:1042C000FFF704FF30492B4804F051FB2F492948E0
:1042D00004F04DFB2E49274804F036FB24492548BD
:1042E00004F045FB2B49234804F02EFB0A220299D7
:1042F000204804F046FB1F4804F02DFB26491D48CA
:1043000004F035FB1B4804F026FB0099194804F023
:104310002EFB05F011F9214904F029FB05F00CF9F9
:104320001449044608A804F063FC0899204604F0E8
:104330001EFB08A804F070FC0E4804F0E1FF012405
:1043400039E71749684604F0E0FC97E784BB0B00A7
:10435000C0E50320C8E50320B8E50320CDB80B0075
:10436000E9B80B00FBB80B0003B90B0016B90B0042
:104370002C030C0054E5032018B90B002FB90B00D7
:1043800013BE0B0039B90B0042B90B006BBB0B001D
:1043900052B90B0059B90B006AB90B0091B90B0067
:1043A0000BB90B00BCE50320C4E503201FB525496C
:1043B0000446684604F07BFC05F0BEF8224622491C
:1043C000FFF79BFE2149684604F0DBFC204A2149A7
:1043D000128851F824102048002304F0DBFD28B394
:1043E0001E491D4804F0C3FA1D491B4804F0BFFADA
:1043F0001C49194804F0BBFA1B49174804F0B7FAE6
:104400001A49154804F0A0FA029913480A2204F048
:10441000B8FA114804F09FFA0F4804F09CFA00998A
:104420000D4804F091FA0C4804F095FA0A4804F09B
:104430002FFE10B1084804F063FF684604F0ECFB5F
:1044400004B010BD84BB0B009AB90B00A8B90B00D7
:10445000D0E00320BCE003209CE50320D4BA0B008D
:10446000FCBA0B0022BB0B005FBB0B0059B90B0061
:104470001FB525490446684604F019FC05F05CF8B0
:1044800022462249FFF739FE2149684604F079FCAB
:10449000204A2149128851F824102048002304F0B2
:1044A00079FD28B31E491D4804F061FA1D491B48D7
:1044B00004F05DFA1C49194804F059FA1B491748E1
:1044C00004F055FA1A49154804F03EFA02991348C7
:1044D0000A2204F056FA114804F03DFA0F4804F09D
:1044E0003AFA00990D4804F02FFA0C4804F033FA18
:1044F0000A4804F0CDFD10B1084804F001FF6846F9
:1045000004F08AFB04B010BD84BB0B0076BB0B002B
:1045100085BB0B00D0E00320BCE003209CE503201A
:10452000D4BA0B00FCBA0B0022BB0B005FBB0B0024
:1045300059B90B000000000038B50C46054605F0DF
:10454000EDF904F053F805F0E9F9294604F07DF897
:1045500005F0E4F91C21FFF7CCFD05F0DFF9E100DF
:10456000FFF7C7FD05F0DAF9012104F075F82046E0
:1045700006F016FD9FED120B41EC110B05F048FB08
:10458000114953EC102B002006F0AEFE02460B46FC
:1045900000200E4906F0A8FE07F02CF8044604F0AF
:1045A000CBFF0546204606F01DFD02460B46284679
:1045B0000749FFF7A2FD00EE104A38BDAFF30080B7
:1045C00000000000000000400000D0400000F03F6C
:1045D000B1BC0B0038B50D46044605F09FF904F058
:1045E00005F805F09BF9214604F02FF805F096F93F
:1045F0006B21FFF77EFD05F091F90021FFF779FDB2
:1046000005F08CF9012104F027F829462046FFF730
:1046100093FF024B83ED000A38BD00BFCCE50320B9
:1046200038B504460D4605F079F9214604F00DF839
:1046300005F074F9036829469B68984705F06EF900
:10464000002104F009F805F069F92146022201234E
:1046500003F0E9FF05F062F903685B6998470446D7
:1046600005F05CF903685B699847C3B243EA04202C
:1046700003B200EE103AB8EEC00A38BD70B50C4671
:104680000F4E3B210546FFF7CBFFD6ED007A27EE14
:10469000800A3D21284684ED000AFFF7C1FFD6EDD0
:1046A000007A27EE800A3F2184ED010A2846FFF7B1
:1046B000B7FFD6ED007A27EE800A84ED020A70BDBE
:1046C000CCE5032038B504F037FF4FF4165104F061
:1046D00023FF002003F06AFC42F21075044600201C
:1046E00003F064FC001B61F10001A84271F10003BA
:1046F00007D204F021FF04F013FF10B903F03AFED3
:10470000EDE704F019FF04F00BFF00216820FFF72C
:1047100061FF094B094883ED000A02F020FC0748BD
:1047200002F056FC06483C22022103F03FFBBDE8A4
:104730003840034803F052BAB0E6032080E6032075
:1047400058E60320F0B5184B87B0064601AA03F1DE
:10475000100718685968154603C50833BB422A4636
:10476000F7D11868286000239E4208BF1C46013319
:10477000142BF9D10D48642102F019FE4FF40042C8
:1047800000210A4802F0D0FD084802F021FC40F662
:10479000B83003F097FE054802F030FE06AB1C442B
:1047A00014F8140C07B0F0BDCBBC0B0080E603205E
:1047B0002DE9F04FDFF83C91DFF83CA185B003F024
:1047C000EDFBD9F80030CAF80000C01A40F6C41357
:1047D000984240F2D680384C384E21466820FFF788
:1047E0004DFF374B94ED003AD4ED013A94ED024A77
:1047F00083ED003AC3ED013A83ED024A314B314675
:104800000022D3ED006A93ED017AD3ED027A73EEC4
:10481000666A33EEC77A74EE677A66EEA64A27EECA
:10482000075A67EEA75A35EE246A013236EE256A3A
:10483000142AA1EC016A03F10C03E2D1224B234DAF
:10484000C3ED006A224B234F83ED007A224BDFF841
:10485000ACB0C3ED007A214BC3ED004A204B83ED91
:10486000005A204BC3ED005A1F4B2B600024F6EC7E
:10487000017A95ED007AF4EEC77AF1EE10FA78D568
:10488000C5ED007A3C6004F057FE8046286806F0CB
:10489000A9FB0B4639680091024659464046FFF78E
:1048A0002CFC3868FFF74EFF104B4128187027D1B9
:1048B0000F4B01221A605CE0D0E50320ECE50320F9
:1048C000A4E603203CCA0B00E0E5032054E60320E5
:1048D000E4E5032050E60320E8E5032094E6032006
:1048E00098E603209CE603200000C8424DE6032022
:1048F000A0E60320DCE503207CE60320E0BC0B00FF
:10490000422800F08385432800F08485442800F085
:104910008585452800F08685462800F0878547284C
:1049200000F08885482800F08985492800F08A85AC
:104930004A2800F08B854B2800F08C854C2800F02D
:104940008D854D2800F08E854E2800F08F854F28EC
:1049500000F09085502800F09185512800F0928554
:10496000522800F09385532800F09485542800F0D5
:1049700095850134142C7FF47AAFDAF80030C9F849
:104980000030AB4D2E68012E00F08C852C68022C77
:1049900040F0DD8004F0D0FD0322A649DFF8B4A288
:1049A000A54FFFF7AAFB0320FFF762FD42F210704C
:1049B00003F088FD2146A148A14C02F022FF00220D
:1049C00011469E4802F018FF012640230022CDE93F
:1049D000013680231146994800939A4B02F008FE55
:1049E000964803F073F940F6B83003F06BFD934836
:1049F00003F0F4F84FF0FF082670FF2604F09CFD4A
:104A00005146FFF77AFB0096DFF84C923A6821781E
:104A100043460120FFF7A4FB00964346D9F8002047
:104A200021780220FFF79CFB009643463A682178E4
:104A30000320FFF795FB00964346D9F80020217824
:104A40000420FFF78DFB009643463A682178052045
:104A5000FFF786FB00964346D9F800202178062010
:104A6000A8F16408FFF77CFB18F12D0FC5D1DFF822
:104A7000E4A14FF0000804F05FFD5146FFF73DFB55
:104A800000964346D9F8002021780120FFF768FB03
:104A9000009643463A6821780220FFF761FB0096B2
:104AA0004346D9F8002021780320FFF759FB0096F0
:104AB00043463A6821780420FFF752FB00964346AC
:104AC000D9F8002021780520FFF74AFB00964346DD
:104AD0003A682178062008F16408FFF741FBB8F531
:104AE000967FC8D10023237004F026FD5649FFF7B6
:104AF00004FB00963A682178FF230120FFF730FB82
:104B000000963A682178FF230220FFF729FB0096E0
:104B10003A682178FF230320FFF722FB00963A68CA
:104B20002178FF230420FFF71BFB00963A682178C9
:104B3000FF230520FFF714FB00963A682178FF2336
:104B40000620FFF70DFB42F2107003F0BBFC2C684F
:104B5000032C40F0B98004F0EFFC22463549DFF821
:104B6000F490FFF7CAFA2046FFF782FC42F2107079
:104B700003F0A8FC3148324C022102F042FE002230
:104B800011462E4802F038FE012640230022CDE9CE
:104B9000013680231146294800932C4B02F028FD52
:104BA000264803F093F840F6B83003F08BFC234816
:104BB00003F014F82670264E4FF0FF08FF2704F08C
:104BC000BBFC4946FFF799FA0097434632682178C3
:104BD0000120FFF7C5FA009743463268217802208A
:104BE000FFF7BEFA00974346326821780320FFF7AB
:104BF000B7FA00974346326821780420FFF7B0FAED
:104C000000974346326821780520FFF7A9FA0097FC
:104C10004346326821780620A8F16408FFF7A0FA1D
:104C200018F12D0FCAD1DFF82C904FF0000815E0D5
:104C3000A0E603202BBD0B008CE5032058E60320E3
:104C40004CE603202CD70B0044BD0B0038070C00AA
:104C5000B8E0032015BD0B00B0E0032004F06CFCAD
:104C60004946FFF74AFA0097434632682178012007
:104C7000FFF776FA00974346326821780220FFF763
:104C80006FFA00974346326821780320FFF768FAED
:104C900000974346326821780420FFF761FA0097B5
:104CA0004346326821780520FFF75AFA00974346B9
:104CB00032682178062008F16408FFF751FAB8F548
:104CC000967FCBD1002323702B68042B40F0D98032
:104CD00004F032FC0322C649C64CC74FFFF70DFA59
:104CE0000320FFF7C5FB42F2107003F0EBFBC34853
:104CF000022102F086FD00221146C04802F07CFD30
:104D0000012640230022CDE9013680231146BB480D
:104D10000093BB4B02F06CFCB84802F0D7FF40F6A2
:104D2000B83003F0CFFBB54802F058FF4FF0FF0852
:104D30002670FF2604F000FCB249FFF7DEF900966A
:104D40004346217847F60C320120FFF709FA009616
:104D500043463A6821780220FFF702FA009643465C
:104D6000217847F60C320320FFF7FAF90096434604
:104D70003A6821780420FFF7F3F90096434621783A
:104D800047F60C320520FFF7EBF9009643463A68E8
:104D900021780620A8F16408FFF7E2F918F12D0F39
:104DA000C7D1DFF860924FF0000804F0C5FB494618
:104DB000FFF7A3F9009643463A6821780120FFF7F0
:104DC000CFF900964346217847F60C320220FFF7D0
:104DD000C7F9009643463A6821780320FFF7C0F9E7
:104DE00000964346217847F60C320420FFF7B8F9C5
:104DF000009643463A6821780520FFF7B1F90096FE
:104E00004346217847F60C32062008F16408FFF784
:104E1000A7F9B8F5967FC8D10023237004F08CFB66
:104E20007949FFF76AF900963A682178FF23012053
:104E3000FFF796F900963A682178FF230220FFF7E2
:104E40008FF900963A682178FF230320FFF788F94D
:104E500000963A682178FF230420FFF781F9009635
:104E60003A682178FF230520FFF77AF900963A681F
:104E70002178FF230620FFF773F942F2107003F048
:104E800021FB2B68052B40F0F18004F055FB032239
:104E90005749584CDFF86CA1574FFFF72EF9032004
:104EA000FFF7E6FA42F2107003F00CFB53480221C0
:104EB00002F0A7FC00221146504802F09DFC01269A
:104EC00040230022CDE90136802311464B48009350
:104ED0004E4B02F08DFB494802F0F8FE40F6B83028
:104EE00003F0F0FA454802F079FE4FF0FF08267013
:104EF000FF2604F021FBDFF818915146FFF7FDF87B
:104F000000964346D9F8002021780120FFF728F9C0
:104F1000009643463A6821780220FFF721F900966F
:104F20004346D9F8002021780320FFF719F90096AD
:104F300043463A6821780420FFF712F90096434669
:104F4000D9F8002021780520FFF70AF9009643469A
:104F50003A6821780620A8F16408FFF701F918F1F2
:104F60002D0FC5D1DFF89CA04FF0000804F0E4FA43
:104F70005146FFF7C2F8009643463A68217801206F
:104F8000FFF7EEF800964346D9F80020217802207A
:104F9000FFF7E6F8009643463A6821780320FFF7CA
:104FA000DFF800964346D9F8002021780420FFF767
:104FB000D7F8009643463A6821780520FFF7D0F8E5
:104FC00000964346D9F800202178062008F16408AD
:104FD000FFF7C6F8B8F5967FC8D10023237004F018
:104FE000ABFA0949FFF789F800963A6812E000BF6A
:104FF0002BBD0B004CE603208CE5032058E6032074
:105000003CC60B0015BD0B0044BD0B003CBE0B00A5
:10501000B8E003202178FF230120FFF7A1F80096D4
:105020003A682178FF230220FFF79AF800963A6841
:105030002178FF230320FFF793F800963A68217840
:10504000FF230420FFF78CF800963A682178FF23AD
:105050000520FFF785F800963A682178FF2306209F
:10506000FFF77EF842F2107003F02CFA2B68062B43
:1050700040F0E08204F060FA0322C749C74CC84FF1
:10508000FFF73BF80320FFF7F3F942F2107003F04B
:1050900019FAC448022102F0B4FB00221146C148AB
:1050A00002F0AAFB012640230022CDE9013680232D
:1050B0001146BC480093BC4B02F09AFAB94802F082
:1050C00005FE40F6B83003F0FDF9B64802F086FD63
:1050D0004FF0FF082670FF2604F02EFAB349FFF7C1
:1050E0000CF8009643462178B4220120FFF738F8E7
:1050F000009643463A6821780220FFF731F800967F
:1051000043462178B4220320FFF72AF8009643464D
:105110003A6821780420FFF723F800964346217867
:10512000B4220520FFF71CF8009643463A68217820
:105130000620A8F16408FFF713F818F12D0FCAD163
:10514000DFF868924FF0000804F0F6F94946FEF7E0
:10515000D4FF009643463A6821780120FFF700F813
:10516000009643462178B4220220FEF7F9FF00960C
:1051700043463A6821780320FEF7F2FF0096434643
:105180002178B4220420FEF7EBFF009643463A68EC
:1051900021780520FEF7E4FF009643462178B422EB
:1051A000062008F16408FEF7DBFFB8F5967FCBD147
:1051B0000023237004F0C0F97D49FEF79EFF00969E
:1051C0003A682178FF230120FEF7CAFF00963A686B
:1051D0002178FF230220FEF7C3FF00963A6821786A
:1051E000FF230320FEF7BCFF00963A682178FF23D7
:1051F0000420FEF7B5FF00963A682178FF230520CA
:10520000FEF7AEFF0096FF233A6821780620FEF7EE
:10521000A7FF42F2107003F055F907232B6004F04A
:105220008BF903225C495D4CDFF880A1DFF88881AF
:10523000FEF763FF0320FFF71BF942F2107003F043
:1052400041F95848022102F0DCFA00221146554883
:1052500002F0D2FA012640230022CDE90136802354
:10526000114650480093534B02F0C2F94D4802F0EA
:105270002DFD40F6B83003F025F94A4802F0AEFCA7
:10528000FF272670FF2604F057F9DFF830915146CA
:10529000FEF733FF00963B46D9F800202178012025
:1052A000FEF75EFF00963B46D8F8002021780220EA
:1052B000FEF756FF00963B46D9F8002021780320E0
:1052C000FEF74EFF00963B46D8F8002021780420D8
:1052D000FEF746FF00963B46D9F8002021780520CE
:1052E000FEF73EFF00963B46D8F8002021780620C6
:1052F000643FFEF735FF17F12D0FC3D1DFF8ACA0E7
:10530000002704F019F95146FEF7F7FE00963B46D8
:10531000D9F8002021780120FEF722FF00963B46B5
:10532000D8F8002021780220FEF71AFF00963B46AD
:10533000D9F8002021780320FEF712FF00963B46A3
:10534000D8F8002021780420FEF70AFF00963B469B
:10535000D9F8002021780520FEF702FF00963B4691
:10536000D8F80020217806206437FEF7F9FEB7F55B
:10537000967FC6D100230A4F237004F0DDF80C4954
:10538000FEF7BBFE00963A682178FF230120FEF766
:10539000E7FE00963A6813E02BBD0B004CE60320B5
:1053A0008CE5032058E603202CDF0B0015BD0B0015
:1053B00044BD0B002CDB0B00B8E00320A8E0032069
:1053C0002178FF230220FEF7CBFE00963A68217871
:1053D000FF230320FEF7C4FE00963A682178FF23DE
:1053E0000420FEF7BDFE00963A682178FF230520D1
:1053F000FEF7B6FE00963A682178FF230620FEF7F6
:10540000AFFE42F2107003F05DF816E1814B072207
:10541000FFF750BA7F4B1122FFF74CBA7D4B0322A6
:10542000FFF748BA7B4B1322FFF744BA794B12229D
:10543000FFF740BA774B0222FFF73CBA754B1422B4
:10544000FFF738BA734B0E22FFF734BA714B0422C0
:10545000FFF730BA6F4B0B22FFF72CBA6D4B0D22C2
:10546000FFF728BA6B4B0522FFF724BA694B0F22CE
:10547000FFF720BA674B0C22FFF71CBA654B0A22D4
:10548000FFF718BA634B0822FFF714BA614B1022DA
:10549000FFF710BA5F4B0622FFF70CBA5D4B0922EB
:1054A000FFF708BA5C485D4CDFF8849102F096FB88
:1054B0005948022102F0A5F900221146564802F08F
:1054C0009BF980234022CDE900320022544B524800
:1054D0000296114602F08CF84F4802F0F7FB40F6B6
:1054E000B83002F0EFFF4C4802F078FB4D486421E1
:1054F00001F05DFF4FF47F0200214A4801F014FFE4
:10550000484801F065FD40F6B83002F0DBFF454841
:1055100001F074FF434801F05BFD04F00DF84249CF
:105520000322FEF7EAFD0320FEF740FF26703F4E00
:105530004FF0FF08FF2703F0FFFF4946FEF7DDFDB0
:1055400000974346326821780120FEF709FE009754
:105550004346326821780220FEF702FE0097434658
:10556000326821780320FEF7FBFD0097434632683E
:1055700021780420FEF7F4FD009743463268217835
:105580000520FEF7EDFD009743463268217806209E
:10559000A8F16408FEF7E4FD18F12D0FCAD1DFF879
:1055A00090904FF0000803F0C7FF4946FEF7A5FDB5
:1055B00000974346326821780120FEF7D1FD00971D
:1055C0004346326821780220FEF7CAFD0097434621
:1055D000326821780320FEF7C3FD00974346326806
:1055E00021780420FEF7BCFD0097434632682178FD
:1055F0000520FEF7B5FD0097434632682178062066
:1056000008F16408FEF7ACFDB8F5967FCBD1FFF743
:10561000BDB900BFA0E6032058E603204CE60320F6
:105620002CCB0B0080E60320FDBC0B008CE5032097
:1056300015BD0B00072B3FF4F2AD2B68082B40F093
:10564000E18003F079FF0322CB49CC4CDFF844A37F
:10565000DFF84483FEF751FD0320FEF709FF42F215
:10566000107002F02FFFC648022102F0CAF8002293
:105670001146C34802F0C0F8012640230022CDE9BC
:10568000013680231146BE480093BE4B01F0B0FFA7
:10569000BB4802F01BFB40F6B83002F013FFB848DD
:1056A00002F09CFAFF272670FF2603F045FF5146C3
:1056B000FEF723FD0096DFF8E492D8F80020217869
:1056C0003B460120FEF74CFD00963B46D9F80020F2
:1056D00021780220FEF744FD00963B46D8F80020D2
:1056E00021780320FEF73CFD00963B46D9F80020C8
:1056F00021780420FEF734FD00963B46D8F80020C0
:1057000021780520FEF72CFD00963B46D9F80020B5
:1057100021780620643FFEF723FD17F12D0FC3D13A
:10572000DFF870A2002703F007FF5146FEF7E5FC03
:1057300000963B46D9F8002021780120FEF710FDA5
:1057400000963B46D8F8002021780220FEF708FD9D
:1057500000963B46D9F8002021780320FEF700FD93
:1057600000963B46D8F8002021780420FEF7F8FC8C
:1057700000963B46D9F8002021780520FEF7F0FC82
:1057800000963B46D8F80020217806206437FEF7C3
:10579000E7FCB7F5967FC6D100237B4F237003F05B
:1057A000CBFE7A49FEF7A9FC00963A682178FF23E0
:1057B0000120FEF7D5FC00963A682178FF230220ED
:1057C000FEF7CEFC00963A682178FF230320FEF70F
:1057D000C7FC00963A682178FF230420FEF7C0FC3E
:1057E00000963A682178FF230520FEF7B9FC009661
:1057F0003A682178FF230620FEF7B2FC42F21070CF
:1058000002F060FE2B68092B40F0F88003F094FE54
:1058100003225949594CDFF87CA1DFF88491FEF747
:105820006CFC0320FEF724FE42F2107002F04AFEE8
:105830005348022101F0E5FF00221146504801F0D3
:10584000DBFF012640230022CDE9013680231146EB
:105850004B4800934E4B01F0CBFE494802F036FA1C
:1058600040F6B83002F02EFE454802F0B7F9FF27A7
:105870002670FF2603F060FE5146FEF73EFC0096C0
:10588000DFF81881D9F8002021783B460120FEF787
:1058900067FC00963B46D8F8002021780220FEF7EE
:1058A0005FFC00963B46D9F8002021780320FEF7E4
:1058B00057FC00963B46D8F8002021780420FEF7DC
:1058C0004FFC00963B46D9F8002021780520FEF7D2
:1058D00047FC00963B46D8F8002021780620643F1C
:1058E000FEF73EFC17F12D0FC3D1DFF8A8A000276B
:1058F00003F022FE5146FEF700FC00963B46D9F825
:10590000002021780120FEF72BFC00963B46D8F8BA
:10591000002021780220FEF723FC00963B46D9F8B0
:10592000002021780320FEF71BFC00963B46D8F8A8
:10593000002021780420FEF713FC00963B46D9F89E
:10594000002021780520FEF70BFC00963B46D8F896
:105950000020217806206437FEF702FCB7F5967F19
:10596000C6D10023084F237003F0E6FD0749FEF778
:10597000C4FB00963A6815E02BBD0B004CE60320F3
:1059800058E603202CCF0B008CE5032044BD0B0010
:105990002CD30B0015BD0B00B8E00320A8E00320BA
:1059A000B0E003202178FF230120FEF7D9FB009609
:1059B0003A682178FF230220FEF7D2FB00963A686E
:1059C0002178FF230320FEF7CBFB00963A6821786D
:1059D000FF230420FEF7C4FB00963A682178FF23DA
:1059E0000520FEF7BDFB00963A682178FF230620CC
:1059F000FEF7B6FB42F2107002F064FD2B680A2B32
:105A000040F0D78003F098FD0322C849C84CDFF866
:105A10003C83FEF772FB0320FEF72AFD42F2107072
:105A200002F050FDC348022101F0EBFE00221146B6
:105A3000C04801F0E1FE012640230022CDE90136F5
:105A400080231146BB480093BB4B01F0D1FDB94800
:105A500002F03CF940F6B83002F034FDB54802F0EF
:105A6000BDF8FF272670FF2603F066FDB349FEF759
:105A700044FB00963B46D8F8002021780120FEF731
:105A80006FFB00963B462178AF220220FEF768FBB1
:105A900000963B46D8F8002021780320FEF760FBF3
:105AA00000963B462178AF220420FEF759FB009672
:105AB0003B46D8F8002021780520FEF751FB0096E0
:105AC0003B462178AF220620643FFEF749FB17F1E1
:105AD0002D0FC8D1DFF86492002703F02DFD494651
:105AE000FEF70BFB00963B462178AF220120FEF724
:105AF00037FB00963B46D8F8002021780220FEF7BD
:105B00002FFB00963B462178AF220320FEF728FBAF
:105B100000963B46D8F8002021780420FEF720FBB1
:105B200000963B462178AF220520FEF719FB009630
:105B30003B46D8F80020217806206437FEF710FB9A
:105B4000B7F5967FC9D100237D4F237003F0F4FC95
:105B50007C49FEF7D2FA00963A682178FF230120AB
:105B6000FEF7FEFA00963A682178FF230220FEF73E
:105B7000F7FA00963A682178FF230320FEF7F0FA3F
:105B800000963A682178FF230420FEF7E9FA009690
:105B90003A682178FF230520FEF7E2FA00963A687A
:105BA0002178FF230620FEF7DBFA42F2107002F0A4
:105BB00089FC2B680B2B40F0EC8003F0BDFC03222A
:105BC0005A495B4CDFF88881FEF797FA0320FEF70D
:105BD0004FFC42F2107002F075FC5648022101F0B1
:105BE00010FE00221146534801F006FE0126402314
:105BF0000022CDE90136802311464E480093524BD6
:105C000001F0F6FC4B4802F061F840F6B83002F0C3
:105C100059FC484801F0E2FFFF272670FF2603F0F9
:105C20008BFC4649FEF769FA00963B46D8F80020FF
:105C300021780120FEF794FA00963B462178C32292
:105C40000220FEF78DFA00963B46D8F80020217816
:105C50000320FEF785FA00963B462178C3220420F4
:105C6000FEF77EFA00963B46D8F800202178052002
:105C7000FEF776FA00963B462178C3220620643F61
:105C8000FEF76EFA17F12D0FC8D1DFF8B09000279C
:105C900003F052FC4946FEF730FA00963B46217865
:105CA000C3220120FEF75CFA00963B46D8F800209C
:105CB00021780220FEF754FA00963B462178C32251
:105CC0000320FEF74DFA00963B46D8F800202178D5
:105CD0000420FEF745FA00963B462178C3220520B2
:105CE000FEF73EFA00963B46D8F8002021780620C1
:105CF0006437FEF735FAB7F5967FC9D10023104F08
:105D0000237003F019FC0F49FEF7F7F900963A6883
:105D10002178FF230120FEF723FA00963A682178C4
:105D2000FF230220FEF71CFA009613E02BBD0B00A8
:105D30004CE6032058E603202CF30B0015BD0B00A6
:105D40008CE5032044BD0B002CFB0B00A4E00320DA
:105D5000B4E003203A682178FF230320FEF700FA1D
:105D600000963A682178FF230420FEF7F9F900969F
:105D70003A682178FF230520FEF7F2F900963A6889
:105D80002178FF230620FEF7EBF942F2107002F0B3
:105D900099FB2B680C2B40F0DD8003F0CDFB032238
:105DA000CA49CB4CDFF84483FEF7A7F90320FEF77E
:105DB0005FFB42F2107002F085FBC648022101F041
:105DC00020FD00221146C34801F016FD01264023A4
:105DD0000022CDE9013680231146BE480093BE4B18
:105DE00001F006FCBB4801F071FF40F6B83002F04C
:105DF00069FBB84801F0F2FEFF272670FF2603F08A
:105E00009BFBB649FEF779F900963B46D8F800208F
:105E100021780120FEF7A4F900963B46217840F254
:105E20003B120220FEF79CF900963B46D8F8002072
:105E300021780320FEF794F900963B46217840F242
:105E40003B120420FEF78CF900963B46D8F8002060
:105E500021780520FEF784F900963B46217840F230
:105E60003B120620643FFEF77BF917F12D0FC5D1D9
:105E7000DFF86892002703F05FFB4946FEF73DF923
:105E800000963B46217840F23B120120FEF768F96C
:105E900000963B46D8F8002021780220FEF760F9F2
:105EA00000963B46217840F23B120320FEF758F95A
:105EB00000963B46D8F8002021780420FEF750F9E0
:105EC00000963B46217840F23B120520FEF748F948
:105ED00000963B46D8F80020217806206437FEF76C
:105EE0003FF9B7F5967FC6D100237D4F237003F0AD
:105EF00023FB7C49FEF701F900963A682178FF23DD
:105F00000120FEF72DF900963A682178FF23022040
:105F1000FEF726F900963A682178FF230320FEF762
:105F20001FF900963A682178FF230420FEF718F93C
:105F300000963A682178FF230520FEF711F90096B4
:105F40003A682178FF230620FEF70AF942F2107022
:105F500002F0B8FA2B680D2B40F0F48003F0ECFA55
:105F600003225A495A4CDFF874A1DFF88481FEF706
:105F7000C4F80320FEF77CFA42F2107002F0A2FA95
:105F80005448022101F03DFC00221146514801F025
:105F900033FC012640230022CDE90136802311463F
:105FA0004C480093504B01F023FB4A4801F08EFE11
:105FB00040F6B83002F086FA464801F00FFEFF279F
:105FC0002670FF2603F0B8FADFF828915146FEF755
:105FD00094F800963B46D9F8002021780120FEF77E
:105FE000BFF800963B46D8F8002021780220FEF743
:105FF000B7F800963B462178C3220320FEF7B0F89D
:1060000000963B46D9F8002021780420FEF7A8F836
:1060100000963B46D8F8002021780520FEF7A0F82E
:1060200000963B462178C3220620643FFEF798F88D
:1060300017F12D0FC5D1DFF8A4A0002703F07CFADB
:106040005146FEF75AF800963B462178C3220120BC
:10605000FEF786F800963B46D9F80020217802200A
:10606000FEF77EF800963B46D8F800202178032002
:10607000FEF776F800963B462178C3220420FEF70F
:106080006FF800963B46D9F8002021780520FEF7EE
:1060900067F800963B46D8F8002021780620643740
:1060A000FEF75EF8B7F5967FC8D100230C4F23703A
:1060B00003F042FA0B49FEF720F800963A6821787F
:1060C000FF230120FEF74CF8009615E02BBD0B00D6
:1060D0004CE6032058E603202CEB0B0015BD0B000B
:1060E0008CE5032044BD0B002CE70B00A8E0032047
:1060F000A4E00320B4E003203A682178FF230220C3
:10610000FEF72EF800963A682178FF230320FEF769
:1061100027F800963A682178FF230420FEF720F83C
:1061200000963A682178FF230520FEF719F80096BB
:106130003A682178FF230620FEF712F842F2107029
:1061400002F0C0F92B680E2B40F0E18003F0F4F967
:106150000322CD49CD4CDFF84CA3DFF84C83FDF78B
:10616000CCFF0320FEF784F942F2107002F0AAF986
:10617000C748022101F045FB00221146C44801F046
:106180003BFB012640230022CDE901368023114646
:10619000BF480093BF4B01F02BFABD4801F096FDBC
:1061A00040F6B83002F08EF9B94801F017FDFF272C
:1061B0002670FF2603F0C0F95146FDF79EFF0096BA
:1061C000DFF8E892D8F8002021783B460120FDF75F
:1061D000C7FF00963B46D9F8002021780220FDF742
:1061E000BFFF00963B46D8F8002021780320FDF73A
:1061F000B7FF00963B46D9F8002021780420FDF730
:10620000AFFF00963B46D8F8002021780520FDF727
:10621000A7FF00963B46D9F8002021780620643F6E
:10622000FDF79EFF17F12D0FC3D1DFF878A20027ED
:1062300003F082F95146FDF760FF00963B46D9F81E
:10624000002021780120FDF78BFF00963B46D8F80F
:10625000002021780220FDF783FF00963B46D9F805
:10626000002021780320FDF77BFF00963B46D8F8FD
:10627000002021780420FDF773FF00963B46D9F8F3
:10628000002021780520FDF76BFF00963B46D8F8EB
:106290000020217806206437FDF762FFB7F5967F6E
:1062A000C6D100237C4F237003F046F97B49FDF7EC
:1062B00024FF00963A682178FF230120FDF750FF64
:1062C00000963A682178FF230220FDF749FF0096E7
:1062D0003A682178FF230320FDF742FF00963A68D1
:1062E0002178FF230420FDF73BFF00963A682178D0
:1062F000FF230520FDF734FF00963A682178FF233D
:106300000620FDF72DFF42F2107002F0DBF82B683B
:106310000F2B40F0F98003F00FF903225A495B4C30
:10632000DFF88481FDF7E9FE0320FEF7A1F842F2D1
:10633000107002F0C7F85648022101F062FA0022FC
:106340001146534801F058FA012640230022CDE9B6
:106350000136802311464E480093514B01F048F915
:106360004B4801F0B3FC40F6B83002F0ABF84848B7
:1063700001F034FC2670FF2603F0DEF8FF274949C0
:10638000FDF7BBFE00973346217840F23B12012017
:10639000FDF7E6FE00973346D8F8002021784FF04D
:1063A0007F090220FDF7DCFECDF80090334621780E
:1063B00040F23B120320FDF7D3FE009733462178CD
:1063C00040F23B120420FDF7CBFE00973346D8F88D
:1063D000002021780520FDF7C3FECDF8009033465C
:1063E000217840F23B120620643EFDF7B9FE16F11B
:1063F0002D0FC1D1DFF8ACA0002703F09DF8514666
:10640000FDF77BFECDF80090FF263B46217840F259
:106410003B120120FDF7A4FE00963B46217840F296
:106420003B120220FDF79CFE00963B46D8F8002068
:1064300021780320FDF794FECDF800903B462178AB
:1064400040F23B120420FDF78BFE00963B4621787C
:1064500040F23B120520FDF783FE00963B46D8F83C
:106460000020217806206437FDF77AFEB7F5967F85
:10647000C3D10023084F237003F05EF80749FDF7EE
:106480003CFE00963A6813E02BBD0B004CE603205F
:1064900058E603202CF70B008CE5032044BD0B00CD
:1064A000380B0C0015BD0B00B0E00320B4E0032056
:1064B000217833460120FDF753FE00963A68217893
:1064C00033460220FDF74CFE00963A6821783346A9
:1064D0000320FDF745FE00963A68217833460420F4
:1064E000FDF73EFE00963A68217833460520FDF719
:1064F00037FE00963A68217833460620FDF730FED5
:1065000042F2107001F0DEFF2B68102B40F0D680B5
:1065100003F012F80322C649C64CDFF83493C64F85
:10652000FDF7EBFD0320FDF7A3FF42F2107001F031
:10653000C9FFC248022101F064F900221146BF4898
:1065400001F05AF9012640230022CDE901368023CB
:106550001146BA480093BA4B01F04AF8B74801F027
:10656000B5FB40F6B83001F0ADFFB44801F036FBA2
:106570004FF0FF082670FF2602F0DEFF4946FDF7C8
:10658000BCFD009643463A6821780120FDF7E8FDFE
:10659000009643463A6821780220FDF7E1FD009617
:1065A00043463A6821780320FDF7DAFD009643461A
:1065B0003A6821780420FDF7D3FD009643463A68F7
:1065C00021780520FDF7CCFD009643463A682178F6
:1065D0000620A8F16408FDF7C3FD18F12D0FCAD1FC
:1065E000DFF86C924FF0000802F0A6FF4946FDF775
:1065F00084FD009643463A6821780120FDF7B0FDFE
:10660000009643463A6821780220FDF7A9FD0096DE
:1066100043463A6821780320FDF7A2FD00964346E1
:106620003A6821780420FDF79BFD009643463A68BE
:1066300021780520FDF794FD009643463A682178BD
:10664000062008F16408FDF78BFDB8F5967FCBD1E5
:1066500000237C4F237002F06FFF7B49FDF74DFD57
:1066600000963A682178FF230120FDF779FD009616
:106670003A682178FF230220FDF772FD00963A6800
:106680002178FF230320FDF76BFD00963A682178FF
:10669000FF230420FDF764FD00963A682178FF236C
:1066A0000520FDF75DFD00963A682178FF2306205E
:1066B000FDF756FD42F2107001F004FF2B68112B1C
:1066C00040F0F78002F038FF03225949594CDFF8B7
:1066D00080A1DFF88091FDF710FD0320FDF7C8FED3
:1066E00042F2107001F0EEFE5448022101F089F8E8
:1066F00000221146514801F07FF801264023002274
:10670000CDE90136802311464C4800934F4B00F0F1
:106710006FFF4A4801F0DAFA40F6B83001F0D2FED5
:10672000464801F05BFAFF272670FF2602F004FFBF
:10673000DFF804815146FDF7E0FC00963B46D8F8AF
:10674000002021780120FDF70BFD00963B46D9F88B
:10675000002021780220FDF703FD00963B46D8F883
:10676000002021780320FDF7FBFC00963B46D9F87A
:10677000002021780420FDF7F3FC00963B46D8F872
:10678000002021780520FDF7EBFC00963B46D9F868
:10679000002021780620643FFDF7E2FC17F12D0F61
:1067A000C3D1DFF8ACA0002702F0C6FE5146FDF7CA
:1067B000A4FC00963B46D9F8002021780120FDF783
:1067C000CFFC00963B46D8F8002021780220FDF748
:1067D000C7FC00963B46D9F8002021780320FDF73E
:1067E000BFFC00963B46D8F8002021780420FDF736
:1067F000B7FC00963B46D9F8002021780520FDF72C
:10680000AFFC00963B46D8F800202178062064377C
:10681000FDF7A6FCB7F5967FC6D10023094F23707C
:1068200002F08AFE0849FDF768FC009614E000BFFC
:106830002BBD0B004CE60320A8E0032058E6032004
:106840002CE30B008CE5032044BD0B002CEF0B0068
:1068500015BD0B00B8E003203A682178FF23012022
:10686000FDF77EFC00963A682178FF230220FDF7B1
:1068700077FC00963A682178FF230320FDF770FC2F
:1068800000963A682178FF230420FDF769FC009602
:106890003A682178FF230520FDF762FC00963A68EC
:1068A0002178FF230620FDF75BFC42F2107001F017
:1068B00009FE2B68122B40F0E18002F03DFE03221E
:1068C000CB49CC4CDFF844A3DFF84493FDF715FC2B
:1068D0000320FDF7CDFD42F2107001F0F3FDC64834
:1068E000022100F08EFF00221146C34800F084FF11
:1068F000012640230022CDE9013680231146BE48FF
:106900000093BE4B00F074FEBB4801F0DFF940F687
:10691000B83001F0D7FDB84801F060F9FF272670C4
:10692000FF2602F009FEDFF8EC825146FDF7E5FB99
:1069300000963B46D8F8002021780120FDF710FC96
:1069400000963B46D9F8002021780220FDF708FC8C
:1069500000963B46D8F8002021780320FDF700FC84
:1069600000963B46D9F8002021780420FDF7F8FB7B
:1069700000963B46D8F8002021780520FDF7F0FB73
:1069800000963B46D9F8002021780620643FFDF7A9
:10699000E7FB17F12D0FC3D1DFF870A2002702F03B
:1069A000CBFD5146FDF7A9FB00963B46D9F80020E8
:1069B00021780120FDF7D4FB00963B46D8F8002053
:1069C00021780220FDF7CCFB00963B46D9F8002049
:1069D00021780320FDF7C4FB00963B46D8F8002041
:1069E00021780420FDF7BCFB00963B46D9F8002037
:1069F00021780520FDF7B4FB00963B46D8F800202F
:106A0000217806206437FDF7ABFBB7F5967FC6D13A
:106A100000237B4F237002F08FFD7A49FDF76DFB59
:106A200000963A682178FF230120FDF799FB009634
:106A30003A682178FF230220FDF792FB00963A681E
:106A40002178FF230320FDF78BFB00963A6821781D
:106A5000FF230420FDF784FB00963A682178FF238A
:106A60000520FDF77DFB00963A682178FF2306207C
:106A7000FDF776FB42F2107001F024FD2B68132B1A
:106A800040F0F88002F058FD03225949594CDFF8D4
:106A90007CA1DFF87C81FDF730FB0320FDF7E8FCEB
:106AA00042F2107001F00EFD5348022100F0A9FEE1
:106AB00000221146504800F09FFE0126402300228C
:106AC000CDE90136802311464B4800934E4B00F030
:106AD0008FFD494801F0FAF840F6B83001F0F2FCB9
:106AE000454801F07BF8FF272670FF2602F024FDC1
:106AF0005146FDF702FB0096DFF81C91D8F8002004
:106B000021783B460120FDF72BFB00963B46D9F848
:106B1000002021780220FDF723FB00963B46D8F8A1
:106B2000002021780320FDF71BFB00963B46D9F897
:106B3000002021780420FDF713FB00963B46D8F88F
:106B4000002021780520FDF70BFB00963B46D9F885
:106B5000002021780620643FFDF702FB17F12D0F7E
:106B6000C3D1DFF8A8A0002702F0E6FC5146FDF7EC
:106B7000C4FA00963B46D9F8002021780120FDF7A1
:106B8000EFFA00963B46D8F8002021780220FDF766
:106B9000E7FA00963B46D9F8002021780320FDF75C
:106BA000DFFA00963B46D8F8002021780420FDF754
:106BB000D7FA00963B46D9F8002021780520FDF74A
:106BC000CFFA00963B46D8F800202178062064379B
:106BD000FDF7C6FAB7F5967FC6D10023084F23709C
:106BE00002F0AAFC0749FDF788FA00963A6815E01A
:106BF0002BBD0B004CE6032058E603203CC20B00E3
:106C00008CE5032044BD0B002CFF0B0015BD0B00D1
:106C1000A8E00320A4E00320B4E003202178FF23B0
:106C20000120FDF79DFA00963A682178FF230220A3
:106C3000FDF796FA00963A682178FF230320FDF7C6
:106C40008FFA00963A682178FF230420FDF788FA2E
:106C500000963A682178FF230520FDF781FA009617
:106C60003A682178FF230620FDF77AFA42F2107085
:106C700001F028FC2B68142B40F0DE807048714E28
:106C8000DFF8ECB1DFF8ECA1022100F0BAFD002240
:106C900011466B4800F0B0FD012440230022CDE9ED
:106CA00001348023114666480093674B00F0A0FC36
:106CB000634801F00BF840F6B83001F003FC60487F
:106CC00000F08CFF02F038FC60492246FDF715FA0F
:106CD0002046FDF76BFB4FF00308347002F02CFCEC
:106CE0005946FDF70AFA072001F09AFE8146FF2473
:106CF000574F02F021FC4A465146FDF7FEF9009439
:106D000057F82920317823460120FDF729FA07207A
:106D100001F086FE814602F00FFC4A464D49FDF720
:106D2000ECF9009457F82920317823460220FDF72A
:106D300017FA072001F074FE814602F0FDFB4A4677
:106D40004549FDF7DAF9009457F8292031782346B0
:106D50000320FDF705FA072001F062FE814602F0EC
:106D6000EBFB4A463D49FDF7C8F9009457F8292046
:106D7000317823460420FDF7F3F9072001F050FE97
:106D8000814602F0D9FB4A463549FDF7B6F9009431
:106D900057F82920317823460520FDF7E1F907202F
:106DA00001F03EFE814602F0C7FB2E494A46FDF740
:106DB000A4F9009457F82920317823460620FDF7DE
:106DC000CFF9B8F1010889D1274F86F8008002F089
:106DD000B3FB2649FDF791F900943A6831782346D0
:106DE0000120FDF7BDF900943A683178234602206E
:106DF000FDF7B6F900943A68317823460320FDF791
:106E0000AFF900943A68317823460420FDF7A8F9D9
:106E100000943A68317823460520FDF7A1F90094E3
:106E200023463A6831780620FDF79AF942F210704D
:106E300001F048FB01232B6005B0BDE8F08F00BFD7
:106E400058E603204CE6032038030C005ABD0B0023
:106E500070E5032082BD0B0092BD0B00A2BD0B00AC
:106E6000B2BD0B00C2BD0B008CE5032044BD0B007E
:106E700015BD0B0072BD0B0008B51B491B4801F086
:106E800016FF1B4A1B4B12681A601B4A1B481268EC
:106E90005A601B4A12689A601A4A1268DA601A4AE3
:106EA00012681A61194A12685A61194A12689A617D
:106EB00002F070FA174802F06DFA0421164800F04B
:106EC00077FE022308221548012100F06FF8144BC9
:106ED0000022C3E90022A2F580329A60BDE8084092
:106EE000022001F023BA00BF84BB0B003CE6032064
:106EF0008CE5032070E50320B0E0032054E5032077
:106F0000B8E00320A8E00320A4E00320ACE00320C5
:106F1000B4E003209CE5032058E6032080E603202C
:106F200090E5032038B50446C0680D4608B101F06D
:106F300099FAA379062B0CBF0420032010FB05F05F
:106F400080B2A08001F086FAE06028B1A28800211A
:106F500004F0B4FB658038BDA0806080FBE710B50D
:106F600004460121C07902F071FCE079002102F0B1
:106F70007EFC0123237010BD37B5037805460C460F
:106F80001BB1C079002102F061FC2B78EC715BB180
:106F9000A0B20121019002F059FC0198002103B038
:106FA000BDE8304002F063BC03B030BD70B50025D1
:106FB000044616468371C0E9035505700572FFF754
:106FC000B1FF20463146FFF7D7FF204670BD0000D5
:106FD000C368002B00F0A4812DE9F04F8379023BB8
:106FE000DBB2042B9CBFBF4A52F8234085B0054654
:106FF00088BF322400F0CAFF2B69C01AA042F9D31F
:10700000B94CAE88D4F800351BB9D4F86035002BE4
:107010007EDBB64CD4F8003523B9D4F86035002BAC
:10702000C0F26E81B24CD4F80035002B00F04481E0
:10703000EB79B04AB04C1268190102EB0313575CAC
:10704000AE495B78D1F8FC2042F08072C1F8FC2098
:10705000226803F01F0343EA471301273A432260E3
:10706000A988D5F80C80D4F804909F40002944D01A
:107070004FF0000E72464FF0A04118F801CB0820E7
:10708000802663689B1A462BFBD96268D1F80835C5
:107090001CEA060F43EA0703C1F808352FD06368DE
:1070A0009B1A282BFBD9D1F80C35013843EA07038A
:1070B0004FEA5606C1F80C35E3D1AB880EF1010E4C
:1070C0001FFA8EFE7345D8D84FF4307103FB01F1DF
:1070D00063689B1A462BFBD96368A3EB09098945B2
:1070E000C0F0E4804FF4967000F048FFA988D5F80E
:1070F0000C80D4F804900029BAD10A46E8E7636806
:107100009B1A112BCFD863689B1A112BF7D9CAE7AA
:10711000D4F86435002BBFF67CAFD4F86835002B6B
:10712000BFF677AFD4F86C35002BBFF672AF3601DF
:10713000331D1846009301F08DF900283FF478AF15
:10714000AB88002B00F0ED80EA68013B12FA83F770
:1071500002F1FF3E002348F2060248F20D011EF83C
:1071600001CF1CF0800F0CBF93468B461CF0400FE4
:107170000CBF16460E461CF0200F0CBF90468846EA
:1071800003F10109CDF80880019603F102081FFA06
:1071900089F9019E20F813B01FFA88F820F81960C9
:1071A000029E20F8186003F103081CF0100F1FFA6C
:1071B00088F80CBF93468B4620F818B003F10408FA
:1071C0001CF0080F1FFA88F80CBF93468B4620F876
:1071D00018B003F105081CF0040F1FFA88F80CBF63
:1071E00093468B4620F818B003F1080A03F106080D
:1071F00007339BB21CF0020F1FFA88F80CBF9346AE
:107200008B46CDF80CA01CF0010F20F818B015BF6C
:1072100020F8131020F813201FFA8AF3BDF80C3061
:1072200077459CD1591C023389B29BB249005B005F
:107230004FF400474752009AC7522E4B56081F681A
:1072400000221423C4F80425C4F80C25C4F808351A
:10725000C4F81425C4F81025C4F82005C4F8246522
:10726000C4F82825C4F82C25EB7907EB031C1B0177
:107270000121FE5C9CF8013003F01F0343EA461332
:10728000C4F86035C4F80015C4F81021A160D4F822
:107290001031002BFBD000234FF0FF32C4F8103127
:1072A000C4F80035C4F8602501F0DCF800F06EFE8B
:1072B000286105B0BDE8F08FD4F86035002BBFF62B
:1072C000B7AED4F86435002BBFF6B2AED4F868354B
:1072D000002BBFF6ADAED4F86C35002BBFF6A8AED0
:1072E00025E700BF380F0C0000C00140001002402D
:1072F00000200240B4E60320001000E000ED00E0B2
:10730000D4F86435002BBFF68DAED4F86835002B69
:10731000BFF688AED4F86C35002BBFF683AE06E717
:1073200070470423022183E743888B42F0B52DD9AF
:10733000067AC2F30743C2F30724D5B23EB17343C2
:1073400074437543C3F30723C4F307242D0A90F84D
:1073500006C0C768BCF1060F0CBF042603264E43C7
:10736000ACF1020CB919BCF1060F1DD8DFE80CF026
:10737000041C08040F040400BC554B708D7005E01C
:10738000FE2B28BFFE23BB554D708C70F0BDBB5546
:107390004C708D70037A120E13B9D2B2CA70F5E731
:1073A0005A43C2F30722F9E7BB554C70E6E7037A6C
:1073B0004A1CD2B2934270B51FD0013B13F0FF03B9
:1073C000C4680CD0FF291FBF110201F1FF31B1FBCE
:1073D000F3F39BB204BF4FF6FF71B1FBF3F3254605
:1073E0008688291B89B28E4206D929785943C1F370
:1073F000072105F8011BF3E7027270BD8288C0689F
:10740000002104F05BB9000008B500F0D7FD014B86
:10741000186008BDB4E603202DE9F04F85B01F4683
:10742000BDF93880BDF83C30A8EB0209A7EB010A92
:10743000B9F1000FB8BFC9F10009BAF1000FB8BF28
:10744000CAF1000AD14583460C46154604DD3A468A
:107450002C4647460D469046BC4205DD2A46454629
:10746000904622463C4617463E1BB2B20092A8EB1D
:10747000050282EAE271A1EBE271C6F3C03202FAC0
:1074800086F64545B4BF01224FF0FF3201917610D8
:107490000292BC421CDCDBF800200393D145D2F8F9
:1074A0001080C7BF294622462A4621465846C04773
:1074B000019A039BB61AB1B236B2002E05DA029ACF
:1074C0001544009A56182DB236B2013424B2E0E7C2
:1074D00005B0BDE8F08F2DE9F347BDF82C800768B3
:1074E000BDF92890CDF800800446FF6916468A460B
:1074F0001D46B8472368CDF8008009F1FF323244B9
:10750000DF6951462B46204612B2B8472368CDF8B2
:1075100000809F6932464B4651462046B8476B1E55
:1075200003EB0A012368CDF828809D6932464B465B
:1075300009B22046AC4602B0BDE8F047604737B517
:10754000013B13440468BDF8185001951BB2009329
:1075500064690B46A04703B030BD37B5BDF818507D
:107560000468CDE90025013B0B4464691BB2A047C8
:1075700003B030BD2DE9F347BDF92890BDF82C804C
:10758000054692460C46CE18B4420BDA2B68CDF86D
:1075900000809F6921464B46524628460134B84731
:1075A00024B2F1E702B0BDE8F08713B5026801919B
:1075B000B0F90E100091546AB0F90C300022114657
:1075C000A04702B010BD704730B54281C2814FF074
:1075D000FF320024054D42610122446005600181B3
:1075E000818104610283827630BD00BF50140C009B
:1075F0002DE9F04F89B0CDE90323BDF94870BDF9FD
:107600004C300593FA1DCDE9010148BF07F10E0288
:107610000024BDF850304FEAE20B25464FF08009B8
:1076200005992AB291422ADD049A02EB040A039AD0
:107630002A444FF0000812B20FFA88F087421FFA6E
:1076400088F119DDC0101AF800C001F0070049FAEE
:1076500000F01CEA000F0CD0029801440198006869
:107660000069CDE90623064609B20198B047DDE975
:10767000062308F10108DFE701355C44D0E709B0D3
:10768000BDE8F08F2DE9F04F2DED028B8DB0074650
:107690000491BDF860100591BDF864100691B0F931
:1076A0000C1004989DF86850814252DDB7F90E1015
:1076B00091424EDD062111FB0504002C49DD02EB51
:1076C000C504002C45DD03EB83030B9393B20793B2
:1076D00008339BB2089100240993052C1CBF2C4B46
:1076E0000B9A079E16BF1B1900239B5C0393049AF9
:1076F000ABB20A9304FB05F313FA82F31BB204EB5B
:10770000020A08EE103AB0460FFA85F90FFA8AFA23
:10771000039BDB072FD5012D3B681FD1D3F810B099
:10772000059B32B251463846D847039B5B0803930A
:107730000A9B01369844099BB6B2B3421FFA88F8F7
:10774000E6D1089B013B013413F0FF0364B20893B8
:10775000C3D10DB0BDEC028BBDE8F08F059ACDE929
:10776000009218EE101AD3F824B00FFA88F24B46A4
:107770003846D847D9E7DDE905239342D5D0012D16
:107780003B6803D1D3F810B0069BCAE7069AE6E738
:107790004C0F0C0030B50A2985B0044607D1027E93
:1077A000638A03EBC20363820023238221E00D2955
:1077B0001FD0037E0293C38A0193838A0093B0F99A
:1077C00012200B46B0F91010FFF75CFF207E238AD1
:1077D00000EB400103EB4103A17E1BB20246238272
:1077E00039B1B4F90C106FF0050505FB00118B429F
:1077F000D6DC012005B030BD018242827047407E58
:10780000704701F00303B0F90A204376C907B0F9C5
:10781000083059BF8381C2818281C3817047B0F92A
:107820000C007047B0F90E0070470000F0B5457EBF
:10783000BDF81440022D69D0032D00F09980012D70
:107840006CD10589D2432A4412B2002A5DDBB0F91B
:107850000850954259DD0029BEBF5B181BB20021BC
:10786000B0F90A00CD188542C4BF431A1BB2002BE1
:107870004BDDC1F3C400DFF820C102EBC01211F0F0
:107880000701DBB20CEB02001AD0C1F10805404E33
:10789000EDB2AB42775D3FBFA5EB030EFF2646FA84
:1078A0000EF637401CF80260012C0CBF3E43BE436D
:1078B000AB420CF8026028D308390B44DBB28030AD
:1078C000072B19D9012C4FF0FF3518BF0025EDB259
:1078D00000F180011A46083AD2B2072A01F8805C0A
:1078E00001F18001F7D8A3F10802C2F3C40201320A
:1078F00000EBC21003F007033BB1264AD25C0378C9
:10790000012C0CBF134393430370F0BD4589D24350
:107910002A44CD180189491B12B209B2002AF4DBAE
:10792000B0F90A509542F0DD0029BEBF5B181BB2CA
:107930000021B0F90870CE18BE42C4BF6B1A1BB24A
:10794000002BE2DDD010802510FB05111248014408
:1079500002F0070001228240012CD2B20B440CD16C
:107960008B42D2D011F8010B104301F8010CF7E75C
:10797000CD184189491B09B267E7D243D2B28B4285
:10798000C3D011F8010B104001F8010CF7E700BF5C
:10799000DCE00320D4E00320E4E00320F0B5457EE2
:1079A000BDF81440022D34D0032D00F09B80012D32
:1079B00037D1D5180289521B12B20029C0F291802A
:1079C000B0F90A508D4240F38C80002ABEBF9B184C
:1079D0001BB20022B0F90870D618BE42C4BFAB1A61
:1079E0001BB2002B7DDDC810802510FB0522454809
:1079F000024401F0070001218140012CC9B2134467
:107A000075D19A426DD012F8010B084302F8010CAF
:107A1000F7E70589C9432944D5184289521B09B2A1
:107A200012B200295DDBB0F908508D4259DD002A01
:107A3000BEBF9B181BB20022B0F90A00D5188542C0
:107A4000C4BF831A1BB2002B4BDDC2F3C400DFF8A6
:107A5000B4C001EBC01112F00702DBB20CEB010065
:107A60001AD0C2F10805284EEDB2AB42775D3FBF98
:107A7000A5EB030EFF2646FA0EF637401CF8016010
:107A8000012C0CBF3E43BE43AB420CF8016028D32F
:107A9000083A1344DBB28030072B19D9012C4FF080
:107AA000FF3518BF0025EDB200F180011A46083AF3
:107AB000D2B2072A01F8805C01F18001F7D8A3F166
:107AC0000802C2F3C402013200EBC21003F0070344
:107AD0003BB10E4AD25C0378012C0CBF1343934395
:107AE0000370F0BD4589C943294409B265E7C9431C
:107AF000C9B29A42F5D012F8010B084002F8010C05
:107B0000F7E700BFE4E00320DCE00320D4E003203B
:107B100070470000F8B50D1E064614461F462DDBC3
:107B2000FFF77DFEA84229DD002C27DB3046FFF75A
:107B300079FEA04222DD3046FFF761FE02281ED00A
:107B4000032825D0012804D13389E2431A442C4666
:107B500015B2002C2246B8BFE21DD210802112FBC4
:107B600001550E49012204F007044B5702FA04F4B0
:107B700064B297420CBF2343A3434B55F8BD3189F0
:107B800072890139E4434D1B14442DB224B2E0E75D
:107B90007389013B5B1B25461CB2DAE7E4E0032056
:107BA00010B524210446FCF77AFA204610BD0000E7
:107BB00038B5402204460D468021FFF705FD064BEF
:107BC0002360FF2384F8213063774FF6FF73E3834C
:107BD00084F82050204638BD88140C0002484FF429
:107BE0008062002103F06ABDE4E0032013B50B4C72
:107BF0002178BFF35B8F11F001010BD12046019179
:107C0000FCF75CFA019928B1054800F021FF2046F5
:107C1000FCF759FA024802B010BD00BFB8E60320D5
:107C2000BCE6032007B590F8223043B10191FFF77D
:107C3000DDFF019903B05DF804EB00F0BDBF0B461A
:107C4000817F407F012203B05DF804EB01F028BE84
:107C500038B590F91D30013304460D461DD090F91A
:107C60002100012180B201F002FE94F91F000021E1
:107C700080B201F0FCFD94F92100002180B201F0F6
:107C8000F6FD29462046FFF7CDFF94F9210001219A
:107C9000BDE8384080B201F0EABD01F03FFE94F942
:107CA0001B1000F0D6FC01F039FE036800219B6830
:107CB000984701F033FE036829469B68984701F016
:107CC0002DFEBDE8384000F0CBBC0000F8B5212106
:107CD0000446FFF7BDFF00212046FFF7B9FF7F21D3
:107CE0002046FFF7B5FF22212046FFF7B1FF002114
:107CF0002046FFF7ADFF07212046FFF7A9FF94F9C3
:107D00001D30294F01332AD094F92100012180B27E
:107D100001F0ADFD94F91F00012180B201F0A7FD33
:107D200094F92100002180B201F0A1FD012000F0B2
:107D300025F94FF48065013D17F8011B2046ADB2CF
:107D4000FFF770FF002DF6D1012000F017F994F92C
:107D500021000121BDE8F84080B201F088BD002576
:107D600001F0DCFD94F91B1000F073FC01F0D6FD6E
:107D7000036840219B68984705F11006B6B201F0F0
:107D8000CDFD0368795D9B6898476B1C9DB2AE4240
:107D9000F5D101F0C3FD00F063FCB6F5806F00D1B2
:107DA000F8BD3546DCE700BFE4E0032038B590F9C4
:107DB0001D300177013304460D46C27600F0C980BC
:107DC00090F91F00012180B201F040FD94F92100DB
:107DD000012180B201F03AFD94F82230002B00F02E
:107DE000A68094F92100012180B201F040FDFFF747
:107DF000FDFE012100F04AFEFFF7F8FE102100F021
:107E0000B5FEFFF7F3FE002100F054FEFFF7EEFE93
:107E100000F028FE94F92000012180B201F016FD47
:107E200094F92000012180B201F021FD012000F031
:107E300049FB94F92000002180B201F018FD0A20CE
:107E400000F040FB94F92000012180B201F00FFD09
:107E50002046AE21FFF7FCFE2046D521FFF7F8FEB5
:107E600020468021FFF7F4FE2046A821FFF7F0FE10
:107E700020463F21FFF7ECFE2046D321FFF7E8FE26
:107E800020460021FFF7E4FE20464021FFF7E0FEF8
:107E90008D212046FFF7DCFE012D0CBF102114219F
:107EA0002046FFF7D5FE20462021FFF7D1FE2046D1
:107EB0000021FFF7CDFE2046A121FFF7C9FE204695
:107EC000C821FFF7C5FE2046DA21FFF7C1FE204694
:107ED0001221FFF7BDFE81212046FFF7B9FE012DDB
:107EE0000CBF9F21CF212046FFF7B2FED9212046AB
:107EF000FFF7AEFE012D0CBF2221F1212046FFF736
:107F0000A7FE2046DB21FFF7A3FE20464021FFF716
:107F10009FFE2046A421FFF79BFE2046A621FFF7E7
:107F200097FE2046AF21BDE83840FFF791BE94F997
:107F30001D00012180B201F089FC94F91E0001218D
:107F400080B201F083FC94F82230002B3FF462AF42
:107F500047E701F0E3FC00F049FB5BE708B5024BA3
:107F60001B685B6C019308BD4802030008B5024B17
:107F70001B685B68019308BD1802030008B5024B3B
:107F80001B68DB68019308BD1802030008B5024BAB
:107F90001B681B69019308BD1802030008B5024B5A
:107FA0001B685B69019308BD1802030008B5024B0A
:107FB0001B68DB6D019308BD1802030008B5024B76
:107FC0001B681B68019308BD2C02030008B5024B17
:107FD0001B689B68019308BD2C02030008B5024B87
:107FE0001B68DB68019308BD2C02030008B5024B37
:107FF0001B681B69019308BD2C02030008B5024BE6
:108000001B68DB68019308BD2802030008B5024B1A
:108010001B689B69019308BD2802030008B5024B49
:108020001B68DB69019308BD2802030008B5024BF9
:108030001B681B6A019308BD2802030008B5024BA8
:108040001B685B6A019308BD2802030008B5024B58
:108050001B689B6A019308BD2802030008B5024B08
:108060001B68DB6A019308BD2802030008B5024BB8
:108070001B681B6B019308BD2802030008B5024B67
:108080001B685B6B019308BD2802030008B5024B17
:108090001B681B6C019308BD2802030008B5024B46
:1080A0001B681B6D019308BD2802030008B5024B35
:1080B0001B685B69019308BD6C02030008B5024BA5
:1080C0001B685B69019308BD6402030008B5024B9D
:1080D0001B681B6A019308BD6402030008B5024BCC
:1080E0001B689B6A019308BD6402030008B5024B3C
:1080F0001B689B68019308BD6802030008B5024B2A
:108100001B68DB68019308BD6802030008B5024BD9
:108110001B689B69019308BD3802030008B5024B38
:108120001B68DB69019308BD3802030008B5024BE8
:108130001B681B6A019308BD3802030008B5024B97
:108140001B689B6A019308BD3802030008B5024B07
:108150001B681B6B019308BD3802030008B5024B76
:108160001B689B6B019308BD3802030008B5024BE6
:108170001B681B68019308BD3002030008B5024B61
:108180001B689B68019308BD3002030008B5024BD1
:108190001B68DB68019308BD3002030008B5024B81
:1081A0001B681B69019308BD3002030008B5024B30
:1081B0001B685B69019308BD3002030008B5024BE0
:1081C0001B68DB69019308BD3002030008B5024B50
:1081D0001B681B6A019308BD3002030008B5024BFF
:1081E0001B685B6A019308BD3002030008B5024BAF
:1081F0001B681B6C019308BD3002030008B5024BDD
:108200001B685B6C019308BD3002030008B5024B8C
:108210001B68DB68019308BD3C02030008B5024BF4
:108220001B681B69019308BD3C02030008B5024BA3
:108230001B685B69019308BD3C02030008B5024B53
:108240001B689B69019308BD3C02030008B5024B03
:108250001B68DB69019308BD3C02030008B5024BB3
:108260001B681B6A019308BD3C02030008B5024B62
:108270001B689B6A019308BD3C02030008B5024BD2
:108280001B681B6C019308BD3C02030008B5024B40
:108290001B681B68019308BD4C02030008B5024B24
:1082A0001B685B68019308BD4C02030008B5024BD4
:1082B0001B681B69019308BD4C02030008B5024B03
:1082C0001B685B69019308BD4C02030008B5024BB3
:1082D0001B689B69019308BD4C02030008B5024B63
:1082E0001B68DB69019308BD4C02030008B5024B13
:1082F0001B681B6A019308BD4C02030008B5024BC2
:108300001B689B6A019308BD4C02030008B5024B31
:108310001B685B6B019308BD6002030008B5024B4C
:108320001B681B6D019308BD6002030008B5024B7A
:108330001B685B68019308BD2002030008B5024B6F
:108340001B685B69019308BD2002030008B5034B5D
:108350001B68D3F88830019308BD00002002030099
:1083600008B5034B1B68D3F89430019308BD000097
:108370002002030008B5024B1B689B68019308BDEF
:108380004402030008B5024B1B68DB6B019308BD78
:108390004402030008B5024B1B685B68019308BDEB
:1083A0004002030008B5024B1B689B68019308BD9F
:1083B0004002030008B5024B1B68DB68019308BD4F
:1083C0004002030008B5024B1B681B69019308BDFE
:1083D0004002030008B5024B1B685B69019308BDAE
:1083E0004002030008B5024B1B689B69019308BD5E
:1083F0004002030008B5024B1B68DB69019308BD0E
:108400004002030008B5024B1B681B6A019308BDBC
:108410004002030008B5024B1B681B6B019308BDAB
:108420004002030008B5024B1B685B6B019308BD5B
:108430004002030008B5024B1B681B6C019308BD8A
:108440004002030008B5024B1B685B6C019308BD3A
:108450004002030008B5024B1B681B68019308BD6E
:108460001C02030008B5024B1B685B68019308BD42
:108470001C02030008B5024B1B689B68019308BDF2
:108480001C02030008B5024B1B685B6A019308BD20
:108490001C02030008B5024B1B68DB6B019308BD8F
:1084A0001C02030008B5024B1B681B6C019308BD3E
:1084B0001C02030008B5024B1B685B6C019308BDEE
:1084C0001C0203000021FFF739BF0000024800230F
:1084D0000360FFF743BD00BFC4E6032000224068ED
:1084E0001146FFF78FBF002240681146FFF79ABF81
:1084F00040680022FFF78EBF4068002281F0010132
:10850000FFF778BF002340681A461946FFF76ABF95
:10851000002340681A461946FFF75CBF00224068F6
:108520001146FFF74FBF002240681146FFF73ABFE0
:10853000406800220221FFF73DBF002340681A4631
:10854000FFF728BF024B03225A60024A1A607047A5
:10855000C8E60320C8140C007047F8B50646154657
:108560000C468F18BC4206D0336814F8011B9B6878
:1085700030469847F6E72846F8BD007C0022FFF712
:1085800055BD007C0021FFF759BD007C0021FFF79D
:108590005DBD007C0021FFF761BD007C0021FFF77D
:1085A00065BD10B514210446FBF779FD204610BDCA
:1085B00038B5044615464FF47A730022C4E9012306
:1085C000094B2174084623602946FFF75FFDBF3041
:1085D00008D16B69DB0705D56868FFF743FFE868DA
:1085E000FFF740FF204638BD04150C000023007C37
:1085F0001A461946FFF702BD7FB500221423CDE9C4
:108600000122ADF804300B788DF808304B680393E5
:10861000CB680493007C0B7A059301A9FFF73EFD1C
:1086200007B05DF804FB1FB5003B8DF800104FF05C
:108630006401039118BF0123694601928DF8083047
:10864000FFF7DAFF05B05DF804FB007C0022FFF7BE
:10865000DDBCC9B2FFF7F9BF007C0022FFF7DEBC2A
:108660000121FFF7F9BF704710B518210446FBF749
:1086700016FD204610BDF0B5037D062B8DB00E46CD
:1086800000F104074FF0000412D000F1080515F8BE
:10869000011D0A22304600F074F9AF42044419D09B
:1086A000002CF4D02E21304600F052F90444EEE7BD
:1086B0002F236A4639460A208DF80040FFF7FEFC5A
:1086C000684603F081F833680246DB686946304645
:1086D0009847044620460DB0F0BD000010B5054B8C
:1086E0000446112240F8043B002102F0E7FF204637
:1086F00010BD00BF2C150C000346074A10B543F807
:10870000042B01F1100251F8044B43F8044B914241
:10871000F9D10A781A7010BD2C150C00037D042BBA
:1087200004D14068003818BF01207047062B07D1DC
:1087300043683BB983682BB9C3681BB90069F1E78B
:10874000002070470120704710B59DF8084044EAAA
:10875000032343EA024242EA0161042341600375B4
:1087600010BD000007B5064B0360CB7800938B78F3
:108770004A780978FFF7E8FF03B05DF804FB00BF13
:108780002C150C00014B024A1A607047D0E60320FA
:1087900038150C00002340681A46FFF7FBBD4068FF
:1087A00000220221FFF706BE002240681146FFF7B3
:1087B000F9BD002240681146FFF704BE002340685F
:1087C0001A461946FFF706BE002340681A461946A6
:1087D000FFF708BE40680021FFF72CBE406800216B
:1087E000FFF730BE4068002281F00101FFF702BEB2
:1087F00040680022FFF70EBE002240681146FFF7D6
:1088000011BE002240681146FFF7FCBD2DE9F04380
:1088100095B014460D460746FFF760FF00211C2265
:108820000DA8009102F04AFF40230C9320466B46AE
:108830000CAA0021FFF762FC044600284BD1024637
:1088400001216868FFF7BEFD022180462246686864
:10885000FFF7B8FD009E81462146002E3BD000293F
:1088600039D17368022B03D00A2B11D0F669F4E7D3
:10887000B8F1000FFAD0716906A8043107ADFFF70F
:1088800071FF0FCD3C1D0FC42B6823704146EDE7EF
:10889000B9F1000FEAD07469102201A802F00EFFAE
:1088A00006238DF8143001AD04F10803183418685C
:1088B00059682A4603C20833A3421546F7D101A9D5
:1088C00006A807ADFFF718FF0FCD3C1D0FC42B689E
:1088D00023704946CAE70098FFF708FC384615B0F0
:1088E000BDE8F083024B034A1A6000225A607047C9
:1088F000D4E6032044150C00F8B506460D468F1843
:108900000024BD420CD0336815F8011B9B6830462B
:108910009847031E01DB1C44F3E7002C08BF1C46EC
:108920002046F8BD13B50446084659B1019102F03E
:108930004BFF23680199DB680246204602B0BDE880
:108940001040184702B010BD08B5FFF7EBFF08BD97
:1089500003689B68184738B50D210546FFF7F8FFF7
:108960000A2104462846FFF7F3FF204438BD38B5F6
:108970000546FFF7D7FF04462846FFF7ECFF2044E3
:1089800038BD30B58BB00023012A8DF8243098BF54
:108990000A2209AC0D46B1FBF2F101FB125303F0C0
:1089A000FF03092B94BF30333733DBB2AA4204F8FC
:1089B000013DEFD92146FFF7B5FF0BB030BD2DE9E2
:1089C000F04186B000AF05460E46381D142114460E
:1089D0003B60FFF757FD13280ED8391D2846FFF7D7
:1089E000A1FF04461EB12846FFF7B5FF0444204608
:1089F0001837BD46BDE8F08100F1080323F00703F6
:108A0000E846ADEB030D2246411C3B686846FFF784
:108A100039FD69462846FFF785FF0446C546E1E76C
:108A200010B5044628B102F07FFE90FBF4F303FB7F
:108A30001404204610BD0000014B00229A607047CC
:108A4000DCE603200021FFF7D9BB0021FFF7CEBBF6
:108A500010B5044608462170FFF7B0FB00236360A1
:108A6000204610BD13B504460078FFF7EEFF58B955
:108A7000207801904FF6FF71FFF778FB019802B064
:108A8000BDE81040FFF7DEBF02B010BD13B50446CD
:108A900000780191FFF7D9FF019948B9207801903A
:108AA000FFF76CFB019802B0BDE81040FFF7CABFAA
:108AB00002B010BD13B5044600780191FFF7C5FF61
:108AC000019948B920780190FFF760FB019802B046
:108AD000BDE81040FFF7B6BF02B010BD400830B58A
:108AE0001860002418688842E5B206D90134082CC1
:108AF00002D040081860F5E70725024B5B5D137054
:108B000030BD00BF78150C002DE9F04188B000237E
:108B10000446007802930E461746FFF796FF054677
:108B200000BB94F800800146142203A802F0C6FDA1
:108B30000B232A4603A94046ADF80C30FFF74EFB45
:108B400004988DF8075002AB0DF1070207FB06F100
:108B5000FFF7C4FF20789DF80710FFF71FFB207870
:108B6000FFF770FF029808B0BDE8F08138B5044601
:108B700000780D46FFF769FF0346D0B9616899B1E7
:108B80000C4A12F8010B854202D00133082BF8D1B0
:108B90000133DBB20122D9402046FFF7B5FF207830
:108BA000BDE83840FFF74EBF20782946FFF7F6FAB8
:108BB000F5E738BD78150C0008B50078FFF7F6FA30
:108BC000C0B208BD10B50446FFF7E8F9E0602368BD
:108BD00020465B699847002808DAFFF7DFF9E36869
:108BE000C01AA3689842F2D34FF0FF3010BD0000C6
:108BF00038B50D460749044600F059F82846FFF7F6
:108C0000E1FF002804DBC1B2204600F0CBF8F5E715
:108C1000204638BD84BB0B0010B504460068FFF742
:108C200021FC204610BD10B50446006808B1FFF7CE
:108C300019FC0023C4E90133236010BD38B5044694
:108C40000D4600680131FFF715FC10B1C4E90005BD
:108C5000012038BD10B50368044623B143688B4238
:108C600001D3012010BD2046FFF7E8FF0028F9D00E
:108C7000A368002BF5D122681370F2E737B50D46D3
:108C8000114601920446FFF7E5FF019A28B92046F4
:108C9000FFF7C9FF204603B030BDA2602946206817
:108CA00002F0FEFC2268A3680021D154F2E7002301
:108CB00013B5C0E9003304468360037341B108462D
:108CC000019102F081FD019902462046FFF7D6FF8F
:108CD000204602B010BD884210B5044605D00B688E
:108CE0002BB18A681946FFF7C9FF204610BDFFF770
:108CF0009AFFFAE710B500230446C0E90033836009
:108D00000373FFF7E8FF204610BD13B5044659B1C1
:108D10000846019102F058FD019902462046FFF7EE
:108D2000ADFF204602B010BDFFF77DFFF9E710B59B
:108D300004468AB00023C4E90033A36023730846C5
:108D400001A900F093FC01A92046FFF7DEFF2046B1
:108D50000AB010BD70B505460E4609B9002070BDB9
:108D60006AB1846814442146FFF774FF0028F5D0E7
:108D70002868AB683146184402F01EFDAC60012043
:108D8000EDE713B50446084651B1019102F01CFD10
:108D900001990246204602B0BDE81040FFF7DABF55
:108DA00002B010BD07B500238DF80410012201A9FF
:108DB0008DF80530FFF7CEFF03B05DF804FB10B56A
:108DC0008A6809680446FFF7C5FF10B92046FFF717
:108DD0002AFF204610BD13B5044629B92046FFF7E7
:108DE00022FF204602B010BD0846019102F0ECFCC3
:108DF000019902462046FFF7ADFF0028EED0F0E7CC
:108E0000054B02221A60054B054A9A600020C3E90F
:108E10000000FFF78BBA00BFF8E60320ECE6032062
:108E20000000FFFF13B503688DF80710DC6B01220B
:108E30004FF0FF330DF10701A04702B010BD10B491
:108E40000368DC6B4FF0FF33A4465DF8044B6047CA
:108E500013B5134602688DF80710D46B0DF10701A6
:108E60000122A04702B010BD10B54369B3F88620B7
:108E7000B3F884309A42044608D06369B3F884207A
:108E8000511CA3F884101344187910BD03681B69A2
:108E900098470028F1D14FF0FF30F6E7704743695B
:108EA0001868C043C00F704770470000064B9942D6
:108EB00010B500F10C0405D0084600F095FD00281F
:108EC00008BF0024204610BDB8140C0010B5AC211A
:108ED0000446FBF7E4F8204610BDAC21FBF7DFB8F1
:108EE0002DE9F0414FF0000886B01C46C0F8048020
:108EF00005460E4617464146102202A802F0DEFB48
:108F0000631C09D04FF47A73B4FBF3F203FB1244F1
:108F1000CDE902285C43049468691023009300683B
:108F200002AB41F2050240F6FF71FFF7EFF80028AF
:108F300007DAFFF7AFFA03686B60002006B0BDE800
:108F4000F0816869002300683A463146FFF7FEF871
:108F5000031EEEDB1846F1E730B587B0044601ADDD
:108F60006846FFF7FFFB0FCD04340FC42B68237056
:108F700007B030BD70B54D69054B04468C3544F8DB
:108F8000043B06460FCD0FC42B682370304670BDDE
:108F90002C150C002DE9F0439846036893B00D465C
:108FA0000024DB6A06461746984728466B46224649
:108FB00021460094FFF7A2F80546002863D1009BE4
:108FC000002B4BD05B69002B48D006A8FFF786FB2F
:108FD000009B5C696378022B04D1211D06A8FFF772
:108FE000BBFF26E00A2B24D11122294601A802F05A
:108FF00065FBA368002B38D004F108030DF1040CC5
:10900000183418685968624603C20833A34294466C
:10901000F7D1062301A90CA88DF81430FFF76CFBDB
:109020000DF1340CBCE80F0007AC0FC4DCF80030C5
:10903000237006A8FFF772FB80B1336807ADD3F841
:109040002090124B0C930FCD0DAC0FC42B682370E6
:109050003A4643460CA93046C84705460098FFF7F4
:1090600045F8284613B0BDE8F083E368002BC3D170
:109070004FF6FF70D4F81090FFF728F88145BBD168
:1090800004F11401AAE72546E8E700BF2C150C00FF
:1090900038B543691A68002A054610DAB3F8862005
:1090A000B3F884309A420AD103681B699847044692
:1090B00028B92B682846DB6A9847204638BD01202E
:1090C000FCE710B54369B3F88620B3F884309A42C0
:1090D000044605D06369B3F884201344187910BDA1
:1090E00003681B6998470028F4D14FF0FF30F6E77A
:1090F000F8B543691746B3F88620B3F884309A422E
:1091000005460E4616D06969B1F88430B1F886403C
:10911000E41ABC4228BF3C46043322461944304678
:1091200002F0BEFA6A69B2F884302344A2F88430AF
:109130002046F8BD03681B6998470028E3D14FF02B
:10914000FF34F5E742690023A2F884304269A2F8AF
:10915000863070472DE9F0411F4603680C46DB6AF4
:109160008AB0054616469847237DD5F81480042B0F
:109170000CBF02200A2006220121FEF7EFFFC8F8EB
:1091800000006B691B68002B08DA2B682846DB6A35
:109190000024984720460AB0BDE8F0812846FFF732
:1091A000D1FFB7B1002303A9F8B20393ADF8103093
:1091B000FEF77CFF0028E8D1686906230093006869
:1091C00003AB41F20B0240F6FF71FEF79FFF002850
:1091D000DBD11C22002103A802F070FA237D042BAE
:1091E0001DD14FF407733046ADF80C30FEF776FF13
:1091F000ADF80E006068FEF769FF04906B691C22F1
:10920000186803A9FEF792FF0028BED104340FCCE2
:109210006D698C350FC523682B700124BAE740F6C1
:109220001C233046ADF80C30FEF758FF05AEADF804
:109230000E00231D04F1140718685968324603C252
:109240000833BB421646F7D1D8E7000030B5426973
:10925000B2F886308BB004462BB1B2F884209A4223
:1092600001D1FFF76FFF61690868002818DBB1F8CA
:1092700086507F2D14D804310823C5F1800229447B
:10928000FEF75CFF002813DD6369B3F886200AB996
:10929000A3F884206369B3F886201044A3F88600FD
:1092A0006369B3F88600B3F88430C01A0BB030BDE0
:1092B000FFF7F0F803680B2BF2D0FFF7EBF8036829
:1092C0000B2BEDD020230025CDE90235FFF7E2F886
:1092D00003680193084B0949009302AA2B463220E8
:1092E000FFF71CF863691868FEF718FF63694FF011
:1092F000FF321A60D4E700BF87150C0080150C0000
:1093000010B5436904461868002801DBFEF706FF24
:1093100063694FF0FF321A606069112200218C30BE
:1093200002F0CCF92046BDE81040FFF70BBF10B5A6
:10933000002304460160C0F884308830FFF7CEF97E
:10934000204610BD73B500234FF47A72C0E9013294
:109350000E4A0361026043610446AC200191FAF7B2
:109360009AFE051E05F10C0608D00123C5E901335C
:10937000074B01992B603046FFF7D9FF2046C4E91F
:109380000565FFF7DFFE02B070BD00BFBC150C0025
:10939000A0150C0010B54FF0FF310446FFF7D2FFC7
:1093A000204610BD10B504460068002801DBFEF71A
:1093B000B5FE204610BD0C30FFF7F4BF024B1A6813
:1093C000024B1A60704700BFE4E40320FCE6032070
:1093D00070474174704708B5007CFEF747FF20EAEC
:1093E000E07008BD08B5007CFEF718FF20EAE070C9
:1093F00008BD08B5007CFEF721FF40EAE07008BD1B
:1094000008B5007CFEF712FF40EAE07008BD007C62
:10941000FEF71CBF37B5457C04462DB1207C03B058
:10942000BDE83040FEF7F2BE007C0191FEF71EFF62
:1094300000280199F2DC284603B030BD10B5142194
:109440000446FAF72CFE204610BD000010B54FF47C
:109450007A730446084611460022C4E90123044BEE
:109460002360012320746374FEF708FF204610BDBB
:1094700024160C00417470477047704708B50021EE
:10948000007CFEF723FF40EAE07008BD08B501212B
:10949000007CFEF71BFF40EAE07008BD08B5007CC9
:1094A000FEF70CFF20EAE07008BD08B5007CFEF76F
:1094B000FDFE20EAE07008BD13B50446007C019172
:1094C000FEF7FCFE0028019901DC607C20B1207CC5
:1094D000FEF704FF20EAE07002B010BD007CFEF74A
:1094E00005BF10B514210446FAF7D9FD204610BD7A
:1094F00010B54FF47A73044608460021C4E90113FD
:10950000044B23600123207463741146FEF7BEFEF2
:10951000204610BD54160C00007C0022FEF7BEBE93
:10952000007CFEF7EBBE10B514220446002102F0C9
:10953000C5F8204610BD000010B50F4C88B003A838
:10954000FFF7F1FF2178BFF35B8F11F001010FD11D
:1095500020460191FAF7B2FD019948B103AA0748E4
:10956000FFF7C6FF2046FAF7AEFD054802F092F875
:10957000024808B010BD00BF00E7032004E7032045
:1095800079940B00002240681146FEF71BBF0022B1
:1095900040681146FEF736BF002240681146FEF7CC
:1095A00041BF40680022FEF735BF4068002281F0CD
:1095B0000101FEF71FBF002340681A461946FEF757
:1095C00011BF002340681A461946FEF703BF002268
:1095D00040681146FEF7E6BE406800220221FEF711
:1095E000E9BE002340681A46FEF7D4BE024B0422AF
:1095F0005A60024A1A60704718E7032084160C006C
:1096000010B5044602F0E0F80138231820468342E2
:1096100006D90278197800F8011B03F80129F6E74A
:1096200010BD70B50C46911E22291DD8254630B9B3
:10963000234430229D4210D205F8012BFAE7B0FBFB
:10964000F2F602FB1600C1B2092894BF303157313F
:10965000C9B205F8011B3046E9E7002320462B700C
:10966000FFF7CEFF204670BD0020FCE738B5031E93
:109670000C4615460EDAB3F1004F4FF02D0214BF21
:109680005842184601230A702A461944FFF7C9FFB9
:10969000204638BD0123F9E7014B1860704700BF31
:1096A000ECE4032008B50B4B43B1FFF745FF03681B
:1096B0001B699847002801DDAFF30080064B43B1DA
:1096C00000F06CF903681B699847002801DDAFF3CF
:1096D000008008BD000000000000000008B5FFF792
:1096E000E1FFFEF75BFC014B186008BD28E7032093
:1096F0000548064A064908B5121A01F0D1FF054B84
:10970000054A1A6008BD00BF00F4032004F40320DA
:1097100084180C0000F403201E1C279A07B50023B0
:1097200000931A466FF07701FEF71AFE03B05DF85A
:1097300004FB000007B543880A2B08D0502B0BD13F
:10974000094B1B684BB103B05DF804EB1847FFF7FA
:10975000E5FF03B05DF804FB002300931A466FF0A9
:109760007701FEF7FDFDF4E724E7032010B512486A
:109770000021FEF79FFE114B1A68114B9A42114BC4
:109780000CBF012200221A7001D0FFF7B1FFFEF7D3
:10979000EDFB044601F09AFF0B4B13B12046AFF3EB
:1097A000008000210848FEF7EDFDBDE810400748A5
:1097B0000021FEF7CBBD00BF99960B0000F40320FB
:1097C0001E1C279A20E703200000000035970B009D
:1097D000232813B502D9002002B010BDA0F10B035D
:1097E000022B1AD8174C2178BFF35B8F11F00101BF
:1097F0000BD120460191FAF761FC019928B112487A
:10980000FFF726F92046FAF75EFC0F4B1878FEF7B3
:10981000DDFC0028DFD10120DEE7012809D800F0B7
:109820007DF80021007CFEF729FC80F00100C0B229
:10983000D2E709380128EED800F0B0F8007CFEF736
:109840000DFDF2E7B8E60320BCE60320232838B577
:1098500004460D460AD8FF2908D0FFF7B9FF28B102
:1098600029462046BDE83840FEF7B0BB38BD38B5C4
:1098700004460D46FEF7B2FBFF2810D0062804D898
:109880004D2323FA00F0C30709D42046FFF7A0FFB9
:1098900028B129462046BDE83840FEF7A7BB38BDB1
:1098A0002DE9F04190461F46072406460D46C4F1B7
:1098B0000701B8F1000F12D147FA01F101F00101DF
:1098C0003046FFF7D4FF01212846FFF7D0FF0021E3
:1098D0002846FFF7CCFF013CE9D2BDE8F08147FA0A
:1098E00004F1EBE77047000038B50A4B0360012331
:1098F000044643610849202000F074F82025606088
:109900000549A560284600F06DF8C4E90305204626
:1099100038BD00BF18000100B8160C0030B50E4D60
:109920002978BFF35B8F11F0010487B011D128466D
:10993000FAF7C4FB68B16846FFF7D6FF6A462146CE
:109940000648FEF735FE2846FAF7BDFB044801F04D
:10995000A1FE024807B030BD2CE7032030E703200A
:10996000E5980B007047000038B5044614252A46D8
:10997000002101F0A3FE25804025074925812846C6
:10998000258200F02FF804496060284600F02AF88C
:10999000E060204638BD00BFB8160C0030B50E4D53
:1099A0002978BFF35B8F11F0010487B011D12846ED
:1099B000FAF784FB68B101A8FFF7D6FF01AA214698
:1099C0000648FFF743FD2846FAF77DFB044801F0FF
:1099D00061FE024807B030BD44E7032048E703209A
:1099E00065990B00FAF759BB014900F0F9B800BFBF
:1099F000D4160C007FB500241023CDE9023403688F
:109A000015469E6912686B46CDE90044B0479DF843
:109A1000043003F00603062B03BF009B2B600120DC
:109A2000204604B070BD0098904214BF012006206B
:109A30007047000010B5034B0360044600F0CDF8FA
:109A4000204610BD14170C0010B50446FFF7F2FFB6
:109A500020460821FAF723FB204610BD2DE9F041EE
:109A60001F46DDE90834DDF818809845064615469E
:109A700007D1079900F0B4F818B165710020BDE86E
:109A8000F0813946304600F0ABF80028F6D00123CB
:109A9000C4F800802571A371F0E738B515461C465F
:109AA00000F09EF820B10823E360062325602371AF
:109AB00038BD73B505460C4601921E4600F090F87D
:109AC00050B9032E08D82368019A5B6929462046BD
:109AD00002B0BDE87040184702B070BD10B5034B2E
