:02000002B0004C
:1040000000400B004CF20B00000006000C00050203
:084010000401A60F00000000EE
:04401800BC7E0B005F
:10401C0009480A49884208B505D0094A824202D0AB
:10402C00121A03F043FE0748074A0021121A03F044
:10403C004BFE014808BD00BF40E1032078ED0B00AA
:10404C00ECE50320ECE50320EDE7032070B5074E0B
:10405C00074C03F0D5FBA41BA4080025AC4200D1EF
:10406C0070BD56F8043B98470135F7E728ED0B0077
:10407C0050ED0B0000F052BA08B500F087FABDE81D
:10408C00084003F075BB02F059BA02F057BA02F0BF
:10409C005DBA000008B5034A03490C2002F0AAF9E6
:1040AC00FEE700BF81600B00D07E0B000078B0FAF9
:1040BC0080F04009704701230370704770B50C1EE7
:1040CC00064615460BDA0A2A09D12D2102F08AFC84
:1040DC006142EAB23046BDE8704002F09CBC214619
:1040EC00F7E70EB403B503AB002153F8042B01938F
:1040FC0002F0AFFC02B05DF804EB03B070470000B7
:10410C0038B584690A4B036005467CB16368013B92
:10411C0063605BB9236820469B689847A368013BA2
:10412C00A3601BB923682046DB689847284638BD36
:10413C00C4EA0B0010B50446FFF7E2FF20461C2131
:10414C00FFF7A5FF204610BD2DE9F0418CB00546C8
:10415C000F4668467749DDF8488014461E4602F043
:10416C00F0FDDFF828E27449DEF800307348744A39
:10417C00DFF81CC2AB4219D10B68BB4216D10368E5
:10418C00A34213D11368B34210D1DCF8003043457D
:10419C000CD103F01BFA6B49FFF7A3FF0024684610
:1041AC0002F084FD20460CB0BDE8F081CEF8005042
:1041BC000F6004601660CCF80080002F00F0B58012
:1041CC006149684602F0EBFD694608A802F0DCFD87
:1041DC000A22414604A802F0F4FD04A908A802F042
:1041EC0038FE5A4902F041FE0146684602F0BDFD18
:1041FC0004A802F05BFD08A802F058FD694608A867
:10420C0002F0C2FD0A22314604A802F0DAFD04A92C
:10421C0008A802F01EFE4E4902F027FE0146684631
:10422C0002F0A3FD04A802F041FD08A802F03EFD37
:10423C00694608A802F0A8FD0A22214604A802F04B
:10424C00C0FD04A908A802F004FE424902F00DFECC
:10425C000146684602F089FD04A802F027FD08A873
:10426C0002F024FD3C493D480023502202F0DCFEC4
:10427C000446002893D003F0A9F9394902F0C1FB98
:10428C0003F0A4F9009902F0BCFB3649334802F064
:10429C00A5FB3549314802F0A1FB34492F4802F007
:1042AC009DFB0A222D482946FFF708FF30492B4871
:1042BC0002F0A7FB2F49294802F0A3FB2E492748FF
:1042CC0002F08CFB2449254802F09BFB2B49234828
:1042DC0002F084FB0A220299204802F09CFB1F4842
:1042EC0002F083FB26491D4802F08BFB1B4802F0B1
:1042FC007CFB0099194802F084FB03F067F9214913
:10430C0002F07FFB03F062F91449044608A802F09E
:10431C00B9FC0899204602F074FB08A802F0C6FC10
:10432C000E4803F037F8012439E71749684602F0C4
:10433C0036FD97E79C810B0058E6032060E60320CE
:10434C0050E60320E57E0B00017F0B00137F0B0072
:10435C001B7F0B002E7F0B0032D80B00ECE50320EB
:10436C00307F0B00477F0B0009840B00517F0B0043
:10437C005A7F0B0083810B006A7F0B00717F0B004F
:10438C00827F0B00A97F0B00237F0B0054E60320D8
:10439C005CE603201FB525490446684602F0D1FCB3
:1043AC0003F014F922462249FFF79BFE2149684687
:1043BC0002F031FD204A2149128851F8241020487E
:1043CC00002302F031FE28B31E491D4802F019FBF0
:1043DC001D491B4802F015FB1C49194802F011FB42
:1043EC001B49174802F00DFB1A49154802F0F6FA62
:1043FC00029913480A2202F00EFB114802F0F5FA5A
:10440C000F4802F0F2FA00990D4802F0E7FA0C4856
:10441C0002F0EBFA0A4802F085FE10B1084802F0EF
:10442C00B9FF684602F042FC04B010BD9C810B0041
:10443C00B27F0B00C07F0B006CE1032058E103201E
:10444C0034E60320EC800B0014810B003A810B0046
:10445C0077810B00717F0B001FB525490446684618
:10446C0002F06FFC03F0B2F822462249FFF739FE46
:10447C002149684602F0CFFC204A2149128851F8A4
:10448C0024102048002302F0CFFD28B31E491D48FC
:10449C0002F0B7FA1D491B4802F0B3FA1C4919483F
:1044AC0002F0AFFA1B49174802F0ABFA1A4915484B
:1044BC0002F094FA029913480A2202F0ACFA11485D
:1044CC0002F093FA0F4802F090FA00990D4802F0AE
:1044DC0085FA0C4802F089FA0A4802F023FE10B162
:1044EC00084802F057FF684602F0E0FB04B010BD2C
:1044FC009C810B008E810B009D810B006CE10320D5
:10450C0058E1032034E60320EC800B0014810B00EF
:10451C003A810B0077810B00717F0B0038B503F0EB
:10452C0055F84FF4165103F041F8002001F0BAFD94
:10453C0042F210750446002001F0B4FD001B61F13D
:10454C000001A84271F1000307D203F03FF803F019
:10455C0031F810B901F082FFEDE703F037F803F002
:10456C0029F8084800F0DFFD064800F015FE064863
:10457C003C22022101F096FCBDE83840024801F0D3
:10458C00A9BB00BF9CE6032078E603202DE9F04F81
:10459C00C448C54D85B0022101F0AFF90022114687
:1045AC00C04801F09DF90124002240278026BF4B12
:1045BC00BC4800961146CDE9017401F08DF8B9485C
:1045CC0001F000FC4FF47A7001F0F0FFB54801F0F7
:1045DC0081FBB448022101F090F900221146B14848
:1045EC0001F07EF90022B24BAE4800961146CDE99F
:1045FC00017401F071F8AB4801F0E4FB4FF47A70F0
:10460C0001F0D4FFA74801F065FBA648022101F098
:10461C0074F900221146A34801F062F90022A54B5F
:10462C00A04800961146CDE9017401F055F89D485B
:10463C0001F0C8FB4FF47A7001F0B8FF994801F013
:10464C0049FB9848032101F058F9224695480A2164
:10465C0001F046F900221146974B92480097CDE99C
:10466C00016401F039F88F4801F0ACFB4FF47A701B
:10467C0001F09CFF8B4801F02DFB2146894801F08D
:10468C0032F92146874801F033F98C498548FFF708
:10469C0028FD844801F096FB4FF47A7001F086FFF8
:1046AC00804801F017FB2C68012C40F08B847D486E
:1046BC00DFF82892022101F020F9002211467948F6
:1046CC0001F00EF900227E4B764800961146CDE99A
:1046DC00017401F001F873487A4E01F073FB40F657
:1046EC00B83001F063FF6F4801F0F4FA02F06EFF8E
:1046FC0075490322FFF7F5FC0320FFF74BFE42F24E
:10470C00107001F053FF02F061FF70490322FFF7B4
:10471C00E8FC0320FFF7A0FE42F2107001F046FF08
:10472C0034706B4C4FF0FF08FF2702F04FFF4946E7
:10473C00FFF7D7FC00974346226831780120FFF73A
:10474C0003FD00974346226831780220FFF7FCFCFA
:10475C0000974346226831780320FFF7F5FC009759
:10476C004346226831780420FFF7EEFC009743465D
:10477C00226831780520FFF7E7FC00974346226852
:10478C0031780620A8F16408FFF7DEFC18F12D0F34
:10479C00CAD1DFF848914FF0000802F017FF4946E4
:1047AC00FFF79FFC00974346226831780120FFF702
:1047BC00CBFC00974346226831780220FFF7C4FCFB
:1047CC0000974346226831780320FFF7BDFC009721
:1047DC004346226831780420FFF7B6FC0097434625
:1047EC00226831780520FFF7AFFC0097434622681A
:1047FC003178062008F16408FFF7A6FCB8F5967F1F
:10480C00CBD10023337002F0E1FE3249FFF769FC93
:10481C00009722683178FF230120FFF795FC009761
:10482C0022683178FF230220FFF78EFC0097226864
:10483C003178FF230320FFF787FC0097226831783B
:10484C00FF230420FFF780FC009722683178FF23B8
:10485C000520FFF779FC0097FF23226831780620AA
:10486C00FFF772FC42F2107001F0A0FE02232B60E5
:10487C000C48022101F041F800221146094801F0D0
:10488C002FF8012740230022CDE901378023114660
:10489C0004480093104B00F01FFF024801F092FAFD
:1048AC001EE000BF78E60320B0E6032032C80B0000
:1048BC0032C40B0032B40B00328C0B00C9820B00DB
:1048CC0032940B0074E60320DA820B00F2820B00A8
:1048DC0024E6032021830B0032A00B000B830B007A
:1048EC0040F6B83001F062FECB4801F0F3F9032337
:1048FC002B60C948022101F000F800221146C6487D
:10490C0000F0EEFF012640230022CDE90136802382
:10491C001146C1480093C14B00F0DEFEBE4801F0C9
:10492C0051FA40F6B83001F041FEBB4801F0D2F923
:10493C0004232B60B848022100F0DFFF002211464F
:10494C00B54800F0CDFF012440230022CDE901340D
:10495C0080231146B0480093B14B00F0BDFEAE4829
:10496C0001F030FA40F6B83001F020FEAA4801F010
:10497C00B1F905232B60A848022100F0BEFF0022EC
:10498C001146A54800F0ACFF402301200022CDE9E0
:10499C00013080231146A0480093A24B00F09CFEEE
:1049AC009D4801F00FFA40F6B83001F0FFFD9A482F
:1049BC0001F090F906232B609748022100F09DFF2F
:1049CC0000221146944800F08BFF40230121002265
:1049DC00CDE90131802311468F480093924B00F0B2
:1049EC007BFE8D4801F0EEF940F6B83001F0DEFDAB
:1049FC00894801F06FF907232B608748022100F0EA
:104A0C007CFF00221146844800F06AFF40230122FB
:104A1C00CDE901320022802311467F480093834B5D
:104A2C0000F05AFE7C4801F0CDF940F6B83001F0A8
:104A3C00BDFD794801F04EF908232B607648022120
:104A4C0000F05BFF00221146734800F049FF4FF065
:104A5C00010B40230022CDE9013B802311466E4817
:104A6C000093734B00F038FE6B4801F0ABF940F645
:104A7C00B83001F09BFD684801F02CF909232B603C
:104A8C006548022100F039FF00221146624800F00F
:104A9C0027FF4FF0010A40230022CDE9013A802381
:104AAC0011465D480093634B00F016FE5A4801F026
:104ABC0089F940F6B83001F079FD574801F00AF950
:104ACC000A232B605448022100F017FF00221146E4
:104ADC00514800F005FF4FF0010940230022CDE9B9
:104AEC000139802311464C480093534B00F0F4FDE0
:104AFC00494801F067F940F6B83001F057FD4648D7
:104B0C0001F0E8F80B232B604348022100F0F5FE7E
:104B1C0000221146404800F0E3FE4FF0010840230C
:104B2C000022CDE90138802311463B480093434BCA
:104B3C0000F0D2FD384801F045F940F6B83001F0EC
:104B4C0035FD354801F0C6F80C232B6032480221A4
:104B5C0000F0D3FE002211462F4800F0C1FE4FF0AA
:104B6C00010E4023CDE9013E0022802311462A4844
:104B7C000093334B00F0B0FD274801F023F940F6C9
:104B8C00B83001F013FD244801F0A4F80D232B607C
:104B9C002148022100F0B1FE002211461E4800F00F
:104BAC009FFE4FF0010C4023CDE9013C00228023F5
:104BBC00114619480093234B00F08EFD164801F066
:104BCC0001F940F6B83001F0F1FC134801F082F81D
:104BDC000E232B601048022100F08FFE002211469C
:104BEC000D4800F07DFE012740230022CDE901375E
:104BFC008023114608480093134B00F06DFD0648C6
:104C0C0001F0E0F840F6B83001F0D0FC024801F0B9
:104C1C0061F80F232B6019E078E603203EDC0B00D3
:104C2C0032900B0032840B0032A80B0032A40B0024
:104C3C0032980B00329C0B0032C00B0032D00B00B0
:104C4C0032B80B0032B00B0032CC0B00C948022139
:104C5C0000F053FE00221146C64800F041FE01262A
:104C6C0040230022CDE9013680231146C148009330
:104C7C00C14B00F031FDBF4801F0A4F840F6B8304C
:104C8C0001F094FCBB4801F025F810232B60B948C7
:104C9C00022100F032FE00221146B64800F020FE40
:104CAC00012440230022CDE9013480231146B14870
:104CBC000093B24B00F010FDAE4801F083F840F6C3
:104CCC00B83001F073FCAB4801F004F811232B60F1
:104CDC00A848022100F011FE00221146A54800F060
:104CEC00FFFD402301200022CDE901308023114635
:104CFC00A0480093A24B00F0EFFC9E4801F062F834
:104D0C0040F6B83001F052FC9A4800F0E3FF122351
:104D1C002B609848022100F0F0FD002211469548C6
:104D2C0000F0DEFD402301210022CDE9013180237A
:104D3C00114690480093934B00F0CEFC8D4801F047
:104D4C0041F840F6B83001F031FC8A4800F0C2FF5F
:104D5C0013232B608748022100F0CFFD002211465F
:104D6C00844800F0BDFD40230122CDE90132002230
:104D7C00802311467F480093834B00F0ADFC7D48A7
:104D8C0001F020F840F6B83001F010FC794800F042
:104D9C00A1FF14232B6077487C4EDFF820B2DFF89C
:104DAC0020A2022100F0A9FD00221146714800F05A
:104DBC0097FD012440230022CDE9013480231146C4
:104DCC006C480093724B00F087FC6A4800F0FAFFC5
:104DDC0040F6B83001F0EAFB664800F07BFF02F0C9
:104DEC00F5FB6C492246FFF77CF92046FFF7D2FA17
:104DFC0042F2107001F0DAFB02F0E8FB6649224641
:104E0C00FFF76FF92046FFF727FB42F2107001F015
:104E1C00CDFB4FF00308347002F0D8FB5946FFF776
:104E2C0060F9072001F046FE8146FF245B4F02F03B
:104E3C00CDFB4A465146FFF754F9009457F8292008
:104E4C00317823460120FFF77FF9072001F032FE6D
:104E5C00814602F0BBFB4A465149FFF742F90094E8
:104E6C0057F82920317823460220FFF76DF90720E7
:104E7C0001F020FE814602F0A9FB4A464949FFF7A2
:104E8C0030F9009457F82920317823460320FFF796
:104E9C005BF9072001F00EFE814602F097FB4A46B3
:104EAC004149FFF71EF9009457F829203178234621
:104EBC000420FFF749F9072001F0FCFD814602F0C0
:104ECC0085FB4A463949FFF70CF9009457F829201D
:104EDC00317823460520FFF737F9072001F0EAFD6A
:104EEC00814602F073FB32494A46FFF7FAF8009408
:104EFC0057F82920317823460620FFF725F9B8F119
:104F0C00010889D12B4F86F8008002F05FFB2A49FB
:104F1C00FFF7E7F800943A68317823460120FFF751
:104F2C0013F900943A68317823460220FFF70CF904
:104F3C0000943A68317823460320FFF705F9009472
:104F4C003A68317823460420FFF7FEF800943A685B
:104F5C00317823460520FFF7F7F800943A6831784A
:104F6C0023460620FFF7F0F842F2107001F01EFB0A
:104F7C0061E000BF78E603203EE00B0032AC0B0092
:104F8C0032BC0B0032880B0032D40B0074E60320C9
:104F9C003ED80B0037830B004F830B0008E6032031
:104FAC0078830B0088830B0098830B00A8830B007D
:104FBC00B8830B0024E6032021830B000B830B002A
:104FCC0068830B00022C3FF453AC032C3FF491ACE0
:104FDC00042C3FF4AFAC052C3FF4CDAC062C3FF4C5
:104FEC00EBAC072C3FF409AD082C3FF427AD092C92
:104FFC003FF446AD0A2C3FF465AD0B2C3FF484AD69
:10500C000C2C3FF4A3AD0D2C3FF4C2AD0E2C3FF491
:10501C00E1AD0F2C3FF41AAE102C3FF438AE112C2E
:10502C003FF456AE122C3FF474AE132C3FF492AEF8
:10503C00142C3FF4B0AE01232B6005B0BDE8F08F0B
:10504C0008B51B491B4801F07CFE1B4A1B4B126820
:10505C001A601B4A1B4812685A601B4A12689A60F5
:10506C001A4A1268DA601A4A12681A61194A1268E6
:10507C005A61194A12689A6102F0D6F9174802F07F
:10508C00D3F90421164800F00FFE0223082215481C
:10509C00012100F06FF8144B0022C3E90022A2F5A5
:1050AC0080329A60BDE80840022001F0B3B900BF1D
:1050BC009C810B0064E6032024E6032008E6032011
:1050CC004CE10320ECE5032054E1032044E10320F0
:1050DC0040E1032048E1032050E1032034E60320A3
:1050EC0078E603209CE6032028E6032038B5044626
:1050FC00C0680D4608B101F029FAA379062B0CBF44
:10510C000420032010FB05F080B2A08001F016FAF9
:10511C00E06028B1A288002102F0D6FD658038BD80
:10512C00A0806080FBE710B504460121C07902F035
:10513C00D7FBE079002102F0E4FB0123237010BDC2
:10514C0037B5037805460C461BB1C079002102F037
:10515C00C7FB2B78EC715BB1A0B20121019002F07E
:10516C00BFFB0198002103B0BDE8304002F0C9BB81
:10517C0003B030BD70B50025044616468371C0E9F6
:10518C00035505700572FFF7B1FF20463146FFF756
:10519C00D7FF204670BD0000C368002B00F0A4812F
:1051AC002DE9F04F8379023BDBB2042B9CBFBF4A45
:1051BC0052F8234085B0054688BF322400F062FFC8
:1051CC002B69C01AA042F9D3B94CAE88D4F800357B
:1051DC001BB9D4F86035002B7EDBB64CD4F8003507
:1051EC0023B9D4F86035002BC0F26E81B24CD4F8E0
:1051FC000035002B00F04481EB79B04AB04C1268BA
:10520C00190102EB0313575CAE495B78D1F8FC2013
:10521C0042F08072C1F8FC20226803F01F0343EABD
:10522C00471301273A432260A988D5F80C80D4F89B
:10523C0004909F40002944D04FF0000E72464FF06E
:10524C00A04118F801CB0820802663689B1A462BD6
:10525C00FBD96268D1F808351CEA060F43EA07034C
:10526C00C1F808352FD063689B1A282BFBD9D1F8CD
:10527C000C35013843EA07034FEA5606C1F80C35E2
:10528C00E3D1AB880EF1010E1FFA8EFE7345D8D810
:10529C004FF4307103FB01F163689B1A462BFBD969
:1052AC006368A3EB09098945C0F0E4804FF496705C
:1052BC0000F0E0FEA988D5F80C80D4F80490002901
:1052CC00BAD10A46E8E763689B1A112BCFD86368FA
:1052DC009B1A112BF7D9CAE7D4F86435002BBFF60B
:1052EC007CAFD4F86835002BBFF677AFD4F86C35AB
:1052FC00002BBFF672AF3601331D1846009301F038
:10530C001DF900283FF478AFAB88002B00F0ED803E
:10531C00EA68013B12FA83F702F1FF3E002348F2E0
:10532C00060248F20D011EF801CF1CF0800F0CBFD5
:10533C0093468B461CF0400F0CBF16460E461CF0D5
:10534C00200F0CBF9046884603F10109CDF8088068
:10535C00019603F102081FFA89F9019E20F813B097
:10536C001FFA88F820F81960029E20F8186003F1E3
:10537C0003081CF0100F1FFA88F80CBF93468B46DD
:10538C0020F818B003F104081CF0080F1FFA88F875
:10539C000CBF93468B4620F818B003F105081CF09F
:1053AC00040F1FFA88F80CBF93468B4620F818B0F0
:1053BC0003F1080A03F1060807339BB21CF0020F35
:1053CC001FFA88F80CBF93468B46CDF80CA01CF046
:1053DC00010F20F818B015BF20F8131020F8132077
:1053EC001FFA8AF3BDF80C3077459CD1591C023357
:1053FC0089B29BB249005B004FF400474752009AB8
:10540C00C7522E4B56081F6800221423C4F80425DB
:10541C00C4F80C25C4F80835C4F81425C4F81025B4
:10542C00C4F82005C4F82465C4F82825C4F82C2534
:10543C00EB7907EB031C1B010121FE5C9CF801308E
:10544C0003F01F0343EA4613C4F86035C4F8001593
:10545C00C4F81021A160D4F81031002BFBD000232C
:10546C004FF0FF32C4F81031C4F80035C4F8602591
:10547C0001F06CF800F006FE286105B0BDE8F08F75
:10548C00D4F86035002BBFF6B7AED4F86435002BDA
:10549C00BFF6B2AED4F86835002BBFF6ADAED4F87B
:1054AC006C35002BBFF6A8AE25E700BF40E40B001F
:1054BC0000C001400010024000200240B4E603206E
:1054CC00001000E000ED00E0D4F86435002BBFF6CE
:1054DC008DAED4F86835002BBFF688AED4F86C3599
:1054EC00002BBFF683AE06E770470423022183E747
:1054FC0008B500F0DFFD014B186008BDB4E60320D1
:10550C002DE9F04F85B01F46BDF93880BDF83C3011
:10551C00A8EB0209A7EB010AB9F1000FB8BFC9F15A
:10552C000009BAF1000FB8BFCAF1000AD145834691
:10553C000C46154604DD3A462C4647460D46904629
:10554C00BC4205DD2A464546904622463C46174657
:10555C003E1BB2B20092A8EB050282EAE271A1EB0B
:10556C00E271C6F3C03202FA86F64545B4BF012299
:10557C004FF0FF32019176100292BC421CDCDBF83A
:10558C0000200393D145D2F81080C7BF294622468C
:10559C002A4621465846C047019A039BB61AB1B217
:1055AC0036B2002E05DA029A1544009A56182DB21E
:1055BC0036B2013424B2E0E705B0BDE8F08F2DE936
:1055CC00F347BDF82C800768BDF92890CDF8008012
:1055DC000446FF6916468A461D46B8472368CDF82F
:1055EC00008009F1FF323244DF6951462B462046D8
:1055FC0012B2B8472368CDF800809F6932464B46FB
:10560C0051462046B8476B1E03EB0A012368CDF8C0
:10561C0028809D6932464B4609B22046AC4602B002
:10562C00BDE8F047604737B5013B13440468BDF84B
:10563C00185001951BB2009364690B46A04703B048
:10564C0030BD37B5BDF818500468CDE90025013BD5
:10565C000B4464691BB2A04703B030BD2DE9F3477E
:10566C00BDF92890BDF82C80054692460C46CE1804
:10567C00B4420BDA2B68CDF800809F6921464B466B
:10568C00524628460134B84724B2F1E702B0BDE8CF
:10569C00F08713B502680191B0F90E100091546AAD
:1056AC00B0F90C3000221146A04702B010BD704773
:1056BC0030B54281C2814FF0FF320024054D42616A
:1056CC00012244600560018181810461028382763C
:1056DC0030BD00BF58E90B002DE9F04F89B0CDE982
:1056EC000323BDF94870BDF94C300593FA1DCDE983
:1056FC00010148BF07F10E020024BDF850304FEAFB
:10570C00E20B25464FF0800905992AB291422ADD19
:10571C00049A02EB040A039A2A444FF0000812B2CE
:10572C000FFA88F087421FFA88F119DDC0101AF8B9
:10573C0000C001F0070049FA00F01CEA000F0CD081
:10574C0002980144019800680069CDE906230646D9
:10575C0009B20198B047DDE9062308F10108DFE73B
:10576C0001355C44D0E709B0BDE8F08F2DE9F04F6E
:10577C002DED028B8DB007460491BDF8601005919C
:10578C00BDF864100691B0F90C1004989DF868509F
:10579C00814252DDB7F90E1091424EDD062111FB0C
:1057AC000504002C49DD02EBC504002C45DD03EBA0
:1057BC0083030B9393B2079308339BB20891002495
:1057CC000993052C1CBF2C4B0B9A079E16BF1B195B
:1057DC0000239B5C0393049AABB20A9304FB05F37E
:1057EC0013FA82F31BB204EB020A08EE103AB0462D
:1057FC000FFA85F90FFA8AFA039BDB072FD5012DD7
:10580C003B681FD1D3F810B0059B32B251463846D5
:10581C00D847039B5B0803930A9B01369844099B6A
:10582C00B6B2B3421FFA88F8E6D1089B013B0134AB
:10583C0013F0FF0364B20893C3D10DB0BDEC028B1F
:10584C00BDE8F08F059ACDE9009218EE101AD3F846
:10585C0024B00FFA88F24B463846D847D9E7DDE931
:10586C0005239342D5D0012D3B6803D1D3F810B05A
:10587C00069BCAE7069AE6E754E40B0030B50A2902
:10588C0085B0044607D1027E638A03EBC2036382B0
:10589C000023238221E00D291FD0037E0293C38AAB
:1058AC000193838A0093B0F912200B46B0F91010C3
:1058BC00FFF75CFF207E238A00EB400103EB4103E2
:1058CC00A17E1BB20246238239B1B4F90C106FF0E1
:1058DC00050505FB00118B42D6DC012005B030BD5F
:1058EC00018242827047012938BF0121017670473D
:1058FC00C18281827047407E704701F00303B0F98A
:10590C000A204376C907B0F9083059BF8381C28198
:10591C008281C3817047B0F90C007047B0F90E005A
:10592C0070470000F0B5457EBDF81440022D69D0DB
:10593C00032D00F09980012D6CD10589D2432A44A6
:10594C0012B2002A5DDBB0F90850954259DD0029EE
:10595C00BEBF5B181BB20021B0F90A00CD188542FE
:10596C00C4BF431A1BB2002B4BDDC1F3C400DFF8DC
:10597C0020C102EBC01211F00701DBB20CEB0200EC
:10598C001AD0C1F10805404EEDB2AB42775D3FBF76
:10599C00A5EB030EFF2646FA0EF637401CF8026004
:1059AC00012C0CBF3E43BE43AB420CF8026028D323
:1059BC0008390B44DBB28030072B19D9012C4FF07E
:1059CC00FF3518BF0025EDB200F180011A46083AE8
:1059DC00D2B2072A01F8805C01F18001F7D8A3F15B
:1059EC000802C2F3C402013200EBC21003F0070339
:1059FC003BB1264AD25C0378012C0CBF1343934372
:105A0C000370F0BD4589D2432A44CD180189491B46
:105A1C0012B209B2002AF4DBB0F90A509542F0DD5B
:105A2C000029BEBF5B181BB20021B0F90870CE185C
:105A3C00BE42C4BF6B1A1BB2002BE2DDD010802516
:105A4C0010FB05111248014402F0070001228240AC
:105A5C00012CD2B20B440CD18B42D2D011F8010BD9
:105A6C00104301F8010CF7E7CD184189491B09B225
:105A7C0067E7D243D2B28B42C3D011F8010B10406E
:105A8C0001F8010CF7E700BF78E1032070E1032077
:105A9C0080E10320F0B5457EBDF81440022D34D0D2
:105AAC00032D00F09B80012D37D1D5180289521B94
:105ABC0012B20029C0F29180B0F90A508D4240F325
:105ACC008C80002ABEBF9B181BB20022B0F9087054
:105ADC00D618BE42C4BFAB1A1BB2002B7DDDC8105A
:105AEC00802510FB05224548024401F007000121E6
:105AFC008140012CC9B2134475D19A426DD012F871
:105B0C00010B084302F8010CF7E70589C943294446
:105B1C00D5184289521B09B212B200295DDBB0F9CB
:105B2C0008508D4259DD002ABEBF9B181BB20022C3
:105B3C00B0F90A00D5188542C4BF831A1BB2002BDA
:105B4C004BDDC2F3C400DFF8B4C001EBC01112F09E
:105B5C000702DBB20CEB01001AD0C2F10805284E8B
:105B6C00EDB2AB42775D3FBFA5EB030EFF2646FAC5
:105B7C000EF637401CF80160012C0CBF3E43BE43AF
:105B8C00AB420CF8016028D3083A1344DBB28030E6
:105B9C00072B19D9012C4FF0FF3518BF0025EDB29A
:105BAC0000F180011A46083AD2B2072A01F8805C4B
:105BBC0001F18001F7D8A3F10802C2F3C40201324B
:105BCC0000EBC21003F007033BB10E4AD25C037822
:105BDC00012C0CBF134393430370F0BD4589C9439B
:105BEC00294409B265E7C943C9B29A42F5D012F803
:105BFC00010B084002F8010CF7E700BF80E103201D
:105C0C0078E1032070E1032070470000F8B50D1E09
:105C1C00064614461F462DDBFFF77DFEA84229DD04
:105C2C00002C27DB3046FFF779FEA04222DD304600
:105C3C00FFF761FE02281ED0032825D0012804D1CD
:105C4C003389E2431A442C4615B2002C2246B8BFC5
:105C5C00E21DD210802112FB01550E49012204F0E5
:105C6C0007044B5702FA04F464B297420CBF234367
:105C7C00A3434B55F8BD318972890139E4434D1B5F
:105C8C0014442DB224B2E0E77389013B5B1B25461B
:105C9C001CB2DAE780E1032010B524210446FEF79C
:105CAC00F6F9204610BD000038B5402204460D46DA
:105CBC008021FFF7FDFC064B2360FF2384F8213085
:105CCC0063774FF6FF73E38384F82050204638BD8A
:105CDC0090E90B0002484FF48062002101F0F4BF00
:105CEC0080E1032013B50B4C2178BFF35B8F11F0CF
:105CFC0001010BD120460191FEF7D8F9019928B189
:105D0C00054800F0EFFE2046FEF7D5F9024802B038
:105D1C0010BD00BFB8E60320BCE6032007B590F821
:105D2C00223043B10191FFF7DDFF019903B05DF81B
:105D3C0004EB00F08BBF0B46817F407F012203B048
:105D4C005DF804EB01F0F6BD38B590F91D30013368
:105D5C0004460D461DD090F92100012180B201F0BE
:105D6C00D0FD94F91F00002180B201F0CAFD94F916
:105D7C002100002180B201F0C4FD29462046FFF726
:105D8C00CDFF94F921000121BDE8384080B201F02B
:105D9C00B8BD01F00DFE94F91B1000F0A5FC01F04C
:105DAC0007FE036800219B68984701F001FE036819
:105DBC0029469B68984701F0FBFDBDE8384000F090
:105DCC009ABC0000F8B521210446FFF7BDFF002165
:105DDC002046FFF7B9FF7F212046FFF7B5FF2221B0
:105DEC002046FFF7B1FF00212046FFF7ADFF07214A
:105DFC002046FFF7A9FF94F91D30294F01332AD013
:105E0C0094F92100012180B201F07BFD94F91F006F
:105E1C00012180B201F075FD94F92100002180B2BE
:105E2C0001F06FFD012000F025F94FF48065013D74
:105E3C0017F8011B2046ADB2FFF770FF002DF6D10D
:105E4C00012000F017F994F921000121BDE8F84078
:105E5C0080B201F056BD002501F0AAFD94F91B108B
:105E6C0000F042FC01F0A4FD036840219B689847B8
:105E7C0005F11006B6B201F09BFD0368795D9B68D5
:105E8C0098476B1C9DB2AE42F5D101F091FD00F02C
:105E9C0032FCB6F5806F00D1F8BD3546DCE700BFAB
:105EAC0080E1032038B590F91D30017701330446A9
:105EBC000D46C27600F0C98090F91F00012180B216
:105ECC0001F00EFD94F92100012180B201F008FDD2
:105EDC0094F82230002B00F0A68094F921000121C7
:105EEC0080B201F00EFDFFF7FDFE012100F018FE5F
:105EFC00FFF7F8FE102100F083FEFFF7F3FE002100
:105F0C0000F022FEFFF7EEFE00F0F6FD94F9200003
:105F1C00012180B201F0E4FC94F92000012180B24F
:105F2C0001F0EFFC012000F041FB94F9200000216E
:105F3C0080B201F0E6FC0A2000F038FB94F9200056
:105F4C00012180B201F0DDFC2046AE21FFF7FCFE02
:105F5C002046D521FFF7F8FE20468021FFF7F4FEFE
:105F6C002046A821FFF7F0FE20463F21FFF7ECFE6C
:105F7C002046D321FFF7E8FE20460021FFF7E4FE80
:105F8C0020464021FFF7E0FE8D212046FFF7DCFE86
:105F9C00012D0CBF102114212046FFF7D5FE204601
:105FAC002021FFF7D1FE20460021FFF7CDFE204631
:105FBC00A121FFF7C9FE2046C821FFF7C5FE2046E8
:105FCC00DA21FFF7C1FE20461221FFF7BDFE812129
:105FDC002046FFF7B9FE012D0CBF9F21CF21204693
:105FEC00FFF7B2FED9212046FFF7AEFE012D0CBF04
:105FFC002221F1212046FFF7A7FE2046DB21FFF7E7
:10600C00A3FE20464021FFF79FFE2046A421FFF768
:10601C009BFE2046A621FFF797FE2046AF21BDE848
:10602C003840FFF791BE94F91D00012180B201F0B8
:10603C0057FC94F91E00012180B201F051FC94F838
:10604C002230002B3FF462AF47E701F0B1FC00F0C7
:10605C0041FB5BE708B5024B1B685B6C019308BD09
:10606C004802030008B5024B1B685B68019308BD2E
:10607C001802030008B5024B1B68DB68019308BDCE
:10608C001802030008B5024B1B681B69019308BD7D
:10609C001802030008B5024B1B685B69019308BD2D
:1060AC001802030008B5024B1B68DB6D019308BD99
:1060BC001802030008B5024B1B681B68019308BD4E
:1060CC002C02030008B5024B1B689B68019308BDAA
:1060DC002C02030008B5024B1B68DB68019308BD5A
:1060EC002C02030008B5024B1B681B69019308BD09
:1060FC002C02030008B5024B1B68DB68019308BD3A
:10610C002802030008B5024B1B689B69019308BD6C
:10611C002802030008B5024B1B68DB69019308BD1C
:10612C002802030008B5024B1B681B6A019308BDCB
:10613C002802030008B5024B1B685B6A019308BD7B
:10614C002802030008B5024B1B689B6A019308BD2B
:10615C002802030008B5024B1B68DB6A019308BDDB
:10616C002802030008B5024B1B681B6B019308BD8A
:10617C002802030008B5024B1B685B6B019308BD3A
:10618C002802030008B5024B1B681B6C019308BD69
:10619C002802030008B5024B1B685B69019308BD1C
:1061AC006C02030008B5024B1B685B69019308BDC8
:1061BC006402030008B5024B1B681B6A019308BDFF
:1061CC006402030008B5024B1B689B6A019308BD6F
:1061DC006402030008B5024B1B689B68019308BD61
:1061EC006802030008B5024B1B68DB68019308BD0D
:1061FC006802030008B5024B1B689B69019308BD3C
:10620C003802030008B5024B1B68DB69019308BD1B
:10621C003802030008B5024B1B681B6A019308BDCA
:10622C003802030008B5024B1B689B6A019308BD3A
:10623C003802030008B5024B1B681B6B019308BDA9
:10624C003802030008B5024B1B689B6B019308BD19
:10625C003802030008B5024B1B681B68019308BD8C
:10626C003002030008B5024B1B689B68019308BD04
:10627C003002030008B5024B1B68DB68019308BDB4
:10628C003002030008B5024B1B681B69019308BD63
:10629C003002030008B5024B1B685B69019308BD13
:1062AC003002030008B5024B1B68DB69019308BD83
:1062BC003002030008B5024B1B681B6A019308BD32
:1062CC003002030008B5024B1B685B6A019308BDE2
:1062DC003002030008B5024B1B681B6C019308BD10
:1062EC003002030008B5024B1B685B6C019308BDC0
:1062FC003002030008B5024B1B68DB68019308BD34
:10630C003C02030008B5024B1B681B69019308BDD6
:10631C003C02030008B5024B1B685B69019308BD86
:10632C003C02030008B5024B1B689B69019308BD36
:10633C003C02030008B5024B1B68DB69019308BDE6
:10634C003C02030008B5024B1B681B6A019308BD95
:10635C003C02030008B5024B1B689B6A019308BD05
:10636C003C02030008B5024B1B681B6C019308BD73
:10637C003C02030008B5024B1B681B68019308BD67
:10638C004C02030008B5024B1B685B68019308BD07
:10639C004C02030008B5024B1B681B69019308BD36
:1063AC004C02030008B5024B1B685B69019308BDE6
:1063BC004C02030008B5024B1B689B69019308BD96
:1063CC004C02030008B5024B1B68DB69019308BD46
:1063DC004C02030008B5024B1B681B6A019308BDF5
:1063EC004C02030008B5024B1B689B6A019308BD65
:1063FC004C02030008B5024B1B685B6B019308BD94
:10640C006002030008B5024B1B681B6D019308BDAD
:10641C006002030008B5024B1B685B68019308BD62
:10642C002002030008B5024B1B685B69019308BD91
:10643C002002030008B5034B1B68D3F88830019386
:10644C0008BD00002002030008B5034B1B68D3F8FD
:10645C009430019308BD00002002030008B5024BE4
:10646C001B689B68019308BD4402030008B5024BEE
:10647C001B68DB6B019308BD4402030008B5024B9B
:10648C001B685B68019308BD4002030008B5024B12
:10649C001B689B68019308BD4002030008B5024BC2
:1064AC001B68DB68019308BD4002030008B5024B72
:1064BC001B681B69019308BD4002030008B5024B21
:1064CC001B685B69019308BD4002030008B5024BD1
:1064DC001B689B69019308BD4002030008B5024B81
:1064EC001B68DB69019308BD4002030008B5024B31
:1064FC001B681B6A019308BD4002030008B5024BE0
:10650C001B681B6B019308BD4002030008B5024BCE
:10651C001B685B6B019308BD4002030008B5024B7E
:10652C001B681B6C019308BD4002030008B5024BAD
:10653C001B685B6C019308BD4002030008B5024B5D
:10654C001B681B68019308BD1C02030008B5024BB5
:10655C001B685B68019308BD1C02030008B5024B65
:10656C001B689B68019308BD1C02030008B5024B15
:10657C001B685B6A019308BD1C02030008B5024B43
:10658C001B68DB6B019308BD1C02030008B5024BB2
:10659C001B681B6C019308BD1C02030008B5024B61
:1065AC001B685B6C019308BD1C0203000021FFF704
:1065BC0039BF0000024800230360FFF74BBD00BF4A
:1065CC00C4E60320002240681146FFF78FBF00226B
:1065DC0040681146FFF79ABF40680022FFF78EBF54
:1065EC004068002281F00101FFF778BF002340686A
:1065FC001A461946FFF76ABF002340681A46194627
:10660C00FFF75CBF002240681146FFF74FBF002226
:10661C0040681146FFF73ABF406800220221FFF79D
:10662C003DBF002340681A46FFF728BF024B0322E8
:10663C005A60024A1A607047C8E60320D0E90B0082
:10664C007047F8B5064615460C468F18BC4206D066
:10665C00336814F8011B9B6830469847F6E72846C8
:10666C00F8BD007C0022FFF75DBD007C0021FFF728
:10667C0061BD007C0021FFF765BD007C0021FFF7A8
:10668C0069BD007C0021FFF76DBD10B514210446D7
:10669C00FDF7FDFC204610BD38B5044615464FF4F9
:1066AC007A730022C4E90123094B21740846236044
:1066BC002946FFF767FDBF3008D16B69DB0705D5AD
:1066CC006868FFF743FFE868FFF740FF204638BDD6
:1066DC000CEA0B000023007C1A461946FFF70ABD92
:1066EC00007C0022FFF70EBDC9B2FFF7F9BF007C9A
:1066FC000022FFF70FBD0121FFF7F9BF704710B55E
:10670C0018210446FDF7C3FC204610BDF0B5037DEF
:10671C00062B8DB00E4600F104074FF0000412D08A
:10672C0000F1080515F8011D0A22304600F073F936
:10673C00AF42044419D0002CF4D02E21304600F086
:10674C0051F90444EEE72F236A4639460A208DF8A6
:10675C000040FFF727FD684601F03CFB336802461A
:10676C00DB68694630469847044620460DB0F0BDBC
:10677C0010B5054B0446112240F8043B002101F0F2
:10678C00A3FA204610BD00BF34EA0B000346074AAB
:10679C0010B543F8042B01F1100251F8044B43F8E7
:1067AC00044B9142F9D10A781A7010BD34EA0B00EF
:1067BC00037D042B04D14068003818BF01207047BA
:1067CC00062B07D143683BB983682BB9C3681BB947
:1067DC000069F1E7002070470120704710B59DF863
:1067EC00084044EA032343EA024242EA01610423DB
:1067FC004160037510BD000007B5064B0360CB78F4
:10680C0000938B784A780978FFF7E8FF03B05DF8BE
:10681C0004FB00BF34EA0B00014B024A1A607047BC
:10682C00D0E6032040EA0B00002340681A46FFF72D
:10683C0025BE406800220221FFF730BE00224068CE
:10684C001146FFF723BE002240681146FFF72EBE0B
:10685C00002340681A461946FFF730BE00234068F3
:10686C001A461946FFF732BE40680021FFF756BEA4
:10687C0040680021FFF75ABE4068002281F00101F8
:10688C00FFF72CBE40680022FFF738BE002240689C
:10689C001146FFF73BBE002240681146FFF726BEAB
:1068AC002DE9F04395B014460D460746FFF760FFFF
:1068BC0000211C220DA8009101F006FA40230C9334
:1068CC0020466B460CAA0021FFF78CFC04460028DE
:1068DC004BD1024601216868FFF7E8FD0221804692
:1068EC0022466868FFF7E2FD009E81462146002E95
:1068FC003BD0002939D17368022B03D00A2B11D05D
:10690C00F669F4E7B8F1000FFAD0716906A8043102
:10691C0007ADFFF771FF0FCD3C1D0FC42B68237023
:10692C004146EDE7B9F1000FEAD07469102201A8D5
:10693C0001F0CAF906238DF8143001AD04F10803F7
:10694C001834186859682A4603C20833A3421546FE
:10695C00F7D101A906A807ADFFF718FF0FCD3C1D15
:10696C000FC42B6823704946CAE70098FFF732FC26
:10697C00384615B0BDE8F083024B034A1A6000227A
:10698C005A607047D4E603204CEA0B00F8B5064673
:10699C000D468F180024BD420CD0336815F8011B2E
:1069AC009B6830469847031E01DB1C44F3E7002C20
:1069BC0008BF1C462046F8BD13B50446084659B11D
:1069CC00019101F007FA23680199DB680246204621
:1069DC0002B0BDE81040184702B010BD08B5FFF773
:1069EC00EBFF08BD03689B68184738B50D210546B9
:1069FC00FFF7F8FF0A2104462846FFF7F3FF20446F
:106A0C0038BD38B50546FFF7D7FF04462846FFF7D3
:106A1C00ECFF204438BD30B58BB00023012A8DF833
:106A2C00243098BF0A2209AC0D46B1FBF2F101FBF0
:106A3C00125303F0FF03092B94BF30333733DBB20F
:106A4C00AA4204F8013DEFD92146FFF7B5FF0BB080
:106A5C0030BD2DE9F04186B000AF05460E46381D1D
:106A6C00142114463B60FFF781FD13280ED8391D05
:106A7C002846FFF7A1FF04461EB12846FFF7B5FFD5
:106A8C00044420461837BD46BDE8F08100F10803E8
:106A9C0023F00703E846ADEB030D2246411C3B688F
:106AAC006846FFF763FD69462846FFF785FF0446F5
:106ABC00C546E1E710B5044628B101F03BF990FB5F
:106ACC00F4F303FB1404204610BD0000014B00221C
:106ADC009A607047DCE603200021FFF703BC00211D
:106AEC00FFF7F8BB10B5044608462170FFF7DAFB38
:106AFC0000236360204610BD13B504460078FFF7F1
:106B0C00EEFF58B9207801904FF6FF71FFF7A2FB0A
:106B1C00019802B0BDE81040FFF7DEBF02B010BD17
:106B2C0013B5044600780191FFF7D9FF019948B9D4
:106B3C0020780190FFF796FB019802B0BDE8104059
:106B4C00FFF7CABF02B010BD13B50446007801911F
:106B5C00FFF7C5FF019948B920780190FFF78AFB30
:106B6C00019802B0BDE81040FFF7B6BF02B010BDEF
:106B7C00400830B51860002418688842E5B206D980
:106B8C000134082C02D040081860F5E70725024BA9
:106B9C005B5D137030BD00BF80EA0B002DE9F04146
:106BAC0088B000230446007802930E461746FFF780
:106BBC0096FF054600BB94F800800146142203A8FA
:106BCC0001F082F80B232A4603A94046ADF80C309D
:106BDC00FFF778FB04988DF8075002AB0DF1070214
:106BEC0007FB06F1FFF7C4FF20789DF80710FFF7AD
:106BFC0049FB2078FFF770FF029808B0BDE8F081E0
:106C0C0038B5044600780D46FFF769FF0346D0B946
:106C1C00616899B10C4A12F8010B854202D001331C
:106C2C00082BF8D10133DBB20122D9402046FFF703
:106C3C00B5FF2078BDE83840FFF74EBF20782946D5
:106C4C00FFF720FBF5E738BD80EA0B0008B50078AC
:106C5C00FFF720FBC0B208BD10B50446FFF71AFAC7
:106C6C00E060236820465B699847002808DAFFF744
:106C7C0011FAE368C01AA3689842F2D34FF0FF30C0
:106C8C0010BD000038B50D460749044600F059F810
:106C9C002846FFF7E1FF002804DBC1B2204600F0D4
:106CAC00CBF8F5E7204638BD9C810B0010B50446A7
:106CBC000068FFF74BFC204610BD10B50446006879
:106CCC0008B1FFF743FC0023C4E90133236010BD76
:106CDC0038B504460D4600680131FFF73FFC10B192
:106CEC00C4E90005012038BD10B50368044623B182
:106CFC0043688B4201D3012010BD2046FFF7E8FF0B
:106D0C000028F9D0A368002BF5D122681370F2E7A4
:106D1C0037B50D46114601920446FFF7E5FF019A7F
:106D2C0028B92046FFF7C9FF204603B030BDA2604A
:106D3C002946206800F0BAFF2268A3680021D154CC
:106D4C00F2E7002313B5C0E90033044683600373F4
:106D5C0041B10846019101F03DF8019902462046E7
:106D6C00FFF7D6FF204602B010BD884210B504468E
:106D7C0005D00B682BB18A681946FFF7C9FF20466E
:106D8C0010BDFFF79AFFFAE710B500230446C0E9DF
:106D9C00003383600373FFF7E8FF204610BD13B583
:106DAC00044659B10846019101F014F801990246C4
:106DBC002046FFF7ADFF204602B010BDFFF77DFF68
:106DCC00F9E710B504468AB00023C4E90033A36088
:106DDC002373084601A900F093FC01A92046FFF794
:106DEC00DEFF20460AB010BD70B505460E4609B947
:106DFC00002070BD6AB1846814442146FFF774FF0B
:106E0C000028F5D02868AB683146184400F0DAFF4A
:106E1C00AC600120EDE713B50446084651B1019171
:106E2C0000F0D8FF01990246204602B0BDE81040A0
:106E3C00FFF7DABF02B010BD07B500238DF80410C0
:106E4C00012201A98DF80530FFF7CEFF03B05DF8E4
:106E5C0004FB10B58A6809680446FFF7C5FF10B932
:106E6C002046FFF72AFF204610BD13B5044629B96A
:106E7C002046FFF722FF204602B010BD08460191C4
:106E8C0000F0A8FF019902462046FFF7ADFF00284D
:106E9C00EED0F0E7054B02221A60054B054A9A60CA
:106EAC000020C3E90000FFF7B5BA00BFF8E60320E5
:106EBC00ECE603200000FFFF13B503688DF8071004
:106ECC00DC6B01224FF0FF330DF10701A04702B03C
:106EDC0010BD10B40368DC6B4FF0FF33A4465DF8B3
:106EEC00044B604713B5134602688DF80710D46B3A
:106EFC000DF107010122A04702B010BD10B5436986
:106F0C00B3F88620B3F884309A42044608D06369FB
:106F1C00B3F88420511CA3F884101344187910BDC5
:106F2C0003681B6998470028F1D14FF0FF30F6E752
:106F3C00704743691868C043C00F70477047000022
:106F4C00064B994210B500F10C0405D0084600F030
:106F5C0095FD002808BF0024204610BDC0E90B0099
:106F6C0010B5AC210446FDF792F8204610BDAC21BB
:106F7C00FDF78DB82DE9F0414FF0000886B01C46A6
:106F8C00C0F8048005460E4617464146102202A85A
:106F9C0000F09AFE631C09D04FF47A73B4FBF3F241
:106FAC0003FB1244CDE902285C4304946869102366
:106FBC000093006802AB41F2050240F6FF71FFF747
:106FCC0019F9002807DAFFF7D9FA03686B6000207B
:106FDC0006B0BDE8F0816869002300683A46314686
:106FEC00FFF728F9031EEEDB1846F1E730B587B042
:106FFC00044601AD6846FFF7FFFB0FCD04340FC408
:10700C002B68237007B030BD70B54D69054B044635
:10701C008C3544F8043B06460FCD0FC42B68237007
:10702C00304670BD34EA0B002DE9F04398460368F6
:10703C0093B00D460024DB6A06461746984728464F
:10704C006B46224621460094FFF7CCF805460028F3
:10705C0063D1009B002B4BD05B69002B48D006A85A
:10706C00FFF786FB009B5C696378022B04D1211D22
:10707C0006A8FFF7BBFF26E00A2B24D111222946D4
:10708C0001A800F021FEA368002B38D004F10803FE
:10709C000DF1040C183418685968624603C20833A1
:1070AC00A3429446F7D1062301A90CA88DF81430FD
:1070BC00FFF76CFB0DF1340CBCE80F0007AC0FC4F0
:1070CC00DCF80030237006A8FFF772FB80B1336840
:1070DC0007ADD3F82090124B0C930FCD0DAC0FC411
:1070EC002B6823703A4643460CA93046C8470546E0
:1070FC000098FFF76FF8284613B0BDE8F083E368FB
:10710C00002BC3D14FF6FF70D4F81090FFF752F854
:10711C008145BBD104F11401AAE72546E8E700BF7D
:10712C0034EA0B0038B543691A68002A054610DAB0
:10713C00B3F88620B3F884309A420AD103681B69ED
:10714C009847044628B92B682846DB6A984720469E
:10715C0038BD0120FCE710B54369B3F88620B3F8BD
:10716C0084309A42044605D06369B3F884201344F2
:10717C00187910BD03681B6998470028F4D14FF0AB
:10718C00FF30F6E7F8B543691746B3F88620B3F835
:10719C0084309A4205460E4616D06969B1F884309F
:1071AC00B1F88640E41ABC4228BF3C460433224660
:1071BC001944304600F07AFD6A69B2F884302344F1
:1071CC00A2F884302046F8BD03681B699847002854
:1071DC00E3D14FF0FF34F5E742690023A2F8843085
:1071EC004269A2F8863070472DE9F0411F460368CA
:1071FC000C46DB6A8AB0054616469847237DD5F8BF
:10720C001480042B0CBF02200A2006220121FFF758
:10721C0019F8C8F800006B691B68002B08DA2B689A
:10722C002846DB6A0024984720460AB0BDE8F08166
:10723C002846FFF7D1FFB7B1002303A9F8B2039397
:10724C00ADF81030FEF7A6FF0028E8D168690623D8
:10725C000093006803AB41F20B0240F6FF71FEF79E
:10726C00C9FF0028DBD11C22002103A800F02CFD53
:10727C00237D042B1DD14FF407733046ADF80C3031
:10728C00FEF7A0FFADF80E006068FEF793FF0490C8
:10729C006B691C22186803A9FEF7BCFF0028BED13D
:1072AC0004340FCC6D698C350FC523682B70012409
:1072BC00BAE740F61C233046ADF80C30FEF782FFDF
:1072CC0005AEADF80E00231D04F1140718685968BB
:1072DC00324603C20833BB421646F7D1D8E700004A
:1072EC0030B54269B2F886308BB004462BB1B2F897
:1072FC0084209A4201D1FFF76FFF6169086800286A
:10730C0018DBB1F886507F2D14D804310823C5F151
:10731C0080022944FEF786FF002813DD6369B3F869
:10732C0086200AB9A3F884206369B3F88620104438
:10733C00A3F886006369B3F88600B3F88430C01AEA
:10734C000BB030BDFFF71AF903680B2BF2D0FFF727
:10735C0015F903680B2BEDD020230025CDE9023560
:10736C00FFF70CF903680193084B0949009302AA33
:10737C002B463220FFF746F863691868FEF742FF88
:10738C0063694FF0FF321A60D4E700BF8FEA0B003D
:10739C0088EA0B0010B5436904461868002801DB25
:1073AC00FEF730FF63694FF0FF321A6060691122FB
:1073BC0000218C3000F088FC2046BDE81040FFF71F
:1073CC000BBF10B5002304460160C0F88430883030
:1073DC00FFF7CEF9204610BD73B500234FF47A7237
:1073EC00C0E901320E4A0361026043610446AC20DD
:1073FC000191FCF748FE051E05F10C0608D001238F
:10740C00C5E90133074B01992B603046FFF7D9FFD3
:10741C002046C4E90565FFF7DFFE02B070BD00BF72
:10742C00C4EA0B00A8EA0B0010B54FF0FF3104467C
:10743C00FFF7D2FF204610BD10B5044600680028A7
:10744C0001DBFEF7DFFE204610BD0C30FFF7F4BF6A
:10745C00024B1A68024B1A60704700BF80E503208C
:10746C00FCE6032070474174704708B5007CFEF7BA
:10747C0071FF20EAE07008BD08B5007CFEF742FF02
:10748C0020EAE07008BD08B5007CFEF74BFF40EA2F
:10749C00E07008BD08B5007CFEF73CFF40EAE070E8
:1074AC0008BD007CFEF746BF37B5457C04462DB1C0
:1074BC00207C03B0BDE83040FEF71CBF007C01917E
:1074CC00FEF748FF00280199F2DC284603B030BDD6
:1074DC0010B514210446FCF7DAFD204610BD00005F
:1074EC0010B54FF47A730446084611460022C4E9DD
:1074FC000123044B2360012320746374FEF732FFD5
:10750C00204610BD2CEB0B00417470477047704740
:10751C0008B50021007CFEF74DFF40EAE07008BD85
:10752C0008B50121007CFEF745FF40EAE07008BD7C
:10753C0008B5007CFEF736FF20EAE07008BD08B500
:10754C00007CFEF727FF20EAE07008BD13B5044667
:10755C00007C0191FEF726FF0028019901DC607C7C
:10756C0020B1207CFEF72EFF20EAE07002B010BDA7
:10757C00007CFEF72FBF10B514210446FCF787FDE5
:10758C00204610BD10B54FF47A730446084600210E
:10759C00C4E90113044B2360012320746374114666
:1075AC00FEF7E8FE204610BD5CEB0B00007C0022D1
:1075BC00FEF7E8BE007CFEF715BF10B5142204469A
:1075CC00002100F081FB204610BD000010B50F4CCF
:1075DC0088B003A8FFF7F1FF2178BFF35B8F11F0A0
:1075EC0001010FD120460191FCF760FD019948B1D2
:1075FC0003AA0748FFF7C6FF2046FCF75CFD0548C9
:10760C0000F04EFB024808B010BD00BF00E703209D
:10761C0004E7032019750B00002240681146FEF7A1
:10762C0045BF002240681146FEF760BF002240684B
:10763C001146FEF76BBF40680022FEF75FBF406843
:10764C00002281F00101FEF749BF002340681A4671
:10765C001946FEF73BBF002340681A461946FEF751
:10766C002DBF002240681146FEF710BF4068002273
:10767C000221FEF713BF002340681A46FEF7FEBE38
:10768C00024B04225A60024A1A60704718E7032022
:10769C008CEB0B0010B5044600F09CFB0138231852
:1076AC002046834206D90278197800F8011B03F8AA
:1076BC000129F6E710BD70B50C46911E22291DD884
:1076CC00254630B9234430229D4210D205F8012BB7
:1076DC00FAE7B0FBF2F602FB1600C1B2092894BF20
:1076EC0030315731C9B205F8011B3046E9E70023A8
:1076FC0020462B70FFF7CEFF204670BD0020FCE724
:10770C0038B5031E0C4615460EDAB3F1004F4FF098
:10771C002D0214BF5842184601230A702A461944F8
:10772C00FFF7C9FF204638BD0123F9E7014B18606C
:10773C00704700BF84E5032008B50B4B43B1FFF73E
:10774C0045FF03681B699847002801DDAFF30080F3
:10775C00064B43B100F06CF903681B69984700288D
:10776C0001DDAFF3008008BD000000000000000048
:10777C0008B5FFF7E1FFFEF78DFC014B186008BD63
:10778C0028E703200548064A064908B5121A00F0F6
:10779C008DFA054B054A1A6008BD00BF00F40320A2
:1077AC0004F4032074ED0B0000F403201E1C279A34
:1077BC0007B5002300931A466FF07701FEF744FEDD
:1077CC0003B05DF804FB000007B543880A2B08D012
:1077DC00502B0BD1094B1B684BB103B05DF804EB7C
:1077EC001847FFF7E5FF03B05DF804FB0023009397
:1077FC001A466FF07701FEF727FEF4E724E7032023
:10780C0010B512480021FEF7C9FE114B1A68114B36
:10781C009A42114B0CBF012200221A7001D0FFF7C3
:10782C00B1FFFEF71FFC044600F056FA0B4B13B1E8
:10783C002046AFF3008000210848FEF717FEBDE894
:10784C00104007480021FEF7F5BD00BF39770B004B
:10785C0000F403201E1C279A20E7032000000000E0
:10786C00D5770B00232813B502D9002002B010BD28
:10787C00A0F10B03022B1AD8174C2178BFF35B8FA6
:10788C0011F001010BD120460191FCF70FFC01997D
:10789C0028B11248FFF726F92046FCF70CFC0F4BD9
:1078AC001878FEF707FD0028DFD10120DEE701285C
:1078BC0009D800F07DF80021007CFEF75BFC80F01D
:1078CC000100C0B2D2E709380128EED800F0B0F8B8
:1078DC00007CFEF737FDF2E7B8E60320BCE6032098
:1078EC00232838B504460D460AD8FF2908D0FFF7DF
:1078FC00B9FF28B129462046BDE83840FEF7E2BB67
:10790C0038BD38B504460D46FEF7E4FBFF2810D011
:10791C00062804D84D2323FA00F0C30709D42046C7
:10792C00FFF7A0FF28B129462046BDE83840FEF7F6
:10793C00D9BB38BD2DE9F04190461F4607240646B9
:10794C000D46C4F10701B8F1000F12D147FA01F14D
:10795C0001F001013046FFF7D4FF01212846FFF763
:10796C00D0FF00212846FFF7CCFF013CE9D2BDE84F
:10797C00F08147FA04F1EBE77047000038B50A4B89
:10798C0003600123044643610849202000F074F889
:10799C00202560600549A560284600F06DF8C4E913
:1079AC000305204638BD00BF18000100C0EB0B00DA
:1079BC0030B50E4D2978BFF35B8F11F0010487B001
:1079CC0011D12846FCF772FB68B16846FFF7D6FF69
:1079DC006A4621460648FEF75FFE2846FCF76BFB1D
:1079EC00044800F05DF9024807B030BD2CE70320D5
:1079FC0030E7032085790B007047000038B504464A
:107A0C0014252A46002100F05FF9258040250749FE
:107A1C0025812846258200F02FF80449606028460D
:107A2C0000F02AF8E060204638BD00BFC0EB0B0028
:107A3C0030B50E4D2978BFF35B8F11F0010487B080
:107A4C0011D12846FCF732FB68B101A8FFF7D6FF2D
:107A5C0001AA21460648FFF743FD2846FCF72BFBFD
:107A6C00044800F01DF9024807B030BD44E703207C
:107A7C0048E70320057A0B00FCF707BB014900F02F
:107A8C00F9B800BFDCEB0B007FB500241023CDE967
:107A9C000234036815469E6912686B46CDE90044B2
:107AAC00B0479DF8043003F00603062B03BF009B80
:107ABC002B600120204604B070BD0098904214BF8A
:107ACC00012006207047000010B5034B03600446EC
:107ADC0000F0CDF8204610BD1CEC0B0010B5044690
:107AEC00FFF7F2FF20460821FCF7D1FA204610BD23
:107AFC002DE9F0411F46DDE90834DDF81880984582
:107B0C000646154607D1079900F0B4F818B165710F
:107B1C000020BDE8F0813946304600F0ABF8002873
:107B2C00F6D00123C4F800802571A371F0E738B5B5
:107B3C0015461C4600F09EF820B10823E36006238E
:107B4C002560237138BD73B505460C4601921E465F
:107B5C0000F090F850B9032E08D82368019A5B699D
:107B6C002946204602B0BDE87040184702B070BDEF
:107B7C0010B5034B03600446FFF7A6FF204610BD6B
:107B8C007CEC0B0010B50446FFF7F2FF20460C21ED
:107B9C00FCF77DFA204610BDF7B5089F97420546C5
:107BAC000E4614460AD0A86802680897156A314632
:107BBC002246AC4603B0BDE8F0406047194601933D
:107BCC0000F058F8019B0028EDD0062003B0F0BD62
:107BDC002DE9F14F0D461946DDE90A4BDDE90CA6FE
:107BEC0081461746984600F045F890B1002D346058
:107BFC00377109DB61198A450CBF06210121B1716E
:107C0C00002001B0BDE8F08F0235F9D10123B3712A
:107C1C00F6E7544506D15946484600F02BF808B112
:107C2C007771EDE7D9F808000368CDE90CA6CDE92A
:107C3C000A4BDC693A4643462946A44601B0BDE8E6
:107C4C00F04F60472DE9F04107460C4615461E469D
:107C5C00FFF76DFF48B9B86803689F692A46334639
:107C6C002146BC46BDE8F0416047BDE8F081704755
:107C7C0000207047814208B50ED0406803782A2B4B
:107C8C000CD049680B782A2B08BF013100F090F812
:107C9C00B0FA80F0400908BD0120FCE70020FAE7AB
:107CAC00002301461A46184600F09CB80A4491423B
:107CBC0000F1FF3300D1704710B511F8014B03F8F8
:107CCC00014F9142F9D110BD02440346934200D1B9
:107CDC00704703F8011BF9E738B5104B1D68AB6B07
:107CEC000446B3B91820FEF729FC0246A86320B954
:107CFC000B4B0C484221FEF749FC0B490B4BC0E9DE
:107D0C0000130B4B83600B23838100210120C2E9FC
:107D1C000401AB6B00221C615A6138BD84E5032061
:107D2C00B5EC0B00CCEC0B000E33CDAB34126DE686
:107D3C00ECDE0500164B10B51C68A36BB3B918200C
:107D4C00FEF7FCFBA06328B90246124B12484E21E9
:107D5C00FEF71CFC114A124BC0E90023114B836047
:107D6C000B23838101220023C0E90423A46B0E4A58
:107D7C00206963690D49424301FB0322A0FB010109
:107D8C00431C42EB0100C4E9043020F0004010BD5C
:107D9C0084E50320B5EC0B00CCEC0B000E33CDAB23
:107DAC0034126DE6ECDE05002DF451582D7F954C08
:107DBC0010F8012B11F8013B012A28BF9A42F7D089
:107DCC00D01A7047034611F8012B03F8012B002A37
:107DDC00F9D17047034613F8012B002AFBD1181A6E
:107DEC00013870472DE9F843DFF8B8800646D8F81B
:107DFC0000001F460D46914600F056F8254B1C68B6
:107E0C0034B9254C1C60254B13B11B68C4F8883061
:107E1C0063681F2B07DDD8F8000000F047F84FF01F
:107E2C00FF30BDE8F8834EB3D4F8880088B91C4BFA
:107E3C0023B9D8F8000000F038F8F0E74FF484705C
:107E4C00FEF77CFB0028F4D00023C0E94033C4F8D3
:107E5C008800636840F8239001229A4000EB83016C
:107E6C00D0F800311343C0F80031022EC1F88070F5
:107E7C0002BFD0F804311343C0F804316368D8F85A
:107E8C0000005A1C0233626044F8235000F00EF8D4
:107E9C000020C6E7E8E703205CE7032000000000B1
:107EAC0049650B00E8E503207047704770470000F8
:107EBC001D400B0059400B0081400B0085400B000E
:107ECC000000000043616C6C206F6E207075726551
:107EDC00207669727475616C004E6F204368616E18
:107EEC006765202D2043616E63656C6C696E67203D
:107EFC00434D440A007B226F6E223A747275652CD6
:107F0C0022736174223A002C22627269223A002C8C
:107F1C0022687565223A007B226F6E223A66616C8C
:107F2C0073657D0053656E64696E6720436F6D6D7C
:107F3C00616E6420746F2048756500505554202F75
:107F4C006170692F002F6C69676874732F002F7331
:107F5C007461746520485454502F312E3100486F91
:107F6C0073743A2000436F6E74656E742D4C656E9D
:107F7C006774683A2000436F6E74656E742D547983
:107F8C0070653A20746578742F706C61696E3B6310
:107F9C006861727365743D5554462D380046726F96
:107FAC006D20487565005377697463684F4E2025C2
:107FBC0069200A003C3F786D6C2076657273696F9E
:107FCC006E3D22312E302220656E636F64696E67C0
:107FDC003D227574662D38223F3E3C733A456E76D1
:107FEC00656C6F706520786D6C6E733A733D2268AA
:107FFC007474703A2F2F736368656D61732E786D8E
:10800C006C736F61702E6F72672F736F61702F6559
:10801C006E76656C6F70652F2220733A656E636F98
:10802C0064696E675374796C653D22687474703A38
:10803C002F2F736368656D61732E786D6C736F6130
:10804C00702E6F72672F736F61702F656E636F6424
:10805C00696E672F223E3C733A426F64793E3C75E1
:10806C003A53657442696E61727953746174652018
:10807C00786D6C6E733A753D2275726E3A42656C12
:10808C006B696E3A736572766963653A626173699E
:10809C00636576656E743A31223E3C42696E61725C
:1080AC007953746174653E313C2F42696E6172790B
:1080BC0053746174653E3C2F753A53657442696E16
:1080CC0061727953746174653E3C2F733A426F64EC
:1080DC00793E3C2F733A456E76656C6F70653E0049
:1080EC00504F5354202F75706E702F636F6E7472D7
:1080FC006F6C2F62617369636576656E74312048AD
:10810C005454502F312E3100436F6E74656E742DA4
:10811C00547970653A20746578742F786D6C3B20B7
:10812C00636861727365743D7574662D3800534FC6
:10813C004150414354494F4E3A202275726E3A4297
:10814C00656C6B696E3A736572766963653A6261E8
:10815C007369636576656E743A312353657442694D
:10816C006E61727953746174652200436F6E6E6533
:10817C006374696F6E3A206B6565702D616C6976FE
:10818C0065007377697463684F4646202569200A39
:10819C00003C3F786D6C2076657273696F6E3D2282
:1081AC00312E302220656E636F64696E673D2275D7
:1081BC0074662D38223F3E3C733A456E76656C6F83
:1081CC00706520786D6C6E733A733D2268747470B0
:1081DC003A2F2F736368656D61732E786D6C736FB6
:1081EC0061702E6F72672F736F61702F656E76657D
:1081FC006C6F70652F2220733A656E636F64696EC5
:10820C00675374796C653D22687474703A2F2F73C0
:10821C006368656D61732E786D6C736F61702E6F12
:10822C0072672F736F61702F656E636F64696E6711
:10823C002F223E3C733A426F64793E3C753A53654B
:10824C007442696E617279537461746520786D6CD7
:10825C006E733A753D2275726E3A42656C6B696E3F
:10826C003A736572766963653A62617369636576C0
:10827C00656E743A31223E3C42696E617279537478
:10828C006174653E303C2F42696E61727953746142
:10829C0074653E3C2F753A53657442696E61727910
:1082AC0053746174653E3C2F733A426F64793E3C63
:1082BC002F733A456E76656C6F70653E0049730A94
:1082CC0054657374696E670A596F752E0A0054757C
:1082DC00726E69696E67206F6E204D5257454D4F17
:1082EC00202325690A005475726E69696E67206FC8
:1082FC006666204D5257454D4F202325690A007460
:10830C0075726E696E67206F6E20746865206C697B
:10831C006768740A007475726E696E67206F6666A2
:10832C0020746865206C69676874005475726E6996
:10833C00696E67206F6E204D5357454D4F20232596
:10834C00690A005475726E69696E67206F666620E3
:10835C004D5357454D4F202325690A006C696768BA
:10836C007420312C20723D2025690A006C696768E5
:10837C007420322C20723D2025690A006C696768D4
:10838C007420332C20723D2025690A006C696768C3
:10839C007420342C20723D2025690A006C696768B2
:1083AC007420352C20723D2025690A006C696768A1
:1083BC007420362C20723D2025690A003139322E6A
:1083CC003136382E312E3330003139322E313638A9
:1083DC002E312E3331003139322E3136382E312EAA
:1083EC003332003139322E3136382E312E333300C0
:1083FC003139322E3136382E312E3334004D516C0A
:10840C005A7A69524F30576169354D734D486C6CCF
:10841C003878415541517177383551727238744DF5
:10842C003337463354000000000000000000000009
:10843C000000000000000000000000000000000030
:10844C000000000000000000000000000000000020
:10845C000000000000000000000000000000000010
:10846C000000000000000000000000000000000000
:10847C0000000000000000000000000000000000F0
:10848C0000000000000000000000000000000000E0
:10849C0000000000000000000000000000000000D0
:1084AC0000000000000000000000000000000000C0
:1084BC0000000000000000000000000000000000B0
:1084CC0000000000000000000000000000000000A0
:1084DC000000000000000000000000000000000090
:1084EC000000000000000000000000000000001868
:1084FC000000000000000000000000000000003838
:10850C000000000000000000000000000000005807
:10851C000000000000000000000000000000001837
:10852C000000000000000000000000000000001827
:10853C000000000000000000000000000000001817
:10854C000000000000000000000000000000001807
:10855C0000000000000000000000000000000018F7
:10856C000000000000000000001F7803E03C3C1FEE
:10857C00803E000000000000003BDC02F01C1018E4
:10858C00C06300000000000000198C01B80E301808
:10859C0060FF0000000000000019CE031C0620182C
:1085AC0060C00000000000000018C7030E07601830
:1085BC0060C00000000000000018C3038F03C07CE3
:1085CC00C061800000000000003CF7C1F181803FD9
:1085DC00C03E000000000000000000000001800808
:1085EC0000000000000000000000000000FB000084
:1085FC00000000000000000000000000011F10003F
:10860C00000000000000000000000000010FE0006E
:10861C0000000000000000000000000000B000009E
:10862C00000000000000000000000000000000003E
:10863C00000000000000000000000000000000002E
:10864C00000000000000000000000000000000001E
:10865C00000000000000000000000000000000000E
:10866C0000000000000000000000000000000000FE
:10867C0000000000000000000000000000000000EE
:10868C0000000000000000000000000000000000DE
:10869C0000000000000000000000000000000000CE
:1086AC0000000000000000000000000000000000BE
:1086BC0000000000000000000000000000000000AE
:1086CC000000000000000000000000000800004056
:1086DC00600000000000000000000000080000C066
:1086EC00600000000000000000000000180000C046
:1086FC00100000000000003E007C071C7C0003E022
:10870C00701F7800F800007300C30798180000C0B1
:10871C00303BDC018600003301FF01F0180000C083
:10872C0030198C03FE000031818000E0180000C07D
:10873C003019CE0300000031818100E0180000C028
:10874C003018C70302000031C0C301FC1B0000D06D
:10875C003018C30186000079E07E073C1D0000D074
:10876C00783CF7C0FC000000000000000000000096
:10877C0000000000000000000000000000000000ED
:10878C0000000000000000000000000000000000DD
:10879C0000000000000000000000000000000000CD
:1087AC0000000000000000000000000000000000BD
:1087BC0000000000000000000000000000000000AD
:1087CC00000000000000000000000000000000009D
:1087DC00000000000000000000000000000000008D
:1087EC00000000000000000000000000000000007D
:1087FC00000000000000000000000000000000006D
:10880C00000000000000000000000000000000005C
:10881C00000000000000000000000000000000004C
:10882C00000000000000000000000000000000003C
:10883C00000000000000000000000000000000002C
:10884C00000000000000000000000000000000001C
:10885C00000000000000000000000000000000000C
:10886C0000000000000000000000000000000000FC
:10887C0000000000000000000000000000000000EC
:10888C0000000000000000000000000000000000DC
:10889C0000000000000000000000000000000000CC
:1088AC0000000000000000000000000000000000BC
:1088BC00000000000000000000000003CF0F8760E4
:1088CC00000000000000000000000001C61E8EE049
:1088DC00000000000000000000000000CC398660A1
:1088EC00000000000000000000000000EC33866077
:1088FC00000000000000000000000000783F077836
:10890C00000000000000000000000000381E03F012
:10891C00000000000000000000000000300000001B
:10892C0000000000000000000000000FE400000048
:10893C00000000000000000000000008FC00000027
:10894C0000000000000000000000000F800000008C
:10895C00000000000000000000000000000000000B
:10896C0000000000000000000000000000000000FB
:10897C0000000000000000000000000000000000EB
:10898C0000000000000000000000000000000000DB
:10899C0000000000000000000000000000001800B3
:1089AC0000700000000000000000000000007800D3
:1089BC0000F00000000000000000000000001800A3
:1089CC000030000000000000000000000000180053
:1089DC000030000000000000000000000000180043
:1089EC000030000000000000000000000000180033
:1089FC0000300000000000000003C07E0F81F81F53
:108A0C0003F00000000000000007E0E71CC39839E9
:108A1C008670000000000000000360FF1FC3183FB9
:108A2C008C30000000000000000370C018031830E8
:108A3C000C30000000000000000330E31C633E38E3
:108A4C00CE7800000000000000073C7E0FC1F81F2C
:108A5C0087F0000000000000000000000000000093
:108A6C0000000000000000000000000000000000FA
:108A7C0000000000000000000000000000000000EA
:108A8C0000000000000000000000000000000000DA
:108A9C0000000000000000000000000000000000CA
:108AAC0000000000000000000000000000000000BA
:108ABC0000000000000000000000000000000000AA
:108ACC00000000000000000000000000000000009A
:108ADC000000000000000000000000000400000086
:108AEC000000000000000000000000000C0000006E
:108AFC000000000000000000000000001C0000004E
:108B0C000000000000000000000000000C0000004D
:108B1C000000000000000000000000040C00001821
:108B2C0000000000000000000000000C0C00001809
:108B3C0000000000000000000000001E0F83C07841
:108B4C0000000000000000000000000C0F83E01883
:108B5C0000000000000000000000000C0DC13018E7
:108B6C0000000000000000000000000C0CC31818EE
:108B7C0000000000000000000000000F0CE3DC1CF3
:108B8C0000000000000000000000000F1EF1F61CA9
:108B9C0000000000000000000000000000000000C9
:108BAC0000000000000000000000000000000000B9
:108BBC0000000000000000000000000000000000A9
:108BCC000000000000000000000000000000000099
:108BDC000000000000000000000000000000000089
:108BEC000000000000000000000000000000000079
:108BFC000000000000000000000000000000000069
:108C0C000000000000000000000000000000000058
:108C1C000000000000000000000000000000000048
:108C2C00000000000000FFFFFFFFFFFFFFFF8000C0
:108C3C000000000000019FFFFFFFFFFFFFF99FFFF7
:108C4C00FFFFFFFFFFF99FFFFFFFFFFFFFF99800FA
:108C5C00007FFC00001998000FFFFFF0001998002E
:108C6C007FFFFFFE00199803FFFFFFFFC019980F4D
:108C7C00FFFFFFFFF019981FFFFFFFFFF819987F08
:108C8C00FFFFFFFFFE1998FFFFFFFFFFFF1999FF82
:108C9C00FFFFFFFFFF999BFFFFFFFFFFFFD99FFF28
:108CAC00FFFFFFFFFFF99FFFFFFFFFFFFFF99FFF94
:108CBC00FFFFFFFFFFF99FFFFFFFFFFFFFF99FFF84
:108CCC00FFFFFFFFFFF998FFFFFFFFFFFF19987EE3
:108CDC0000FFFF803E199878007FFE000E399E61E0
:108CEC00F01FF80F86799807FC07E03FE619983FCC
:108CFC00FE03C07FFE199E3FFF03C0FFFCF99C7F63
:108D0C00FFC3C3FFFE1999FFFFFFFFFFFF999FEF02
:108D1C00C0FFFF83E7F99FEF807FFE00F7F99FEF1D
:108D2C00003FFC00F7F99FFE003FFC007FF99FFE1F
:108D3C00007FDE007FF99FFFFE7BDE7FFFF99FFF48
:108D4C00FFFBFDFFFFF99FFFFFF7FFFFFFF99FFF01
:108D5C00FFEFFBFFFFF99FEFFFDFFDFFF3F99F8FA5
:108D6C00FFFFFDFFF1F99F0FFFFFFFFFF0F99F0FD2
:108D7C00FFFFF9FFF0799E0FFE07E03FF0799E07A9
:108D8C00F003C00FE0799E000000000000799E0007
:108D9C000000000000799E000000000000799E0099
:108DAC000000000000F99B000000000000D99900B1
:108DBC0000000000019998C0000000000719987F7E
:108DCC00FFFE1F1FFE19987FF803F01FFE19983F36
:108DDC00FC00003FFC19983FFE00007FFC19983FF7
:108DEC00FF8001FFFC19981FFFF007FFF819981F6F
:108DFC00FFFFFFFFF819981FFFFFFFFFF819980FEF
:108E0C00FFFFFFFFF819980FFFFFFFFFF819980FEE
:108E1C00FFFFFFFFF0199807FFFFFFFFE019980312
:108E2C00FFFFFFFFE0199801FFFFFFFFC01998003B
:108E3C00FFFFFFFF801998007FFFFFFE00199800CD
:108E4C001FFFFFFC001998000FFFFFF80019980096
:108E5C0007FFFFE00019980003FFFFE000199FFFD8
:108E6C00FFFFFFFFFFF99FFFFFFFFFFFFFF99C00D4
:108E7C00000000000039980000000000001999F86B
:108E8C0000001000001999F0C1831182001999811A
:108E9C00C38703C7199999833658D66FD99999F313
:108EAC0024583667199999FB045836621999998197
:108EBC00C45837C219999980345836021999998235
:108ECC0034589622199999833648D6631999998101
:108EDC00C38733C1CF999900000100000199980014
:108EEC000000000007999800000000000F1998007E
:108EFC000000000000199C000000000000199FFFFA
:108F0C00FFFFFFFFFFF99FFFFFFFFFFFFFF980004F
:108F1C00000000000001FFFFFFFFFFFFFFFFFFFF4E
:108F2C00FFFFFFFFFFFFFFFFFFFFFFFFFFFFFFFF45
:108F3C00FFFFFFFFFFFFFFFFFFFFFFFFFFFFFFFF35
:108F4C00FFFFFFFFFFFFFFFFFFFFFFFFFFFFFFFF25
:108F5C00FFFFFFFFFFFFFFFFFFFFFFFFFFFFFFFF15
:108F6C00FFFFFFFFFFFFFFFFFFFFFFFFFFFFFFFF05
:108F7C00FFFFFFFFFFFFFFFFFFFFFFFFFFFFFFFFF5
:108F8C00FFFFFFFFFFFFFFFFFFFFFFFFFFFFFFFFE5
:108F9C00FFFFFFFFFFFFFFFFFFFFFFFFFFFFFFFFD5
:108FAC00FFFFFFFFFFFFFFFFFFFFFFFFFFFFFFFFC5
:108FBC00FFFFFFFFFFFFFFFFFFFFFFFFFFFFFFFFB5
:108FCC00FFFFFFFFFFFFFFFFFFFFFFFFFFFFFFFFA5
:108FDC00FFFFFFFFFFFFFFFFFFFFFFFFFFFFFFFF95
:108FEC00FFFFFFFFFFFFFFFFFFFFFFFFFFFFFFFF85
:108FFC00FFFFFFFFFFFFFFFFFFFFFFFFFFFFFFFF75
:10900C00FFFFFFFFFFFFFFFFFFFFFFFFFFFFFFFF64
:10901C00FFFFFFFFFFFFFFFFFFFFFFFFFFFFFFFF54
:10902C00FFFFFFFFFFFF000000000000000000003A
:10903C000000000000000000000000000000000024
:10904C000000000000000000000000000000000014
:10905C000000000000000000000000000000000004
:10906C0000000000000000000000000000000000F4
:10907C0000000000000000000000000000000000E4
:10908C0000000000000000000000000000000000D4
:10909C0000000000000000000000000000000000C4
:1090AC0000000000000000000000000000000000B4
:1090BC0000000000000000000000000000000000A4
:1090CC000000000000000000000000000000000094
:1090DC000000000000000000000000000000000084
:1090EC000000000000000000000000000000000074
:1090FC000000000000000000000000000000000064
:10910C000000000000000000000000000000000053
:10911C000000000000000000000000000000000043
:10912C000000000000000000000000000000000033
:10913C000000000000000000000000000000000023
:10914C000000000000000000000000000000000013
:10915C000000000000000000000000000000000003
:10916C000000000000000000000000000180000072
:10917C000000000000001C3800000000038000000C
:10918C000000000000000E10000000000180000034
:10919C000000000000000E10000000000180000024
:1091AC000000000000000B102000000001800000F7
:1091BC000000020000000B90600000000180000025
:1091CC000000030000100990303C078001F0780388
:1091DC00C3FDC183C07808D0706618C001C06C078D
:1091EC002198838760E4087030C21FC001E0660CD0
:1091FC0020D9018360C4087030C0180001A0660C2F
:10920C0060DD0183308C083030C61C4001B067092A
:10921C00C076018330DC1C10387C0F8003B8778754
:10922C008026038738780000000000000000000052
:10923C00000000008038000000000000000000006A
:10924C000000000100100000000000000000000001
:10925C000000000080E000000000000000000000A2
:10926C00000000007FC000000000000000000000B3
:10927C0000000000080000000000000000000000DA
:10928C0000000000000000000000000000000000D2
:10929C0000000000000000000000000000000000C2
:1092AC0000000000000000000000000000000000B2
:1092BC000000000000000000000001E3800000003E
:1092CC000000000000000000000000C300000000CF
:1092DC00000000000000000000000066000000001C
:1092EC0000000000000000000000007400000000FE
:1092FC00000000000000000000000038000000002A
:10930C000000000000000000000000180F023000F8
:10931C000000000000000000000000181C86700017
:10932C000000000000000000000000183086300033
:10933C000000000000000000000000183186300022
:10934C000000000000000000000000182706386034
:10935C00C1800000000000000000001E1E03F06031
:10936C00C1800000000000000000000000000000B0
:10937C0000000000000000000000000000000000E1
:10938C0000000000000000000000000000000000D1
:10939C0000000000000000000000000000000000C1
:1093AC0000000000000000000000000000000000B1
:1093BC0000000000000000000000000000000000A1
:1093CC000000000000000000000000000000000091
:1093DC000000000000000000000000000000000081
:1093EC000000000000000000000000000000000071
:1093FC000000000000000000000000000000000061
:10940C000000000000000000000000000000000050
:10941C000000000000000000000000000000000040
:10942C000000000000000000000000000000000030
:10943C000000000000000000000000000000000020
:10944C000000000000000000000000000000000010
:10945C000000000000000000000000000000000000
:10946C0000000000000000000000000000000000F0
:10947C0000000000000000000000000000000000E0
:10948C0000000000000000000000000000000000D0
:10949C0000000000000000000000000000000000C0
:1094AC0000000000000000000000000000000000B0
:1094BC0000000000000000000000000000000000A0
:1094CC000000000000000000000000000000000090
:1094DC000000000000000000000000000000000080
:1094EC000000000000000000000000000000000070
:1094FC000000000000000000000000000000000060
:10950C00000000000000000000000000000000004F
:10951C00000000000000000000000000000000003F
:10952C00000000000000000000000000000000002F
:10953C00000000000000000000000000000000001F
:10954C000000000000000000000000000007FC000C
:10955C000000000000000000000FF8000003FC00F9
:10956C00FFC0000000000000000FFF800000F000B2
:10957C00FFFC0000000000000001FFE00000F00014
:10958C001F3F0000000000000001E0F80000F000A8
:10959C001C078000000000000001E03C0000F0000F
:1095AC001C03C000000000000001E01C0000F000E3
:1095BC001C01E000000000000001E01E0000F000B3
:1095CC001C01E000000000000001E01E0000F000A3
:1095DC001C00F000000000000001E00F0000F00093
:1095EC001C00F000000000000001E00F0000F00083
:1095FC001C00F000000000000001E00F0000F00073
:10960C001C00F000000000000001E00F0000F00062
:10961C001C00F000000000000001E00F0000F00052
:10962C001C00F000000000000001E00F0000F00042
:10963C001C00F000000000000001F01F0000F00012
:10964C001E01F000000000000001F81E0000F000F8
:10965C001F01E000000000000001FC3E0000F000D3
:10966C001FC3E000000000000001EFFC0000F00050
:10967C001CE7C000000000000001E3F80000F0004F
:10968C001C7FC000000000000001E1F00000F000B1
:10969C001C1F0000000000000001E1F00000F000C1
:1096AC001C000000000000000001E0F00000F000D1
:1096BC001C000000000000000001E0780000F00039
:1096CC001C000000000000000001E03C0000F00065
:1096DC001C000000000000000001E01FC000F000B2
:1096EC001E000000000000000007F81FE003F80057
:1096FC007F800000000000000007FC07C007FC0092
:10970C007F8000000000000000000001000000004D
:10971C00000000000000000000000000000000003D
:10972C00000000000000000000000000000000002D
:10973C00000000000000000000000000000000001D
:10974C00000000000000000000000000000000000D
:1099CC000000000000000000000003C001803838D7
:1099DC007F800000000000000000018001801C70EE
:1099EC0030800000000000000000018001C01E70EB
:1099FC0032000000000000000000018003C036B0FF
:109A0C003E000000000000000000018002C033B0E6
:109A1C00320000000000000000000180067C3330A2
:109A2C0030000000000000000000018004E021185C
:109A3C003000000000000000000001800DF0201834
:109A4C003000000000000000000001800F302018E2
:109A5C0030000000000000000000018C18382018B5
:109A6C003080000000000000000003F8383C703C1F
:109A7C007F800000000000000000000000000000DB
:109A8C0000000000000000000000000000000000CA
:109A9C0000000000000000000000000000000000BA
:109AAC0000000000000000000000000000000000AA
:109ABC00000000000000000000000000000000009A
:109CFC000000000000000000000000000001F8005F
:109D0C00000000000000000000000000000FF80040
:109D1C00000000000000000000000000003E780081
:109D2C0000000000000000000000000000F0300007
:109D3C000000000000000000000000000380000094
:109D4C000000000000000000000000000600000001
:109D5C000000000000000000600000009C000000FB
:109D6C000000000000000001E3F00003B8007F00D9
:109D7C00007FF00FF0000003EFFC000FF000FFC0BD
:109D8C00003FE007F000000FFC3E001FE000E3E0A6
:109D9C00000FC0018000001FF80F0003E00007F067
:109DAC000007C00300000000F00F8003C0000EF895
:109DBC000003E00700000000E0078003C000387CCF
:109DCC000001F00600000000E0078003C000383EF0
:109DDC000001F00E00000000E0078003C000701FBF
:109DEC000000F80C00000000E0078003C000700FBA
:109DFC0080007C1C00000000E0078003C000F0071E
:109E0C00C0003E1800000000E00F8003C000F80303
:109E1C00C0003E3800000000F00F0003C0007C03BF
:109E2C00E0001F7000000000F01F0003C0007E0364
:109E3C00F0000FE000000000FC3E0003C0003FFFFC
:109E4C00F80007E000000000FFFC000FE0003FFC02
:109E5C001C0007C000000000FFF0001FF0000FF016
:109E6C00060003C000000000F0000000000000002D
:109E7C000000078000000000F0000000000000005F
:109E8C000000078000000000F0000000000000004F
:109E9C0000FE0F0000000000F000000000000000B9
:109EAC0003FFCE0200000000F000000000000000E4
:109EBC00070FDC0700000000F000000000000000AD
:109ECC000C03B80300000000F000000000000000CC
:109EDC000800778200000000F00000000000000085
:109EEC000800EFFC00000000F00000000000000083
:109EFC000C03C3E000000000F000000000000000B4
:109F0C00060F000000000000F00000000000000040
:109F1C0003F8000000000000F0000000000000004A
:109F2C000000000000000000F00000000000000035
:109F3C000000000000000001F8000000000000001C
:109F4C000000000000000001F8000000000000000C
:109F5C000000000000000003E00000000000000012
:109F6C00000000000000000F800000000000000056
