:02000002B0004C
:1040000000400B0098130C00000006000C00050295
:084010000401A60F00000000EE
:0440180044B30B00A2
:1040200009480A49884208B505D0094A824202D0A7
:10403000121A07F085F80748074A0021121A07F0FC
:104040008DF8014808BD00BF38E10320D80E0C00F0
:10405000D0E50320D0E50320EDE7032070B5074E3F
:10406000074C05F0D3F8A41BA4080025AC4200D1EE
:1040700070BD56F8043B98470135F7E7880E0C00F1
:10408000B00E0C0000F05ABA08B500F0D7FABDE83F
:10409000084005F073B803F03DBF03F03BBF03F0E9
:1040A00041BF000008B5034A03490C2003F086FE17
:1040B000FEE700BF2D7A0B0058B30B000078B0FA72
:1040C00080F04009704701230370704770B50C1EE3
:1040D000064615460BDA0A2A09D12D2104F098F973
:1040E0006142EAB23046BDE8704004F0AAB9214608
:1040F000F7E70368C9B29B6818470EB403B503AB72
:10410000002153F8042B019304F0B9F902B05DF8D3
:1041100004EB03B07047000038B584690A4B0360B4
:1041200005467CB16368013B63605BB92368204648
:104130009B689847A368013BA3601BB9236820468E
:10414000DB689847284638BD0C0C0C0010B50446B7
:10415000FFF7E2FF20461C21FFF7A1FF204610BD1C
:104160002DE9F0418CB005460F4668467749DDF8E9
:10417000488014461E4604F0FAFADFF828E2744933
:10418000DEF800307348744ADFF81CC2AB4219D124
:104190000B68BB4216D10368A34213D11368B34224
:1041A00010D1DCF8003043450CD104F015FF6B4909
:1041B000FFF7A3FF0024684604F08EFA20460CB0F7
:1041C000BDE8F081CEF800500F6004601660CCF8B6
:1041D0000080002F00F0B5806149684604F0F5FAD0
:1041E000694608A804F0E6FA0A22414604A804F049
:1041F000FEFA04A908A804F031FB5A4904F03AFB7E
:104200000146684604F0C7FA04A804F065FA08A855
:1042100004F062FA694608A804F0CCFA0A22314692
:1042200004A804F0E4FA04A908A804F017FB4E4916
:1042300004F020FB0146684604F0ADFA04A804F03F
:104240004BFA08A804F048FA694608A804F0B2FA44
:104250000A22214604A804F0CAFA04A908A804F016
:10426000FDFA424904F006FB0146684604F093FA61
:1042700004A804F031FA08A804F02EFA3C493D489D
:104280000023502204F0D6FB0446002893D004F00B
:10429000A3FE394904F0CBF804F09EFE009904F027
:1042A000C6F83649334804F0AFF83549314804F0D0
:1042B000ABF834492F4804F0A7F80A222D482946C4
:1042C000FFF704FF30492B4804F0B1F82F49294883
:1042D00004F0ADF82E49274804F096F82449254803
:1042E00004F0A5F82B49234804F08EF80A2202991D
:1042F000204804F0A6F81F4804F08DF826491D4810
:1043000004F095F81B4804F086F80099194804F069
:104310008EF804F061FE214904F089F804F05CFE97
:104320001449044608A804F0C3F90899204604F08B
:104330007EF808A804F0D0F90E4804F031FD0124FD
:1043400039E71749684604F040FA97E76EB40B0066
:104350003CE6032044E6032034E603206DB30B0063
:1043600089B30B009BB30B00A3B30B00B6B30B00D8
:1043700079F90B00D0E50320B8B30B00CFB30B00E5
:1043800050B50B00D9B30B00E2B30B00F2B30B0036
:10439000FDB30B0004B40B0015B40B003CB40B00D0
:1043A000ABB30B0038E6032040E60320000000001A
:1043B00038B50C46054605F001F803F077FE04F029
:1043C000FDFF294603F0A1FE04F0F8FF1C21FFF7D2
:1043D00090FE04F0F3FFE100FFF78BFE04F0EEFF28
:1043E000012103F099FE204606F02AFB9FED120BF7
:1043F00041EC110B05F05CF9114953EC102B002036
:1044000006F0C2FC02460B4600200E4906F0BCFC3A
:1044100006F040FE044604F0DFFD0546204606F0A7
:1044200031FB02460B4628460749FFF766FE00EEC1
:10443000104A38BDAFF300800000000000000040CB
:104440000000D0400000F03F45B40B0038B50D46E9
:10445000044604F0B3FF03F029FE04F0AFFF214649
:1044600003F053FE04F0AAFF6B21FFF742FE04F0B5
:10447000A5FF0021FFF73DFE04F0A0FF012103F09E
:104480004BFE29462046FFF793FF024B83ED000ABF
:1044900038BD00BF48E6032038B504460D4604F099
:1044A0008DFF214603F031FE04F088FF03682946A2
:1044B0009B68984704F082FF002103F02DFE04F072
:1044C0007DFF21460222012303F00DFE04F076FF5A
:1044D00003685B699847044604F070FF03685B69F2
:1044E0009847C3B243EA042003B200EE103AB8EE94
:1044F000C00A38BD70B50C460F4E3B210546FFF78C
:10450000CBFFD6ED007A27EE800A3D21284684EDC8
:10451000000AFFF7C1FFD6ED007A27EE800A3F219F
:1045200084ED010A2846FFF7B7FFD6ED007A27EEA3
:10453000800A84ED020A70BD48E6032030B595B0CC
:1045400004F04AFD4FF4165104F036FD002003F04C
:1045500085FA42F210750446002003F07FFA001B32
:1045600061F10001A84271F1000307D204F034FDAB
:1045700004F026FD10B903F055FCEDE704F02CFD26
:1045800004F01EFD00216820FFF760FF244B254C3E
:1045900083ED000A00231A4619466068224D03F095
:1045A00071FC3822002106A806F0D8FD4C230193A7
:1045B0001E4B02930A220023CDE90323194601AAC8
:1045C0006068059303F07EFC002360681A46194674
:1045D00003F038FC00226068114603F03BFC28B170
:1045E00004F0FAFC2946FFF788FDF3E74FF47A70F0
:1045F00003F0C8FC04F0F0FC0D49FFF77EFD0D4808
:1046000002F06DFA0B4802F0A3FA0B483C2202219B
:1046100003F024F9084815B0BDE8304003F036B87F
:10462000B0E6032018E703206AB40B005FB40B0068
:104630006CB40B0098E6032070E603202DE9F04FE0
:10464000BE4FBF4E87B003F001FA3B683060C01A1E
:1046500040F6C41398424ED9BA4C68202146FFF761
:1046600049FF04F0B9FC0546206806F00BFA024643
:104670000B46A068CDE9042306F004FACDE9020157
:10468000606806F0FFF9DDE90423CDE90001AE49D9
:104690002846FFF732FDAD48022102F00AFE012252
:1046A000AA48082102F0F8FDA848012102F0F7FD10
:1046B000A648012102F0F8FD206806F0E3F9024661
:1046C0000B46A068CDE9042306F0DCF9CDE9020130
:1046D000606806F0D7F9DDE90423CDE900019C49C3
:1046E0009A48FFF70AFD994803F048F8974802F006
:1046F000CDFF3B683360974D2C68012C42F0388128
:104700009248954EDFF86492022102F0D2FD002219
:1047100011468E4802F0C0FD80234022CDE90032D0
:1047200000228E4B89480294114602F0B1FC874862
:1047300003F024F840F6B83003F024FC834802F07C
:10474000A5FF3470864C4FF0FF08FF2704F044FCAF
:104750004946FFF7D2FC0097434622683178012092
:10476000FFF7FEFC00974346226831780220FFF7EE
:10477000F7FC00974346226831780320FFF7F0FCEE
:1047800000974346226831780420FFF7E9FC009740
:104790004346226831780520FFF7E2FC0097434644
:1047A000226831780620A8F16408FFF7D9FC18F1D7
:1047B0002D0FCAD1DFF8B4914FF0000804F00CFCC3
:1047C0004946FFF79AFC009743462268317801205A
:1047D000FFF7C6FC00974346226831780220FFF7B6
:1047E000BFFC00974346226831780320FFF7B8FCEE
:1047F00000974346226831780420FFF7B1FC009708
:104800004346226831780520FFF7AAFC009743460B
:1048100022683178062008F16408FFF7A1FCB8F59A
:10482000967FCBD10023337004F0D6FB4D49FFF7C0
:1048300064FC009722683178FF230120FFF790FC89
:10484000009722683178FF230220FFF789FC009748
:1048500022683178FF230320FFF782FC009722684B
:104860003178FF230420FFF77BFC00972268317822
:10487000FF230520FFF774FC0097FF23226831789F
:104880000620FFF76DFC42F2107003F07BFB022361
:104890002B602E48304CDFF8D4A0314F022102F0BB
:1048A00008FD00221146294802F0F6FC01264023AB
:1048B0000022CDE9013680231146244800932A4B7B
:1048C00002F0E6FB214802F059FF40F6B83003F051
:1048D00059FB1E4802F0DAFE4FF0FF082670FF2653
:1048E00004F07AFB5146FFF708FC0096DFF8809051
:1048F0003A68217843460120FFF732FC0096434690
:10490000D9F8002021780220FFF72AFC00964346C0
:104910003A6821780320FFF723FC00964346D9F834
:10492000002021780420FFF71BFC009643463A68DC
:1049300021780520FFF714FC1CE000BF58E6032097
:1049400094E603204CE603206FB40B0070E60320CE
:10495000A6B40B00ACE603206CE6032079C10B0083
:1049600008E60320DAB40B0079CD0B00C4B40B00C9
:1049700044E1032000964346D9F800202178062020
:10498000A8F16408FFF7ECFB18F12D0FA7D1DFF8B1
:1049900058A34FF0000804F01FFB5146FFF7ADFB92
:1049A00000964346D9F8002021780120FFF7D8FB74
:1049B000009643463A6821780220FFF7D1FB009623
:1049C0004346D9F8002021780320FFF7C9FB009661
:1049D00043463A6821780420FFF7C2FB009643461D
:1049E000D9F8002021780520FFF7BAFB009643464E
:1049F0003A682178062008F16408FFF7B1FBB8F5A2
:104A0000967FC8D10023237004F0E6FAAF49FFF780
:104A100074FB00963A682178FF230120FFF7A0FB82
:104A200000963A682178FF230220FFF799FB009651
:104A30003A682178FF230320FFF792FB00963A683B
:104A40002178FF230420FFF78BFB00963A6821783A
:104A5000FF230520FFF784FB0096FF233A682178A7
:104A60000620FFF77DFB42F2107003F08BFA032360
:104A70002B609748974CDFF87092974F022102F015
:104A800018FC00221146924802F006FC0126402341
:104A90000022CDE90136802311468D4800938F4BCB
:104AA00002F0F6FA8A4802F069FE40F6B83003F0E8
:104AB00069FA874802F0EAFD4FF0FF082670FF26EA
:104AC00004F08AFA4946FFF718FB009643463A6815
:104AD00021780120FFF744FB009643463A6821788D
:104AE0000220FFF73DFB009643463A6821780320F9
:104AF000FFF736FB009643463A6821780420FFF71B
:104B00002FFB009643463A6821780520FFF728FBE3
:104B1000009643463A6821780620A8F16408FFF71A
:104B20001FFB18F12D0FCAD1DFF8BC914FF0000820
:104B300004F052FA4946FFF7E0FA009643463A6815
:104B400021780120FFF70CFB009643463A68217854
:104B50000220FFF705FB009643463A6821780320C0
:104B6000FFF7FEFA009643463A6821780420FFF7E3
:104B7000F7FA009643463A6821780520FFF7F0FAE5
:104B8000009643463A682178062008F16408FFF74A
:104B9000E7FAB8F5967FCBD10023514F237004F08C
:104BA0001BFA4A49FFF7A9FA00963A682178FF23D1
:104BB0000120FFF7D5FA00963A682178FF230220FA
:104BC000FFF7CEFA00963A682178FF230320FFF71B
:104BD000C7FA00963A682178FF230420FFF7C0FA4D
:104BE00000963A682178FF230520FFF7B9FA00966E
:104BF000FF233A6821780620FFF7B2FA42F21070DC
:104C000003F0C0F904232B603148324C344F0221A9
:104C100002F04FFB002211462D4802F03DFB012619
:104C200040230022CDE90136802311462848009315
:104C30002C4B02F02DFA264802F0A0FD40F6B830C9
:104C400003F0A0F9224802F021FD4FF0FF08267082
:104C5000FF2604F0C1F92449FFF74FFA00964346B6
:104C6000217847F60C320120FFF77AFA0096434686
:104C70003A6821780220FFF773FA009643462178BC
:104C800047F60C320320FFF76BFA009643463A686A
:104C900021780420FFF764FA00964346217847F60E
:104CA0000C320520FFF75CFA009643463A682178FB
:104CB0000620A8F16408FFF753FA18F12D0FC7D1A9
:104CC000DFF824904FF0000810E000BFDAB40B00CA
:104CD00070E603206CE603204CE1032085FD0B0009
:104CE00008E6032079BD0B00C4B40B0004F074F98E
:104CF0004946FFF702FA009643463A6821780120B8
:104D0000FFF72EFA00964346217847F60C32022030
:104D1000FFF726FA009643463A6821780320FFF70A
:104D20001FFA00964346217847F60C320420FFF71D
:104D300017FA009643463A6821780520FFF710FAE3
:104D400000964346217847F60C32062008F16408A5
:104D5000FFF706FAB8F5967FC8D10023237004F058
:104D60003BF9B149FFF7C9F900963A682178FF236A
:104D70000120FFF7F5F900963A682178FF23022019
:104D8000FFF7EEF900963A682178FF230320FFF73A
:104D9000E7F900963A682178FF230420FFF7E0F94D
:104DA00000963A682178FF230520FFF7D9F900968D
:104DB000FF233A6821780620FFF7D2F942F21070FB
:104DC00003F0E0F805232B609848994CDFF870A2B7
:104DD000984F022102F06DFA00221146934802F02A
:104DE0005BFA012640230022CDE9013680231146DB
:104DF0008E480093904B02F04BF98C4802F0BEFCB9
:104E000040F6B83003F0BEF8884802F03FFC4FF09F
:104E1000FF082670FF2604F0DFF8DFF828925146DD
:104E2000FFF76BF900964346D9F80020217801205E
:104E3000FFF796F9009643463A6821780220FFF77B
:104E40008FF900964346D9F8002021780320FFF718
:104E500087F9009643463A6821780420FFF780F9E5
:104E600000964346D9F8002021780520FFF778F90D
:104E7000009643463A6821780620A8F16408FFF7B7
:104E80006FF918F12D0FC5D1DFF8B4A14FF000086C
:104E900004F0A2F85146FFF730F9009643463A680D
:104EA00021780120FFF75CF900964346D9F80020ED
:104EB00021780220FFF754F9009643463A6821789A
:104EC0000320FFF74DF900964346D9F800202178DA
:104ED0000420FFF745F9009643463A6821780520FB
:104EE000FFF73EF900964346D9F8002021780620C6
:104EF00008F16408FFF734F9B8F5967FC8D10023AC
:104F0000237004F069F84849FFF7F7F800963A680B
:104F10002178FF230120FFF723F900963A682178D2
:104F2000FF230220FFF71CF900963A682178FF233F
:104F30000320FFF715F900963A682178FF23042033
:104F4000FFF70EF900963A682178FF230520FFF756
:104F500007F90096FF233A6821780620FFF700F949
:104F600042F2107003F00EF806232B602F48304CED
:104F7000304F022102F09DF9002211462B4802F029
:104F80008BF9012640230022CDE90136802311460A
:104F900026480093294B02F07BF8244802F0EEFBF0
:104FA00040F6B83002F0EEFF204802F06FFB4FF001
:104FB000FF082670FF2604F00FF82149FFF79DF83F
:104FC000009643462178B4220120FFF7C9F80096E5
:104FD00043463A6821780220FFF7C2F8009643461C
:104FE0002178B4220320FFF7BBF8009643463A68C5
:104FF00021780420FFF7B4F8009643462178B422C4
:105000000520FFF7ADF8009643463A682178062060
:10501000A8F16408FFF7A4F818F12D0FCAD1DFF842
:1050200020904FF000080FE0DAB40B0070E6032088
:105030006CE6032008E6032079B50B0079D50B0058
:10504000C4B40B004CE1032003F0C6FF4946FFF750
:1050500054F8009643463A6821780120FFF780F81B
:10506000009643462178B4220220FFF779F8009693
:1050700043463A6821780320FFF772F800964346CA
:105080002178B4220420FFF76BF8009643463A6873
:1050900021780520FFF764F8009643462178B42272
:1050A000062008F16408FFF75BF8B8F5967FCBD1CE
:1050B0000023237003F090FFB749FFF71EF8009616
:1050C0003A682178FF230120FFF74AF800963A68F2
:1050D0002178FF230220FFF743F800963A682178F1
:1050E000FF230320FFF73CF800963A682178FF235E
:1050F0000420FFF735F800963A682178FF23052051
:10510000FFF72EF80096FF233A6821780620FFF774
:1051100027F842F2107002F035FF07232B609F48FA
:105120009F4CDFF88CA2DFF88C82022102F0C1F8DC
:1051300000221146994802F0AFF8012640230022D0
:10514000CDE901368023114694480093954B01F038
:105150009FFF924802F012FB40F6B83002F012FFB7
:105160008E4802F093FAFF272670FF2603F034FFE3
:10517000DFF844925146FEF7C0FF00963B46D9F84F
:10518000002021780120FEF7EBFF00963B46D8F87F
:10519000002021780220FEF7E3FF00963B46D9F875
:1051A000002021780320FEF7DBFF00963B46D8F86D
:1051B000002021780420FEF7D3FF00963B46D9F863
:1051C000002021780520FEF7CBFF00963B46D8F85B
:1051D000002021780620643FFEF7C2FF17F12D0F53
:1051E000C3D1DFF8CCA1002703F0F6FE5146FEF74D
:1051F00084FF00963B46D9F8002021780120FEF775
:10520000AFFF00963B46D8F8002021780220FEF739
:10521000A7FF00963B46D9F8002021780320FEF72F
:105220009FFF00963B46D8F8002021780420FEF727
:1052300097FF00963B46D9F8002021780520FEF71D
:105240008FFF00963B46D8F800202178062064376F
:10525000FEF786FFB7F5967FC6D10023524F237025
:1052600003F0BAFE4C49FEF748FF00963A682178F1
:10527000FF230120FEF774FF00963A682178FF2390
:105280000220FEF76DFF00963A682178FF23032085
:10529000FEF766FF00963A682178FF230420FEF7A8
:1052A0005FFF00963A682178FF230520FEF758FF3C
:1052B0000096FF233A6821780620FEF751FF42F25C
:1052C000107002F05FFE08232B603448344CDFF886
:1052D000E0A0DFF8E080022101F0EBFF00221146A0
:1052E0002E4801F0D9FF012640230022CDE90136E6
:1052F00080231146294800932C4B01F0C9FE274812
:1053000002F03CFA40F6B83002F03CFE234802F0CE
:10531000BDF9FF272670FF2603F05EFE5146FEF71B
:10532000ECFE0096DFF89090D8F8002021783B46FC
:105330000120FEF715FF00963B46D9F800202178A2
:105340000220FEF70DFF00963B46D8F8002021789A
:105350000320FEF705FF00963B46D9F80020217890
:105360000420FEF7FDFE00963B46D8F80020217889
:105370000520FEF7F5FE00963B46D9F8002021787F
:105380000620643FFEF7ECFE17F12D0FC3D1DFF8C6
:1053900020A0002712E000BFDAB40B0070E6032063
:1053A0006CE6032079D10B0008E6032079C50B00D9
:1053B000C4B40B004CE103203CE1032003F00CFEDD
:1053C0005146FEF79AFE00963B46D9F80020217818
:1053D0000120FEF7C5FE00963B46D8F80020217854
:1053E0000220FEF7BDFE00963B46D9F8002021784A
:1053F0000320FEF7B5FE00963B46D8F80020217842
:105400000420FEF7ADFE00963B46D9F80020217837
:105410000520FEF7A5FE00963B46D8F8002021782F
:1054200006206437FEF79CFEB7F5967FC6D10023B1
:10543000B54F237003F0D0FDB449FEF75EFE009631
:105440003A682178FF230120FEF78AFE00963A6829
:105450002178FF230220FEF783FE00963A68217828
:10546000FF230320FEF77CFE00963A682178FF2395
:105470000420FEF775FE00963A682178FF23052088
:10548000FEF76EFE0096FF233A6821780620FEF7AD
:1054900067FE42F2107002F075FD09232B609C48F4
:1054A0009C4CDFF87CA2DFF87C92022101F001FF26
:1054B00000221146964801F0EFFE0126402300220B
:1054C000CDE901368023114691480093924B01F0BB
:1054D000DFFD8F4802F052F940F6B83002F052FD7D
:1054E0008B4802F0D3F8FF272670FF2603F074FDE7
:1054F0005146FEF702FE0096DFF82C82D9F8002014
:1055000021783B460120FEF72BFE00963B46D8F85B
:10551000002021780220FEF723FE00963B46D9F8B2
:10552000002021780320FEF71BFE00963B46D8F8AA
:10553000002021780420FEF713FE00963B46D9F8A0
:10554000002021780520FEF70BFE00963B46D8F898
:10555000002021780620643FFEF702FE17F12D0F90
:10556000C3D1DFF8BCA1002703F036FD5146FEF79A
:10557000C4FD00963B46D9F8002021780120FEF7B3
:10558000EFFD00963B46D8F8002021780220FEF778
:10559000E7FD00963B46D9F8002021780320FEF76E
:1055A000DFFD00963B46D8F8002021780420FEF766
:1055B000D7FD00963B46D9F8002021780520FEF75C
:1055C000CFFD00963B46D8F80020217806206437AE
:1055D000FEF7C6FDB7F5967FC6D100234A4F23706C
:1055E00003F0FAFC4949FEF788FD00963A682178F5
:1055F000FF230120FEF7B4FD00963A682178FF23CF
:105600000220FEF7ADFD00963A682178FF230320C3
:10561000FEF7A6FD00963A682178FF230420FEF7E6
:105620009FFD00963A682178FF230520FEF798FD3C
:105630000096FF233A6821780620FEF791FD42F29A
:10564000107002F09FFC0A232B603148314CDFF8C8
:10565000DC80022101F02DFE002211462C4801F0D1
:105660001BFE012640230022CDE90136802311468E
:1056700027480093294B01F00BFD254802F07EF8E6
:1056800040F6B83002F07EFC214801F0FFFFFF2712
:105690002670FF2603F0A0FC2149FEF72EFD0096A0
:1056A0003B46D8F8002021780120FEF759FD0096EE
:1056B0003B462178AF220220FEF752FD00963B4682
:1056C000D8F8002021780320FEF74AFD00963B46DB
:1056D0002178AF220420FEF743FD00963B46D8F820
:1056E000002021780520FEF73BFD00963B462178FF
:1056F000AF220620643FFEF733FD17F12D0FC8D10E
:10570000DFF81C90002713E008E60320DAB40B0052
:1057100070E603206CE6032079C90B0079E90B00E1
:10572000C4B40B0044E103203CE1032038E1032032
:1057300003F052FC4946FEF7E0FC00963B46217818
:10574000AF220120FEF70CFD00963B46D8F8002062
:1057500021780220FEF704FD00963B462178AF2217
:105760000320FEF7FDFC00963B46D8F80020217888
:105770000420FEF7F5FC00963B462178AF22052079
:10578000FEF7EEFC00963B46D8F800202178062074
:105790006437FEF7E5FCB7F5967FC9D10023B24F19
:1057A000237003F019FCB149FEF7A7FC00963A6894
:1057B0002178FF230120FEF7D3FC00963A68217878
:1057C000FF230220FEF7CCFC00963A682178FF23E5
:1057D0000320FEF7C5FC00963A682178FF230420D9
:1057E000FEF7BEFC00963A682178FF230520FEF7FD
:1057F000B7FC0096FF233A6821780620FEF7B0FC3C
:1058000042F2107002F0BEFB0B232B609848994CBB
:10581000DFF87082022101F04CFD0022114694480D
:1058200001F03AFD012640230022CDE90136802314
:1058300011468F480093904B01F02AFC8C4801F0F0
:105840009DFF40F6B83002F09DFB894801F01EFF35
:10585000FF272670FF2603F0BFFB8849FEF74DFCAB
:1058600000963B46D8F8002021780120FEF778FC0E
:1058700000963B462178C3220220FEF771FC009679
:105880003B46D8F8002021780320FEF769FC0096FB
:105890003B462178C3220420FEF762FC00963B467B
:1058A000D8F8002021780520FEF75AFC00963B46E8
:1058B0002178C3220620643FFEF752FC17F12D0F1A
:1058C000C8D1DFF8B891002703F086FB4946FEF700
:1058D00014FC00963B462178C3220120FEF740FCD1
:1058E00000963B46D8F8002021780220FEF738FCCD
:1058F00000963B462178C3220320FEF731FC009638
:105900003B46D8F8002021780420FEF729FC0096B9
:105910003B462178C3220520FEF722FC00963B4639
:10592000D8F80020217806206437FEF719FCB7F577
:10593000967FC9D100234C4F237003F04DFB4B4998
:10594000FEF7DBFB00963A682178FF230120FEF783
:1059500007FC00963A682178FF230220FEF700FC3E
:1059600000963A682178FF230320FEF7F9FB0096A2
:105970003A682178FF230420FEF7F2FB00963A688C
:105980002178FF230520FEF7EBFB0096FF233A6802
:1059900021780620FEF7E4FB42F2107002F0F2FAE2
:1059A0000C232B603248334CDFF8DC80022101F0FD
:1059B00080FC002211462E4801F06EFC0126402397
:1059C0000022CDE9013680231146294800932C4B53
:1059D00001F05EFB264801F0D1FE40F6B83002F03F
:1059E000D1FA234801F052FEFF272670FF2603F06C
:1059F000F3FA2249FEF781FB00963B46D8F80020D7
:105A000021780120FEF7ACFB00963B46217840F25E
:105A10003B120220FEF7A4FB00963B46D8F800207C
:105A200021780320FEF79CFB00963B46217840F24C
:105A30003B120420FEF794FB00963B46D8F800206A
:105A400021780520FEF78CFB00963B46217840F23A
:105A50003B120620643FFEF783FB17F12D0FC5D1E3
:105A6000DFF81890002711E008E60320DAB40B00F5
:105A700070E603206CE6032079F10B00C4B40B0040
:105A800079E10B0048E103203CE1032003F0A4FA94
:105A90004946FEF732FB00963B46217840F23B1226
:105AA0000120FEF75DFB00963B46D8F800202178E8
:105AB0000220FEF755FB00963B46217840F23B1250
:105AC0000320FEF74DFB00963B46D8F800202178D6
:105AD0000420FEF745FB00963B46217840F23B123E
:105AE0000520FEF73DFB00963B46D8F800202178C4
:105AF00006206437FEF734FBB7F5967FC6D1002346
:105B0000B74F237003F068FAB649FEF7F6FA00962D
:105B10003A682178FF230120FEF722FB00963A68BD
:105B20002178FF230220FEF71BFB00963A682178BC
:105B3000FF230320FEF714FB00963A682178FF2329
:105B40000420FEF70DFB00963A682178FF2305201C
:105B5000FEF706FB0096FF233A6821780620FEF741
:105B6000FFFA42F2107002F00DFA0D232B609E48EE
:105B70009E4CDFF884A2DFF88482022101F099FBB9
:105B800000221146984801F087FB0126402300229D
:105B9000CDE901368023114693480093944B01F0E0
:105BA00077FA914801F0EAFD40F6B83002F0EAF9E0
:105BB0008D4801F06BFDFF272670FF2603F00CFADD
:105BC000DFF83C925146FEF798FA00963B46D9F82A
:105BD000002021780120FEF7C3FA00963B46D8F852
:105BE000002021780220FEF7BBFA00963B46217880
:105BF000C3220320FEF7B4FA00963B46D9F80020F2
:105C000021780420FEF7ACFA00963B46D8F8002035
:105C100021780520FEF7A4FA00963B462178C3229E
:105C20000620643FFEF79CFA17F12D0FC5D1DFF86F
:105C3000C8A1002703F0D0F95146FEF75EFA00969E
:105C40003B462178C3220120FEF78AFA00963B46A4
:105C5000D9F8002021780220FEF782FA00963B4610
:105C6000D8F8002021780320FEF77AFA00963B4608
:105C70002178C3220420FEF773FA00963B46D9F838
:105C8000002021780520FEF76BFA00963B46D8F8F5
:105C90000020217806206437FEF762FAB7F5967F78
:105CA000C8D100234E4F237003F096F94D49FEF7FB
:105CB00024FA00963A682178FF230120FEF750FA73
:105CC00000963A682178FF230220FEF749FA0096F1
:105CD0003A682178FF230320FEF742FA00963A68DB
:105CE0002178FF230420FEF73BFA00963A682178DA
:105CF000FF230520FEF734FA0096FF233A68217847
:105D00000620FEF72DFA42F2107002F03BF90E2346
:105D10002B603548354CDFF8E0A0DFF8E880022141
:105D200001F0C7FA002211462F4801F0B5FA01260A
:105D300040230022CDE90136802311462A480093F2
:105D40002C4B01F0A5F9284801F018FD40F6B830B9
:105D500002F018F9244801F099FCFF272670FF266D
:105D600003F03AF95146FEF7C8F90096DFF8909033
:105D7000D8F8002021783B460120FEF7F1F9009683
:105D80003B46D9F8002021780220FEF7E9F9009679
:105D90003B46D8F8002021780320FEF7E1F9009671
:105DA0003B46D9F8002021780420FEF7D9F9009667
:105DB0003B46D8F8002021780520FEF7D1F900965F
:105DC0003B46D9F8002021780620643FFEF7C8F949
:105DD00017F12D0FC3D1DFF820A0002714E000BF7A
:105DE00008E60320DAB40B0070E603206CE603201B
:105DF00079DD0B0079ED0B00C4B40B0038E1032012
:105E000048E1032044E1032003F0E6F85146FEF7A1
:105E100074F900963B46D9F8002021780120FEF75E
:105E20009FF900963B46D8F8002021780220FEF723
:105E300097F900963B46D9F8002021780320FEF719
:105E40008FF900963B46D8F8002021780420FEF711
:105E500087F900963B46D9F8002021780520FEF707
:105E60007FF900963B46D8F8002021780620643759
:105E7000FEF776F9B7F5967FC6D10023B74F2370AA
:105E800003F0AAF8B649FEF738F900963A68217887
:105E9000FF230120FEF764F900963A682178FF237A
:105EA0000220FEF75DF900963A682178FF2303206F
:105EB000FEF756F900963A682178FF230420FEF792
:105EC0004FF900963A682178FF230520FEF748F93C
:105ED0000096FF233A6821780620FEF741F942F246
:105EE000107002F04FF80F232B609E489E4CDFF895
:105EF0008C82022101F0DDF900221146994801F05F
:105F0000CBF9012640230022CDE90136802311463A
:105F100094480093954B01F0BBF8924801F02EFC99
:105F200040F6B83002F02EF88E4801F0AFFB267034
:105F3000FF2603F051F8FF278D49FEF7DEF80097A2
:105F40003346217840F23B120120FEF709F9009711
:105F50003346D8F8002021784FF07F090220FEF761
:105F6000FFF8CDF800903346217840F23B12032031
:105F7000FEF7F6F800973346217840F23B120420F2
:105F8000FEF7EEF800973346D8F800202178052078
:105F9000FEF7E6F8CDF800903346217840F23B1248
:105FA0000620643EFEF7DCF816F12D0FC1D1DFF8B4
:105FB000C0A1002703F010F85146FEF79EF8CDF877
:105FC0000090FF263B46217840F23B120120FEF76D
:105FD000C7F800963B46217840F23B120220FEF7BC
:105FE000BFF800963B46D8F8002021780320FEF742
:105FF000B7F8CDF800903B46217840F23B120420E0
:10600000FEF7AEF800963B46217840F23B120520A1
:10601000FEF7A6F800963B46D8F800202178062027
:106020006437FEF79DF8B7F5967FC3D100234B4F39
:10603000237002F0D1FF4A49FEF75FF800963A68F4
:10604000217833460120FEF78BF800963A682178D4
:1060500033460220FEF784F800963A6821783346EA
:106060000320FEF77DF800963A6821783346042035
:10607000FEF776F800963A68217833460520FEF759
:106080006FF8009633463A6821780620FEF768F8E4
:1060900042F2107001F076FF10232B603148324C31
:1060A000DFF8CC90334F022101F003F900221146B2
:1060B0002C4801F0F1F8012640230022CDE90136F9
:1060C00080231146274800932B4B00F0E1FF254821
:1060D00001F054FB40F6B83001F054FF214801F0C4
:1060E000D5FA4FF0FF082670FF2602F075FF4946EB
:1060F000FEF703F8009643463A6821780120FEF740
:106100002FF8009643463A6821780220FEF728F8D7
:10611000009643463A6821780320FEF721F800965E
:1061200043463A6821780420FEF71AF80096434661
:106130003A6821780520FEF713F8009643463A683E
:1061400021780620A8F16408FEF70AF818F12D0F4F
:10615000CAD1DFF81C904FF0000811E008E60320D8
:10616000DAB40B0070E603206CE6032085010C0016
:10617000C4B40B003CE1032079D90B0044E10320B7
:1061800002F02AFF4946FDF7B8FF009643463A68F9
:1061900021780120FDF7E4FF009643463A68217814
:1061A0000220FDF7DDFF009643463A682178032080
:1061B000FDF7D6FF009643463A6821780420FDF7A4
:1061C000CFFF009643463A6821780520FDF7C8FFC7
:1061D000009643463A682178062008F16408FDF7E6
:1061E000BFFFB8F5967FCBD10023B94F237002F0E3
:1061F000F3FEB849FDF781FF00963A682178FF2346
:106200000120FDF7ADFF00963A682178FF230220B8
:10621000FDF7A6FF00963A682178FF230320FDF7DB
:106220009FFF00963A682178FF230420FDF798FF2E
:1062300000963A682178FF230520FDF791FF00962C
:10624000FF233A6821780620FDF78AFF42F210709A
:1062500001F098FE11232B609F48A04CDFF888A224
:10626000DFF88892022101F024F8002211469A48B2
:1062700001F012F8012640230022CDE901368023E7
:10628000114695480093964B00F002FF924801F0AA
:1062900075FA40F6B83001F075FE8F4801F0F6F956
:1062A000FF272670FF2602F097FEDFF84482514652
:1062B000FDF723FF00963B46D8F800202178012007
:1062C000FDF74EFF00963B46D9F8002021780220CA
:1062D000FDF746FF00963B46D8F8002021780320C2
:1062E000FDF73EFF00963B46D9F8002021780420B8
:1062F000FDF736FF00963B46D8F8002021780520B0
:10630000FDF72EFF00963B46D9F8002021780620A5
:10631000643FFDF725FF17F12D0FC3D1DFF8C8A1AA
:10632000002702F059FE5146FDF7E7FE00963B4676
:10633000D9F8002021780120FDF712FF00963B4696
:10634000D8F8002021780220FDF70AFF00963B468E
:10635000D9F8002021780320FDF702FF00963B4684
:10636000D8F8002021780420FDF7FAFE00963B467D
:10637000D9F8002021780520FDF7F2FE00963B4673
:10638000D8F80020217806206437FDF7E9FEB7F53C
:10639000967FC6D100234E4F237002F01DFE4D495B
:1063A000FDF7ABFE00963A682178FF230120FDF748
:1063B000D7FE00963A682178FF230220FDF7D0FE31
:1063C00000963A682178FF230320FDF7C9FE009666
:1063D0003A682178FF230420FDF7C2FE00963A6850
:1063E0002178FF230520FDF7BBFE0096FF233A68C6
:1063F00021780620FDF7B4FE42F2107001F0C2FDD4
:1064000012232B603448354CDFF8DCA0DFF8E09035
:10641000022100F04EFF002211462F4800F03CFF01
:10642000012640230022CDE90136802311462A4867
:1064300000932C4B00F02CFE274801F09FF940F60A
:10644000B83001F09FFD244801F020F9FF272670A5
:10645000FF2602F0C1FDDFF89C805146FDF74DFE9E
:1064600000963B46D8F8002021780120FDF778FE01
:1064700000963B46D9F8002021780220FDF770FEF7
:1064800000963B46D8F8002021780320FDF768FEEF
:1064900000963B46D9F8002021780420FDF760FEE5
:1064A00000963B46D8F8002021780520FDF758FEDD
:1064B00000963B46D9F8002021780620643FFDF77E
:1064C0004FFE17F12D0FC3D1DFF81CA0002713E0FA
:1064D00008E60320DAB40B0070E603206CE6032024
:1064E00079E50B0079B90B00C4B40B004CE1032033
:1064F0003CE1032038E1032002F06EFD5146FDF738
:10650000FCFD00963B46D9F8002021780120FDF7DC
:1065100027FE00963B46D8F8002021780220FDF7A0
:106520001FFE00963B46D9F8002021780320FDF796
:1065300017FE00963B46D8F8002021780420FDF78E
:106540000FFE00963B46D9F8002021780520FDF784
:1065500007FE00963B46D8F80020217806206437D5
:10656000FDF7FEFDB7F5967FC6D10023CB4F237014
:1065700002F032FDCA49FDF7C0FD00963A68217865
:10658000FF230120FDF7ECFD00963A682178FF23F8
:106590000220FDF7E5FD00963A682178FF230320ED
:1065A000FDF7DEFD00963A682178FF230420FDF711
:1065B000D7FD00963A682178FF230520FDF7D0FD2E
:1065C0000096FF233A6821780620FDF7C9FD42F2C4
:1065D000107001F0D7FC13232B60B248B24CDFF8E7
:1065E000E8A2DFF8E882022100F063FE00221146F3
:1065F000AC4800F051FE012640230022CDE90136CF
:1066000080231146A7480093A84B00F041FDA54800
:1066100001F0B4F840F6B83001F0B4FCA14801F044
:1066200035F8FF272670FF2602F0D6FC5146FDF70D
:1066300064FD0096DFF89892D8F8002021783B4658
:106640000120FDF78DFD00963B46D9F8002021780A
:106650000220FDF785FD00963B46D8F80020217802
:106660000320FDF77DFD00963B46D9F800202178F8
:106670000420FDF775FD00963B46D8F800202178F0
:106680000520FDF76DFD00963B46D9F800202178E6
:106690000620643FFDF764FD17F12D0FC3D1DFF82D
:1066A00028A2002702F098FC5146FDF726FD00962F
:1066B0003B46D9F8002021780120FDF751FD0096D6
:1066C0003B46D8F8002021780220FDF749FD0096CE
:1066D0003B46D9F8002021780320FDF741FD0096C4
:1066E0003B46D8F8002021780420FDF739FD0096BC
:1066F0003B46D9F8002021780520FDF731FD0096B2
:106700003B46D8F80020217806206437FDF728FDA5
:10671000B7F5967FC6D10023604F237002F05CFC72
:106720005F49FDF7EAFC00963A682178FF230120D3
:10673000FDF716FD00963A682178FF230220FDF749
:106740000FFD00963A682178FF230320FDF708FD2E
:1067500000963A682178FF230420FDF701FD00969A
:106760003A682178FF230520FDF7FAFC0096FF2305
:106770003A6821780620FDF7F3FC42F2107001F030
:1067800001FC14232B604748474EDFF83CB1DFF88B
:1067900044A1022100F08DFD00221146414800F085
:1067A0007BFD012440230022CDE9013480231146E2
:1067B0003C4800933E4B00F06BFC3A4800F0DEFF93
:1067C00040F6B83001F0DEFB364800F05FFF4FF0D6
:1067D0000308347002F000FC5946FDF78EFC0720D8
:1067E00001F07EFE8146FF24324F02F0F5FB4A465F
:1067F0005146FDF782FC009457F829203178234652
:106800000120FDF7ADFC072001F06AFE814602F091
:10681000E3FB4A462849FDF770FC009457F829200D
:10682000317823460220FDF79BFC072001F058FE3B
:10683000814602F0D1FB4A462049FDF75EFC0094F8
:1068400057F82920317823460320FDF789FC0720DB
:1068500001F046FE814602F0BFFB4A461849FDF7AB
:106860004CFC009457F82920317823460420FDF78A
:1068700077FC072001F034FE814602F0ADFB4A466A
:106880001049FDF73AFC009457F829203178234647
:106890000520FDF765FC07201EE000BF08E6032089
:1068A000DAB40B0070E603206CE6032079F50B00E8
:1068B00085F90B00ECE5032000B50B0010B50B00CB
:1068C00020B50B0030B50B00C4B40B003CE1032035
:1068D00048E10320F0B40B0001F002FE814602F013
:1068E0007BFB42494A46FDF708FC009457F82920F3
:1068F000317823460620FDF733FCB8F101087FF418
:1069000069AF3B4F86F8008002F066FB3949FDF71E
:10691000F4FB00943A68317823460120FDF720FC0F
:1069200000943A68317823460220FDF719FC009460
:106930003A68317823460320FDF712FC00943A6848
:10694000317823460420FDF70BFC00943A68317837
:1069500023460520FDF704FC00943A68317823466D
:106960000620FDF7FDFB42F2107001F00BFB38E052
:10697000022C3DF48EAF032C3EF47BA8042C3EF495
:1069800043A9052C3EF420AA062C3EF4EFAA072CBE
:106990003EF4C5AB082C3EF498AC092C3EF47FAD18
:1069A0000A2C3EF452AE0B2C3EF430AF0C2C3EF4CD
:1069B000F9AF0D2C3FF4DBA80E2C3FF4AAA90F2C45
:1069C0003FF493AA102C3FF469AB112C3FF444AC74
:1069D000122C3FF417AD132C3FF4FFAD142C3FF4F1
:1069E000D2AE01232B6007B0BDE8F08F40B50B009D
:1069F00008E60320DAB40B0008B51B491B4801F078
:106A0000B6FE1B4A1B4B12681A601B4A1B481268D1
:106A10005A601B4A12689A601A4A1268DA601A4A67
:106A200012681A61194A12685A61194A12689A6101
:106A300002F000FA174802F0FDF90421164800F0B0
:106A40000FFE022308221548012100F06FF8144BB5
:106A50000022C3E90022A2F580329A60BDE8084016
:106A6000022001F0BBB900BF6EB40B005CE603204E
:106A700008E60320ECE5032044E10320D0E50320F1
:106A80004CE103203CE1032038E1032040E10320F6
:106A900048E1032018E6032070E6032098E603206F
:106AA0000CE6032038B50446C0680D4608B101F075
:106AB00039FAA379062B0CBF0420032010FB05F044
:106AC00080B2A08001F026FAE06028B1A2880021FF
:106AD00004F044FB658038BDA0806080FBE710B502
:106AE00004460121C07902F001FCE079002102F0A6
:106AF0000EFC0123237010BD37B5037805460C4604
:106B00001BB1C079002102F0F1FB2B78EC715BB175
:106B1000A0B20121019002F0E9FB0198002103B02D
:106B2000BDE8304002F0F3BB03B030BD70B50025C6
:106B3000044616468371C0E9035505700572FFF7D8
:106B4000B1FF20463146FFF7D7FF204670BD000059
:106B5000C368002B00F0A4812DE9F04F8379023B3C
:106B6000DBB2042B9CBFBF4A52F8234085B00546D8
:106B700088BF322400F062FF2B69C01AA042F9D30B
:106B8000B94CAE88D4F800351BB9D4F86035002B69
:106B90007EDBB64CD4F8003523B9D4F86035002B31
:106BA000C0F26E81B24CD4F80035002B00F0448165
:106BB000EB79B04AB04C1268190102EB0313575C31
:106BC000AE495B78D1F8FC2042F08072C1F8FC201D
:106BD000226803F01F0343EA471301273A43226068
:106BE000A988D5F80C80D4F804909F40002944D09F
:106BF0004FF0000E72464FF0A04118F801CB08206C
:106C0000802663689B1A462BFBD96268D1F8083549
:106C10001CEA060F43EA0703C1F808352FD0636862
:106C20009B1A282BFBD9D1F80C35013843EA07030E
:106C30004FEA5606C1F80C35E3D1AB880EF1010ED0
:106C40001FFA8EFE7345D8D84FF4307103FB01F163
:106C500063689B1A462BFBD96368A3EB0909894536
:106C6000C0F0E4804FF4967000F0E0FEA988D5F8FB
:106C70000C80D4F804900029BAD10A46E8E763688A
:106C80009B1A112BCFD863689B1A112BF7D9CAE72F
:106C9000D4F86435002BBFF67CAFD4F86835002BF0
:106CA000BFF677AFD4F86C35002BBFF672AF360164
:106CB000331D1846009301F02DF900283FF478AFFA
:106CC000AB88002B00F0ED80EA68013B12FA83F7F5
:106CD00002F1FF3E002348F2060248F20D011EF8C1
:106CE00001CF1CF0800F0CBF93468B461CF0400F69
:106CF0000CBF16460E461CF0200F0CBF904688466F
:106D000003F10109CDF80880019603F102081FFA8A
:106D100089F9019E20F813B01FFA88F820F819604D
:106D2000029E20F8186003F103081CF0100F1FFAF0
:106D300088F80CBF93468B4620F818B003F104087E
:106D40001CF0080F1FFA88F80CBF93468B4620F8FA
:106D500018B003F105081CF0040F1FFA88F80CBFE7
:106D600093468B4620F818B003F1080A03F1060891
:106D700007339BB21CF0020F1FFA88F80CBF934632
:106D80008B46CDF80CA01CF0010F20F818B015BFF1
:106D900020F8131020F813201FFA8AF3BDF80C30E6
:106DA00077459CD1591C023389B29BB249005B00E4
:106DB0004FF400474752009AC7522E4B56081F689F
:106DC00000221423C4F80425C4F80C25C4F808359F
:106DD000C4F81425C4F81025C4F82005C4F82465A7
:106DE000C4F82825C4F82C25EB7907EB031C1B01FC
:106DF0000121FE5C9CF8013003F01F0343EA4613B7
:106E0000C4F86035C4F80015C4F81021A160D4F8A6
:106E10001031002BFBD000234FF0FF32C4F81031AB
:106E2000C4F80035C4F8602501F07CF800F006FED7
:106E3000286105B0BDE8F08FD4F86035002BBFF6AF
:106E4000B7AED4F86435002BBFF6B2AED4F86835CF
:106E5000002BBFF6ADAED4F86C35002BBFF6A8AE54
:106E600025E700BF88050C0000C00140001002406B
:106E700000200240B4E60320001000E000ED00E036
:106E8000D4F86435002BBFF68DAED4F86835002BEE
:106E9000BFF688AED4F86C35002BBFF683AE06E79C
:106EA00070470423022183E708B500F0DFFD014BA2
:106EB000186008BDB4E603202DE9F04F85B01F46E9
:106EC000BDF93880BDF83C30A8EB0209A7EB010AF8
:106ED000B9F1000FB8BFC9F10009BAF1000FB8BF8E
:106EE000CAF1000AD14583460C46154604DD3A46F0
:106EF0002C4647460D469046BC4205DD2A4645468F
:106F0000904622463C4617463E1BB2B20092A8EB82
:106F1000050282EAE271A1EBE271C6F3C03202FA25
:106F200086F64545B4BF01224FF0FF32019176103D
:106F30000292BC421CDCDBF800200393D145D2F85E
:106F40001080C7BF294622462A4621465846C047D8
:106F5000019A039BB61AB1B236B2002E05DA029A34
:106F60001544009A56182DB236B2013424B2E0E727
:106F700005B0BDE8F08F2DE9F347BDF82C80076818
:106F8000BDF92890CDF800800446FF6916468A4670
:106F90001D46B8472368CDF8008009F1FF3232441E
:106FA000DF6951462B46204612B2B8472368CDF818
:106FB00000809F6932464B4651462046B8476B1EBB
:106FC00003EB0A012368CDF828809D6932464B46C1
:106FD00009B22046AC4602B0BDE8F047604737B57D
:106FE000013B13440468BDF8185001951BB200938F
:106FF00064690B46A04703B030BD37B5BDF81850E3
:107000000468CDE90025013B0B4464691BB2A0472D
:1070100003B030BD2DE9F347BDF92890BDF82C80B1
:10702000054692460C46CE18B4420BDA2B68CDF8D2
:1070300000809F6921464B46524628460134B84796
:1070400024B2F1E702B0BDE8F08713B50268019100
:10705000B0F90E100091546AB0F90C3000221146BC
:10706000A04702B010BD704730B54281C2814FF0D9
:10707000FF320024054D4261012244600560018118
:10708000818104610283827630BD00BFA00A0C00BA
:107090002DE9F04F89B0CDE90323BDF94870BDF962
:1070A0004C300593FA1DCDE9010148BF07F10E02EE
:1070B0000024BDF850304FEAE20B25464FF080091E
:1070C00005992AB291422ADD049A02EB040A039A36
:1070D0002A444FF0000812B20FFA88F087421FFAD4
:1070E00088F119DDC0101AF800C001F0070049FA54
:1070F00000F01CEA000F0CD00298014401980068CF
:107100000069CDE90623064609B20198B047DDE9DA
:10711000062308F10108DFE701355C44D0E709B038
:10712000BDE8F08F2DE9F04F2DED028B8DB00746B5
:107130000491BDF860100591BDF864100691B0F996
:107140000C1004989DF86850814252DDB7F90E107A
:1071500091424EDD062111FB0504002C49DD02EBB6
:10716000C504002C45DD03EB83030B9393B2079317
:1071700008339BB2089100240993052C1CBF2C4BAB
:107180000B9A079E16BF1B1900239B5C0393049A5E
:10719000ABB20A9304FB05F313FA82F31BB204EBC0
:1071A000020A08EE103AB0460FFA85F90FFA8AFA89
:1071B000039BDB072FD5012D3B681FD1D3F810B0FF
:1071C000059B32B251463846D847039B5B08039370
:1071D0000A9B01369844099BB6B2B3421FFA88F85D
:1071E000E6D1089B013B013413F0FF0364B208931E
:1071F000C3D10DB0BDEC028BBDE8F08F059ACDE98F
:10720000009218EE101AD3F824B00FFA88F24B4609
:107210003846D847D9E7DDE905239342D5D0012D7B
:107220003B6803D1D3F810B0069BCAE7069AE6E79D
:107230009C050C0030B50A2985B0044607D1027EB2
:10724000638A03EBC20363820023238221E00D29BA
:107250001FD0037E0293C38A0193838A0093B0F9FF
:1072600012200B46B0F91010FFF75CFF207E238A36
:1072700000EB400103EB4103A17E1BB202462382D7
:1072800039B1B4F90C106FF0050505FB00118B4204
:10729000D6DC012005B030BD018242827047012951
:1072A00038BF012101767047C18281827047407EDC
:1072B000704701F00303B0F90A204376C907B0F91B
:1072C000083059BF8381C2818281C3817047B0F980
:1072D0000C007047B0F90E0070470000F0B5457E15
:1072E000BDF81440022D69D0032D00F09980012DC6
:1072F0006CD10589D2432A4412B2002A5DDBB0F971
:107300000850954259DD0029BEBF5B181BB2002111
:10731000B0F90A00CD188542C4BF431A1BB2002B36
:107320004BDDC1F3C400DFF820C102EBC01211F045
:107330000701DBB20CEB02001AD0C1F10805404E88
:10734000EDB2AB42775D3FBFA5EB030EFF2646FAD9
:107350000EF637401CF80260012C0CBF3E43BE43C2
:10736000AB420CF8026028D308390B44DBB2803002
:10737000072B19D9012C4FF0FF3518BF0025EDB2AE
:1073800000F180011A46083AD2B2072A01F8805C5F
:1073900001F18001F7D8A3F10802C2F3C40201325F
:1073A00000EBC21003F007033BB1264AD25C03781E
:1073B000012C0CBF134393430370F0BD4589D243A6
:1073C0002A44CD180189491B12B209B2002AF4DB04
:1073D000B0F90A509542F0DD0029BEBF5B181BB220
:1073E0000021B0F90870CE18BE42C4BF6B1A1BB2A0
:1073F000002BE2DDD010802510FB0511124801445E
:1074000002F0070001228240012CD2B20B440CD1C1
:107410008B42D2D011F8010B104301F8010CF7E7B1
:10742000CD184189491B09B267E7D243D2B28B42DA
:10743000C3D011F8010B104001F8010CF7E700BFB1
:1074400058E1032050E1032060E10320F0B5457EC0
:10745000BDF81440022D34D0032D00F09B80012D87
:1074600037D1D5180289521B12B20029C0F291807F
:10747000B0F90A508D4240F38C80002ABEBF9B18A1
:107480001BB20022B0F90870D618BE42C4BFAB1AB6
:107490001BB2002B7DDDC810802510FB052245485E
:1074A000024401F0070001218140012CC9B21344BC
:1074B00075D19A426DD012F8010B084302F8010C05
:1074C000F7E70589C9432944D5184289521B09B2F7
:1074D00012B200295DDBB0F908508D4259DD002A57
:1074E000BEBF9B181BB20022B0F90A00D518854216
:1074F000C4BF831A1BB2002B4BDDC2F3C400DFF8FC
:10750000B4C001EBC01112F00702DBB20CEB0100BA
:107510001AD0C2F10805284EEDB2AB42775D3FBFED
:10752000A5EB030EFF2646FA0EF637401CF8016065
:10753000012C0CBF3E43BE43AB420CF8016028D384
:10754000083A1344DBB28030072B19D9012C4FF0D5
:10755000FF3518BF0025EDB200F180011A46083A48
:10756000D2B2072A01F8805C01F18001F7D8A3F1BB
:107570000802C2F3C402013200EBC21003F0070399
:107580003BB10E4AD25C0378012C0CBF13439343EA
:107590000370F0BD4589C943294409B265E7C94371
:1075A000C9B29A42F5D012F8010B084002F8010C5A
:1075B000F7E700BF60E1032058E1032050E103201A
:1075C00070470000F8B50D1E064614461F462DDB19
:1075D000FFF77DFEA84229DD002C27DB3046FFF7B0
:1075E00079FEA04222DD3046FFF761FE02281ED060
:1075F000032825D0012804D13389E2431A442C46BC
:1076000015B2002C2246B8BFE21DD210802112FB19
:1076100001550E49012204F007044B5702FA04F405
:1076200064B297420CBF2343A3434B55F8BD318945
:1076300072890139E4434D1B14442DB224B2E0E7B2
:107640007389013B5B1B25461CB2DAE760E103202E
:1076500010B524210446FCF722FD204610BD000091
:1076600038B5402204460D468021FFF7FDFC064B4D
:107670002360FF2384F8213063774FF6FF73E383A1
:1076800084F82050204638BDD80A0C0002484FF438
:107690008062002103F062BD60E1032013B50B4C52
:1076A0002178BFF35B8F11F001010BD120460191CE
:1076B000FCF704FD019928B1054800F029FF204698
:1076C000FCF701FD024802B010BD00BFB8E6032080
:1076D000BCE6032007B590F8223043B10191FFF7D3
:1076E000DDFF019903B05DF804EB00F0C5BF0B4668
:1076F000817F407F012203B05DF804EB01F020BEE2
:1077000038B590F91D30013304460D461DD090F96F
:107710002100012180B201F0FAFD94F91F0000213F
:1077200080B201F0F4FD94F92100002180B201F053
:10773000EEFD29462046FFF7CDFF94F921000121F7
:10774000BDE8384080B201F0E2BD01F037FE94F9A7
:107750001B1000F0DEFC01F031FE036800219B6885
:10776000984701F02BFE036829469B68984701F073
:1077700025FEBDE8384000F0D3BC0000F8B521215B
:107780000446FFF7BDFF00212046FFF7B9FF7F2128
:107790002046FFF7B5FF22212046FFF7B1FF002169
:1077A0002046FFF7ADFF07212046FFF7A9FF94F918
:1077B0001D30294F01332AD094F92100012180B2D4
:1077C00001F0A5FD94F91F00012180B201F09FFD99
:1077D00094F92100002180B201F099FD012000F010
:1077E00025F94FF48065013D17F8011B2046ADB225
:1077F000FFF770FF002DF6D1012000F017F994F982
:1078000021000121BDE8F84080B201F080BD0025D3
:1078100001F0D4FD94F91B1000F07BFC01F0CEFDCB
:10782000036840219B68984705F11006B6B201F045
:10783000C5FD0368795D9B6898476B1C9DB2AE429D
:10784000F5D101F0BBFD00F06BFCB6F5806F00D107
:10785000F8BD3546DCE700BF60E1032038B590F99C
:107860001D300177013304460D46C27600F0C98011
:1078700090F91F00012180B201F038FD94F9210038
:10788000012180B201F032FD94F82230002B00F08B
:10789000A68094F92100012180B201F038FDFFF7A4
:1078A000FDFE012100F052FEFFF7F8FE102100F06E
:1078B000BDFEFFF7F3FE002100F05CFEFFF7EEFED9
:1078C00000F030FE94F92000012180B201F00EFD9D
:1078D00094F92000012180B201F019FD012000F08F
:1078E00051FB94F92000002180B201F010FD0A2024
:1078F00000F048FB94F92000012180B201F007FD5F
:107900002046AE21FFF7FCFE2046D521FFF7F8FE0A
:1079100020468021FFF7F4FE2046A821FFF7F0FE65
:1079200020463F21FFF7ECFE2046D321FFF7E8FE7B
:1079300020460021FFF7E4FE20464021FFF7E0FE4D
:107940008D212046FFF7DCFE012D0CBF10211421F4
:107950002046FFF7D5FE20462021FFF7D1FE204626
:107960000021FFF7CDFE2046A121FFF7C9FE2046EA
:10797000C821FFF7C5FE2046DA21FFF7C1FE2046E9
:107980001221FFF7BDFE81212046FFF7B9FE012D30
:107990000CBF9F21CF212046FFF7B2FED921204600
:1079A000FFF7AEFE012D0CBF2221F1212046FFF78B
:1079B000A7FE2046DB21FFF7A3FE20464021FFF76C
:1079C0009FFE2046A421FFF79BFE2046A621FFF73D
:1079D00097FE2046AF21BDE83840FFF791BE94F9ED
:1079E0001D00012180B201F081FC94F91E000121EB
:1079F00080B201F07BFC94F82230002B3FF462AFA0
:107A000047E701F0DBFC00F051FB5BE708B5024BF8
:107A10001B685B6C019308BD4802030008B5024B6C
:107A20001B685B68019308BD1802030008B5024B90
:107A30001B68DB68019308BD1802030008B5024B00
:107A40001B681B69019308BD1802030008B5024BAF
:107A50001B685B69019308BD1802030008B5024B5F
:107A60001B68DB6D019308BD1802030008B5024BCB
:107A70001B681B68019308BD2C02030008B5024B6C
:107A80001B689B68019308BD2C02030008B5024BDC
:107A90001B68DB68019308BD2C02030008B5024B8C
:107AA0001B681B69019308BD2C02030008B5024B3B
:107AB0001B68DB68019308BD2802030008B5024B70
:107AC0001B689B69019308BD2802030008B5024B9F
:107AD0001B68DB69019308BD2802030008B5024B4F
:107AE0001B681B6A019308BD2802030008B5024BFE
:107AF0001B685B6A019308BD2802030008B5024BAE
:107B00001B689B6A019308BD2802030008B5024B5D
:107B10001B68DB6A019308BD2802030008B5024B0D
:107B20001B681B6B019308BD2802030008B5024BBC
:107B30001B685B6B019308BD2802030008B5024B6C
:107B40001B681B6C019308BD2802030008B5024B9B
:107B50001B681B6D019308BD2802030008B5024B8A
:107B60001B685B69019308BD6C02030008B5024BFA
:107B70001B685B69019308BD6402030008B5024BF2
:107B80001B681B6A019308BD6402030008B5024B21
:107B90001B689B6A019308BD6402030008B5024B91
:107BA0001B689B68019308BD6802030008B5024B7F
:107BB0001B68DB68019308BD6802030008B5024B2F
:107BC0001B689B69019308BD3802030008B5024B8E
:107BD0001B68DB69019308BD3802030008B5024B3E
:107BE0001B681B6A019308BD3802030008B5024BED
:107BF0001B689B6A019308BD3802030008B5024B5D
:107C00001B681B6B019308BD3802030008B5024BCB
:107C10001B689B6B019308BD3802030008B5024B3B
:107C20001B681B68019308BD3002030008B5024BB6
:107C30001B689B68019308BD3002030008B5024B26
:107C40001B68DB68019308BD3002030008B5024BD6
:107C50001B681B69019308BD3002030008B5024B85
:107C60001B685B69019308BD3002030008B5024B35
:107C70001B68DB69019308BD3002030008B5024BA5
:107C80001B681B6A019308BD3002030008B5024B54
:107C90001B685B6A019308BD3002030008B5024B04
:107CA0001B681B6C019308BD3002030008B5024B32
:107CB0001B685B6C019308BD3002030008B5024BE2
:107CC0001B68DB68019308BD3C02030008B5024B4A
:107CD0001B681B69019308BD3C02030008B5024BF9
:107CE0001B685B69019308BD3C02030008B5024BA9
:107CF0001B689B69019308BD3C02030008B5024B59
:107D00001B68DB69019308BD3C02030008B5024B08
:107D10001B681B6A019308BD3C02030008B5024BB7
:107D20001B689B6A019308BD3C02030008B5024B27
:107D30001B681B6C019308BD3C02030008B5024B95
:107D40001B681B68019308BD4C02030008B5024B79
:107D50001B685B68019308BD4C02030008B5024B29
:107D60001B681B69019308BD4C02030008B5024B58
:107D70001B685B69019308BD4C02030008B5024B08
:107D80001B689B69019308BD4C02030008B5024BB8
:107D90001B68DB69019308BD4C02030008B5024B68
:107DA0001B681B6A019308BD4C02030008B5024B17
:107DB0001B689B6A019308BD4C02030008B5024B87
:107DC0001B685B6B019308BD6002030008B5024BA2
:107DD0001B681B6D019308BD6002030008B5024BD0
:107DE0001B685B68019308BD2002030008B5024BC5
:107DF0001B685B69019308BD2002030008B5034BB3
:107E00001B68D3F88830019308BD000020020300EE
:107E100008B5034B1B68D3F89430019308BD0000EC
:107E20002002030008B5024B1B689B68019308BD44
:107E30004402030008B5024B1B68DB6B019308BDCD
:107E40004402030008B5024B1B685B68019308BD40
:107E50004002030008B5024B1B689B68019308BDF4
:107E60004002030008B5024B1B68DB68019308BDA4
:107E70004002030008B5024B1B681B69019308BD53
:107E80004002030008B5024B1B685B69019308BD03
:107E90004002030008B5024B1B689B69019308BDB3
:107EA0004002030008B5024B1B68DB69019308BD63
:107EB0004002030008B5024B1B681B6A019308BD12
:107EC0004002030008B5024B1B689B6A019308BD82
:107ED0004002030008B5024B1B681B6B019308BDF1
:107EE0004002030008B5024B1B685B6B019308BDA1
:107EF0004002030008B5024B1B681B6C019308BDD0
:107F00004002030008B5024B1B685B6C019308BD7F
:107F10004002030008B5024B1B681B68019308BDB3
:107F20001C02030008B5024B1B685B68019308BD87
:107F30001C02030008B5024B1B689B68019308BD37
:107F40001C02030008B5024B1B685B6A019308BD65
:107F50001C02030008B5024B1B68DB6B019308BDD4
:107F60001C02030008B5024B1B681B6C019308BD83
:107F70001C02030008B5024B1B685B6C019308BD33
:107F80001C0203000021FFF731BF0000024800235C
:107F90000360FFF73BBD00BFC4E60320002240683A
:107FA0001146FFF787BF002240681146FFF79ABFCE
:107FB00040680022FFF78EBF4068002281F0010177
:107FC000FFF770BF002340681A461946FFF762BFEB
:107FD000002340681A461946FFF754BF0022406844
:107FE0001146FFF747BF002240681146FFF732BF36
:107FF000406800220221FFF735BF002340681A467F
:10800000FFF720BF024B03225A60024A1A607047F2
:10801000C8E60320180B0C007047F8B50646154655
:108020000C468F18BC4206D0336814F8011B9B68BD
:1080300030469847F6E72846F8BD007C0022FFF757
:108040004DBD007C0021FFF751BD007C0021FFF7F2
:1080500055BD007C0021FFF759BD007C0021FFF7D2
:108060005DBD10B514210446FCF719F8204610BD7B
:1080700038B5044615464FF47A730022C4E901234B
:10808000094B2174084623602946FFF757FDBF308E
:1080900008D16B69DB0705D56868FFF743FFE8681F
:1080A000FFF740FF204638BD540B0C000023007C36
:1080B0001A461946FFF7FABC7FB500221423CDE912
:1080C0000122ADF804300B788DF808304B6803932B
:1080D000CB680493007C0B7A059301A9FFF736FD6A
:1080E00007B05DF804FB1FB5003B8DF800104FF0A2
:1080F0006401039118BF0123694601928DF808308D
:10810000FFF7DAFF05B05DF804FB007C0022FFF703
:10811000D5BCC9B2FFF7F9BF007C0022FFF7D6BC7F
:108120000121FFF7F9BF704710B518210446FBF78E
:10813000B6FF204610BDF0B5037D062B8DB00E4670
:1081400000F104074FF0000412D000F1080515F803
:10815000011D0A22304600F074F9AF42044419D0E0
:10816000002CF4D02E21304600F052F90444EEE702
:108170002F236A4639460A208DF80040FFF7F6FCA7
:10818000684603F071F833680246DB68694630469A
:108190009847044620460DB0F0BD000010B5054BD1
:1081A0000446112240F8043B002102F0D7FF20468C
:1081B00010BD00BF7C0B0C000346074A10B543F806
:1081C000042B01F1100251F8044B43F8044B914287
:1081D000F9D10A781A7010BD7C0B0C00037D042BBA
:1081E00004D14068003818BF01207047062B07D122
:1081F00043683BB983682BB9C3681BB90069F1E7D1
:10820000002070470120704710B59DF8084044EAEF
:10821000032343EA024242EA0161042341600375F9
:1082200010BD000007B5064B0360CB7800938B7838
:108230004A780978FFF7E8FF03B05DF804FB00BF58
:108240007C0B0C00014B024A1A607047D0E60320F9
:10825000880B0C00002340681A46FFF7F3BD406806
:1082600000220221FFF7FEBD002240681146FFF701
:10827000F1BD002240681146FFF7FCBD00234068B5
:108280001A461946FFF7FEBD002340681A461946F4
:10829000FFF700BE40680021FFF72CBE40680021B8
:1082A000FFF730BE4068002281F00101FFF7FABD00
:1082B00040680022FFF70EBE002240681146FFF71B
:1082C00011BE002240681146FFF7F4BD2DE9F043CE
:1082D00095B014460D460746FFF760FF00211C22AB
:1082E0000DA8009102F03AFF40230C9320466B4604
:1082F0000CAA0021FFF75AFC044600284BD1024685
:1083000001216868FFF7B6FD0221804622466868B1
:10831000FFF7B0FD009E81462146002E3BD000298C
:1083200039D17368022B03D00A2B11D0F669F4E718
:10833000B8F1000FFAD0716906A8043107ADFFF754
:1083400071FF0FCD3C1D0FC42B6823704146EDE734
:10835000B9F1000FEAD07469102201A802F0FEFE04
:1083600006238DF8143001AD04F1080318341868A1
:1083700059682A4603C20833A3421546F7D101A91A
:1083800006A807ADFFF718FF0FCD3C1D0FC42B68E3
:1083900023704946CAE70098FFF700FC384615B03D
:1083A000BDE8F083024B034A1A6000225A6070470E
:1083B000D4E60320940B0C00F8B506460D468F1842
:1083C0000024BD420CD0336815F8011B9B68304671
:1083D0009847031E01DB1C44F3E7002C08BF1C4632
:1083E0002046F8BD13B50446084659B1019102F084
:1083F0003BFF23680199DB680246204602B0BDE8D6
:108400001040184702B010BD08B5FFF7EBFF08BDDC
:1084100003689B68184738B50D210546FFF7F8FF3C
:108420000A2104462846FFF7F3FF204438BD38B53B
:108430000546FFF7D7FF04462846FFF7ECFF204428
:1084400038BD30B58BB00023012A8DF8243098BF99
:108450000A2209AC0D46B1FBF2F101FB125303F005
:10846000FF03092B94BF30333733DBB2AA4204F841
:10847000013DEFD92146FFF7B5FF0BB030BD2DE927
:10848000F04186B000AF05460E46381D1421144653
:108490003B60FFF757FD13280ED8391D2846FFF71C
:1084A000A1FF04461EB12846FFF7B5FF044420464D
:1084B0001837BD46BDE8F08100F1080323F007033B
:1084C000E846ADEB030D2246411C3B686846FFF7CA
:1084D00039FD69462846FFF785FF0446C546E1E7B2
:1084E00010B5044628B102F06FFE90FBF4F303FBD5
:1084F0001404204610BD0000014B00229A60704712
:10850000DCE603200021FFF7D1BB0021FFF7C6BB4B
:1085100010B5044608462170FFF7A8FB00236360EE
:10852000204610BD13B504460078FFF7EEFF58B99A
:10853000207801904FF6FF71FFF770FB019802B0B1
:10854000BDE81040FFF7DEBF02B010BD13B5044612
:1085500000780191FFF7D9FF019948B9207801907F
:10856000FFF764FB019802B0BDE81040FFF7CABFF7
:1085700002B010BD13B5044600780191FFF7C5FFA6
:10858000019948B920780190FFF758FB019802B093
:10859000BDE81040FFF7B6BF02B010BD400830B5CF
:1085A0001860002418688842E5B206D90134082C06
:1085B00002D040081860F5E70725024B5B5D137099
:1085C00030BD00BFC80B0C002DE9F04188B000237E
:1085D0000446007802930E461746FFF796FF0546BD
:1085E00000BB94F800800146142203A802F0B6FDF7
:1085F0000B232A4603A94046ADF80C30FFF746FB93
:1086000004988DF8075002AB0DF1070207FB06F145
:10861000FFF7C4FF20789DF80710FFF717FB2078BD
:10862000FFF770FF029808B0BDE8F08138B5044646
:1086300000780D46FFF769FF0346D0B9616899B12C
:108640000C4A12F8010B854202D00133082BF8D1F5
:108650000133DBB20122D9402046FFF7B5FF207875
:10866000BDE83840FFF74EBF20782946FFF7EEFA05
:10867000F5E738BDC80B0C0008B50078FFF7EEFA37
:10868000C0B208BD10B50446FFF7E0F9E06023680A
:1086900020465B699847002808DAFFF7D7F9E368B6
:1086A000C01AA3689842F2D34FF0FF3010BD00000B
:1086B00038B50D460749044600F059F82846FFF73B
:1086C000E1FF002804DBC1B2204600F0BAF8F5E76C
:1086D000204638BD6EB40B0010B504460068FFF7A5
:1086E00021FC204610BD10B50446006808B1FFF714
:1086F00019FC0023C4E90133236010BD38B50446DA
:108700000D4600680131FFF715FC10B1C4E9000502
:10871000012038BD10B50368044623B143688B427D
:1087200001D3012010BD2046FFF7E8FF0028F9D053
:10873000A368002BF5D122681370F2E737B50D4618
:10874000114601920446FFF7E5FF019A28B9204639
:10875000FFF7C9FF204603B030BDA260294620685C
:1087600002F0EEFC2268A3680021D154F2E7002356
:1087700013B5C0E9003304468360037341B1084672
:10878000019102F071FD019902462046FFF7D6FFE4
:10879000204602B010BD884210B5044605D00B68D3
:1087A0002BB18A681946FFF7C9FF204610BDFFF7B5
:1087B0009AFFFAE710B500230446C0E9003383604E
:1087C0000373FFF7E8FF204610BD13B5044659B107
:1087D0000846019102F048FD019902462046FFF744
:1087E000ADFF204602B010BDFFF77DFFF9E710B5E1
:1087F00004468AB00023C4E90033A360237308460B
:1088000001A900F083FC01A92046FFF7DEFF204606
:108810000AB010BD70B505460E4609B9002070BDFE
:108820006AB1846814442146FFF774FF0028F5D02C
:108830002868AB683146184402F00EFDAC60012098
:10884000EDE707B500238DF80410012201A98DF88A
:108850000530FFF7DFFF03B05DF804FB10B58A6851
:1088600009680446FFF7D6FF10B92046FFF73BFF23
:10887000204610BD13B5044629B92046FFF733FF43
:10888000204602B010BD0846019102F0EDFC0199AE
:1088900002462046FFF7BEFF0028EED0F0E70000BA
:1088A000054B02221A60054B054A9A600020C3E975
:1088B0000000FFF793BA00BFF8E60320ECE60320C0
:1088C0000000FFFF13B503688DF80710DC6B012271
:1088D0004FF0FF330DF10701A04702B010BD10B4F7
:1088E0000368DC6B4FF0FF33A4465DF8044B604730
:1088F00013B5134602688DF80710D46B0DF107010C
:108900000122A04702B010BD10B54369B3F886201C
:10891000B3F884309A42044608D06369B3F88420DF
:10892000511CA3F884101344187910BD03681B6907
:1089300098470028F1D14FF0FF30F6E770474369C0
:108940001868C043C00F704770470000064B99423B
:1089500010B500F10C0405D0084600F095FD002884
:1089600008BF0024204610BD080B0C0010B5AC2138
:108970000446FBF794FB204610BDAC21FBF78FBBF0
:108980002DE9F0414FF0000886B01C46C0F8048085
:1089900005460E4617464146102202A802F0DEFBAD
:1089A000631C09D04FF47A73B4FBF3F203FB124457
:1089B000CDE902285C4304946869102300930068A1
:1089C00002AB41F2050240F6FF71FFF7F7F800280D
:1089D00007DAFFF7BFFA03686B60002006B0BDE856
:1089E000F0816869002300683A463146FFF706F9CE
:1089F000031EEEDB1846F1E730B587B0044601AD43
:108A00006846FFF70FFC0FCD04340FC42B682370AA
:108A100007B030BD70B54D69054B04468C3544F840
:108A2000043B06460FCD0FC42B682370304670BD43
:108A30007C0B0C002DE9F0439846036893B00D467B
:108A40000024DB6A06461746984728466B462246AE
:108A500021460094FFF7AAF80546002863D1009B41
:108A6000002B4BD05B69002B48D006A8FFF796FB84
:108A7000009B5C696378022B04D1211D06A8FFF7D7
:108A8000BBFF26E00A2B24D11122294601A802F0BF
:108A900065FBA368002B38D004F108030DF1040C2A
:108AA000183418685968624603C20833A3429446D2
:108AB000F7D1062301A90CA88DF81430FFF77CFB31
:108AC0000DF1340CBCE80F0007AC0FC4DCF800302B
:108AD000237006A8FFF782FB80B1336807ADD3F897
:108AE0002090124B0C930FCD0DAC0FC42B6823704C
:108AF0003A4643460CA93046C84705460098FFF75A
:108B00004DF8284613B0BDE8F083E368002BC3D1CD
:108B10004FF6FF70D4F81090FFF730F88145BBD1C5
:108B200004F11401AAE72546E8E700BF7C0B0C001E
:108B300038B543691A68002A054610DAB3F886206A
:108B4000B3F884309A420AD103681B6998470446F7
:108B500028B92B682846DB6A9847204638BD012093
:108B6000FCE710B54369B3F88620B3F884309A4225
:108B7000044605D06369B3F884201344187910BD06
:108B800003681B6998470028F4D14FF0FF30F6E7DF
:108B9000F8B543691746B3F88620B3F884309A4293
:108BA00005460E4616D06969B1F88430B1F88640A2
:108BB000E41ABC4228BF3C460433224619443046DE
:108BC00002F0BEFA6A69B2F884302344A2F8843015
:108BD0002046F8BD03681B6998470028E3D14FF091
:108BE000FF34F5E742690023A2F884304269A2F815
:108BF000863070472DE9F0411F4603680C46DB6A5A
:108C00008AB0054616469847237DD5F81480042B74
:108C10000CBF02200A2006220121FEF7F7FFC8F848
:108C200000006B691B68002B08DA2B682846DB6A9A
:108C30000024984720460AB0BDE8F0812846FFF797
:108C4000D1FFB7B1002303A9F8B20393ADF81030F8
:108C5000FEF784FF0028E8D16869062300930068C6
:108C600003AB41F20B0240F6FF71FEF7A7FF0028AD
:108C7000DBD11C22002103A802F070FA237D042B13
:108C80001DD14FF407733046ADF80C30FEF77EFF70
:108C9000ADF80E006068FEF771FF04906B691C224E
:108CA000186803A9FEF79AFF0028BED104340FCC40
:108CB0006D698C350FC523682B700124BAE740F627
:108CC0001C233046ADF80C30FEF760FF05AEADF862
:108CD0000E00231D04F1140718685968324603C2B8
:108CE0000833BB421646F7D1D8E7000030B54269D9
:108CF000B2F886308BB004462BB1B2F884209A4289
:108D000001D1FFF76FFF61690868002818DBB1F82F
:108D100086507F2D14D804310823C5F180022944E0
:108D2000FEF764FF002813DD6369B3F886200AB9F3
:108D3000A3F884206369B3F886201044A3F8860062
:108D40006369B3F88600B3F88430C01A0BB030BD45
:108D5000FFF700F903680B2BF2D0FFF7FBF803686D
:108D60000B2BEDD020230025CDE90235FFF7F2F8DB
:108D700003680193084B0949009302AA2B4632204D
:108D8000FFF724F863691868FEF720FF63694FF066
:108D9000FF321A60D4E700BFD70B0C00D00B0C00D9
:108DA00010B5436904461868002801DBFEF70EFF82
:108DB00063694FF0FF321A606069112200218C3024
:108DC00002F0CCF92046BDE81040FFF70BBF10B50C
:108DD000002304460160C0F884308830FFF7DEF9D4
:108DE000204610BD73B500234FF47A72C0E90132FA
:108DF0000E4A0361026043610446AC200191FBF717
:108E00004AF9051E05F10C0608D00123C5E9013316
:108E1000074B01992B603046FFF7D9FF2046C4E984
:108E20000565FFF7DFFE02B070BD00BF0C0C0C0043
:108E3000F00B0C0010B54FF0FF310446FFF7D2FFE6
:108E4000204610BD10B504460068002801DBFEF77F
:108E5000BDFE204610BD0C30FFF7F4BF024B1A6870
:108E6000024B1A60704700BF60E50320FCE6032058
:108E700070474174704708B5007CFEF74FFF20EA49
:108E8000E07008BD08B5007CFEF720FF20EAE07026
:108E900008BD08B5007CFEF729FF40EAE07008BD78
:108EA00008B5007CFEF71AFF40EAE07008BD007CC0
:108EB000FEF724BF37B5457C04462DB1207C03B0B6
:108EC000BDE83040FEF7FABE007C0191FEF726FFB8
:108ED00000280199F2DC284603B030BD10B51421FA
:108EE0000446FBF7DCF8204610BD000010B54FF437
:108EF0007A730446084611460022C4E90123044B54
:108F00002360012320746374FEF710FF204610BD18
:108F1000740C0C00417470477047704708B500210D
:108F2000007CFEF72BFF40EAE07008BD08B5012188
:108F3000007CFEF723FF40EAE07008BD08B5007C26
:108F4000FEF714FF20EAE07008BD08B5007CFEF7CC
:108F500005FF20EAE07008BD13B50446007C0191CE
:108F6000FEF704FF0028019901DC607C20B1207C21
:108F7000FEF70CFF20EAE07002B010BD007CFEF7A7
:108F80000DBF10B514210446FBF789F8204610BD2B
:108F900010B54FF47A73044608460021C4E9011362
:108FA000044B23600123207463741146FEF7C6FE50
:108FB000204610BDA40C0C00007C0022FEF7C6BEAB
:108FC000007CFEF7F3BE10B514220446002102F027
:108FD000C5F8204610BD000010B50F4C88B003A89E
:108FE000FFF7F1FF2178BFF35B8F11F001010FD183
:108FF00020460191FBF762F8019948B103AA07489E
:10900000FFF7C6FF2046FBF75EF8054802F092F82E
:10901000024808B010BD00BF00E7032004E70320AA
:10902000198F0B00002240681146FEF723BF002273
:1090300040681146FEF73EBF002240681146FEF729
:1090400051BF40680022FEF745BF4068002281F012
:109050000101FEF727BF002340681A461946FEF7B4
:1090600019BF002340681A461946FEF70BBF0022BD
:1090700040681146FEF7EEBE406800220221FEF76E
:10908000F1BE002340681A46FEF7DCBE024B042204
:109090005A60024A1A60704718E70320D40C0C008B
:1090A00010B5044602F0E0F8013823182046834248
:1090B00006D90278197800F8011B03F80129F6E7B0
:1090C00010BD70B50C46911E22291DD8254630B919
:1090D000234430229D4210D205F8012BFAE7B0FB61
:1090E000F2F602FB1600C1B2092894BF30315731A5
:1090F000C9B205F8011B3046E9E7002320462B7072
:10910000FFF7CEFF204670BD0020FCE738B5031EF8
:109110000C4615460EDAB3F1004F4FF02D0214BF86
:109120005842184601230A702A461944FFF7C9FF1E
:10913000204638BD0123F9E7014B1860704700BF96
:1091400068E5032008B50B4B43B1FFF745FF036803
:109150001B699847002801DDAFF30080064B43B13F
:1091600000F06CF903681B699847002801DDAFF334
:10917000008008BD000000000000000008B5FFF7F7
:10918000E1FFFEF763FC014B186008BD28E70320F0
:109190000548064A064908B5121A01F0D1FF054BE9
:1091A000054A1A6008BD00BF00F4032004F4032040
:1091B000D40E0C0000F403201E1C279A07B50023D0
:1091C00000931A466FF07701FEF722FE03B05DF8B8
:1091D00004FB000007B543880A2B08D0502B0BD1A5
:1091E000094B1B684BB103B05DF804EB1847FFF760
:1091F000E5FF03B05DF804FB002300931A466FF00F
:109200007701FEF705FEF4E724E7032010B51248C6
:109210000021FEF7AFFE114B1A68114B9A42114B19
:109220000CBF012200221A7001D0FFF7B1FFFEF738
:10923000F5FB044601F09AFF0B4B13B12046AFF348
:10924000008000210848FEF7F5FDBDE81040074802
:109250000021FEF7D3BD00BF39910B0000F40320BD
:109260001E1C279A20E7032000000000D5910B0068
:10927000232813B502D9002002B010BDA0F10B03C2
:10928000022B1AD8174C2178BFF35B8F11F0010124
:109290000BD120460191FAF711FF019928B112482C
:1092A000FFF736F92046FAF70EFF0F4B1878FEF756
:1092B000E5FC0028DFD10120DEE7012809D800F015
:1092C0007DF80021007CFEF731FC80F00100C0B287
:1092D000D2E709380128EED800F0B0F8007CFEF79C
:1092E00015FDF2E7B8E60320BCE60320232838B5D5
:1092F00004460D460AD8FF2908D0FFF7B9FF28B168
:1093000029462046BDE83840FEF7B8BB38BD38B521
:1093100004460D46FEF7BAFBFF2810D0062804D8F5
:109320004D2323FA00F0C30709D42046FFF7A0FF1E
:1093300028B129462046BDE83840FEF7AFBB38BD0E
:109340002DE9F04190461F46072406460D46C4F11C
:109350000701B8F1000F12D147FA01F101F0010144
:109360003046FFF7D4FF01212846FFF7D0FF002148
:109370002846FFF7CCFF013CE9D2BDE8F08147FA6F
:1093800004F1EBE77047000038B50A4B0360012396
:10939000044643610849202000F074F820256060ED
:1093A0000549A560284600F06DF8C4E9030520468C
:1093B00038BD00BF18000100080D0C0030B50E4D7F
:1093C0002978BFF35B8F11F0010487B011D12846D3
:1093D000FAF774FE68B16846FFF7D6FF6A46214681
:1093E0000648FEF745FE2846FAF76DFE044801F0F0
:1093F000A1FE024807B030BD2CE7032030E7032070
:1094000085930B007047000038B5044614252A46A2
:10941000002101F0A3FE258040250749258128462B
:10942000258200F02FF804496060284600F02AF8F1
:10943000E060204638BD00BF080D0C0030B50E4D71
:109440002978BFF35B8F11F0010487B011D1284652
:10945000FAF734FE68B101A8FFF7D6FF01AA21464A
:109460000648FFF743FD2846FAF72DFE044801F0B1
:1094700061FE024807B030BD44E7032048E70320FF
:1094800005940B00FAF709BE014900F0F9B800BFD6
:10949000240D0C007FB500241023CDE902340368AD
:1094A00015469E6912686B46CDE90044B0479DF8A9
:1094B000043003F00603062B03BF009B2B60012042
:1094C000204604B070BD0098904214BF01200620D1
:1094D0007047000010B5034B0360044600F0CDF860
:1094E000204610BD640D0C0010B50446FFF7F2FFD6
:1094F00020460821FAF7D3FD204610BD2DE9F041A2
:109500001F46DDE90834DDF8188098450646154603
:1095100007D1079900F0B4F818B165710020BDE8D3
:10952000F0813946304600F0ABF80028F6D0012330
:10953000C4F800802571A371F0E738B515461C46C4
:1095400000F09EF820B10823E36006232560237114
:1095500038BD73B505460C4601921E4600F090F8E2
:1095600050B9032E08D82368019A5B692946204622
:1095700002B0BDE87040184702B070BD10B5034B93
:1095800003600446FFF7A6FF204610BDC40D0C0083
:1095900010B50446FFF7F2FF20460C21FAF77FFDD5
:1095A000204610BDF7B5089F974205460E46144663
:1095B0000AD0A86802680897156A31462246AC4668
:1095C00003B0BDE8F04060471946019300F058F839
:1095D000019B0028EDD0062003B0F0BD2DE9F14F2E
:1095E0000D461946DDE90A4BDDE90CA68146174612
:1095F000984600F045F890B1002D3460377109DBD2
:1096000061198A450CBF06210121B171002001B00A
:10961000BDE8F08F0235F9D10123B371F6E7544567
:1096200006D15946484600F02BF808B17771EDE7AE
:10963000D9F808000368CDE90CA6CDE90A4BDC692E
:109640003A4643462946A44601B0BDE8F04F60477C
:109650002DE9F04107460C4615461E46FFF76DFF03
:1096600048B9B86803689F692A4633462146BC4614
:10967000BDE8F0416047BDE8F081704700207047C9
:10968000814208B50ED0406803782A2B0CD0496877
:109690000B782A2B08BF013101F0D4FDB0FA80F01D
:1096A000400908BD0120FCE70020FAE700000000A7
:1096B000F8B52DED028B57EC106B55EC114B00F00B
:1096C000CBF8634BB0EE408AF0EE608A93F900303D
:1096D00001332AD022462B462046294601F0C4FCFD
:1096E00018BB32463B463046394601F0BDFC0028E7
:1096F00044D1002200233046394601F083FCD8B122
:10970000002200232046294601F07CFC00283DD1A0
:1097100045EC104B00F010FF38B1204629460022DE
:10972000002301F079FC00285CD1B0EE480AF0EE8D
:10973000680ABDEC028BF8BDB0EE480AF0EE680A8C
:1097400000F0FAFE58B351EC180B0022002301F090
:1097500059FC0028E9D047EC106B00F0EDFE002822
:10976000E3D045EC104B00F0E7FE0028DDD0FEF71B
:10977000F1FB22239FED2E8B0360D6E7204629467E
:109780000022002301F03EFC0028CED09FED2A8B62
:10979000B0EE480AF0EE680ABDEC028BF8BD47EC6B
:1097A000106B00F0C9FE0028CDD045EC104B00F046
:1097B000C3FE0028C7D053EC182B18EE100A194628
:1097C00001F052FC20BBFEF7C5FB034622221A60C3
:1097D000304639460022002301F01EFC48B99FEDB7
:1097E000188BA2E7FEF7B6FB21239FED178B0360D2
:1097F0009BE745EC104B00F0B3FE224651EC100BFA
:109800002B4601F0FFFB0028E9D19FED0F8B8CE781
:10981000FEF7A0FB0022002321210160104619461B
:1098200001F0B2FA41EC180B7FE700BFAFF3008004
:109830000000000000000000000000000000F03FF9
:10984000000000000000F07F000000000000F0FFBA
:1098500064E50320000000002DE9F04F57EC116B88
:109860002DED0C8B27F0004A5AEA060287B03DD056
:1098700055EC104B724925F00048884510EE102A2F
:10988000A9462CDC11EE103ABB4636D08A4526DCC0
:109890006B498A4521D0B9F1000F39DB00210091D5
:1098A000002B51D1664B9A4500F0A280654B9A453A
:1098B00000F0B080BBF1804F00F0C084624B9B454C
:1098C00042D1B9F1000F3FDB45EC104B07B0BDECC6
:1098D0000C8BBDE8F04F00F059BD002BDBD008F138
:1098E000404808F5801858EA020309D19FED500B53
:1098F00007B0BDEC0C8BBDE8F08F0CB9C245C7DDDD
:10990000524807B0BDEC0C8BBDE8F04F00F020BE14
:109910004F498A4500F38580A1F154718A450FDDD6
:109920004FEA2A51A1F2FF31142940F39B84C1F17F
:10993000340123FA01F000FA01F1994200F0ED84BC
:1099400000210091002BB1D045EC104B029200F0A9
:10995000E9FD029A5ABBB8F1000F04D0394B29F047
:1099600040429A4223D1BBF1000F07DA53EC102B8F
:109970003449002001F008FA41EC100BB9F1000F56
:10998000B6DA009B08F1404808F5801858EA03034E
:1099900040F08D8453EC102B1046194600F012FF56
:1099A00002460B4601F0F0F941EC100BA0E7009ADB
:1099B0004FEAD973013B0493134335D0254B9A45A5
:1099C0004CDD03F104739A45234B40F3DB83984548
:1099D00040F36083BBF1000F40F3608316A3D3E92B
:1099E00000231046194601F0A5F841EC100B7FE763
:1099F00008F1404303F5801313433FF477AF164B50
:109A0000984540F37A83BBF1000FC0F2478347ECDF
:109A1000106B6DE7BBF1000FC0F21A8445EC104BE0
:109A200066E7022100913BE722462B46B4E700BFE0
:109A3000000000000000F03F9C7500883CE4377E89
:109A40000000F07F0000F03F0000E03F000E0C003F
:109A5000FFFF3F430000E041FFFFEF3FE44B09EA17
:109A60000303002253B951EC100BE24B01F062F8F2
:109A700041EC100B10EE908A6FF034024FEA28533D
:109A8000A3F2FF339A18DC4B0592C8F3130848F091
:109A90007F54984544F4401407DDD84B984540F373
:109AA000148401320592A4F580149FEDB96B9FEDEB
:109AB000BA7B53EC162BB0EE47CAF0EE67CA00250E
:109AC000B0EE47DAF0EE67DA5BEC10ABA346504637
:109AD000594643EC1A2B00F075FE53EC1A2B8046C6
