:02000002B0004C
:1040000000400B00E01A0C00000006000C00050246
:084010000401A60F00000000EE
:04401800A4B50B0040
:1040200009480A49884208B505D0094A824202D0A7
:10403000121A07F0B5F90748074A0021121A07F0CB
:10404000BDF9014808BD00BFA4E0032008160C001C
:1040500054E5032054E50320EDE7032070B5074E37
:10406000074C05F003FAA41BA4080025AC4200D1BC
:1040700070BD56F8043B98470135F7E7B0150C00C2
:10408000D8150C0000F01EBB08B500F09BFBBDE886
:10409000084005F0A3B904F05DB804F05BB804F083
:1040A00061B8000008B5034A03490C2003F0A6FFDD
:1040B000FEE700BF6D7C0B00B8B50B000078B0FACE
:1040C00080F04009704701230370704770B50C1EE3
:1040D000064615460BDA0A2A09D12D2104F0B8FA52
:1040E0006142EAB23046BDE8704004F0CABA2146E7
:1040F000F7E70368C9B29B6818470EB403B503AB72
:10410000002153F8042B019304F0D9FA02B05DF8B2
:1041100004EB03B07047000038B584690A4B0360B4
:1041200005467CB16368013B63605BB92368204648
:104130009B689847A368013BA3601BB9236820468E
:10414000DB689847284638BD34130C0010B5044688
:10415000FFF7E2FF20461C21FFF7A1FF204610BD1C
:104160002DE9F0418CB005460F4668467749DDF8E9
:10417000488014461E4604F01AFCDFF828E2744911
:10418000DEF800307348744ADFF81CC2AB4219D124
:104190000B68BB4216D10368A34213D11368B34224
:1041A00010D1DCF8003043450CD105F045F86B49DF
:1041B000FFF7A3FF0024684604F0AEFB20460CB0D6
:1041C000BDE8F081CEF800500F6004601660CCF8B6
:1041D0000080002F00F0B5806149684604F015FCAE
:1041E000694608A804F006FC0A22414604A804F027
:1041F0001EFC04A908A804F062FC5A4904F06BFCF8
:104200000146684604F0E7FB04A804F085FB08A813
:1042100004F082FB694608A804F0ECFB0A22314650
:1042200004A804F004FC04A908A804F048FC4E49C2
:1042300004F051FC0146684604F0CDFB04A804F0EC
:104240006BFB08A804F068FB694608A804F0D2FBE1
:104250000A22214604A804F0EAFB04A908A804F0F5
:104260002EFC424904F037FC0146684604F0B3FBDB
:1042700004A804F051FB08A804F04EFB3C493D485B
:104280000023502204F006FD0446002893D004F0D9
:10429000D3FF394904F0EBF904F0CEFF009904F0A4
:1042A000E6F93649334804F0CFF93549314804F08E
:1042B000CBF934492F4804F0C7F90A222D48294682
:1042C000FFF704FF30492B4804F0D1F92F49294862
:1042D00004F0CDF92E49274804F0B6F924492548C1
:1042E00004F0C5F92B49234804F0AEF90A220299DB
:1042F000204804F0C6F91F4804F0ADF926491D48CE
:1043000004F0B5F91B4804F0A6F90099194804F027
:10431000AEF904F091FF214904F0A9F904F08CFFF3
:104320001449044608A804F0E3FA0899204604F06A
:104330009EF908A804F0F0FA0E4804F061FE01248A
:1043400039E71749684604F060FB97E7DAB90B00D4
:10435000C0E50320C8E50320B8E50320CDB50B0078
:10436000E9B50B00FBB50B0003B60B0016B60B004E
:10437000A4000C0054E5032018B60B002FB60B0068
:104380008ABB0B0039B60B0042B60B006BB80B00B2
:1043900052B60B0059B60B006AB60B0091B60B0073
:1043A0000BB60B00BCE50320C4E503201FB525496F
:1043B0000446684604F0FBFA04F03EFF2246224918
:1043C000FFF79BFE2149684604F05BFB204A214928
:1043D000128851F824102048002304F05BFC28B315
:1043E0001E491D4804F043F91D491B4804F03FF9DC
:1043F0001C49194804F03BF91B49174804F037F9E8
:104400001A49154804F020F9029913480A2204F0C9
:1044100038F9114804F01FF90F4804F01CF900990D
:104420000D4804F011F90C4804F015F90A4804F09D
:10443000AFFC10B1084804F0E3FD684604F06CFAE4
:1044400004B010BDDAB90B009AB60B00A8B60B0089
:10445000D0E00320BCE003209CE50320D4B70B0090
:10446000FCB70B0022B80B005FB80B0059B60B006D
:104470001FB525490446684604F099FA04F0DCFEAD
:1044800022462249FFF739FE2149684604F0F9FA2D
:10449000204A2149128851F824102048002304F0B2
:1044A000F9FB28B31E491D4804F0E1F81D491B48DB
:1044B00004F0DDF81C49194804F0D9F81B491748E5
:1044C00004F0D5F81A49154804F0BEF802991348CB
:1044D0000A2204F0D6F8114804F0BDF80F4804F0A1
:1044E000BAF800990D4804F0AFF80C4804F0B3F89E
:1044F0000A4804F04DFC10B1084804F081FD6846FC
:1045000004F00AFA04B010BDDAB90B0076B80B005B
:1045100085B80B00D0E00320BCE003209CE503201D
:10452000D4B70B00FCB70B0022B80B005FB80B0030
:1045300059B60B000000000038B50C46054605F0E2
:104540006DF803F0D3FE05F069F8294603F0FDFE8F
:1045500005F064F81C21FFF7CCFD05F05FF8E100E1
:10456000FFF7C7FD05F05AF8012103F0F5FE2046DC
:1045700006F096FB9FED120B41EC110B05F0C8F90C
:10458000114953EC102B002006F02EFD02460B467D
:1045900000200E4906F028FD06F0ACFE044604F0AB
:1045A0004BFE0546204606F09DFB02460B4628467C
:1045B0000749FFF7A2FD00EE104A38BDAFF30080B7
:1045C00000000000000000400000D0400000F03F6C
:1045D000B1B90B0038B50D46044605F01FF803F0DD
:1045E00085FE05F01BF8214603F0AFFE05F016F836
:1045F0006B21FFF77EFD05F011F80021FFF779FD33
:1046000005F00CF8012103F0A7FE29462046FFF72C
:1046100093FF024B83ED000A38BD00BFCCE50320B9
:1046200038B504460D4604F0F9FF214603F08DFE2F
:1046300004F0F4FF036829469B68984704F0EEFFF6
:10464000002103F089FE04F0E9FF21460222012344
:1046500003F069FE04F0E2FF03685B6998470446D3
:1046600004F0DCFF03685B699847C3B243EA0420A7
:1046700003B200EE103AB8EEC00A38BD70B50C4671
:104680000F4E3B210546FFF7CBFFD6ED007A27EE14
:10469000800A3D21284684ED000AFFF7C1FFD6EDD0
:1046A000007A27EE800A3F2184ED010A2846FFF7B1
:1046B000B7FFD6ED007A27EE800A84ED020A70BDBE
:1046C000CCE5032030B595B004F0B6FD4FF416519B
:1046D00004F0A2FD002003F0E1FA42F21075044656
:1046E000002003F0DBFA001B61F10001A84271F128
:1046F000000307D204F0A0FD04F092FD10B903F00E
:10470000B1FCEDE704F098FD04F08AFD002168207B
:10471000FFF760FF244B254C83ED000A00231A4667
:1047200019466068224D03F0CDFC3822002106A80E
:1047300006F044FE4C2301931E4B02930A220023F1
:10474000CDE90323194601AA6068059303F0DAFC5A
:10475000002360681A46194603F094FC0022606842
:10476000114603F097FC28B104F066FD2946FFF7D7
:10477000C4FCF3E74FF47A7003F024FD04F05CFD11
:104780000D49FFF7BAFC0D4802F0C9FA0B4802F0D8
:10479000FFFA0B483C22022103F080F9084815B0CB
:1047A000BDE8304003F092B8B0E6032018E70320DC
:1047B000D6B90B00CBB90B00D8B90B0080E60320AB
:1047C00058E603202DE9F04FDFF89893DFF898A31F
:1047D00089B003F05BFAD9F80030CAF80000C01ABB
:1047E00040F6C413984240F2B980C64CC64F2146E9
:1047F0006820FFF743FFC54B94ED003AD4ED013A32
:1048000094ED024A83ED003AC3ED013A83ED024A8A
:10481000BF4B39460022D3ED006A93ED017AD3ED08
:10482000027A73EE666A33EEC77A74EE677A66EEE2
:10483000A64A27EE075A67EEA75A35EE246A0132D8
:1048400036EE256A142AA1EC016A03F10C03E2D1C9
:10485000B04BB14EC3ED006AB04BDFF8E4B283ED6C
:10486000007AAF4BC3ED007AAE4BC3ED004AAE4BBE
:1048700083ED005AAD4BC3ED005AAD4B33600025BC
:10488000F7EC017A96ED007AF4EEC77AF1EE10FAC1
:1048900012D5C6ED007ACBF8005004F0CDFC80466E
:1048A000306806F01FFA0B46DBF800100091024654
:1048B000A0494046FFF721FC0135142DE0D104F05A
:1048C000BBFC0546206806F00DFA02460B46A068C0
:1048D000CDE9062306F006FACDE90201606806F08C
:1048E00001FADDE90623CDE9000193492846FFF7E7
:1048F00004FC9248022102F0FCFD01228F480821AD
:1049000002F0EAFD8D48012102F0E9FD8B4801210A
:1049100002F0EAFD206806F0E5F90B4688490968CF
:1049200004910246A068CDE9062306F0DBF9CDE943
:104930000201606806F0D6F9DDE90623CDE9000141
:1049400080497E48FFF7D9FB7C4803F037F87B4865
:1049500002F0BCFFDAF80030C9F800307A4D2C685C
:10496000012C42F025817548784EDFF8009202F064
:10497000ADFF7248022102F0BCFD002211466F48D3
:1049800002F0AAFD80234022CDE900320022704BC4
:104990006A480294114602F09BFC684803F00EF846
:1049A00040F6B83003F00EFC644802F08FFF04F0CC
:1049B00043FC68490322FFF7A0FB0320FFF7F6FC46
:1049C00042F2107003F0FEFB04F036FC6249032251
:1049D000FFF793FB0320FFF74BFD42F2107003F04B
:1049E000F1FB34705D4C4FF0FF08FF2704F024FC0E
:1049F0004946FFF782FB0097434622683178012041
:104A0000FFF7AEFB00974346226831780220FFF79C
:104A1000A7FB00974346226831780320FFF7A0FBED
:104A200000974346226831780420FFF799FB0097EE
:104A30004346226831780520FFF792FB00974346F2
:104A4000226831780620A8F16408FFF789FB18F185
:104A50002D0FCAD1DFF814914FF0000804F0ECFBE1
:104A60004946FFF74AFB0097434622683178012008
:104A7000FFF776FB00974346226831780220FFF764
:104A80006FFB00974346226831780320FFF768FBED
:104A900000974346226831780420FFF761FB0097B6
:104AA0004346226831780520FFF75AFB00974346BA
:104AB00022683178062008F16408FFF751FBB8F549
:104AC000967FCBD102232B601C48204CDFF89CA0A2
:104AD000224F022102F00DFD00221146174802F07C
:104AE000FBFC012640230022CDE90136802311463C
:104AF000124800931A4B02F0EBFB104802F05EFFE5
:104B000036E000BFD0E50320ECE50320A4E6032057
:104B1000B4C70B00E0E5032054E60320E4E50320DE
:104B2000E8E5032094E6032098E603209CE60320B2
:104B30000000C842DBB90B00F8B90B0058E60320AF
:104B400050E603202FBA0B00A0E603204CE603201A
:104B5000A4C80B005BBA0B0073BA0B008CE50320F2
:104B6000A4D40B00DCE503207CE603208CBA0B0008
:104B700040F6B83003F026FBC14802F0A7FE4FF024
:104B8000FF082670FF2604F057FB5146FFF7B5FAE1
:104B90000096DFF80C933A68217843460120FFF72E
:104BA000DFFA00964346D9F8002021780220FFF76B
:104BB000D7FA009643463A6821780320FFF7D0FAE7
:104BC00000964346D9F8002021780420FFF7C8FA60
:104BD000009643463A6821780520FFF7C1FA00960F
:104BE0004346D9F8002021780620A8F16408FFF791
:104BF000B7FA18F12D0FC5D1DFF8A0A24FF00008C9
:104C000004F01AFB5146FFF778FA00964346D9F8AC
:104C1000002021780120FFF7A3FA009643463A6866
:104C200021780220FFF79CFA00964346D9F800202D
:104C300021780320FFF794FA009643463A682178DA
:104C40000420FFF78DFA00964346D9F8002021781A
:104C50000520FFF785FA009643463A68217806203A
:104C600008F16408FFF77CFAB8F5967FC8D10023F5
:104C7000237004F0E1FA8349FFF73FFA00963A689F
:104C80002178FF230120FFF76BFA00963A6821781C
:104C9000FF230220FFF764FA00963A682178FF2389
:104CA0000320FFF75DFA00963A682178FF2304207D
:104CB000FFF756FA00963A682178FF230520FFF7A0
:104CC0004FFA0096FF233A6821780620FFF748FA4A
:104CD00042F2107003F076FA03232B6068486A4CA6
:104CE000DFF8B891022102F004FC0022114664486A
:104CF00002F0F2FB012640230022CDE90136802399
:104D000011465F480093614B02F0E2FA5C4802F002
:104D100055FE40F6B83003F055FA594802F0D6FD7A
:104D200026705B4E4FF0FF08FF2704F085FA4946D6
:104D3000FFF7E3F900974346326821780120FFF737
:104D40000FFA00974346326821780220FFF708FAED
:104D500000974346326821780320FFF701FA009755
:104D60004346326821780420FFF7FAF9009743465A
:104D7000326821780520FFF7F3F90097434632683F
:104D800021780620A8F16408FFF7EAF918F12D0F41
:104D9000CAD1DFF808914FF0000804F04DFA4946F7
:104DA000FFF7ABF900974346326821780120FFF7FF
:104DB000D7F900974346326821780220FFF7D0F9EF
:104DC00000974346326821780320FFF7C9F900971E
:104DD0004346326821780420FFF7C2F90097434622
:104DE000326821780520FFF7BBF900974346326807
:104DF0002178062008F16408FFF7B2F9B8F5967F2C
:104E0000CBD10023237004232B601D481E4C214F5F
:104E1000022102F06EFB00221146194802F05CFBF1
:104E2000012640230022CDE9013680231146144893
:104E30000093194B02F04CFA114802F0BFFD40F606
:104E4000B83003F0BFF90E4802F040FD4FF0FF0804
:104E50002670FF2604F0F0F91049FFF74EF900968E
:104E60004346217847F60C320120FFF779F9009686
:104E700043463A6821780220FFF772F9009611E064
:104E800058E60320A2BA0B004CE60320B0040C0045
:104E9000B8E003208CE50320B3C30B008CBA0B00F1
:104EA000B0E003204346217847F60C320320FFF799
:104EB00057F9009643463A6821780420FFF750F9E5
:104EC00000964346217847F60C320520FFF748F953
:104ED000009643463A6821780620A8F16408FFF757
:104EE0003FF918F12D0FB4D1DFF858934FF00008B7
:104EF00004F0A2F94946FFF700F9009643463A68E4
:104F000021780120FFF72CF900964346217847F6D7
:104F10000C320220FFF724F9009643463A682178C4
:104F20000320FFF71DF900964346217847F60C321F
:104F30000420FFF715F9009643463A6821780520CA
:104F4000FFF70EF900964346217847F60C3206200B
:104F500008F16408FFF704F9B8F5967FC8D100237B
:104F6000237004F069F9B149FFF7C7F800963A6871
:104F70002178FF230120FFF7F3F800963A682178A3
:104F8000FF230220FFF7ECF800963A682178FF2310
:104F90000320FFF7E5F800963A682178FF23042004
:104FA000FFF7DEF800963A682178FF230520FFF727
:104FB000D7F80096FF233A6821780620FFF7D0F84B
:104FC00042F2107003F0FEF805232B609848994CCC
:104FD000DFF870A2984F022102F08BFA00221146EE
:104FE000934802F079FA012640230022CDE90136E8
:104FF000802311468E480093904B02F069F98C484B
:1050000002F0DCFC40F6B83003F0DCF8884802F02F
:105010005DFC4FF0FF082670FF2604F00DF9DFF865
:1050200028925146FFF769F800964346D9F80020C8
:1050300021780120FFF794F8009643463A682178DA
:105040000220FFF78DF800964346D9F8002021781A
:105050000320FFF785F8009643463A68217804203C
:10506000FFF77EF800964346D9F800202178052006
:10507000FFF776F8009643463A6821780620A8F1B3
:105080006408FFF76DF818F12D0FC5D1DFF8B4A152
:105090004FF0000804F0D0F85146FFF72EF80096C4
:1050A00043463A6821780120FFF75AF800964346B4
:1050B000D9F8002021780220FFF752F800964346E5
:1050C0003A6821780320FFF74BF800964346D9F859
:1050D000002021780420FFF743F8009643463A6801
:1050E00021780520FFF73CF800964346D9F80020C8
:1050F0002178062008F16408FFF732F8B8F5967FAA
:10510000C8D10023237004F097F84849FEF7F5FF53
:1051100000963A682178FF230120FFF721F80096D6
:105120003A682178FF230220FFF71AF800963A68C0
:105130002178FF230320FFF713F800963A682178BF
:10514000FF230420FFF70CF800963A682178FF232C
:105150000520FFF705F80096FF233A68217806201E
:10516000FEF7FEFF42F2107003F02CF806232B60CE
:105170002F48304C304F022102F0BBF9002211467B
:105180002B4802F0A9F9012640230022CDE901367F
:105190008023114626480093294B02F099F82448B1
:1051A00002F00CFC40F6B83003F00CF8204802F096
:1051B0008DFB4FF0FF082670FF2604F03DF82149D3
:1051C000FEF79BFF009643462178B4220120FEF7AC
:1051D000C7FF009643463A6821780220FEF7C0FFD9
:1051E000009643462178B4220320FEF7B9FF0096CB
:1051F00043463A6821780420FEF7B2FF0096434602
:105200002178B4220520FEF7ABFF009643463A68AA
:1052100021780620A8F16408FEF7A2FF18F12D0FEF
:10522000CAD1DFF820904FF000080FE0A2BA0B00BF
:1052300058E603204CE603208CE50320B3BB0B00AB
:10524000A4DC0B008CBA0B00B8E0032003F0F4FFE1
:105250004946FEF752FF009643463A6821780120FE
:10526000FEF77EFF009643462178B4220220FEF727
:1052700077FF009643463A6821780320FEF770FFD7
:10528000009643462178B4220420FEF769FF009679
:1052900043463A6821780520FEF762FF00964346B0
:1052A0002178B422062008F16408FEF759FFB8F50A
:1052B000967FCBD10023237003F0BEFFB749FEF7E2
:1052C0001CFF00963A682178FF230120FEF748FF73
:1052D00000963A682178FF230220FEF741FF0096EE
:1052E0003A682178FF230320FEF73AFF00963A68D8
:1052F0002178FF230420FEF733FF00963A682178D7
:10530000FF230520FEF72CFF0096FF233A68217843
:105310000620FEF725FF42F2107002F053FF07232C
:105320002B609F489F4CDFF88CA2DFF88C82022113
:1053300002F0DFF800221146994802F0CDF801266C
:1053400040230022CDE90136802311469448009382
:10535000954B01F0BDFF924802F030FB40F6B830AB
:1053600002F030FF8E4802F0B1FAFF272670FF26C8
:1053700003F062FFDFF844925146FEF7BEFE00964E
:105380003B46D9F8002021780120FEF7E9FE00967F
:105390003B46D8F8002021780220FEF7E1FE009677
:1053A0003B46D9F8002021780320FEF7D9FE00966D
:1053B0003B46D8F8002021780420FEF7D1FE009665
:1053C0003B46D9F8002021780520FEF7C9FE00965B
:1053D0003B46D8F8002021780620643FFEF7C0FE47
:1053E00017F12D0FC3D1DFF8CCA1002703F024FF64
:1053F0005146FEF782FE00963B46D9F80020217800
:105400000120FEF7ADFE00963B46D8F8002021783B
:105410000220FEF7A5FE00963B46D9F80020217831
:105420000320FEF79DFE00963B46D8F80020217829
:105430000420FEF795FE00963B46D9F8002021781F
:105440000520FEF78DFE00963B46D8F80020217817
:1054500006206437FEF784FEB7F5967FC6D1002399
:10546000524F237003F0E8FE4C49FEF746FE0096CB
:105470003A682178FF230120FEF772FE00963A6811
:105480002178FF230220FEF76BFE00963A68217810
:10549000FF230320FEF764FE00963A682178FF237D
:1054A0000420FEF75DFE00963A682178FF23052070
:1054B000FEF756FE0096FF233A6821780620FEF795
:1054C0004FFE42F2107002F07DFE08232B6034483C
:1054D000344CDFF8E0A0DFF8E080022102F009F8A8
:1054E000002211462E4801F0F7FF0126402300223A
:1054F000CDE9013680231146294800932C4B01F059
:10550000E7FE274802F05AFA40F6B83002F05AFE99
:10551000234802F0DBF9FF272670FF2603F08CFEFC
:105520005146FEF7EAFD0096DFF89090D8F800208B
:1055300021783B460120FEF713FE00963B46D9F842
:10554000002021780220FEF70BFE00963B46D8F89B
:10555000002021780320FEF703FE00963B46D9F891
:10556000002021780420FEF7FBFD00963B46D8F88A
:10557000002021780520FEF7F3FD00963B46D9F880
:10558000002021780620643FFEF7EAFD17F12D0F79
:10559000C3D1DFF820A0002712E000BFA2BA0B00A1
:1055A00058E603204CE60320A4D80B008CE503202A
:1055B000A4CC0B008CBA0B00B8E00320A8E00320B9
:1055C00003F03AFE5146FEF798FD00963B46D9F8A7
:1055D000002021780120FEF7C3FD00963B46D8F855
:1055E000002021780220FEF7BBFD00963B46D9F84B
:1055F000002021780320FEF7B3FD00963B46D8F843
:10560000002021780420FEF7ABFD00963B46D9F838
:10561000002021780520FEF7A3FD00963B46D8F830
:105620000020217806206437FEF79AFDB7F5967FB3
:10563000C6D10023B54F237003F0FEFDB449FEF739
:105640005CFD00963A682178FF230120FEF788FD73
:1056500000963A682178FF230220FEF781FD00962C
:105660003A682178FF230320FEF77AFD00963A6816
:105670002178FF230420FEF773FD00963A68217815
:10568000FF230520FEF76CFD0096FF233A68217882
:105690000620FEF765FD42F2107002F093FD09232B
:1056A0002B609C489C4CDFF87CA2DFF87C920221A6
:1056B00001F01FFF00221146964801F00DFF012660
:1056C00040230022CDE90136802311469148009302
:1056D000924B01F0FDFD8F4802F070F940F6B830B2
:1056E00002F070FD8B4802F0F1F8FF272670FF26CC
:1056F00003F0A2FD5146FEF700FD0096DFF82C8274
:10570000D9F8002021783B460120FEF729FD0096BC
:105710003B46D8F8002021780220FEF721FD0096B4
:105720003B46D9F8002021780320FEF719FD0096AA
:105730003B46D8F8002021780420FEF711FD0096A2
:105740003B46D9F8002021780520FEF709FD009698
:105750003B46D8F8002021780620643FFEF700FD84
:1057600017F12D0FC3D1DFF8BCA1002703F064FDB2
:105770005146FEF7C2FC00963B46D9F8002021783E
:105780000120FEF7EDFC00963B46D8F8002021787A
:105790000220FEF7E5FC00963B46D9F80020217870
:1057A0000320FEF7DDFC00963B46D8F80020217868
:1057B0000420FEF7D5FC00963B46D9F8002021785E
:1057C0000520FEF7CDFC00963B46D8F80020217856
:1057D00006206437FEF7C4FCB7F5967FC6D10023D8
:1057E0004A4F237003F028FD4949FEF786FC0096D6
:1057F0003A682178FF230120FEF7B2FC00963A6850
:105800002178FF230220FEF7ABFC00963A6821784E
:10581000FF230320FEF7A4FC00963A682178FF23BB
:105820000420FEF79DFC00963A682178FF230520AE
:10583000FEF796FC0096FF233A6821780620FEF7D3
:105840008FFC42F2107002F0BDFC0A232B6031483D
:10585000314CDFF8DC80022101F04BFE00221146C2
:105860002C4801F039FE012640230022CDE9013603
:105870008023114627480093294B01F029FD254834
:1058800002F09CF840F6B83002F09CFC214802F08F
:105890001DF8FF272670FF2603F0CEFC2149FEF7F6
:1058A0002CFC00963B46D8F8002021780120FEF71A
:1058B00057FC00963B462178AF220220FEF750FCB1
:1058C00000963B46D8F8002021780320FEF748FCDC
:1058D00000963B462178AF220420FEF741FC00965B
:1058E0003B46D8F8002021780520FEF739FC0096C9
:1058F0003B462178AF220620643FFEF731FC17F1CA
:105900002D0FC8D1DFF81C90002713E08CE5032091
:10591000A2BA0B0058E603204CE60320A4D00B00EB
:10592000A4F00B008CBA0B00B0E00320A8E0032029
:10593000A4E0032003F080FC4946FEF7DEFB00965E
:105940003B462178AF220120FEF70AFC00963B4639
:10595000D8F8002021780220FEF702FC00963B4692
:105960002178AF220320FEF7FBFB00963B46D8F8D8
:10597000002021780420FEF7F3FB00963B462178B7
:10598000AF220520FEF7ECFB00963B46D8F800203E
:10599000217806206437FEF7E3FBB7F5967FC9D17F
:1059A0000023B24F237003F047FCB149FEF7A5FB7B
:1059B00000963A682178FF230120FEF7D1FB00967C
:1059C0003A682178FF230220FEF7CAFB00963A6866
:1059D0002178FF230320FEF7C3FB00963A68217865
:1059E000FF230420FEF7BCFB00963A682178FF23D2
:1059F0000520FEF7B5FB0096FF233A6821780620C4
:105A0000FEF7AEFB42F2107002F0DCFB0B232B60C2
:105A10009848994CDFF87082022101F06AFD00225B
:105A20001146944801F058FD012640230022CDE99B
:105A30000136802311468F480093904B01F048FCBB
:105A40008C4801F0BBFF40F6B83002F0BBFB894840
:105A500001F03CFFFF272670FF2603F0EDFB88498D
:105A6000FEF74BFB00963B46D8F80020217801203A
:105A7000FEF776FB00963B462178C3220220FEF714
:105A80006FFB00963B46D8F8002021780320FEF7F4
:105A900067FB00963B462178C3220420FEF760FB9B
:105AA00000963B46D8F8002021780520FEF758FBE9
:105AB00000963B462178C3220620643FFEF750FB48
:105AC00017F12D0FC8D1DFF8B891002703F0B4FB10
:105AD0004946FEF712FB00963B462178C32201207F
:105AE000FEF73EFB00963B46D8F8002021780220C6
:105AF000FEF736FB00963B462178C3220320FEF7D3
:105B00002FFB00963B46D8F8002021780420FEF7B2
:105B100027FB00963B462178C3220520FEF720FB99
:105B200000963B46D8F80020217806206437FEF71F
:105B300017FBB7F5967FC9D100234C4F237003F0B4
:105B40007BFB4B49FEF7D9FA00963A682178FF2390
:105B50000120FEF705FB00963A682178FF2302201A
:105B6000FEF7FEFA00963A682178FF230320FEF73D
:105B7000F7FA00963A682178FF230420FEF7F0FA3E
:105B800000963A682178FF230520FEF7E9FA00968F
:105B9000FF233A6821780620FEF7E2FA42F21070FD
:105BA00002F010FB0C232B603248334CDFF8DC8012
:105BB000022101F09EFC002211462E4801F08CFCCF
:105BC000012640230022CDE90136802311462948D1
:105BD00000932C4B01F07CFB264801F0EFFE40F6D1
:105BE000B83002F0EFFA234801F070FEFF2726706C
:105BF000FF2603F021FB2249FEF77FFA00963B4681
:105C0000D8F8002021780120FEF7AAFA00963B463A
:105C1000217840F23B120220FEF7A2FA00963B46A2
:105C2000D8F8002021780320FEF79AFA00963B4628
:105C3000217840F23B120420FEF792FA00963B4690
:105C4000D8F8002021780520FEF78AFA00963B4616
:105C5000217840F23B120620643FFEF781FA17F1EB
:105C60002D0FC5D1DFF81890002711E08CE5032037
:105C7000A2BA0B0058E603204CE60320A4F80B0060
:105C80008CBA0B00A4E80B00B4E00320A8E00320CA
:105C900003F0D2FA4946FEF730FA00963B462178E7
:105CA00040F23B120120FEF75BFA00963B46D8F823
:105CB000002021780220FEF753FA00963B46217817
:105CC00040F23B120320FEF74BFA00963B46D8F811
:105CD000002021780420FEF743FA00963B46217805
:105CE00040F23B120520FEF73BFA00963B46D8F8FF
:105CF0000020217806206437FEF732FAB7F5967F48
:105D0000C6D10023B74F237003F096FAB649FEF7C9
:105D1000F4F900963A682178FF230120FEF720FA73
:105D200000963A682178FF230220FEF719FA0096C0
:105D30003A682178FF230320FEF712FA00963A68AA
:105D40002178FF230420FEF70BFA00963A682178A9
:105D5000FF230520FEF704FA0096FF233A68217816
:105D60000620FEF7FDF942F2107002F02BFA0D2327
:105D70002B609E489E4CDFF884A2DFF884820221CB
:105D800001F0B7FB00221146984801F0A5FB01265F
:105D900040230022CDE90136802311469348009329
:105DA000944B01F095FA914801F008FE40F6B830A6
:105DB00002F008FA8D4801F089FDFF272670FF26C2
:105DC00003F03AFADFF83C925146FEF796F9009656
:105DD0003B46D9F8002021780120FEF7C1F9009652
:105DE0003B46D8F8002021780220FEF7B9F900964A
:105DF0003B462178C3220320FEF7B2F900963B46CA
:105E0000D9F8002021780420FEF7AAF900963B4635
:105E1000D8F8002021780520FEF7A2F900963B462D
:105E20002178C3220620643FFEF79AF917F12D0F5F
:105E3000C5D1DFF8C8A1002703F0FEF95146FEF7EF
:105E40005CF900963B462178C3220120FEF788F9D1
:105E500000963B46D9F8002021780220FEF780F911
:105E600000963B46D8F8002021780320FEF778F909
:105E700000963B462178C3220420FEF771F9009674
:105E80003B46D9F8002021780520FEF769F90096F5
:105E90003B46D8F80020217806206437FEF760F9E9
:105EA000B7F5967FC8D100234E4F237003F0C4F995
:105EB0004D49FEF722F900963A682178FF23012028
:105EC000FEF74EF900963A682178FF230220FEF78C
:105ED00047F900963A682178FF230320FEF740F93E
:105EE00000963A682178FF230420FEF739F90096DE
:105EF0003A682178FF230520FEF732F90096FF2348
:105F00003A6821780620FEF72BF942F2107002F071
:105F100059F90E232B603548354CDFF8E0A0DFF847
:105F2000E880022101F0E5FA002211462F4801F035
:105F3000D3FA012640230022CDE901368023114601
:105F40002A4800932C4B01F0C3F9284801F036FD94
:105F500040F6B83002F036F9244801F0B7FCFF27CC
:105F60002670FF2603F068F95146FEF7C6F8009642
:105F7000DFF89090D8F8002021783B460120FEF70A
:105F8000EFF800963B46D9F8002021780220FEF772
:105F9000E7F800963B46D8F8002021780320FEF76A
:105FA000DFF800963B46D9F8002021780420FEF760
:105FB000D7F800963B46D8F8002021780520FEF758
:105FC000CFF800963B46D9F8002021780620643FA0
:105FD000FEF7C6F817F12D0FC3D1DFF820A0002778
:105FE00014E000BF8CE50320A2BA0B0058E60320A2
:105FF0004CE60320A4E40B00A4F40B008CBA0B00C5
:10600000A4E00320B4E00320B0E0032003F014F97F
:106010005146FEF772F800963B46D9F800202178E9
:106020000120FEF79DF800963B46D8F80020217825
:106030000220FEF795F800963B46D9F8002021781B
:106040000320FEF78DF800963B46D8F80020217813
:106050000420FEF785F800963B46D9F80020217809
:106060000520FEF77DF800963B46D8F80020217801
:1060700006206437FEF774F8B7F5967FC6D1002383
:10608000B74F237003F0D8F8B649FEF736F80096FC
:106090003A682178FF230120FEF762F800963A68FB
:1060A0002178FF230220FEF75BF800963A682178FA
:1060B000FF230320FEF754F800963A682178FF2367
:1060C0000420FEF74DF800963A682178FF2305205A
:1060D000FEF746F80096FF233A6821780620FEF77F
:1060E0003FF842F2107002F06DF80F232B609E48CB
:1060F0009E4CDFF88C82022101F0FBF90022114650
:10610000994801F0E9F9012640230022CDE9013642
:106110008023114694480093954B01F0D9F892489A
:1061200001F04CFC40F6B83002F04CF88E4801F01B
:10613000CDFB2670FF2603F07FF8FF278D49FDF782
:10614000DCFF00973346217840F23B120120FEF736
:1061500007F800973346D8F8002021784FF07F09E0
:106160000220FDF7FDFFCDF800903346217840F284
:106170003B120320FDF7F4FF00973346217840F2ED
:106180003B120420FDF7ECFF00973346D8F80020BF
:1061900021780520FDF7E4FFCDF800903346217803
:1061A00040F23B120620643EFDF7DAFF16F12D0F98
:1061B000C1D1DFF8C0A1002703F03EF85146FDF73A
:1061C0009CFFCDF80090FF263B46217840F23B1221
:1061D0000120FDF7C5FF00963B46217840F23B12B7
:1061E0000220FDF7BDFF00963B46D8F8002021783D
:1061F0000320FDF7B5FFCDF800903B46217840F233
:106200003B120420FDF7ACFF00963B46217840F29C
:106210003B120520FDF7A4FF00963B46D8F800206E
:10622000217806206437FDF79BFFB7F5967FC3D131
:1062300000234B4F237002F0FFFF4A49FDF75DFF3B
:1062400000963A68217833460120FDF789FF0096D1
:106250003A68217833460220FDF782FF00963A68BB
:10626000217833460320FDF77BFF00963A682178BA
:1062700033460420FDF774FF00963A6821783346D0
:106280000520FDF76DFF009633463A682178062019
:10629000FDF766FF42F2107001F094FF10232B60AF
:1062A0003148324CDFF8CC90334F022101F021F914
:1062B000002211462C4801F00FF90126402300224C
:1062C000CDE9013680231146274800932B4B00F07F
:1062D000FFFF254801F072FB40F6B83001F072FF75
:1062E000214801F0F3FA4FF0FF082670FF2602F074
:1062F000A3FF4946FDF701FF009643463A6821781F
:106300000120FDF72DFF009643463A6821780220D0
:10631000FDF726FF009643463A6821780320FDF7F3
:106320001FFF009643463A6821780420FDF718FFC6
:10633000009643463A6821780520FDF711FF009644
:1063400043463A6821780620A8F16408FDF708FF63
:1063500018F12D0FCAD1DFF81C904FF0000811E0A2
:106360008CE50320A2BA0B0058E603204CE603207C
:10637000B0080C008CBA0B00A8E00320A4E00B00CE
:10638000B0E0032002F058FF4946FDF7B6FE009644
:1063900043463A6821780120FDF7E2FE0096434625
:1063A0003A6821780220FDF7DBFE009643463A6802
:1063B00021780320FDF7D4FE009643463A68217801
:1063C0000420FDF7CDFE009643463A68217805206B
:1063D000FDF7C6FE009643463A682178062008F18C
:1063E0006408FDF7BDFEB8F5967FCBD10023B94F09
:1063F000237002F021FFB849FDF77FFE00963A684E
:106400002178FF230120FDF7ABFE00963A68217842
:10641000FF230220FDF7A4FE00963A682178FF23AF
:106420000320FDF79DFE00963A682178FF230420A3
:10643000FDF796FE00963A682178FF230520FDF7C8
:106440008FFE0096FF233A6821780620FDF788FE2C
:1064500042F2107001F0B6FE11232B609F48A04C51
:10646000DFF888A2DFF88892022101F042F80022CA
:1064700011469A4801F030F8012640230022CDE968
:1064800001368023114695480093964B00F020FF7B
:10649000924801F093FA40F6B83001F093FE8F482D
:1064A00001F014FAFF272670FF2602F0C5FEDFF880
:1064B00044825146FDF721FE00963B46D8F8002065
:1064C00021780120FDF74CFE00963B46D9F80020CC
:1064D00021780220FDF744FE00963B46D8F80020C4
:1064E00021780320FDF73CFE00963B46D9F80020BA
:1064F00021780420FDF734FE00963B46D8F80020B2
:1065000021780520FDF72CFE00963B46D9F80020A7
:1065100021780620643FFDF723FE17F12D0FC3D12C
:10652000DFF8C8A1002702F087FE5146FDF7E5FD20
:1065300000963B46D9F8002021780120FDF710FE97
:1065400000963B46D8F8002021780220FDF708FE8F
:1065500000963B46D9F8002021780320FDF700FE85
:1065600000963B46D8F8002021780420FDF7F8FD7E
:1065700000963B46D9F8002021780520FDF7F0FD74
:1065800000963B46D8F80020217806206437FDF7B6
:10659000E7FDB7F5967FC6D100234E4F237002F07A
:1065A0004BFE4D49FDF7A9FD00963A682178FF237F
:1065B0000120FDF7D5FD00963A682178FF230220DF
:1065C000FDF7CEFD00963A682178FF230320FDF702
:1065D000C7FD00963A682178FF230420FDF7C0FD2F
:1065E00000963A682178FF230520FDF7B9FD009653
:1065F000FF233A6821780620FDF7B2FD42F21070C1
:1066000001F0E0FD12232B603448354CDFF8DCA0AC
:10661000DFF8E090022100F06CFF002211462F48C5
:1066200000F05AFF012640230022CDE901368023E5
:1066300011462A4800932C4B00F04AFE274801F0EF
:10664000BDF940F6B83001F0BDFD244801F03EF937
:10665000FF272670FF2602F0EFFDDFF89C805146F1
:10666000FDF74BFD00963B46D8F80020217801202D
:10667000FDF776FD00963B46D9F8002021780220F0
:10668000FDF76EFD00963B46D8F8002021780320E8
:10669000FDF766FD00963B46D9F8002021780420DE
:1066A000FDF75EFD00963B46D8F8002021780520D6
:1066B000FDF756FD00963B46D9F8002021780620CC
:1066C000643FFDF74DFD17F12D0FC3D1DFF81CA07E
:1066D000002713E08CE50320A2BA0B0058E6032044
:1066E0004CE60320A4EC0B00B3BF0B008CBA0B00EC
:1066F000B8E00320A8E00320A4E0032002F09CFD02
:106700005146FDF7FAFC00963B46D9F80020217867
:106710000120FDF725FD00963B46D8F800202178A2
:106720000220FDF71DFD00963B46D9F80020217898
:106730000320FDF715FD00963B46D8F80020217890
:106740000420FDF70DFD00963B46D9F80020217886
:106750000520FDF705FD00963B46D8F8002021787E
:1067600006206437FDF7FCFCB7F5967FC6D1002301
:10677000CC4F237002F060FDCB49FDF7BEFC0096C4
:106780003A682178FF230120FDF7EAFC00963A6879
:106790002178FF230220FDF7E3FC00963A68217878
:1067A000FF230320FDF7DCFC00963A682178FF23E5
:1067B0000420FDF7D5FC00963A682178FF230520D8
:1067C000FDF7CEFC0096FF233A6821780620FDF7FE
:1067D000C7FC42F2107001F0F5FC13232B60B348A4
:1067E000B34CDFF8F0A2DFF8F082022100F081FE66
:1067F00000221146AD4800F06FFE01264023002222
:10680000CDE9013680231146A8480093A94B00F03A
:106810005FFDA64801F0D2F840F6B83001F0D2FC96
:10682000A24801F053F8FF272670FF2602F004FD6E
:106830005146FDF762FC0096DFF8A092D8F80020E0
:1068400021783B460120FDF78BFC00963B46D9F8AA
:10685000002021780220FDF783FC00963B46D8F803
:10686000002021780320FDF77BFC00963B46D9F8F9
:10687000002021780420FDF773FC00963B46D8F8F1
:10688000002021780520FDF76BFC00963B46D9F8E7
:10689000002021780620643FFDF762FC17F12D0FE0
:1068A000C3D1DFF830A2002702F0C6FC5146FDF745
:1068B00024FC00963B46D9F8002021780120FDF702
:1068C0004FFC00963B46D8F8002021780220FDF7C7
:1068D00047FC00963B46D9F8002021780320FDF7BD
:1068E0003FFC00963B46D8F8002021780420FDF7B5
:1068F00037FC00963B46D9F8002021780520FDF7AB
:106900002FFC00963B46D8F80020217806206437FB
:10691000FDF726FCB7F5967FC6D10023614F2370A3
:1069200002F08AFC6049FDF7E8FB00963A6821789E
:10693000FF230120FDF714FC00963A682178FF231D
:106940000220FDF70DFC00963A682178FF23032012
:10695000FDF706FC00963A682178FF230420FDF736
:10696000FFFB00963A682178FF230520FDF7F8FB2E
:106970000096FF233A6821780620FDF7F1FB42F2EA
:10698000107001F01FFC14232B604848484EDFF8BC
:1069900044B1DFF84CA1022100F0ABFD002211460A
:1069A000424800F099FD012440230022CDE9013442
:1069B000802311463D4800933F4B00F089FC3B4843
:1069C00000F0FCFF40F6B83001F0FCFB374800F067
:1069D0007DFF02F031FC39492246FDF78EFB20464F
:1069E000FDF7E4FC42F2107001F0ECFB02F024FC35
:1069F00033492246FDF781FB2046FDF739FD42F27F
:106A0000107001F0DFFB4FF00308347002F014FC4B
:106A10005946FDF772FB072001F082FE8146FF24F4
:106A2000284F02F009FC4A465146FDF766FB0094E8
:106A300057F82920317823460120FDF791FB0720E4
:106A400001F06EFE814602F0F7FB4A461E49FDF753
:106A500054FB009457F82920317823460220FDF793
:106A60007FFB072001F05CFE814602F0E5FB4A4611
:106A70001649FDF742FB009457F829203178234648
:106A80000320FDF76DFB072001F04AFE814602F06E
:106A9000D3FB4A460E49FDF730FB009457F82920F6
:106AA00020E000BF8CE50320A2BA0B0058E60320CB
:106AB0004CE60320A4FC0B00B0000C00B8BA0B009D
:106AC000D0BA0B0070E50320F9BA0B0009BB0B002C
:106AD00019BB0B008CBA0B00A8E00320B4E0032024
:106AE000E9BA0B00317823460420FDF739FB072073
:106AF00001F016FE814602F09FFB4A464A49FDF727
:106B0000FCFA009457F82920317823460520FDF738
:106B100027FB072001F004FE814602F08DFB43496C
:106B20004A46FDF7EAFA009457F8292031782346BF
:106B30000620FDF715FBB8F101087FF467AF3C4F65
:106B400086F8008002F078FB3A49FDF7D6FA009407
:106B50003A68317823460120FDF702FB00943A6839
:106B6000317823460220FDF7FBFA00943A68317829
:106B700023460320FDF7F4FA00943A68317823465F
:106B80000420FDF7EDFA00943A6831782346052099
:106B9000FDF7E6FA009423463A6831780620FDF7BF
:106BA000DFFA42F2107001F00DFB01232B6038E098
:106BB000022C3DF489AF032C3EF490A8042C3EF443
:106BC00024A9052C3EF402AA062C3EF4D1AA072CD7
:106BD0003EF4A7AB082C3EF47AAC092C3EF461AD30
:106BE0000A2C3EF434AE0B2C3EF412AF0C2C3EF4C7
:106BF000DBAF0D2C3FF4BDA80E2C3FF48CA90F2C5D
:106C00003FF475AA102C3FF44BAB112C3FF426AC8B
:106C1000122C3FF4F9AC132C3FF4E1AD142C3FF4EB
:106C2000B4AE09B0BDE8F08F29BB0B0039BB0B0037
:106C30008CE50320A2BA0B0008B51B491B4801F0E4
:106C4000B6FE1B4A1B4B12681A601B4A1B4812688F
:106C50005A601B4A12689A601A4A1268DA601A4A25
:106C600012681A61194A12685A61194A12689A61BF
:106C700002F010FA174802F00DFA0421164800F04D
:106C80000FFE022308221548012100F06FF8144B73
:106C90000022C3E90022A2F580329A60BDE80840D4
:106CA000032001F0BBB900BFDAB90B003CE60320BA
:106CB0008CE5032070E50320B0E0032054E50320B9
:106CC000B8E00320A8E00320A4E00320ACE0032008
:106CD000B4E003209CE5032058E6032080E603206F
:106CE00090E5032038B50446C0680D4608B101F0B0
:106CF00039FAA379062B0CBF0420032010FB05F002
:106D000080B2A08001F026FAE06028B1A2880021BC
:106D100004F054FB658038BDA0806080FBE710B5AF
:106D200004460121C07902F011FCE079002102F053
:106D30001EFC0123237010BD37B5037805460C46B1
:106D40001BB1C079002102F001FC2B78EC715BB122
:106D5000A0B20121019002F0F9FB0198002103B0DB
:106D6000BDE8304002F003BC03B030BD70B5002573
:106D7000044616468371C0E9035505700572FFF796
:106D8000B1FF20463146FFF7D7FF204670BD000017
:106D9000C368002B00F0A4812DE9F04F8379023BFA
:106DA000DBB2042B9CBFBF4A52F8234085B0054696
:106DB00088BF322400F062FF2B69C01AA042F9D3C9
:106DC000B94CAE88D4F800351BB9D4F86035002B27
:106DD0007EDBB64CD4F8003523B9D4F86035002BEF
:106DE000C0F26E81B24CD4F80035002B00F0448123
:106DF000EB79B04AB04C1268190102EB0313575CEF
:106E0000AE495B78D1F8FC2042F08072C1F8FC20DA
:106E1000226803F01F0343EA471301273A43226025
:106E2000A988D5F80C80D4F804909F40002944D05C
:106E30004FF0000E72464FF0A04118F801CB082029
:106E4000802663689B1A462BFBD96268D1F8083507
:106E50001CEA060F43EA0703C1F808352FD0636820
:106E60009B1A282BFBD9D1F80C35013843EA0703CC
:106E70004FEA5606C1F80C35E3D1AB880EF1010E8E
:106E80001FFA8EFE7345D8D84FF4307103FB01F121
:106E900063689B1A462BFBD96368A3EB09098945F4
:106EA000C0F0E4804FF4967000F0E0FEA988D5F8B9
:106EB0000C80D4F804900029BAD10A46E8E7636848
:106EC0009B1A112BCFD863689B1A112BF7D9CAE7ED
:106ED000D4F86435002BBFF67CAFD4F86835002BAE
:106EE000BFF677AFD4F86C35002BBFF672AF360122
:106EF000331D1846009301F02DF900283FF478AFB8
:106F0000AB88002B00F0ED80EA68013B12FA83F7B2
:106F100002F1FF3E002348F2060248F20D011EF87E
:106F200001CF1CF0800F0CBF93468B461CF0400F26
:106F30000CBF16460E461CF0200F0CBF904688462C
:106F400003F10109CDF80880019603F102081FFA48
:106F500089F9019E20F813B01FFA88F820F819600B
:106F6000029E20F8186003F103081CF0100F1FFAAE
:106F700088F80CBF93468B4620F818B003F104083C
:106F80001CF0080F1FFA88F80CBF93468B4620F8B8
:106F900018B003F105081CF0040F1FFA88F80CBFA5
:106FA00093468B4620F818B003F1080A03F106084F
:106FB00007339BB21CF0020F1FFA88F80CBF9346F0
:106FC0008B46CDF80CA01CF0010F20F818B015BFAF
:106FD00020F8131020F813201FFA8AF3BDF80C30A4
:106FE00077459CD1591C023389B29BB249005B00A2
:106FF0004FF400474752009AC7522E4B56081F685D
:1070000000221423C4F80425C4F80C25C4F808355C
:10701000C4F81425C4F81025C4F82005C4F8246564
:10702000C4F82825C4F82C25EB7907EB031C1B01B9
:107030000121FE5C9CF8013003F01F0343EA461374
:10704000C4F86035C4F80015C4F81021A160D4F864
:107050001031002BFBD000234FF0FF32C4F8103169
:10706000C4F80035C4F8602501F07CF800F006FE95
:10707000286105B0BDE8F08FD4F86035002BBFF66D
:10708000B7AED4F86435002BBFF6B2AED4F868358D
:10709000002BBFF6ADAED4F86C35002BBFF6A8AE12
:1070A00025E700BFB00C0C0000C0014000100240FA
:1070B00000200240B4E60320001000E000ED00E0F4
:1070C000D4F86435002BBFF68DAED4F86835002BAC
:1070D000BFF688AED4F86C35002BBFF683AE06E75A
:1070E00070470423022183E708B500F0DFFD014B60
:1070F000186008BDB4E603202DE9F04F85B01F46A7
:10710000BDF93880BDF83C30A8EB0209A7EB010AB5
:10711000B9F1000FB8BFC9F10009BAF1000FB8BF4B
:10712000CAF1000AD14583460C46154604DD3A46AD
:107130002C4647460D469046BC4205DD2A4645464C
:10714000904622463C4617463E1BB2B20092A8EB40
:10715000050282EAE271A1EBE271C6F3C03202FAE3
:1071600086F64545B4BF01224FF0FF3201917610FB
:107170000292BC421CDCDBF800200393D145D2F81C
:107180001080C7BF294622462A4621465846C04796
:10719000019A039BB61AB1B236B2002E05DA029AF2
:1071A0001544009A56182DB236B2013424B2E0E7E5
:1071B00005B0BDE8F08F2DE9F347BDF82C800768D6
:1071C000BDF92890CDF800800446FF6916468A462E
:1071D0001D46B8472368CDF8008009F1FF323244DC
:1071E000DF6951462B46204612B2B8472368CDF8D6
:1071F00000809F6932464B4651462046B8476B1E79
:1072000003EB0A012368CDF828809D6932464B467E
:1072100009B22046AC4602B0BDE8F047604737B53A
:10722000013B13440468BDF8185001951BB200934C
:1072300064690B46A04703B030BD37B5BDF81850A0
:107240000468CDE90025013B0B4464691BB2A047EB
:1072500003B030BD2DE9F347BDF92890BDF82C806F
:10726000054692460C46CE18B4420BDA2B68CDF890
:1072700000809F6921464B46524628460134B84754
:1072800024B2F1E702B0BDE8F08713B502680191BE
:10729000B0F90E100091546AB0F90C30002211467A
:1072A000A04702B010BD704730B54281C2814FF097
:1072B000FF320024054D42610122446005600181D6
:1072C000818104610283827630BD00BFC8110C0049
:1072D0002DE9F04F89B0CDE90323BDF94870BDF920
:1072E0004C300593FA1DCDE9010148BF07F10E02AC
:1072F0000024BDF850304FEAE20B25464FF08009DC
:1073000005992AB291422ADD049A02EB040A039AF3
:107310002A444FF0000812B20FFA88F087421FFA91
:1073200088F119DDC0101AF800C001F0070049FA11
:1073300000F01CEA000F0CD002980144019800688C
:107340000069CDE90623064609B20198B047DDE998
:10735000062308F10108DFE701355C44D0E709B0F6
:10736000BDE8F08F2DE9F04F2DED028B8DB0074673
:107370000491BDF860100591BDF864100691B0F954
:107380000C1004989DF86850814252DDB7F90E1038
:1073900091424EDD062111FB0504002C49DD02EB74
:1073A000C504002C45DD03EB83030B9393B20793D5
:1073B00008339BB2089100240993052C1CBF2C4B69
:1073C0000B9A079E16BF1B1900239B5C0393049A1C
:1073D000ABB20A9304FB05F313FA82F31BB204EB7E
:1073E000020A08EE103AB0460FFA85F90FFA8AFA47
:1073F000039BDB072FD5012D3B681FD1D3F810B0BD
:10740000059B32B251463846D847039B5B0803932D
:107410000A9B01369844099BB6B2B3421FFA88F81A
:10742000E6D1089B013B013413F0FF0364B20893DB
:10743000C3D10DB0BDEC028BBDE8F08F059ACDE94C
:10744000009218EE101AD3F824B00FFA88F24B46C7
:107450003846D847D9E7DDE905239342D5D0012D39
:107460003B6803D1D3F810B0069BCAE7069AE6E75B
:10747000C40C0C0030B50A2985B0044607D1027E41
:10748000638A03EBC20363820023238221E00D2978
:107490001FD0037E0293C38A0193838A0093B0F9BD
:1074A00012200B46B0F91010FFF75CFF207E238AF4
:1074B00000EB400103EB4103A17E1BB20246238295
:1074C00039B1B4F90C106FF0050505FB00118B42C2
:1074D000D6DC012005B030BD01824282704701290F
:1074E00038BF012101767047C18281827047407E9A
:1074F000704701F00303B0F90A204376C907B0F9D9
:10750000083059BF8381C2818281C3817047B0F93D
:107510000C007047B0F90E0070470000F0B5457ED2
:10752000BDF81440022D69D0032D00F09980012D83
:107530006CD10589D2432A4412B2002A5DDBB0F92E
:107540000850954259DD0029BEBF5B181BB20021CF
:10755000B0F90A00CD188542C4BF431A1BB2002BF4
:107560004BDDC1F3C400DFF820C102EBC01211F003
:107570000701DBB20CEB02001AD0C1F10805404E46
:10758000EDB2AB42775D3FBFA5EB030EFF2646FA97
:107590000EF637401CF80260012C0CBF3E43BE4380
:1075A000AB420CF8026028D308390B44DBB28030C0
:1075B000072B19D9012C4FF0FF3518BF0025EDB26C
:1075C00000F180011A46083AD2B2072A01F8805C1D
:1075D00001F18001F7D8A3F10802C2F3C40201321D
:1075E00000EBC21003F007033BB1264AD25C0378DC
:1075F000012C0CBF134393430370F0BD4589D24364
:107600002A44CD180189491B12B209B2002AF4DBC1
:10761000B0F90A509542F0DD0029BEBF5B181BB2DD
:107620000021B0F90870CE18BE42C4BF6B1A1BB25D
:10763000002BE2DDD010802510FB0511124801441B
:1076400002F0070001228240012CD2B20B440CD17F
:107650008B42D2D011F8010B104301F8010CF7E76F
:10766000CD184189491B09B267E7D243D2B28B4298
:10767000C3D011F8010B104001F8010CF7E700BF6F
:10768000DCE00320D4E00320E4E00320F0B5457EF5
:10769000BDF81440022D34D0032D00F09B80012D45
:1076A00037D1D5180289521B12B20029C0F291803D
:1076B000B0F90A508D4240F38C80002ABEBF9B185F
:1076C0001BB20022B0F90870D618BE42C4BFAB1A74
:1076D0001BB2002B7DDDC810802510FB052245481C
:1076E000024401F0070001218140012CC9B213447A
:1076F00075D19A426DD012F8010B084302F8010CC3
:10770000F7E70589C9432944D5184289521B09B2B4
:1077100012B200295DDBB0F908508D4259DD002A14
:10772000BEBF9B181BB20022B0F90A00D5188542D3
:10773000C4BF831A1BB2002B4BDDC2F3C400DFF8B9
:10774000B4C001EBC01112F00702DBB20CEB010078
:107750001AD0C2F10805284EEDB2AB42775D3FBFAB
:10776000A5EB030EFF2646FA0EF637401CF8016023
:10777000012C0CBF3E43BE43AB420CF8016028D342
:10778000083A1344DBB28030072B19D9012C4FF093
:10779000FF3518BF0025EDB200F180011A46083A06
:1077A000D2B2072A01F8805C01F18001F7D8A3F179
:1077B0000802C2F3C402013200EBC21003F0070357
:1077C0003BB10E4AD25C0378012C0CBF13439343A8
:1077D0000370F0BD4589C943294409B265E7C9432F
:1077E000C9B29A42F5D012F8010B084002F8010C18
:1077F000F7E700BFE4E00320DCE00320D4E003204F
:1078000070470000F8B50D1E064614461F462DDBD6
:10781000FFF77DFEA84229DD002C27DB3046FFF76D
:1078200079FEA04222DD3046FFF761FE02281ED01D
:10783000032825D0012804D13389E2431A442C4679
:1078400015B2002C2246B8BFE21DD210802112FBD7
:1078500001550E49012204F007044B5702FA04F4C3
:1078600064B297420CBF2343A3434B55F8BD318903
:1078700072890139E4434D1B14442DB224B2E0E770
:107880007389013B5B1B25461CB2DAE7E4E0032069
:1078900010B524210446FCF702FC204610BD000070
:1078A00038B5402204460D468021FFF7FDFC064B0B
:1078B0002360FF2384F8213063774FF6FF73E3835F
:1078C00084F82050204638BD00120C0002484FF4C6
:1078D0008062002103F072BDE4E0032013B50B4C7D
:1078E0002178BFF35B8F11F001010BD1204601918C
:1078F000FCF7E4FB019928B1054800F029FF204678
:10790000FCF7E1FB024802B010BD00BFB8E603205F
:10791000BCE6032007B590F8223043B10191FFF790
:10792000DDFF019903B05DF804EB00F0C5BF0B4625
:10793000817F407F012203B05DF804EB01F030BE8F
:1079400038B590F91D30013304460D461DD090F92D
:107950002100012180B201F00AFE94F91F000021EC
:1079600080B201F004FE94F92100002180B201F000
:10797000FEFD29462046FFF7CDFF94F921000121A5
:10798000BDE8384080B201F0F2BD01F047FE94F945
:107990001B1000F0DEFC01F041FE036800219B6833
:1079A000984701F03BFE036829469B68984701F021
:1079B00035FEBDE8384000F0D3BC0000F8B5212109
:1079C0000446FFF7BDFF00212046FFF7B9FF7F21E6
:1079D0002046FFF7B5FF22212046FFF7B1FF002127
:1079E0002046FFF7ADFF07212046FFF7A9FF94F9D6
:1079F0001D30294F01332AD094F92100012180B292
:107A000001F0B5FD94F91F00012180B201F0AFFD36
:107A100094F92100002180B201F0A9FD012000F0BD
:107A200025F94FF48065013D17F8011B2046ADB2E2
:107A3000FFF770FF002DF6D1012000F017F994F93F
:107A400021000121BDE8F84080B201F090BD002581
:107A500001F0E4FD94F91B1000F07BFC01F0DEFD69
:107A6000036840219B68984705F11006B6B201F003
:107A7000D5FD0368795D9B6898476B1C9DB2AE424B
:107A8000F5D101F0CBFD00F06BFCB6F5806F00D1B5
:107A9000F8BD3546DCE700BFE4E0032038B590F9D7
:107AA0001D300177013304460D46C27600F0C980CF
:107AB00090F91F00012180B201F048FD94F92100E6
:107AC000012180B201F042FD94F82230002B00F039
:107AD000A68094F92100012180B201F048FDFFF752
:107AE000FDFE012100F052FEFFF7F8FE102100F02C
:107AF000BDFEFFF7F3FE002100F05CFEFFF7EEFE97
:107B000000F030FE94F92000012180B201F01EFD4A
:107B100094F92000012180B201F029FD012000F03C
:107B200051FB94F92000002180B201F020FD0A20D1
:107B300000F048FB94F92000012180B201F017FD0C
:107B40002046AE21FFF7FCFE2046D521FFF7F8FEC8
:107B500020468021FFF7F4FE2046A821FFF7F0FE23
:107B600020463F21FFF7ECFE2046D321FFF7E8FE39
:107B700020460021FFF7E4FE20464021FFF7E0FE0B
:107B80008D212046FFF7DCFE012D0CBF10211421B2
:107B90002046FFF7D5FE20462021FFF7D1FE2046E4
:107BA0000021FFF7CDFE2046A121FFF7C9FE2046A8
:107BB000C821FFF7C5FE2046DA21FFF7C1FE2046A7
:107BC0001221FFF7BDFE81212046FFF7B9FE012DEE
:107BD0000CBF9F21CF212046FFF7B2FED9212046BE
:107BE000FFF7AEFE012D0CBF2221F1212046FFF749
:107BF000A7FE2046DB21FFF7A3FE20464021FFF72A
:107C00009FFE2046A421FFF79BFE2046A621FFF7FA
:107C100097FE2046AF21BDE83840FFF791BE94F9AA
:107C20001D00012180B201F091FC94F91E00012198
:107C300080B201F08BFC94F82230002B3FF462AF4D
:107C400047E701F0EBFC00F051FB5BE708B5024BA6
:107C50001B685B6C019308BD4802030008B5024B2A
:107C60001B685B68019308BD1802030008B5024B4E
:107C70001B68DB68019308BD1802030008B5024BBE
:107C80001B681B69019308BD1802030008B5024B6D
:107C90001B685B69019308BD1802030008B5024B1D
:107CA0001B68DB6D019308BD1802030008B5024B89
:107CB0001B681B68019308BD2C02030008B5024B2A
:107CC0001B689B68019308BD2C02030008B5024B9A
:107CD0001B68DB68019308BD2C02030008B5024B4A
:107CE0001B681B69019308BD2C02030008B5024BF9
:107CF0001B68DB68019308BD2802030008B5024B2E
:107D00001B689B69019308BD2802030008B5024B5C
:107D10001B68DB69019308BD2802030008B5024B0C
:107D20001B681B6A019308BD2802030008B5024BBB
:107D30001B685B6A019308BD2802030008B5024B6B
:107D40001B689B6A019308BD2802030008B5024B1B
:107D50001B68DB6A019308BD2802030008B5024BCB
:107D60001B681B6B019308BD2802030008B5024B7A
:107D70001B685B6B019308BD2802030008B5024B2A
:107D80001B681B6C019308BD2802030008B5024B59
:107D90001B681B6D019308BD2802030008B5024B48
:107DA0001B685B69019308BD6C02030008B5024BB8
:107DB0001B685B69019308BD6402030008B5024BB0
:107DC0001B681B6A019308BD6402030008B5024BDF
:107DD0001B689B6A019308BD6402030008B5024B4F
:107DE0001B689B68019308BD6802030008B5024B3D
:107DF0001B68DB68019308BD6802030008B5024BED
:107E00001B689B69019308BD3802030008B5024B4B
:107E10001B68DB69019308BD3802030008B5024BFB
:107E20001B681B6A019308BD3802030008B5024BAA
:107E30001B689B6A019308BD3802030008B5024B1A
:107E40001B681B6B019308BD3802030008B5024B89
:107E50001B689B6B019308BD3802030008B5024BF9
:107E60001B681B68019308BD3002030008B5024B74
:107E70001B689B68019308BD3002030008B5024BE4
:107E80001B68DB68019308BD3002030008B5024B94
:107E90001B681B69019308BD3002030008B5024B43
:107EA0001B685B69019308BD3002030008B5024BF3
:107EB0001B68DB69019308BD3002030008B5024B63
:107EC0001B681B6A019308BD3002030008B5024B12
:107ED0001B685B6A019308BD3002030008B5024BC2
:107EE0001B681B6C019308BD3002030008B5024BF0
:107EF0001B685B6C019308BD3002030008B5024BA0
:107F00001B68DB68019308BD3C02030008B5024B07
:107F10001B681B69019308BD3C02030008B5024BB6
:107F20001B685B69019308BD3C02030008B5024B66
:107F30001B689B69019308BD3C02030008B5024B16
:107F40001B68DB69019308BD3C02030008B5024BC6
:107F50001B681B6A019308BD3C02030008B5024B75
:107F60001B689B6A019308BD3C02030008B5024BE5
:107F70001B681B6C019308BD3C02030008B5024B53
:107F80001B681B68019308BD4C02030008B5024B37
:107F90001B685B68019308BD4C02030008B5024BE7
:107FA0001B681B69019308BD4C02030008B5024B16
:107FB0001B685B69019308BD4C02030008B5024BC6
:107FC0001B689B69019308BD4C02030008B5024B76
:107FD0001B68DB69019308BD4C02030008B5024B26
:107FE0001B681B6A019308BD4C02030008B5024BD5
:107FF0001B689B6A019308BD4C02030008B5024B45
:108000001B685B6B019308BD6002030008B5024B5F
:108010001B681B6D019308BD6002030008B5024B8D
:108020001B685B68019308BD2002030008B5024B82
:108030001B685B69019308BD2002030008B5034B70
:108040001B68D3F88830019308BD000020020300AC
:1080500008B5034B1B68D3F89430019308BD0000AA
:108060002002030008B5024B1B689B68019308BD02
:108070004402030008B5024B1B68DB6B019308BD8B
:108080004402030008B5024B1B685B68019308BDFE
:108090004002030008B5024B1B689B68019308BDB2
:1080A0004002030008B5024B1B68DB68019308BD62
:1080B0004002030008B5024B1B681B69019308BD11
:1080C0004002030008B5024B1B685B69019308BDC1
:1080D0004002030008B5024B1B689B69019308BD71
:1080E0004002030008B5024B1B68DB69019308BD21
:1080F0004002030008B5024B1B681B6A019308BDD0
:108100004002030008B5024B1B689B6A019308BD3F
:108110004002030008B5024B1B681B6B019308BDAE
:108120004002030008B5024B1B685B6B019308BD5E
:108130004002030008B5024B1B681B6C019308BD8D
:108140004002030008B5024B1B685B6C019308BD3D
:108150004002030008B5024B1B681B68019308BD71
:108160001C02030008B5024B1B685B68019308BD45
:108170001C02030008B5024B1B689B68019308BDF5
:108180001C02030008B5024B1B685B6A019308BD23
:108190001C02030008B5024B1B68DB6B019308BD92
:1081A0001C02030008B5024B1B681B6C019308BD41
:1081B0001C02030008B5024B1B685B6C019308BDF1
:1081C0001C0203000021FFF731BF0000024800231A
:1081D0000360FFF73BBD00BFC4E6032000224068F8
:1081E0001146FFF787BF002240681146FFF79ABF8C
:1081F00040680022FFF78EBF4068002281F0010135
:10820000FFF770BF002340681A461946FFF762BFA8
:10821000002340681A461946FFF754BF0022406801
:108220001146FFF747BF002240681146FFF732BFF3
:10823000406800220221FFF735BF002340681A463C
:10824000FFF720BF024B03225A60024A1A607047B0
:10825000C8E6032040120C007047F8B506461546E4
:108260000C468F18BC4206D0336814F8011B9B687B
:1082700030469847F6E72846F8BD007C0022FFF715
:108280004DBD007C0021FFF751BD007C0021FFF7B0
:1082900055BD007C0021FFF759BD007C0021FFF790
:1082A0005DBD10B514210446FBF7F9FE204610BD54
:1082B00038B5044615464FF47A730022C4E9012309
:1082C000094B2174084623602946FFF757FDBF304C
:1082D00008D16B69DB0705D56868FFF743FFE868DD
:1082E000FFF740FF204638BD7C120C000023007CC5
:1082F0001A461946FFF7FABC7FB500221423CDE9D0
:108300000122ADF804300B788DF808304B680393E8
:10831000CB680493007C0B7A059301A9FFF736FD27
:1083200007B05DF804FB1FB5003B8DF800104FF05F
:108330006401039118BF0123694601928DF808304A
:10834000FFF7DAFF05B05DF804FB007C0022FFF7C1
:10835000D5BCC9B2FFF7F9BF007C0022FFF7D6BC3D
:108360000121FFF7F9BF704710B518210446FBF74C
:1083700096FE204610BDF0B5037D062B8DB00E464F
:1083800000F104074FF0000412D000F1080515F8C1
:10839000011D0A22304600F074F9AF42044419D09E
:1083A000002CF4D02E21304600F052F90444EEE7C0
:1083B0002F236A4639460A208DF80040FFF7F6FC65
:1083C000684603F081F833680246DB686946304648
:1083D0009847044620460DB0F0BD000010B5054B8F
:1083E0000446112240F8043B002102F0E7FF20463A
:1083F00010BD00BFA4120C000346074A10B543F895
:10840000042B01F1100251F8044B43F8044B914244
:10841000F9D10A781A7010BDA4120C00037D042B48
:1084200004D14068003818BF01207047062B07D1DF
:1084300043683BB983682BB9C3681BB90069F1E78E
:10844000002070470120704710B59DF8084044EAAD
:10845000032343EA024242EA0161042341600375B7
:1084600010BD000007B5064B0360CB7800938B78F6
:108470004A780978FFF7E8FF03B05DF804FB00BF16
:10848000A4120C00014B024A1A607047D0E6032088
:10849000B0120C00002340681A46FFF7F3BD406895
:1084A00000220221FFF7FEBD002240681146FFF7BF
:1084B000F1BD002240681146FFF7FCBD0023406873
:1084C0001A461946FFF7FEBD002340681A461946B2
:1084D000FFF700BE40680021FFF72CBE4068002176
:1084E000FFF730BE4068002281F00101FFF7FABDBE
:1084F00040680022FFF70EBE002240681146FFF7D9
:1085000011BE002240681146FFF7F4BD2DE9F0438B
:1085100095B014460D460746FFF760FF00211C2268
:108520000DA8009102F04AFF40230C9320466B46B1
:108530000CAA0021FFF75AFC044600284BD1024642
:1085400001216868FFF7B6FD02218046224668686F
:10855000FFF7B0FD009E81462146002E3BD000294A
:1085600039D17368022B03D00A2B11D0F669F4E7D6
:10857000B8F1000FFAD0716906A8043107ADFFF712
:1085800071FF0FCD3C1D0FC42B6823704146EDE7F2
:10859000B9F1000FEAD07469102201A802F00EFFB1
:1085A00006238DF8143001AD04F10803183418685F
:1085B00059682A4603C20833A3421546F7D101A9D8
:1085C00006A807ADFFF718FF0FCD3C1D0FC42B68A1
:1085D00023704946CAE70098FFF700FC384615B0FB
:1085E000BDE8F083024B034A1A6000225A607047CC
:1085F000D4E60320BC120C00F8B506460D468F18D1
:108600000024BD420CD0336815F8011B9B6830462E
:108610009847031E01DB1C44F3E7002C08BF1C46EF
:108620002046F8BD13B50446084659B1019102F041
:108630004BFF23680199DB680246204602B0BDE883
:108640001040184702B010BD08B5FFF7EBFF08BD9A
:1086500003689B68184738B50D210546FFF7F8FFFA
:108660000A2104462846FFF7F3FF204438BD38B5F9
:108670000546FFF7D7FF04462846FFF7ECFF2044E6
:1086800038BD30B58BB00023012A8DF8243098BF57
:108690000A2209AC0D46B1FBF2F101FB125303F0C3
:1086A000FF03092B94BF30333733DBB2AA4204F8FF
:1086B000013DEFD92146FFF7B5FF0BB030BD2DE9E5
:1086C000F04186B000AF05460E46381D1421144611
:1086D0003B60FFF757FD13280ED8391D2846FFF7DA
:1086E000A1FF04461EB12846FFF7B5FF044420460B
:1086F0001837BD46BDE8F08100F1080323F00703F9
:10870000E846ADEB030D2246411C3B686846FFF787
:1087100039FD69462846FFF785FF0446C546E1E76F
:1087200010B5044628B102F07FFE90FBF4F303FB82
:108730001404204610BD0000014B00229A607047CF
:10874000DCE603200021FFF7D1BB0021FFF7C6BB09
:1087500010B5044608462170FFF7A8FB00236360AC
:10876000204610BD13B504460078FFF7EEFF58B958
:10877000207801904FF6FF71FFF770FB019802B06F
:10878000BDE81040FFF7DEBF02B010BD13B50446D0
:1087900000780191FFF7D9FF019948B9207801903D
:1087A000FFF764FB019802B0BDE81040FFF7CABFB5
:1087B00002B010BD13B5044600780191FFF7C5FF64
:1087C000019948B920780190FFF758FB019802B051
:1087D000BDE81040FFF7B6BF02B010BD400830B58D
:1087E0001860002418688842E5B206D90134082CC4
:1087F00002D040081860F5E70725024B5B5D137057
:1088000030BD00BFF0120C002DE9F04188B000230C
:108810000446007802930E461746FFF796FF05467A
:1088200000BB94F800800146142203A802F0C6FDA4
:108830000B232A4603A94046ADF80C30FFF746FB50
:1088400004988DF8075002AB0DF1070207FB06F103
:10885000FFF7C4FF20789DF80710FFF717FB20787B
:10886000FFF770FF029808B0BDE8F08138B5044604
:1088700000780D46FFF769FF0346D0B9616899B1EA
:108880000C4A12F8010B854202D00133082BF8D1B3
:108890000133DBB20122D9402046FFF7B5FF207833
:1088A000BDE83840FFF74EBF20782946FFF7EEFAC3
:1088B000F5E738BDF0120C0008B50078FFF7EEFAC6
:1088C000C0B208BD10B50446FFF7E0F9E0602368C8
:1088D00020465B699847002808DAFFF7D7F9E36874
:1088E000C01AA3689842F2D34FF0FF3010BD0000C9
:1088F00038B50D460749044600F059F82846FFF7F9
:10890000E1FF002804DBC1B2204600F0CBF8F5E718
:10891000204638BDDAB90B0010B504460068FFF7F1
:1089200021FC204610BD10B50446006808B1FFF7D1
:1089300019FC0023C4E90133236010BD38B5044697
:108940000D4600680131FFF715FC10B1C4E90005C0
:10895000012038BD10B50368044623B143688B423B
:1089600001D3012010BD2046FFF7E8FF0028F9D011
:10897000A368002BF5D122681370F2E737B50D46D6
:10898000114601920446FFF7E5FF019A28B92046F7
:10899000FFF7C9FF204603B030BDA260294620681A
:1089A00002F0FEFC2268A3680021D154F2E7002304
:1089B00013B5C0E9003304468360037341B1084630
:1089C000019102F081FD019902462046FFF7D6FF92
:1089D000204602B010BD884210B5044605D00B6891
:1089E0002BB18A681946FFF7C9FF204610BDFFF773
:1089F0009AFFFAE710B500230446C0E9003383600C
:108A00000373FFF7E8FF204610BD13B5044659B1C4
:108A10000846019102F058FD019902462046FFF7F1
:108A2000ADFF204602B010BDFFF77DFFF9E710B59E
:108A300004468AB00023C4E90033A36023730846C8
:108A400001A900F093FC01A92046FFF7DEFF2046B4
:108A50000AB010BD70B505460E4609B9002070BDBC
:108A60006AB1846814442146FFF774FF0028F5D0EA
:108A70002868AB683146184402F01EFDAC60012046
:108A8000EDE713B50446084651B1019102F01CFD13
:108A900001990246204602B0BDE81040FFF7DABF58
:108AA00002B010BD07B500238DF80410012201A902
:108AB0008DF80530FFF7CEFF03B05DF804FB10B56D
:108AC0008A6809680446FFF7C5FF10B92046FFF71A
:108AD0002AFF204610BD13B5044629B92046FFF7EA
:108AE00022FF204602B010BD0846019102F0ECFCC6
:108AF000019902462046FFF7ADFF0028EED0F0E7CF
:108B0000054B02221A60054B054A9A600020C3E912
:108B10000000FFF783BA00BFF8E60320ECE603206D
:108B20000000FFFF13B503688DF80710DC6B01220E
:108B30004FF0FF330DF10701A04702B010BD10B494
:108B40000368DC6B4FF0FF33A4465DF8044B6047CD
:108B500013B5134602688DF80710D46B0DF10701A9
:108B60000122A04702B010BD10B54369B3F88620BA
:108B7000B3F884309A42044608D06369B3F884207D
:108B8000511CA3F884101344187910BD03681B69A5
:108B900098470028F1D14FF0FF30F6E7704743695E
:108BA0001868C043C00F704770470000064B9942D9
:108BB00010B500F10C0405D0084600F095FD002822
:108BC00008BF0024204610BD30120C0010B5AC21A7
:108BD0000446FBF764FA204610BDAC21FBF75FBAF0
:108BE0002DE9F0414FF0000886B01C46C0F8048023
:108BF00005460E4617464146102202A802F0DEFB4B
:108C0000631C09D04FF47A73B4FBF3F203FB1244F4
:108C1000CDE902285C43049468691023009300683E
:108C200002AB41F2050240F6FF71FFF7E7F80028BA
:108C300007DAFFF7AFFA03686B60002006B0BDE803
:108C4000F0816869002300683A463146FFF7F6F87C
:108C5000031EEEDB1846F1E730B587B0044601ADE0
:108C60006846FFF7FFFB0FCD04340FC42B68237059
:108C700007B030BD70B54D69054B04468C3544F8DE
:108C8000043B06460FCD0FC42B682370304670BDE1
:108C9000A4120C002DE9F0439846036893B00D46EA
:108CA0000024DB6A06461746984728466B4622464C
:108CB00021460094FFF79AF80546002863D1009BEF
:108CC000002B4BD05B69002B48D006A8FFF786FB32
:108CD000009B5C696378022B04D1211D06A8FFF775
:108CE000BBFF26E00A2B24D11122294601A802F05D
:108CF00065FBA368002B38D004F108030DF1040CC8
:108D0000183418685968624603C20833A34294466F
:108D1000F7D1062301A90CA88DF81430FFF76CFBDE
:108D20000DF1340CBCE80F0007AC0FC4DCF80030C8
:108D3000237006A8FFF772FB80B1336807ADD3F844
:108D40002090124B0C930FCD0DAC0FC42B682370E9
:108D50003A4643460CA93046C84705460098FFF7F7
:108D60003DF8284613B0BDE8F083E368002BC3D17B
:108D70004FF6FF70D4F81090FFF720F88145BBD173
:108D800004F11401AAE72546E8E700BFA4120C008D
:108D900038B543691A68002A054610DAB3F8862008
:108DA000B3F884309A420AD103681B699847044695
:108DB00028B92B682846DB6A9847204638BD012031
:108DC000FCE710B54369B3F88620B3F884309A42C3
:108DD000044605D06369B3F884201344187910BDA4
:108DE00003681B6998470028F4D14FF0FF30F6E77D
:108DF000F8B543691746B3F88620B3F884309A4231
:108E000005460E4616D06969B1F88430B1F886403F
:108E1000E41ABC4228BF3C4604332246194430467B
:108E200002F0BEFA6A69B2F884302344A2F88430B2
:108E30002046F8BD03681B6998470028E3D14FF02E
:108E4000FF34F5E742690023A2F884304269A2F8B2
:108E5000863070472DE9F0411F4603680C46DB6AF7
:108E60008AB0054616469847237DD5F81480042B12
:108E70000CBF02200A2006220121FEF7E7FFC8F8F6
:108E800000006B691B68002B08DA2B682846DB6A38
:108E90000024984720460AB0BDE8F0812846FFF735
:108EA000D1FFB7B1002303A9F8B20393ADF8103096
:108EB000FEF774FF0028E8D1686906230093006874
:108EC00003AB41F20B0240F6FF71FEF797FF00285B
:108ED000DBD11C22002103A802F070FA237D042BB1
:108EE0001DD14FF407733046ADF80C30FEF76EFF1E
:108EF000ADF80E006068FEF761FF04906B691C22FC
:108F0000186803A9FEF78AFF0028BED104340FCCED
:108F10006D698C350FC523682B700124BAE740F6C4
:108F20001C233046ADF80C30FEF750FF05AEADF80F
:108F30000E00231D04F1140718685968324603C255
:108F40000833BB421646F7D1D8E7000030B5426976
:108F5000B2F886308BB004462BB1B2F884209A4226
:108F600001D1FFF76FFF61690868002818DBB1F8CD
:108F700086507F2D14D804310823C5F1800229447E
:108F8000FEF754FF002813DD6369B3F886200AB9A1
:108F9000A3F884206369B3F886201044A3F8860000
:108FA0006369B3F88600B3F88430C01A0BB030BDE3
:108FB000FFF7F0F803680B2BF2D0FFF7EBF803682C
:108FC0000B2BEDD020230025CDE90235FFF7E2F889
:108FD00003680193084B0949009302AA2B463220EB
:108FE000FFF714F863691868FEF710FF63694FF024
:108FF000FF321A60D4E700BFFF120C00F8120C0019
:1090000010B5436904461868002801DBFEF7FEFE30
:1090100063694FF0FF321A606069112200218C30C1
:1090200002F0CCF92046BDE81040FFF70BBF10B5A9
:10903000002304460160C0F884308830FFF7CEF981
:10904000204610BD73B500234FF47A72C0E9013297
:109050000E4A0361026043610446AC200191FBF7B4
:109060001AF8051E05F10C0608D00123C5E90133E5
:10907000074B01992B603046FFF7D9FF2046C4E922
:109080000565FFF7DFFE02B070BD00BF34130C00B2
:1090900018130C0010B54FF0FF310446FFF7D2FF54
:1090A000204610BD10B504460068002801DBFEF71D
:1090B000ADFE204610BD0C30FFF7F4BF024B1A681E
:1090C000024B1A60704700BFE4E40320FCE6032073
:1090D00070474174704708B5007CFEF73FFF20EAF7
:1090E000E07008BD08B5007CFEF710FF20EAE070D4
:1090F00008BD08B5007CFEF719FF40EAE07008BD26
:1091000008B5007CFEF70AFF40EAE07008BD007C6D
:10911000FEF714BF37B5457C04462DB1207C03B063
:10912000BDE83040FEF7EABE007C0191FEF716FF75
:1091300000280199F2DC284603B030BD10B5142197
:109140000446FAF7ACFF204610BD000010B54FF4FE
:109150007A730446084611460022C4E90123044BF1
:109160002360012320746374FEF700FF204610BDC6
:109170009C130C00417470477047704708B500217C
:10918000007CFEF71BFF40EAE07008BD08B5012136
:10919000007CFEF713FF40EAE07008BD08B5007CD4
:1091A000FEF704FF20EAE07008BD08B5007CFEF77A
:1091B000F5FE20EAE07008BD13B50446007C01917D
:1091C000FEF7F4FE0028019901DC607C20B1207CD0
:1091D000FEF7FCFE20EAE07002B010BD007CFEF756
:1091E000FDBE10B514210446FAF759FF204610BD04
:1091F00010B54FF47A73044608460021C4E9011300
:10920000044B23600123207463741146FEF7B6FEFD
:10921000204610BDCC130C00007C0022FEF7B6BE29
:10922000007CFEF7E3BE10B514220446002102F0D4
:10923000C5F8204610BD000010B50F4C88B003A83B
:10924000FFF7F1FF2178BFF35B8F11F001010FD120
:1092500020460191FAF732FF019948B103AA074865
:10926000FFF7C6FF2046FAF72EFF054802F092F8F6
:10927000024808B010BD00BF00E7032004E7032048
:1092800079910B00002240681146FEF713BF0022BF
:1092900040681146FEF72EBF002240681146FEF7D7
:1092A00041BF40680022FEF735BF4068002281F0D0
:1092B0000101FEF717BF002340681A461946FEF762
:1092C00009BF002340681A461946FEF7FBBE00227C
:1092D00040681146FEF7DEBE406800220221FEF71C
:1092E000E1BE002340681A46FEF7CCBE024B0422C2
:1092F0005A60024A1A60704718E70320FC130C00FA
:1093000010B5044602F0E0F80138231820468342E5
:1093100006D90278197800F8011B03F80129F6E74D
:1093200010BD70B50C46911E22291DD8254630B9B6
:10933000234430229D4210D205F8012BFAE7B0FBFE
:10934000F2F602FB1600C1B2092894BF3031573142
:10935000C9B205F8011B3046E9E7002320462B700F
:10936000FFF7CEFF204670BD0020FCE738B5031E96
:109370000C4615460EDAB3F1004F4FF02D0214BF24
:109380005842184601230A702A461944FFF7C9FFBC
:10939000204638BD0123F9E7014B1860704700BF34
:1093A000ECE4032008B50B4B43B1FFF745FF03681E
:1093B0001B699847002801DDAFF30080064B43B1DD
:1093C00000F06CF903681B699847002801DDAFF3D2
:1093D000008008BD000000000000000008B5FFF795
:1093E000E1FFFEF753FC014B186008BD28E703209E
:1093F0000548064A064908B5121A01F0D1FF054B87
:10940000054A1A6008BD00BF00F4032004F40320DD
:1094100004160C0000F403201E1C279A07B5002335
:1094200000931A466FF07701FEF712FE03B05DF865
:1094300004FB000007B543880A2B08D0502B0BD142
:10944000094B1B684BB103B05DF804EB1847FFF7FD
:10945000E5FF03B05DF804FB002300931A466FF0AC
:109460007701FEF7F5FDF4E724E7032010B5124875
:109470000021FEF79FFE114B1A68114B9A42114BC7
:109480000CBF012200221A7001D0FFF7B1FFFEF7D6
:10949000E5FB044601F09AFF0B4B13B12046AFF3F6
:1094A000008000210848FEF7E5FDBDE810400748B0
:1094B0000021FEF7C3BD00BF99930B0000F4032009
:1094C0001E1C279A20E703200000000035940B00A3
:1094D000232813B502D9002002B010BDA0F10B0360
:1094E000022B1AD8174C2178BFF35B8F11F00101C2
:1094F0000BD120460191FAF7E1FD019928B11248FC
:10950000FFF726F92046FAF7DEFD0F4B1878FEF735
:10951000D5FC0028DFD10120DEE7012809D800F0C2
:109520007DF80021007CFEF721FC80F00100C0B234
:10953000D2E709380128EED800F0B0F8007CFEF739
:1095400005FDF2E7B8E60320BCE60320232838B582
:1095500004460D460AD8FF2908D0FFF7B9FF28B105
:1095600029462046BDE83840FEF7A8BB38BD38B5CF
:1095700004460D46FEF7AAFBFF2810D0062804D8A3
:109580004D2323FA00F0C30709D42046FFF7A0FFBC
:1095900028B129462046BDE83840FEF79FBB38BDBC
:1095A0002DE9F04190461F46072406460D46C4F1BA
:1095B0000701B8F1000F12D147FA01F101F00101E2
:1095C0003046FFF7D4FF01212846FFF7D0FF0021E6
:1095D0002846FFF7CCFF013CE9D2BDE8F08147FA0D
:1095E00004F1EBE77047000038B50A4B0360012334
:1095F000044643610849202000F074F8202560608B
:109600000549A560284600F06DF8C4E90305204629
:1096100038BD00BF1800010030140C0030B50E4DED
:109620002978BFF35B8F11F0010487B011D1284670
:10963000FAF744FD68B16846FFF7D6FF6A4621464F
:109640000648FEF735FE2846FAF73DFD044801F0CE
:10965000A1FE024807B030BD2CE7032030E703200D
:10966000E5950B007047000038B5044614252A46DE
:10967000002101F0A3FE25804025074925812846C9
:10968000258200F02FF804496060284600F02AF88F
:10969000E060204638BD00BF30140C0030B50E4DE0
:1096A0002978BFF35B8F11F0010487B011D12846F0
:1096B000FAF704FD68B101A8FFF7D6FF01AA214619
:1096C0000648FFF743FD2846FAF7FDFC044801F081
:1096D00061FE024807B030BD44E7032048E703209D
:1096E00065960B00FAF7D9BC014900F0F9B800BF44
:1096F0004C140C007FB500241023CDE9023403681C
:1097000015469E6912686B46CDE90044B0479DF846
:10971000043003F00603062B03BF009B2B600120DF
:10972000204604B070BD0098904214BF012006206E
:109730007047000010B5034B0360044600F0CDF8FD
:10974000204610BD8C140C0010B50446FFF7F2FF44
:1097500020460821FAF7A3FC204610BD2DE9F04170
:109760001F46DDE90834DDF81880984506461546A1
:1097700007D1079900F0B4F818B165710020BDE871
:10978000F0813946304600F0ABF80028F6D00123CE
:10979000C4F800802571A371F0E738B515461C4662
:1097A00000F09EF820B10823E360062325602371B2
:1097B00038BD73B505460C4601921E4600F090F880
:1097C00050B9032E08D82368019A5B6929462046C0
:1097D00002B0BDE87040184702B070BD10B5034B31
:1097E00003600446FFF7A6FF204610BDEC140C00F2
:1097F00010B50446FFF7F2FF20460C21FAF74FFCA4
:10980000204610BDF7B5089F974205460E46144600
:109810000AD0A86802680897156A31462246AC4605
:1098200003B0BDE8F04060471946019300F058F8D6
:10983000019B0028EDD0062003B0F0BD2DE9F14FCB
:109840000D461946DDE90A4BDDE90CA681461746AF
:10985000984600F045F890B1002D3460377109DB6F
:1098600061198A450CBF06210121B171002001B0A8
:10987000BDE8F08F0235F9D10123B371F6E7544505
:1098800006D15946484600F02BF808B17771EDE74C
:10989000D9F808000368CDE90CA6CDE90A4BDC69CC
:1098A0003A4643462946A44601B0BDE8F04F60471A
:1098B0002DE9F04107460C4615461E46FFF76DFFA1
:1098C00048B9B86803689F692A4633462146BC46B2
:1098D000BDE8F0416047BDE8F08170470020704767
:1098E000814208B50ED0406803782A2B0CD0496815
:1098F0000B782A2B08BF013101F0D4FDB0FA80F0BB
:10990000400908BD0120FCE70020FAE70000000044
:10991000F8B52DED028B57EC106B55EC114B00F0A8
:10992000CBF8634BB0EE408AF0EE608A93F90030DA
:1099300001332AD022462B462046294601F0C4FC9A
:1099400018BB32463B463046394601F0BDFC002884
:1099500044D1002200233046394601F083FCD8B1BF
:10996000002200232046294601F07CFC00283DD13E
:1099700045EC104B00F010FF38B12046294600227C
:10998000002301F079FC00285CD1B0EE480AF0EE2B
:10999000680ABDEC028BF8BDB0EE480AF0EE680A2A
:1099A00000F0FAFE58B351EC180B0022002301F02E
:1099B00059FC0028E9D047EC106B00F0EDFE0028C0
:1099C000E3D045EC104B00F0E7FE0028DDD0FEF7B9
:1099D000E1FB22239FED2E8B0360D6E7204629462C
:1099E0000022002301F03EFC0028CED09FED2A8B00
:1099F000B0EE480AF0EE680ABDEC028BF8BD47EC09
:109A0000106B00F0C9FE0028CDD045EC104B00F0E3
:109A1000C3FE0028C7D053EC182B18EE100A1946C5
:109A200001F052FC20BBFEF7B5FB034622221A6070
:109A3000304639460022002301F01EFC48B99FED54
:109A4000188BA2E7FEF7A6FB21239FED178B03607F
:109A50009BE745EC104B00F0B3FE224651EC100B97
:109A60002B4601F0FFFB0028E9D19FED0F8B8CE71F
:109A7000FEF790FB002200232121016010461946C9
:109A800001F0B2FA41EC180B7FE700BFAFF30080A2
:109A90000000000000000000000000000000F03F97
:109AA000000000000000F07F000000000000F0FF58
:109AB000E8E40320000000002DE9F04F57EC116BA3
:109AC0002DED0C8B27F0004A5AEA060287B03DD0F4
:109AD00055EC104B724925F00048884510EE102ACD
