:02000002B0004C
:1040000000400B00B8F00B00000006000C00050299
:084010000401A60F00000000EE
:0440180020910B00E8
:1040200009480A49884208B505D0094A824202D0A7
:10403000121A04F0B9FF0748074A0021121A04F0C7
:10404000C1FF014808BD00BF50E10320F8EB0B00A1
:10405000E8E50320E8E50320EDE7032070B5074E0F
:10406000074C03F009F8A41BA4080025AC4200D1BA
:1040700070BD56F8043B98470135F7E7A0EB0B00FD
:10408000C8EB0B0000F01EB908B500F09BF9BDE8C5
:10409000084002F0A9BF01F08FBF01F08DBF01F011
:1040A00093BF000008B5034A03490C2001F0D8FE75
:1040B000FEE700BFD15A0B0034910B000078B0FA34
:1040C00080F0400970470123037070470368C9B24C
:1040D0009B6818470EB403B503AB002153F8042BBB
:1040E000019302F010FA02B05DF804EB03B07047E0
:1040F00038B584690A4B036005467CB16368013BAF
:1041000063605BB9236820469B689847A368013BBE
:10411000A3601BB923682046DB689847284638BD52
:1041200024E90B0010B50446FFF7E2FF20461C21EE
:10413000FFF7B5FF204610BD38B50C46054603F025
:1041400073F802F005F803F06FF8294602F02FF833
:1041500003F06AF81C21FFF7B9FF03F065F8E100EE
:10416000FFF7B4FF03F060F8012102F027F82046C2
:1041700004F09AFB9FED120B41EC110B03F0CCF90C
:10418000114953EC102B002004F032FD02460B467F
:1041900000200E4904F02CFD04F0B0FE044602F0AD
:1041A0009DFE0546204604F0A1FB02460B4628462C
:1041B0000749FFF78FFF00EE104A38BDAFF30080CC
:1041C00000000000000000400000D0400000F03F70
:1041D00021920B0038B50D46044603F025F801F096
:1041E000B7FF03F021F8214601F0E1FF03F01CF8CE
:1041F0006B21FFF76BFF03F017F80021FFF766FF55
:1042000003F012F8012101F0D9FF29462046FFF7FB
:1042100093FF024B83ED000A38BD00BF4CE603203C
:1042200038B504460D4602F0FFFF214601F0BFFFFE
:1042300002F0FAFF036829469B68984702F0F4FFF2
:10424000002101F0BBFF02F0EFFF21460222012313
:1042500001F09BFF02F0E8FF03685B6998470446A2
:1042600002F0E2FF03685B699847C3B243EA0420A7
:1042700003B200EE103AB8EEC00A38BD70B50C4675
:104280000F4E3B210546FFF7CBFFD6ED007A27EE18
:10429000800A3D21284684ED000AFFF7C1FFD6EDD4
:1042A000007A27EE800A3F2184ED010A2846FFF7B5
:1042B000B7FFD6ED007A27EE800A84ED020A70BDC2
:1042C0004CE6032030B595B002F008FE4FF41651CD
:1042D00002F0F4FD002001F013FC42F210750446D8
:1042E000002001F00DFC001B61F10001A84271F1FA
:1042F000000307D202F0F2FD02F0E4FD10B901F074
:10430000E3FDEDE702F0EAFD02F0DCFD00216820AC
:10431000FFF760FF244B254C83ED000A00231A466B
:1043200019466068224D01F0FFFD3822002106A8E1
:1043300004F048FE4C2301931E4B02930A220023F3
:10434000CDE90323194601AA6068059301F00CFE2C
:10435000002360681A46194601F0C6FD0022606815
:10436000114601F0C9FD28B102F0B8FD2946FFF75A
:10437000B1FEF3E74FF47A7001F056FE02F0AEFDA5
:104380000D49FFF7A7FE0D4800F0FBFB0B4800F0BE
:1043900031FC0B483C22022101F0B2FA084815B06A
:1043A000BDE8304001F0C4B9B0E6032018E70320AF
:1043B00046920B003B920B0048920B0098E60320BC
:1043C00070E60320F0B5C84FC84E87B001F090FBEF
:1043D0003B683060C01A40F6C41398424ED9C44CB2
:1043E00068202146FFF74AFF02F078FD0546206865
:1043F00004F07CFA02460B46A068CDE9042304F0E1
:1044000075FACDE90201606804F070FADDE9042371
:10441000CDE90001B7492846FFF75CFEB648022106
:1044200000F099FF0122B448082100F087FFB2484C
:10443000012100F086FFB048012100F087FF2068CD
:1044400004F054FA02460B46A068CDE9042304F0B8
:104450004DFACDE90201606804F048FADDE9042371
:10446000CDE90001A549A448FFF734FEA24801F0B8
:10447000D7F9A14801F05CF93B683360A04C25688E
:10448000012D40F0D1829C48022100F064FF0022FF
:104490001146994800F052FF002280234020114627
:1044A000CDE900300295974B934800F043FE9248C7
:1044B00001F0B6F940F6B83001F0B6FD8E4801F0D3
:1044C00037F9022323608C48022100F044FF0022C8
:1044D0001146894800F032FF402301210022CDE936
:1044E00001318023114684480093874B00F022FE5F
:1044F000814801F095F940F6B83001F095FD7E480D
:1045000001F016F9032323607B48022100F023FF0A
:1045100000221146784800F011FF40230122CDE926
:10452000013200228023114673480093774B00F03C
:1045300001FE714801F074F940F6B83001F074FDE5
:104540006D4801F0F5F8042323606B48022100F068
:1045500002FF00221146684800F0F0FE4FF0010E05
:104560004023CDE9013E002280231146624800939A
:10457000674B00F0DFFD604801F052F940F6B830BB
:1045800001F052FD5C4801F0D3F8052323605A483E
:10459000022100F0E0FE00221146574800F0CEFE56
:1045A0004FF0010C4023CDE9013C0022802311464D
:1045B00051480093574B00F0BDFD4F4801F030F9D2
:1045C00040F6B83001F030FD4B4801F0B1F8062359
:1045D00023604948022100F0BEFE002211464648F1
:1045E00000F0ACFE012740230022CDE901378023F3
:1045F000114641480093484B00F09CFD3E4801F0B5
:104600000FF940F6B83001F00FFD3B4801F090F88B
:10461000072323603848022100F09DFE0022114646
:10462000354800F08BFE012640230022CDE90136FB
:104630008023114630480093384B00F07BFD2E4814
:1046400001F0EEF840F6B83001F0EEFC2A4801F037
:104650006FF8082323602848022100F07CFE002226
:104660001146254800F06AFE012540230022CDE9CD
:1046700001358023114620480093294B00F05AFD54
:104680001D4801F0CDF840F6B83001F0CDFC1A48D5
:1046900001F04EF8092323601748022100F05BFE69
:1046A00000221146144800F049FE40230120002258
:1046B000CDE90130802311460F480093194B00F0DB
:1046C00039FD0D4801F0ACF840F6B83001F0ACFC13
:1046D000094801F02DF80A2323600748022100F061
:1046E0003AFE002220E000BF5CE6032094E60320AF
:1046F00050E603204B920B0070E6032082920B00E1
:10470000ACE60320A09E0B00A0AA0B00A0DA0B00D1
:10471000A09A0B00A0920B00A0B20B00A0AE0B0061
:10472000A0A20B00A0A60B001146B34800F006FEA5
:10473000402301210022CDE9013180231146AE48FA
:104740000093AE4B00F0F6FCAB4801F069F840F680
:10475000B83001F069FCA84800F0EAFF0B232360A1
:10476000A548022100F0F7FD00221146A24800F002
:10477000E5FD40230122CDE90132002280231146CC
:104780009D4800939E4B00F0D5FC9B4801F048F8F3
:1047900040F6B83001F048FC974800F0C9FF0C2300
:1047A00023609548022100F0D6FD00221146924870
:1047B00000F0C4FD4FF0010E4023CDE9013E002280
:1047C000802311468C4800938E4B00F0B3FC8A483E
:1047D00001F026F840F6B83001F026FC864800F0DB
:1047E000A7FF0D2323608448022100F0B4FD0022BE
:1047F0001146814800F0A2FD4FF0010C4023CDE9A5
:10480000013C0022802311467B4800937E4B00F040
:1048100091FC794801F004F840F6B83001F004FC4E
:10482000754800F085FF0E2323607348022100F0D5
:1048300092FD00221146704800F080FD01274023C0
:104840000022CDE90137802311466B4800936F4B5E
:1048500000F070FC684800F0E3FF40F6B83001F06B
:10486000E3FB654800F064FF0F23236062480221E8
:1048700000F071FD002211465F4800F05FFD012647
:1048800040230022CDE90136802311465A48009387
:104890005F4B00F04FFC584800F0C2FF40F6B830C4
:1048A00001F0C2FB544800F043FF1023236052483C
:1048B000022100F050FD002211464F4800F03EFD5D
:1048C000012540230022CDE90135802311464A48C5
:1048D0000093504B00F02EFC474800F0A1FF40F63B
:1048E000B83001F0A1FB444800F022FF11232360FF
:1048F0004148022100F02FFD002211463E4800F001
:104900001DFD402301200022CDE901308023114606
:1049100039480093404B00F00DFC374800F080FF11
:1049200040F6B83001F080FB334800F001FF12235D
:1049300023603148022100F00EFD002211462E486E
:1049400000F0FCFC402301210022CDE9013180234D
:10495000114629480093314B00F0ECFB264800F04B
:104960005FFF40F6B83001F05FFB234800F0E0FE47
:10497000132323602048022100F0EDFC00221146A1
:104980001D4800F0DBFC40230122CDE9013200226A
:104990008023114618480093214B00F0CBFB1648AA
:1049A00000F03EFF40F6B83001F03EFB124800F048
:1049B000BFFE142323601048022100F0CCFC00222B
:1049C00011460D4800F0BAFC012540230022CDE934
:1049D00001358023114608480093124B00F0AAFBD2
:1049E000054800F01DFF40F6B83001F01DFB0248FD
:1049F00000F09EFE25604FE070E60320A0C60B008D
:104A0000A0CE0B00A0BE0B00A0BA0B00A0CA0B00EA
:104A1000A0DE0B00A0B60B00A0C20B00A0960B00FE
:104A2000A0D20B00A0D60B00022D3FF44CAD032DFD
:104A30003FF46AAD042D3FF488AD052D3FF4A7ADDA
:104A4000062D3FF4C6AD072D3FF4E4AD082D3FF42D
:104A500002AE092D3FF420AE0A2D3FF43EAE0B2DE1
:104A60003FF47EAE0C2D3FF49CAE0D2D3FF4BBAE5B
:104A70000E2D3FF4DAAE0F2D3FF4F8AE102D3FF4BB
:104A800016AF112D3FF434AF122D3FF452AF132D5A
:104A90003FF470AF142D8ED007B0F0BD08B51B49A0
:104AA0001B4801F06BFE1B4A1B4B12681A601B4A25
:104AB0001B4812685A601B4A12689A601A4A1268A8
:104AC000DA601A4A12681A61194A12685A61194A58
:104AD00012689A6102F030F9174802F02DF90421AA
:104AE000164800F00FFE022308221548012100F0AD
:104AF0006FF8144B0022C3E90022A2F580329A60BD
:104B0000BDE80840022001F0BBB900BF4A920B008B
:104B100060E6032020E6032004E603205CE1032096
:104B2000E8E5032064E1032054E1032050E1032081
:104B300058E1032060E1032030E6032070E6032003
:104B400098E6032024E6032038B50446C0680D46E5
:104B500008B101F039FAA379062B0CBF0420032019
:104B600010FB05F080B2A08001F026FAE06028B1C9
:104B7000A288002104F026FA658038BDA0806080FC
:104B8000FBE710B504460121C07902F0E5FAE079AF
:104B9000002102F0F2FA0123237010BD37B503782B
:104BA00005460C461BB1C079002102F0D5FA2B78DE
:104BB000EC715BB1A0B20121019002F0CDFA019835
:104BC000002103B0BDE8304002F0D7BA03B030BDD9
:104BD00070B50025044616468371C0E9035505707B
:104BE0000572FFF7B1FF20463146FFF7D7FF204699
:104BF00070BD0000C368002B00F0A4812DE9F04FC8
:104C00008379023BDBB2042B9CBFBF4A52F823409E
:104C100085B0054688BF322400F062FF2B69C01AB8
:104C2000A042F9D3B94CAE88D4F800351BB9D4F8FA
:104C30006035002B7EDBB64CD4F8003523B9D4F8B0
:104C40006035002BC0F26E81B24CD4F80035002BD9
:104C500000F04481EB79B04AB04C1268190102EBC4
:104C60000313575CAE495B78D1F8FC2042F08072A8
:104C7000C1F8FC20226803F01F0343EA4713012711
:104C80003A432260A988D5F80C80D4F804909F405C
:104C9000002944D04FF0000E72464FF0A04118F8A2
:104CA00001CB0820802663689B1A462BFBD96268DB
:104CB000D1F808351CEA060F43EA0703C1F80835A6
:104CC0002FD063689B1A282BFBD9D1F80C350138FB
:104CD00043EA07034FEA5606C1F80C35E3D1AB8827
:104CE0000EF1010E1FFA8EFE7345D8D84FF43071C5
:104CF00003FB01F163689B1A462BFBD96368A3EBA6
:104D000009098945C0F0E4804FF4967000F0E0FE98
:104D1000A988D5F80C80D4F804900029BAD10A46A5
:104D2000E8E763689B1A112BCFD863689B1A112B95
:104D3000F7D9CAE7D4F86435002BBFF67CAFD4F8B6
:104D40006835002BBFF677AFD4F86C35002BBFF673
:104D500072AF3601331D1846009301F02DF900287B
:104D60003FF478AFAB88002B00F0ED80EA68013BA0
:104D700012FA83F702F1FF3E002348F2060248F2DE
:104D80000D011EF801CF1CF0800F0CBF93468B461F
:104D90001CF0400F0CBF16460E461CF0200F0CBF37
:104DA0009046884603F10109CDF80880019603F189
:104DB00002081FFA89F9019E20F813B01FFA88F83B
:104DC00020F81960029E20F8186003F103081CF017
:104DD000100F1FFA88F80CBF93468B4620F818B0C6
:104DE00003F104081CF0080F1FFA88F80CBF934663
:104DF0008B4620F818B003F105081CF0040F1FFAC9
:104E000088F80CBF93468B4620F818B003F1080AC7
:104E100003F1060807339BB21CF0020F1FFA88F853
:104E20000CBF93468B46CDF80CA01CF0010F20F868
:104E300018B015BF20F8131020F813201FFA8AF3BA
:104E4000BDF80C3077459CD1591C023389B29BB216
:104E500049005B004FF400474752009AC7522E4B5F
:104E600056081F6800221423C4F80425C4F80C2532
:104E7000C4F80835C4F81425C4F81025C4F8200572
:104E8000C4F82465C4F82825C4F82C25EB7907EB71
:104E9000031C1B010121FE5C9CF8013003F01F0381
:104EA00043EA4613C4F86035C4F80015C4F810216D
:104EB000A160D4F81031002BFBD000234FF0FF325B
:104EC000C4F81031C4F80035C4F8602501F07CF84E
:104ED00000F006FE286105B0BDE8F08FD4F860351B
:104EE000002BBFF6B7AED4F86435002BBFF6B2AED8
:104EF000D4F86835002BBFF6ADAED4F86C35002B76
:104F0000BFF6A8AE25E700BFA0E20B0000C001403D
:104F10000010024000200240B4E60320001000E030
:104F200000ED00E0D4F86435002BBFF68DAED4F868
:104F30006835002BBFF688AED4F86C35002BBFF671
:104F400083AE06E770470423022183E708B500F02B
:104F5000DFFD014B186008BDB4E603202DE9F04FDA
:104F600085B01F46BDF93880BDF83C30A8EB02097A
:104F7000A7EB010AB9F1000FB8BFC9F10009BAF1F6
:104F8000000FB8BFCAF1000AD14583460C4615464A
:104F900004DD3A462C4647460D469046BC4205DDA8
:104FA0002A464546904622463C4617463E1BB2B22C
:104FB0000092A8EB050282EAE271A1EBE271C6F36E
:104FC000C03202FA86F64545B4BF01224FF0FF32E7
:104FD000019176100292BC421CDCDBF800200393A6
:104FE000D145D2F81080C7BF294622462A4621461D
:104FF0005846C047019A039BB61AB1B236B2002E8A
:1050000005DA029A1544009A56182DB236B20134C8
:1050100024B2E0E705B0BDE8F08F2DE9F347BDF815
:105020002C800768BDF92890CDF800800446FF6900
:1050300016468A461D46B8472368CDF8008009F118
:10504000FF323244DF6951462B46204612B2B84740
:105050002368CDF800809F6932464B465146204672
:10506000B8476B1E03EB0A012368CDF828809D69C1
:1050700032464B4609B22046AC4602B0BDE8F04786
:10508000604737B5013B13440468BDF818500195DB
:105090001BB2009364690B46A04703B030BD37B51F
:1050A000BDF818500468CDE90025013B0B44646944
:1050B0001BB2A04703B030BD2DE9F347BDF92890DE
:1050C000BDF82C80054692460C46CE18B4420BDA49
:1050D0002B68CDF800809F6921464B4652462846F2
:1050E0000134B84724B2F1E702B0BDE8F08713B548
:1050F00002680191B0F90E100091546AB0F90C30B9
:1051000000221146A04702B010BD704730B5428161
:10511000C2814FF0FF320024054D426101224460FC
:1051200005600181818104610283827630BD00BF08
:10513000B8E70B002DE9F04F89B0CDE90323BDF9A5
:105140004870BDF94C300593FA1DCDE9010148BF07
:1051500007F10E020024BDF850304FEAE20B25465D
:105160004FF0800905992AB291422ADD049A02EB98
:10517000040A039A2A444FF0000812B20FFA88F08A
:1051800087421FFA88F119DDC0101AF800C001F03B
:10519000070049FA00F01CEA000F0CD00298014405
:1051A000019800680069CDE90623064609B2019816
:1051B000B047DDE9062308F10108DFE701355C446B
:1051C000D0E709B0BDE8F08F2DE9F04F2DED028B4F
:1051D0008DB007460491BDF860100591BDF86410CC
:1051E0000691B0F90C1004989DF86850814252DD88
:1051F000B7F90E1091424EDD062111FB0504002C7B
:1052000049DD02EBC504002C45DD03EB83030B9362
:1052100093B2079308339BB2089100240993052C9D
:105220001CBF2C4B0B9A079E16BF1B1900239B5CBF
:105230000393049AABB20A9304FB05F313FA82F3C7
:105240001BB204EB020A08EE103AB0460FFA85F9D9
:105250000FFA8AFA039BDB072FD5012D3B681FD17C
:10526000D3F810B0059B32B251463846D847039B5D
:105270005B0803930A9B01369844099BB6B2B3427C
:105280001FFA88F8E6D1089B013B013413F0FF03B5
:1052900064B20893C3D10DB0BDEC028BBDE8F08FB2
:1052A000059ACDE9009218EE101AD3F824B00FFA3F
:1052B00088F24B463846D847D9E7DDE905239342C3
:1052C000D5D0012D3B6803D1D3F810B0069BCAE7B7
:1052D000069AE6E7B4E20B0030B50A2985B0044629
:1052E00007D1027E638A03EBC20363820023238219
:1052F00021E00D291FD0037E0293C38A0193838A84
:105300000093B0F912200B46B0F91010FFF75CFFC4
:10531000207E238A00EB400103EB4103A17E1BB2F8
:105320000246238239B1B4F90C106FF0050505FB74
:1053300000118B42D6DC012005B030BD01824282D3
:105340007047012938BF012101767047C1828182EF
:105350007047407E704701F00303B0F90A2043769E
:10536000C907B0F9083059BF8381C2818281C381E6
:105370007047B0F90C007047B0F90E00704700009C
:10538000F0B5457EBDF81440022D69D0032D00F024
:105390009980012D6CD10589D2432A4412B2002A8A
:1053A0005DDBB0F90850954259DD0029BEBF5B189E
:1053B0001BB20021B0F90A00CD188542C4BF431AC0
:1053C0001BB2002B4BDDC1F3C400DFF820C102EBA0
:1053D000C01211F00701DBB20CEB02001AD0C1F1D0
:1053E0000805404EEDB2AB42775D3FBFA5EB030E23
:1053F000FF2646FA0EF637401CF80260012C0CBF5F
:105400003E43BE43AB420CF8026028D308390B443C
:10541000DBB28030072B19D9012C4FF0FF3518BFB4
:105420000025EDB200F180011A46083AD2B2072AEF
:1054300001F8805C01F18001F7D8A3F10802C2F302
:10544000C402013200EBC21003F007033BB1264A4D
:10545000D25C0378012C0CBF134393430370F0BD5F
:105460004589D2432A44CD180189491B12B209B299
:10547000002AF4DBB0F90A509542F0DD0029BEBFE6
:105480005B181BB20021B0F90870CE18BE42C4BF31
:105490006B1A1BB2002BE2DDD010802510FB05112A
:1054A0001248014402F0070001228240012CD2B2CE
:1054B0000B440CD18B42D2D011F8010B104301F8F0
:1054C000010CF7E7CD184189491B09B267E7D243C0
:1054D000D2B28B42C3D011F8010B104001F8010C7D
:1054E000F7E700BF70E1032068E1032078E10320C3
:1054F000F0B5457EBDF81440022D34D0032D00F0E8
:105500009B80012D37D1D5180289521B12B2002978
:10551000C0F29180B0F90A508D4240F38C80002A8D
:10552000BEBF9B181BB20022B0F90870D618BE424D
:10553000C4BFAB1A1BB2002B7DDDC810802510FB49
:1055400005224548024401F0070001218140012C59
:10555000C9B2134475D19A426DD012F8010B0843B9
:1055600002F8010CF7E70589C9432944D518428997
:10557000521B09B212B200295DDBB0F908508D420E
:1055800059DD002ABEBF9B181BB20022B0F90A00E9
:10559000D5188542C4BF831A1BB2002B4BDDC2F362
:1055A000C400DFF8B4C001EBC01112F00702DBB297
:1055B0000CEB01001AD0C2F10805284EEDB2AB4247
:1055C000775D3FBFA5EB030EFF2646FA0EF6374088
:1055D0001CF80160012C0CBF3E43BE43AB420CF8EB
:1055E000016028D3083A1344DBB28030072B19D965
:1055F000012C4FF0FF3518BF0025EDB200F18001FE
:105600001A46083AD2B2072A01F8805C01F18001FB
:10561000F7D8A3F10802C2F3C402013200EBC210B2
:1056200003F007033BB10E4AD25C0378012C0CBF98
:10563000134393430370F0BD4589C943294409B21C
:1056400065E7C943C9B29A42F5D012F8010B084088
:1056500002F8010CF7E700BF78E1032070E10320B6
:1056600068E1032070470000F8B50D1E0646144699
:105670001F462DDBFFF77DFEA84229DD002C27DB2E
:105680003046FFF779FEA04222DD3046FFF761FE8B
:1056900002281ED0032825D0012804D13389E243F3
:1056A0001A442C4615B2002C2246B8BFE21DD21077
:1056B000802112FB01550E49012204F007044B57CB
:1056C00002FA04F464B297420CBF2343A3434B5540
:1056D000F8BD318972890139E4434D1B14442DB260
:1056E00024B2E0E77389013B5B1B25461CB2DAE775
:1056F00078E1032010B524210446FEF7D0FC2046B3
:1057000010BD000038B5402204460D468021FFF749
:10571000FDFC064B2360FF2384F8213063774FF6AE
:10572000FF73E38384F82050204638BDF0E70B0078
:1057300002484FF48062002103F044BC78E103206A
:1057400013B50B4C2178BFF35B8F11F001010BD126
:1057500020460191FEF7B2FC019928B1054800F0FE
:105760000FFF2046FEF7AFFC024802B010BD00BF9D
:10577000B8E60320BCE6032007B590F8223043B119
:105780000191FFF7DDFF019903B05DF804EB00F034
:10579000ABBF0B46817F407F012203B05DF804EB75
:1057A00001F004BD38B590F91D30013304460D46B3
:1057B0001DD090F92100012180B201F0DEFC94F9A6
:1057C0001F00002180B201F0D8FC94F921000021D3
:1057D00080B201F0D2FC29462046FFF7CDFF94F9B4
:1057E00021000121BDE8384080B201F0C6BC01F0C3
:1057F0001BFD94F91B1000F0DEFC01F015FD0368A1
:1058000000219B68984701F00FFD036829469B68BB
:10581000984701F009FDBDE8384000F0D3BC000016
:10582000F8B521210446FFF7BDFF00212046FFF710
:10583000B9FF7F212046FFF7B5FF22212046FFF761
:10584000B1FF00212046FFF7ADFF07212046FFF7FB
:10585000A9FF94F91D30294F01332AD094F9210072
:10586000012180B201F089FC94F91F00012180B26E
:1058700001F083FC94F92100002180B201F07DFC4D
:10588000012000F025F94FF48065013D17F8011B58
:105890002046ADB2FFF770FF002DF6D1012000F0D9
:1058A00017F994F921000121BDE8F84080B201F018
:1058B00064BC002501F0B8FC94F91B1000F07BFCDF
:1058C00001F0B2FC036840219B68984705F110067F
:1058D000B6B201F0A9FC0368795D9B6898476B1C20
:1058E0009DB2AE42F5D101F09FFC00F06BFCB6F525
:1058F000806F00D1F8BD3546DCE700BF78E10320BA
:1059000038B590F91D300177013304460D46C27653
:1059100000F0C98090F91F00012180B201F01CFC49
:1059200094F92100012180B201F016FC94F8223094
:10593000002B00F0A68094F92100012180B201F033
:105940001CFCFFF7FDFE012100F038FEFFF7F8FE1A
:10595000102100F0A3FEFFF7F3FE002100F042FE4D
:10596000FFF7EEFE00F016FE94F92000012180B250
:1059700001F0F2FB94F92000012180B201F0FDFB5F
:10598000012000F051FB94F92000002180B201F0C9
:10599000F4FB0A2000F048FB94F92000012180B2BA
:1059A00001F0EBFB2046AE21FFF7FCFE2046D5219F
:1059B000FFF7F8FE20468021FFF7F4FE2046A821DD
:1059C000FFF7F0FE20463F21FFF7ECFE2046D321F3
:1059D000FFF7E8FE20460021FFF7E4FE20464021C5
:1059E000FFF7E0FE8D212046FFF7DCFE012D0CBF06
:1059F000102114212046FFF7D5FE20462021FFF775
:105A0000D1FE20460021FFF7CDFE2046A121FFF761
:105A1000C9FE2046C821FFF7C5FE2046DA21FFF760
:105A2000C1FE20461221FFF7BDFE81212046FFF76F
:105A3000B9FE012D0CBF9F21CF212046FFF7B2FEFA
:105A4000D9212046FFF7AEFE012D0CBF2221F12106
:105A50002046FFF7A7FE2046DB21FFF7A3FE2046E6
:105A60004021FFF79FFE2046A421FFF79BFE204622
:105A7000A621FFF797FE2046AF21BDE83840FFF78B
:105A800091BE94F91D00012180B201F065FB94F9EB
:105A90001E00012180B201F05FFB94F82230002B40
:105AA0003FF462AF47E701F0BFFB00F051FB5BE75B
:105AB00008B5024B1B685B6C019308BD48020300EC
:105AC00008B5024B1B685B68019308BD1802030010
:105AD00008B5024B1B68DB68019308BD1802030080
:105AE00008B5024B1B681B69019308BD180203002F
:105AF00008B5024B1B685B69019308BD18020300DF
:105B000008B5024B1B68DB6D019308BD180203004A
:105B100008B5024B1B681B68019308BD2C020300EB
:105B200008B5024B1B689B68019308BD2C0203005B
:105B300008B5024B1B68DB68019308BD2C0203000B
:105B400008B5024B1B681B69019308BD2C020300BA
:105B500008B5024B1B68DB68019308BD28020300EF
:105B600008B5024B1B689B69019308BD280203001E
:105B700008B5024B1B68DB69019308BD28020300CE
:105B800008B5024B1B681B6A019308BD280203007D
:105B900008B5024B1B685B6A019308BD280203002D
:105BA00008B5024B1B689B6A019308BD28020300DD
:105BB00008B5024B1B68DB6A019308BD280203008D
:105BC00008B5024B1B681B6B019308BD280203003C
:105BD00008B5024B1B685B6B019308BD28020300EC
:105BE00008B5024B1B681B6C019308BD280203001B
:105BF00008B5024B1B681B6D019308BD280203000A
:105C000008B5024B1B685B69019308BD6C02030079
:105C100008B5024B1B685B69019308BD6402030071
:105C200008B5024B1B681B6A019308BD64020300A0
:105C300008B5024B1B689B6A019308BD6402030010
:105C400008B5024B1B689B68019308BD68020300FE
:105C500008B5024B1B68DB68019308BD68020300AE
:105C600008B5024B1B689B69019308BD380203000D
:105C700008B5024B1B68DB69019308BD38020300BD
:105C800008B5024B1B681B6A019308BD380203006C
:105C900008B5024B1B689B6A019308BD38020300DC
:105CA00008B5024B1B681B6B019308BD380203004B
:105CB00008B5024B1B689B6B019308BD38020300BB
:105CC00008B5024B1B681B68019308BD3002030036
:105CD00008B5024B1B689B68019308BD30020300A6
:105CE00008B5024B1B68DB68019308BD3002030056
:105CF00008B5024B1B681B69019308BD3002030005
:105D000008B5024B1B685B69019308BD30020300B4
:105D100008B5024B1B68DB69019308BD3002030024
:105D200008B5024B1B681B6A019308BD30020300D3
:105D300008B5024B1B685B6A019308BD3002030083
:105D400008B5024B1B681B6C019308BD30020300B1
:105D500008B5024B1B685B6C019308BD3002030061
:105D600008B5024B1B68DB68019308BD3C020300C9
:105D700008B5024B1B681B69019308BD3C02030078
:105D800008B5024B1B685B69019308BD3C02030028
:105D900008B5024B1B689B69019308BD3C020300D8
:105DA00008B5024B1B68DB69019308BD3C02030088
:105DB00008B5024B1B681B6A019308BD3C02030037
:105DC00008B5024B1B689B6A019308BD3C020300A7
:105DD00008B5024B1B681B6C019308BD3C02030015
:105DE00008B5024B1B681B68019308BD4C020300F9
:105DF00008B5024B1B685B68019308BD4C020300A9
:105E000008B5024B1B681B69019308BD4C020300D7
:105E100008B5024B1B685B69019308BD4C02030087
:105E200008B5024B1B689B69019308BD4C02030037
:105E300008B5024B1B68DB69019308BD4C020300E7
:105E400008B5024B1B681B6A019308BD4C02030096
:105E500008B5024B1B689B6A019308BD4C02030006
:105E600008B5024B1B685B6B019308BD6002030021
:105E700008B5024B1B681B6D019308BD600203004F
:105E800008B5024B1B685B68019308BD2002030044
:105E900008B5024B1B685B69019308BD2002030033
:105EA00008B5034B1B68D3F88830019308BD000088
:105EB0002002030008B5034B1B68D3F8943001930C
:105EC00008BD00002002030008B5024B1B689B6858
:105ED000019308BD4402030008B5024B1B68DB6B4D
:105EE000019308BD4402030008B5024B1B685B68C0
:105EF000019308BD4002030008B5024B1B689B6874
:105F0000019308BD4002030008B5024B1B68DB6823
:105F1000019308BD4002030008B5024B1B681B69D2
:105F2000019308BD4002030008B5024B1B685B6982
:105F3000019308BD4002030008B5024B1B689B6932
:105F4000019308BD4002030008B5024B1B68DB69E2
:105F5000019308BD4002030008B5024B1B681B6A91
:105F6000019308BD4002030008B5024B1B689B6A01
:105F7000019308BD4002030008B5024B1B681B6B70
:105F8000019308BD4002030008B5024B1B685B6B20
:105F9000019308BD4002030008B5024B1B681B6C4F
:105FA000019308BD4002030008B5024B1B685B6CFF
:105FB000019308BD4002030008B5024B1B681B6833
:105FC000019308BD1C02030008B5024B1B685B6807
:105FD000019308BD1C02030008B5024B1B689B68B7
:105FE000019308BD1C02030008B5024B1B685B6AE5
:105FF000019308BD1C02030008B5024B1B68DB6B54
:10600000019308BD1C02030008B5024B1B681B6C02
:10601000019308BD1C02030008B5024B1B685B6CB2
:10602000019308BD1C0203000021FFF731BF0000EF
:10603000024800230360FFF73BBD00BFC4E6032016
:10604000002240681146FFF787BF002240681146D2
:10605000FFF79ABF40680022FFF78EBF406800221A
:1060600081F00101FFF770BF002340681A4619460E
:10607000FFF762BF002340681A461946FFF754BF76
:10608000002240681146FFF747BF002240681146D2
:10609000FFF732BF406800220221FFF735BF00231F
:1060A00040681A46FFF720BF024B03225A60024A9B
:1060B0001A607047C8E6032030E80B007047F8B557
:1060C000064615460C468F18BC4206D0336814F8B5
:1060D000011B9B6830469847F6E72846F8BD007CD0
:1060E0000022FFF74DBD007C0021FFF751BD007C71
:1060F0000021FFF755BD007C0021FFF759BD007C52
:106100000021FFF75DBD10B514210446FDF7C7FF60
:10611000204610BD38B5044615464FF47A73002268
:10612000C4E90123094B2174084623602946FFF77F
:1061300057FDBF3008D16B69DB0705D56868FFF7ED
:1061400043FFE868FFF740FF204638BD6CE80B00CE
:106150000023007C1A461946FFF7FABC7FB50022DF
:106160001423CDE90122ADF804300B788DF8083006
:106170004B680393CB680493007C0B7A059301A9C9
:10618000FFF736FD07B05DF804FB1FB5003B8DF847
:1061900000104FF06401039118BF0123694601927A
:1061A0008DF80830FFF7DAFF05B05DF804FB007CDE
:1061B0000022FFF7D5BCC9B2FFF7F9BF007C00226F
:1061C000FFF7D6BC0121FFF7F9BF704710B51821C2
:1061D0000446FDF764FF204610BDF0B5037D062B95
:1061E0008DB00E4600F104074FF0000412D000F10C
:1061F000080515F8011D0A22304600F066F9AF4285
:10620000044419D0002CF4D02E21304600F04EF971
:106210000444EEE72F236A4639460A208DF80040F1
:10622000FFF7F6FC684602F00DFF33680246DB68B4
:10623000694630469847044620460DB0F0BD000040
:1062400010B5054B0446112240F8043B002102F032
:10625000B9FE204610BD00BF94E80B000346074A74
:1062600010B543F8042B01F1100251F8044B43F828
:10627000044B9142F9D10A781A7010BD94E80B00D2
:10628000037D042B04D14068003818BF01207047FB
:10629000062B07D143683BB983682BB9C3681BB988
:1062A0000069F1E7002070470120704710B59DF8A4
:1062B000084044EA032343EA024242EA016104231C
:1062C0004160037510BD000007B5064B0360CB7835
:1062D00000938B784A780978FFF7E8FF03B05DF800
:1062E00004FB00BF94E80B00014B024A1A607047A0
:1062F000D0E60320A0E80B00002340681A46FFF711
:10630000F3BD406800220221FFF7FEBD0022406875
:106310001146FFF7F1BD002240681146FFF7FCBDB2
:10632000002340681A461946FFF7FEBD0023406867
:106330001A461946FFF700BE40680021FFF72CBE41
:1063400040680021FFF730BE4068002281F0010163
:10635000FFF7FABD40680022FFF70EBE002240683A
:106360001146FFF711BE002240681146FFF7F4BD49
:106370002DE9F04395B014460D460746FFF760FF40
:1063800000211C220DA8009102F01CFE40230C935A
:1063900020466B460CAA0021FFF75AFC0446002851
:1063A0004BD1024601216868FFF7B6FD0221804605
:1063B00022466868FFF7B0FD009E81462146002E08
:1063C0003BD0002939D17368022B03D00A2B11D09E
:1063D000F669F4E7B8F1000FFAD0716906A8043144
:1063E00007ADFFF771FF0FCD3C1D0FC42B68237065
:1063F0004146EDE7B9F1000FEAD07469102201A817
:1064000002F0E0FD06238DF8143001AD04F108031D
:106410001834186859682A4603C20833A34215463F
:10642000F7D101A906A807ADFFF718FF0FCD3C1D56
:106430000FC42B6823704946CAE70098FFF700FC99
:10644000384615B0BDE8F083024B034A1A600022BB
:106450005A607047D4E60320ACE80B00F8B5064656
:106460000D468F180024BD420CD0336815F8011B6F
:106470009B6830469847031E01DB1C44F3E7002C61
:1064800008BF1C462046F8BD13B50446084659B15E
:10649000019102F0D7FD23680199DB68024620468E
:1064A00002B0BDE81040184702B010BD03689B68F9
:1064B000184738B50D210546FFF7F8FF0A210446B5
:1064C0002846FFF7F3FF204438BD30B58BB00023DA
:1064D000012A8DF8243098BF0A2209AC0D46B1FB81
:1064E000F2F101FB125303F0FF03092B94BF303389
:1064F0003733DBB2AA4204F8013DEFD92146FFF75A
:10650000C3FF0BB030BD2DE9F04186B000AF0546AA
:106510000E46381D142114463B60FFF765FD132815
:106520000ED8391D2846FFF7AFFF04461EB1284696
:10653000FFF7BFFF044420461837BD46BDE8F08191
:1065400000F1080323F00703E846ADEB030D2246F4
:10655000411C3B686846FFF747FD69462846FFF740
:1065600093FF0446C546E1E7014B00229A6070475D
:10657000DCE603200021FFF7EBBB0021FFF7E0BBC7
:1065800010B5044608462170FFF7C2FB0023636084
:10659000204610BD13B504460078FFF7EEFF58B94A
:1065A000207801904FF6FF71FFF78AFB019802B047
:1065B000BDE81040FFF7DEBF02B010BD13B50446C2
:1065C00000780191FFF7D9FF019948B9207801902F
:1065D000FFF77EFB019802B0BDE81040FFF7CABF8D
:1065E00002B010BD13B5044600780191FFF7C5FF56
:1065F000019948B920780190FFF772FB019802B029
:10660000BDE81040FFF7B6BF02B010BD400830B57E
:106610001860002418688842E5B206D90134082CB5
:1066200002D040081860F5E70725024B5B5D137048
:1066300030BD00BFE0E80B002DE9F04188B0002339
:106640000446007802930E461746FFF796FF05466C
:1066500000BB94F800800146142203A802F0B2FCAB
:106660000B232A4603A94046ADF80C30FFF760FB28
:1066700004988DF8075002AB0DF1070207FB06F1F5
:10668000FFF7C4FF20789DF80710FFF731FB207853
:10669000FFF770FF029808B0BDE8F08138B50446F6
:1066A00000780D46FFF769FF0346D0B9616899B1DC
:1066B0000C4A12F8010B854202D00133082BF8D1A5
:1066C0000133DBB20122D9402046FFF7B5FF207825
:1066D000BDE83840FFF74EBF20782946FFF708FB9A
:1066E000F5E738BDE0E80B0008B50078FFF708FBD8
:1066F000C0B208BD10B50446006808B1FFF764FCDD
:106700000023C4E90133236010BD38B504460D46AB
:1067100000680131FFF760FC10B1C4E900050120F9
:1067200038BD10B50368044623B143688B4201D3DA
:10673000012010BD2046FFF7E8FF0028F9D0A3682C
:10674000002BF5D122681370F2E737B50D461146DC
:1067500001920446FFF7E5FF019A28B92046FFF7AA
:10676000C9FF204603B030BDA2602946206802F070
:106770001BFC2268A3680021D154F2E7002313B563
:10678000C0E9003304468360037341B108460191B8
:1067900002F058FC019902462046FFF7D6FF20463A
:1067A00002B010BD054B02221A60054B054A9A60E3
:1067B0000020C3E90000FFF763BB00BFF8E6032039
:1067C000ECE603200000FFFF13B503688DF8071007
:1067D000DC6B01224FF0FF330DF10701A04702B03F
:1067E00010BD10B40368DC6B4FF0FF33A4465DF8B6
:1067F000044B604713B5134602688DF80710D46B3D
:106800000DF107010122A04702B010BD10B5436988
:10681000B3F88620B3F884309A42044608D06369FE
:10682000B3F88420511CA3F884101344187910BDC8
:1068300003681B6998470028F1D14FF0FF30F6E755
:10684000704743691868C043C00F70477047000025
:10685000064B994210B500F10C0405D0084600F033
:1068600049FD002808BF0024204610BD20E80B0089
:1068700010B5AC210446FDF712FC204610BDAC213A
:10688000FDF70DBC2DE9F0414FF0000886B01C4625
:10689000C0F8048005460E4617464146102202A85D
:1068A00002F090FB631C09D04FF47A73B4FBF3F24F
:1068B00003FB1244CDE902285C4304946869102369
:1068C0000093006802AB41F2050240F6FF71FFF74A
:1068D000C7F9002807DAFFF78FFB03686B60002019
:1068E00006B0BDE8F0816869002300683A46314689
:1068F000FFF7D6F9031EEEDB1846F1E730B587B097
:10690000044601AD6846FFF7DFFC0FCD04340FC429
:106910002B68237007B030BD70B54D69054B044638
:106920008C3544F8043B06460FCD0FC42B6823700A
:10693000304670BD94E80B002DE9F043984603689B
:1069400093B00D460024DB6A064617469847284652
:106950006B46224621460094FFF77AF90546002847
:1069600063D1009B002B4BD05B69002B48D006A85D
:10697000FFF766FC009B5C696378022B04D1211D44
:1069800006A8FFF7BBFF26E00A2B24D111222946D7
:1069900001A802F017FBA368002B38D004F108030C
:1069A0000DF1040C183418685968624603C20833A4
:1069B000A3429446F7D1062301A90CA88DF8143000
:1069C000FFF74CFC0DF1340CBCE80F0007AC0FC412
:1069D000DCF80030237006A8FFF752FC80B1336862
:1069E00007ADD3F82090124B0C930FCD0DAC0FC414
:1069F0002B6823703A4643460CA93046C8470546E3
:106A00000098FFF71DF9284613B0BDE8F083E3684E
:106A1000002BC3D14FF6FF70D4F81090FFF700F9A8
:106A20008145BBD104F11401AAE72546E8E700BF80
:106A300094E80B0038B543691A68002A054610DA55
:106A4000B3F88620B3F884309A420AD103681B69F0
:106A50009847044628B92B682846DB6A98472046A1
:106A600038BD0120FCE710B54369B3F88620B3F8C0
:106A700084309A42044605D06369B3F884201344F5
:106A8000187910BD03681B6998470028F4D14FF0AE
:106A9000FF30F6E7F8B543691746B3F88620B3F838
:106AA00084309A4205460E4616D06969B1F88430A2
:106AB000B1F88640E41ABC4228BF3C460433224663
:106AC0001944304602F070FA6A69B2F884302344FF
:106AD000A2F884302046F8BD03681B699847002857
:106AE000E3D14FF0FF34F5E742690023A2F8843088
:106AF0004269A2F8863070472DE9F0411F460368CD
:106B00000C46DB6A8AB0054616469847237DD5F8C1
:106B10001480042B0CBF02200A2006220121FFF75B
:106B2000C7F8C8F800006B691B68002B08DA2B68EF
:106B30002846DB6A0024984720460AB0BDE8F08169
:106B40002846FFF7D1FFB7B1002303A9F8B203939A
:106B5000ADF81030FFF754F80028E8D16869062333
:106B60000093006803AB41F20B0240F6FF71FFF7A0
:106B700077F80028DBD11C22002103A802F022FABA
:106B8000237D042B1DD14FF407733046ADF80C3034
:106B9000FFF74EF8ADF80E006068FFF741F804907B
:106BA0006B691C22186803A9FFF76AF80028BED198
:106BB00004340FCC6D698C350FC523682B7001240C
:106BC000BAE740F61C233046ADF80C30FFF730F83A
:106BD00005AEADF80E00231D04F1140718685968BE
:106BE000324603C20833BB421646F7D1D8E700004D
:106BF00030B54269B2F886308BB004462BB1B2F89A
:106C000084209A4201D1FFF76FFF6169086800286C
:106C100018DBB1F886507F2D14D804310823C5F154
:106C200080022944FFF734F8002813DD6369B3F8C4
:106C300086200AB9A3F884206369B3F8862010443B
:106C4000A3F886006369B3F88600B3F88430C01AED
:106C50000BB030BDFFF7D0F903680B2BF2D0FFF774
:106C6000CBF903680B2BEDD020230025CDE90235AD
:106C7000FFF7C2F903680193084B0949009302AA80
:106C80002B463220FFF7F4F863691868FEF7F0FF2F
:106C900063694FF0FF321A60D4E700BFEFE80B00E2
:106CA000E8E80B0010B5436904461868002801DBCA
:106CB000FEF7DEFF63694FF0FF321A606069112250
:106CC00000218C3002F07EF92046BDE81040FFF72D
:106CD0000BBF10B5002304460160C0F88430883033
:106CE000FFF7AEFA204610BD73B500234FF47A7259
:106CF000C0E901320E4A0361026043610446AC20E0
:106D00000191FDF7C8F9051E05F10C0608D0012315
:106D1000C5E90133074B01992B603046FFF7D9FFD6
:106D20002046C4E90565FFF7DFFE02B070BD00BF75
:106D300024E90B0008E90B0010B54FF0FF310446C1
:106D4000FFF7D2FF204610BD10B5044600680028AA
:106D500001DBFEF78DFF204610BD0C30FFF7F4BFBE
:106D6000024B1A68024B1A60704700BF78E5032097
:106D7000FCE6032070474174704708B5007CFFF7BC
:106D80001FF820EAE07008BD08B5007CFEF7F0FFB0
:106D900020EAE07008BD08B5007CFEF7F9FF40EA84
:106DA000E07008BD08B5007CFEF7EAFF40EAE0703D
:106DB00008BD007CFEF7F4BF37B5457C04462DB115
:106DC000207C03B0BDE83040FEF7CABF007C0191D3
:106DD000FEF7F6FF00280199F2DC284603B030BD2B
:106DE00010B514210446FDF75AF9204610BD0000E5
:106DF00010B54FF47A730446084611460022C4E9E0
:106E00000123044B2360012320746374FEF7E0FF29
:106E1000204610BD8CE90B004174704770477047E5
:106E200008B50021007CFEF7FBFF40EAE07008BDDA
:106E300008B50121007CFEF7F3FF40EAE07008BDD1
:106E400008B5007CFEF7E4FF20EAE07008BD08B555
:106E5000007CFEF7D5FF20EAE07008BD13B50446BC
:106E6000007C0191FEF7D4FF0028019901DC607CD1
:106E700020B1207CFEF7DCFF20EAE07002B010BDFC
:106E8000007CFEF7DDBF10B514210446FDF707F9BD
:106E9000204610BD10B54FF47A7304460846002111
:106EA000C4E90113044B2360012320746374114669
:106EB000FEF796FF204610BDBCE90B00007C0022C7
:106EC000FEF796BF007CFEF7C3BF10B51422044640
:106ED000002102F077F8204610BD000010B50F4CDD
:106EE00088B003A8FFF7F1FF2178BFF35B8F11F0A3
:106EF00001010FD120460191FDF7E0F8019948B159
:106F000003AA0748FFF7C6FF2046FDF7DCF805484F
:106F100002F044F8024808B010BD00BF00E70320AB
:106F200004E703201D6E0B00002240681146FEF7A7
:106F3000F3BF002240681146FFF70EB800224068F8
:106F40001146FFF721B840680022FFF715B84068E6
:106F5000002281F00101FEF7F7BF002340681A46C6
:106F60001946FEF7E9BF002340681A461946FEF7A6
:106F7000DBBF002240681146FEF7BEBF406800221A
:106F80000221FEF7C1BF002340681A46FEF7ACBFDE
:106F9000024B04225A60024A1A60704718E7032025
:106FA000ECE90B00014B1860704700BF80E503203F
:106FB00008B50B4B43B1FFF791FF03681B69984776
:106FC000002801DDAFF30080064B43B100F06CF9FF
:106FD00003681B699847002801DDAFF3008008BDF6
:106FE000000000000000000008B5FFF7E1FFFEF719
:106FF0007FFD014B186008BD28E703200548064ABD
:10700000064908B5121A01F0CFFF054B054A1A6070
:1070100008BD00BF00F4032004F40320F4EB0B00D0
:1070200000F403201E1C279A07B5002300931A467C
:107030006FF07701FEF73EFF03B05DF804FB000040
:1070400007B543880A2B08D0502B0BD1094B1B687E
:107050004BB103B05DF804EB1847FFF7E5FF03B051
:107060005DF804FB002300931A466FF07701FEF7EA
:1070700021FFF4E724E7032010B512480021FEF7B2
:10708000CBFF114B1A68114B9A42114B0CBF0122D6
:1070900000221A7001D0FFF7B1FFFEF711FD044680
:1070A00001F098FF0B4B13B12046AFF30080002195
:1070B0000848FEF711FFBDE8104007480021FEF721
:1070C000EFBE00BFA56F0B0000F403201E1C279A23
:1070D00020E703200000000041700B00232813B5B7
:1070E00002D9002002B010BDA0F10B03022B1AD868
:1070F000174C2178BFF35B8F11F001010BD12046B3
:107100000191FCF7DBFF019928B11248FFF738FA2B
:107110002046FCF7D8FF0F4B1878FEF701FE002839
:10712000DFD10120DEE7012809D800F07DF8002139
:10713000007CFEF74DFD80F00100C0B2D2E70938B7
:107140000128EED800F0B0F8007CFEF731FEF2E73F
:10715000B8E60320BCE60320232838B504460D46D4
:107160000AD8FF2908D0FFF7B9FF28B129462046E1
:10717000BDE83840FEF7D4BC38BD38B504460D46EE
:10718000FEF7D6FCFF2810D0062804D84D2323FA9A
:1071900000F0C30709D42046FFF7A0FF28B1294615
:1071A0002046BDE83840FEF7CBBC38BD2DE9F041A4
:1071B00090461F46072406460D46C4F10701B8F164
:1071C000000F12D147FA01F101F001013046FFF73B
:1071D000D4FF01212846FFF7D0FF00212846FFF702
:1071E000CCFF013CE9D2BDE8F08147FA04F1EBE7BE
:1071F0007047000038B50A4B036001230446436121
:107200000849202000F074F8202560600549A56039
:10721000284600F06DF8C4E90305204638BD00BFDC
:107220001800010020EA0B0030B50E4D2978BFF39D
:107230005B8F11F0010487B011D12846FCF73EFFA7
:1072400068B16846FFF7D6FF6A4621460648FEF752
:1072500061FF2846FCF737FF044801F09FFE024813
:1072600007B030BD2CE7032030E70320F1710B009D
:107270007047000038B5044614252A46002101F065
:10728000A1FE25804025074925812846258200F05A
:107290002FF804496060284600F02AF8E060204694
:1072A00038BD00BF20EA0B0030B50E4D2978BFF382
:1072B0005B8F11F0010487B011D12846FCF7FEFE68
:1072C00068B101A8FFF7D6FF01AA21460648FFF7DB
:1072D0008FFD2846FCF7F7FE044801F05FFE0248E8
:1072E00007B030BD44E7032048E7032071720B006C
:1072F000FCF7D3BE014900F0F9B800BF3CEA0B002F
:107300007FB500241023CDE90234036815469E6939
:1073100012686B46CDE90044B0479DF8043003F095
:107320000603062B03BF009B2B600120204604B000
:1073300070BD0098904214BF0120062070470000E5
:1073400010B5034B0360044600F0CDF8204610BD95
:107350007CEA0B0010B50446FFF7F2FF2046082137
:10736000FCF79DFE204610BD2DE9F0411F46DDE9EA
:107370000834DDF8188098450646154607D1079968
:1073800000F0B4F818B165710020BDE8F08139460D
:10739000304600F0ABF80028F6D00123C4F8008096
:1073A0002571A371F0E738B515461C4600F09EF82C
:1073B00020B10823E36006232560237138BD73B52F
:1073C00005460C4601921E4600F090F850B9032E77
:1073D00008D82368019A5B692946204602B0BDE8B7
:1073E0007040184702B070BD10B5034B03600446EF
:1073F000FFF7A6FF204610BDDCEA0B0010B50446DF
:10740000FFF7F2FF20460C21FCF749FE204610BD95
:10741000F7B5089F974205460E4614460AD0A8685D
:1074200002680897156A31462246AC4603B0BDE8AB
:10743000F04060471946019300F058F8019B00287E
:10744000EDD0062003B0F0BD2DE9F14F0D461946F1
:10745000DDE90A4BDDE90CA681461746984600F0A7
:1074600045F890B1002D3460377109DB61198A4508
:107470000CBF06210121B171002001B0BDE8F08FE1
:107480000235F9D10123B371F6E7544506D15946C7
:10749000484600F02BF808B17771EDE7D9F80800FD
:1074A0000368CDE90CA6CDE90A4BDC693A464346B0
:1074B0002946A44601B0BDE8F04F60472DE9F041F0
:1074C00007460C4615461E46FFF76DFF48B9B868DB
:1074D00003689F692A4633462146BC46BDE8F04111
:1074E0006047BDE8F081704700207047814208B5D1
:1074F0000ED0406803782A2B0CD049680B782A2BD1
:1075000008BF013101F094FDB0FA80F0400908BDD8
:107510000120FCE70020FAE7F8B52DED028B57ECCF
:10752000106B55EC114B00F0CBF8634BB0EE408A7A
:10753000F0EE608A93F9003001332AD022462B46C0
:107540002046294601F0C4FC18BB32463B46304673
:10755000394601F0BDFC002844D10022002330460A
:10756000394601F083FCD8B1002200232046294689
:1075700001F07CFC00283DD145EC104B00F010FFE1
:1075800038B1204629460022002301F079FC00286A
:107590005CD1B0EE480AF0EE680ABDEC028BF8BD93
:1075A000B0EE480AF0EE680A00F0FAFE58B351EC6B
:1075B000180B0022002301F059FC0028E9D047EC09
:1075C000106B00F0EDFE0028E3D045EC104B00F00E
:1075D000E7FE0028DDD0FEF70FFD22239FED2E8B66
:1075E0000360D6E7204629460022002301F03EFC36
:1075F0000028CED09FED2A8BB0EE480AF0EE680A44
:10760000BDEC028BF8BD47EC106B00F0C9FE002802
:10761000CDD045EC104B00F0C3FE0028C7D053EC92
:10762000182B18EE100A194601F052FC20BBFEF789
:10763000E3FC034622221A6030463946002200232A
:1076400001F01EFC48B99FED188BA2E7FEF7D4FCB1
:1076500021239FED178B03609BE745EC104B00F057
:10766000B3FE224651EC100B2B4601F0FFFB002825
:10767000E9D19FED0F8B8CE7FEF7BEFC00220023C3
:10768000212101601046194601F0B2FA41EC180BB5
:107690007FE700BFAFF300800000000000000000A3
:1076A000000000000000F03F000000000000F07F3C
:1076B000000000000000F0FF7CE503200000000057
:1076C0002DE9F04F57EC116B2DED0C8B27F0004A94
:1076D0005AEA060287B03DD055EC104B724925F0AE
:1076E0000048884510EE102AA9462CDC11EE103A0D
:1076F000BB4636D08A4526DC6B498A4521D0B9F194
:10770000000F39DB00210091002B51D1664B9A45C7
:1077100000F0A280654B9A4500F0B080BBF1804F2D
:1077200000F0C084624B9B4542D1B9F1000F3FDBB2
:1077300045EC104B07B0BDEC0C8BBDE8F04F00F0F2
:1077400059BD002BDBD008F1404808F5801858EAF5
:10775000020309D19FED500B07B0BDEC0C8BBDE8C7
:10776000F08F0CB9C245C7DD524807B0BDEC0C8B99
:10777000BDE8F04F00F020BE4F498A4500F38580F8
:10778000A1F154718A450FDD4FEA2A51A1F2FF3170
:10779000142940F39B84C1F1340123FA01F000FA6B
:1077A00001F1994200F0ED8400210091002BB1D04D
:1077B00045EC104B029200F0E9FD029A5ABBB8F179
:1077C000000F04D0394B29F040429A4223D1BBF13B
:1077D000000F07DA53EC102B3449002001F008FAAF
:1077E00041EC100BB9F1000FB6DA009B08F14048EC
:1077F00008F5801858EA030340F08D8453EC102BF1
:107800001046194600F012FF02460B4601F0F0F94F
:1078100041EC100BA0E7009A4FEAD973013B0493A7
:10782000134335D0254B9A454CDD03F104739A453B
:10783000234B40F3DB83984540F36083BBF1000F9B
:1078400040F3608316A3D3E900231046194601F0E4
:10785000A5F841EC100B7FE708F1404303F58013D6
:1078600013433FF477AF164B984540F37A83BBF14F
:10787000000FC0F2478347EC106B6DE7BBF1000FC0
:10788000C0F21A8445EC104B66E7022100913BE7F9
:1078900022462B46B4E700BF000000000000F03F86
:1078A0009C7500883CE4377E0000F07F0000F03FCC
:1078B0000000E03F18EB0B00FFFF3F430000E041FA
:1078C000FFFFEF3FE44B09EA0303002253B951ECF9
:1078D000100BE24B01F062F841EC100B10EE908AB5
:1078E0006FF034024FEA2853A3F2FF339A18DC4BAF
:1078F0000592C8F3130848F07F54984544F44014A7
:1079000007DDD84B984540F3148401320592A4F565
:1079100080149FEDB96B9FEDBA7B53EC162BB0EE44
:1079200047CAF0EE67CA0025B0EE47DAF0EE67DA34
:107930005BEC10ABA3465046594643EC1A2B00F0C3
:1079400075FE53EC1A2B804689465046594600F086
:107950006FFE02460B460020C34901F049F941EC95
:107960001B0B404653EC1B2B494601F017F841EC2A
:10797000180B0A460146CDE902120021029164105B
:107980004BEC19AB44F00054DDE902AB04F50023E5
:107990000020591904460D4602460B4650465946EA
:1079A00000F0FCFF02460B464046494600F03EFE12
:1079B00053EC1A2B804689462046294600F036FEB5
:1079C00002460B4651EC190B00F030FE52465B4666
:1079D00000F0E4FF02460B464046494600F026FE12
:1079E00053EC1B2B00F0DAFF53EC182B41EC190B76
:1079F00051EC180B00F0D2FF83A3D3E90023044617
:107A00000D4600F0CBFF82A3D3E9002300F010FE67
:107A100022462B4600F0C2FF7FA3D3E9002300F0EB
:107A200007FE22462B4600F0B9FF7DA3D3E90023D1
:107A300000F0FEFD22462B4600F0B0FF7AA3D3E90A
:107A4000002300F0F5FD22462B4600F0A7FF78A3A7
:107A5000D3E9002300F0ECFD2246804689462B4600
:107A60002046294600F09AFF02460B46404649460A
:107A700000F094FF524604460D465B4651EC180B4D
:107A800000F0D6FD53EC192B00F088FF22462B4660
:107A900000F0CEFD5246804689465B465046594628
:107AA00000F07CFF02460B4643EC1A2B6F4B002282
:107AB00000F0BEFD42464B4600F0BAFD00240D46E4
:107AC00022462B465046594600F068FF674B8246D7
:107AD0008B4600222046294600F0A8FD53EC1A2BC5
:107AE00000F0A4FD02460B464046494600F09EFDCC
:107AF00053EC182B00F052FF22462B4604460D464D
:107B000051EC190B00F04AFF02460B46204629466D
:107B100000F08EFD8046894642464B465046594607
:107B200000F086FD44A3D3E90023002004460D465F
:107B300000F034FF524641EC190B5B4620462946C3
:107B400000F074FD02460B464046494600F06EFDCB
:107B50003BA3D3E9002300F021FF02460B46204659
:107B6000294614461D4638A3D3E9002300F016FF2A
:107B700002460B462046294600F05AFD53EC1D2BC9
:107B800000F056FD80460598894600F09DFE42466D
:107B900082468B464B4651EC190B00F049FD53ECE5
:107BA0001C2B00F045FD52465B4600F041FD52465D
:107BB0005B46002004460D4600F038FD53EC1C2BBC
:107BC00000F034FD53EC192B00F030FD02460B465B
:107BD0004046494600F02AFD009B049A013B1343AE
:107BE00082468B4640F0B6819FED197BB0EE478A06
:107BF000F0EE678A3CE000BF000000000000F03FAC
:107C00000000000000000000EF4E454A287ECA3FF9
:107C100065DBC9934A86CD3F01411DA96074D13F00
:107C20004D268F515555D53FFFAB6FDBB66DDB3F12
:107C3000033333333333E33F000000E009C7EE3F43
:107C4000FD033ADC09C7EE3FF5015B14E02F3EBEB1
:107C5000000000000000F0BF0000F07F0000404383
:107C60008E98030079B60B000000F03F000008403A
:107C70000023CDE900670093DDE9008930464246E4
:107C80004B46394600F0D2FC22462B4600F086FED9
:107C900032463B4606460F465046594600F07EFEA9
:107CA00002460B463046394600F0C2FC42464B467F
:107CB00006460F462046294600F070FE04460D4653
:107CC0002B4630463946224600F0B2FCC24B994260
:107CD000804689468A4640F3188101F13F4303F507
:107CE000E003034340F00782A3A3D3E90023304617
:107CF000394600F09DFC02460B46404649469046F8
:107D0000994622462B4600F091FC02460B4640461F
:107D1000494601F0D3F8002840F0ED81CAF30A5338
:107D20004FF48012A3F2FE3342FA03F35344AB49FB
:107D3000C3F30A52A2F2FF3241FA02FCC3F3130169
:107D400041F48011C2F1140241FA02F2002023EA48
:107D50000C01BAF1000F00920B46024602DA0099BC
:107D6000494200912046294600F060FC009B1B051B
:107D7000029302460B4604460D463046394600F053
:107D800057FC89464FF000087DA3D3E90023404605
:107D9000494600F003FE22462B4682468B4640466B
:107DA000494600F043FC02460B463046394600F097
:107DB0003DFC75A3D3E9002300F0F0FD74A3D3E9E3
:107DC000002304460D464046494600F0E7FD0246C2
:107DD0000B462046294600F02BFC06460F4632464D
:107DE0003B465046594600F023FC52465B4604464B
:107DF0000D4600F01BFC02460B463046394600F0AB
:107E000015FC2246804689462B462046294600F02E
:107E1000C5FD61A3D3E9002306460F4600F0BEFD71
:107E20005FA3D3E9002300F001FC32463B4600F09B
:107E3000B5FD5DA3D3E9002300F0FAFB32463B46D3
:107E400000F0ACFD5AA3D3E9002300F0EFFB32466B
:107E50003B4600F0A3FD58A3D3E9002300F0E8FB64
:107E600032463B4600F09AFD02460B462046294624
:107E700000F0DCFB06460F4632463B4620462946CC
:107E800000F08CFD02460B463046394616461F462A
:107E900000224FF0804300F0C9FB02460B463046FB
:107EA000394600F0A5FE424606460F464B462046A0
:107EB000294600F073FD42464B4600F0B9FB0246EE
:107EC0000B463046394600F0B1FB22462B4600F007
:107ED000ADFB02460B460020414900F0A7FB029A89
:107EE0000B461344B3F5801FC0F24381194653EC8F
:107EF000182B00F053FD41EC100B2DE4BBF1000FEB
:107F0000FFF6A0AC9FED2E0B26E4DFF8DCC021F0DD
:107F10000043634540F3E780324B0B4403430AD1EF
:107F200022462B4600F082FB32463B4600F0BCFF67
:107F300000283FF4F3AE24A3D3E9002351EC180B3F
:107F400000F02CFD20A3D3E9002300F027FD41EC35
:107F5000100B01E49FED1E7BB0EE478AF0EE678ABE
:107F600086E6BBF1000FCDDA07F1004300EE106AA0
:107F700000EE903AFFF7F0BBFE822B654715973C69
:107F800000000000432EE63FEF39FAFE422EE63FA6
:107F9000396CA80C615C20BED0A4BE726937663E05
:107FA000F16BD2C541BDBB3E2CDE25AF6A56113FF9
:107FB00093BDBE166CC1663F3E5555555555C53FE0
:107FC000000000000000000059F3F8C21F6EA50178
:107FD000000000000000F03FFFFF8F40FFFF0F0098
:107FE0000000F03F00346F3FFFCB9040984585DBA9
:107FF0007D4B98453FF722AC51EC100B7A4B002299
:1080000000F014FB68A3D3E9002304460D4600F0FA
:10801000C5FC67A3D3E9002382468B462046294648
:1080200000F0BCFC714B41EC180B002220462946A5
:1080300000F0B4FC02460B465FA1D1E9000100F05C
:10804000F5FA22462B4600F0A9FC02460B4600201A
:10805000674900F0EBFA2246804689462B462046C7
:10806000294600F09BFC02460B464046494600F07C
:1080700095FC53A3D3E9002300F090FC02460B4685
:1080800051EC180B00F0D2FA8046894642464B4626
:108090005046594600F0CCFA002052465B46044652
:1080A0000D4691E522462B462046294600F076FCF7
:1080B00041EC100BFFF750BB4B49002022462B46EA
:1080C00000F096FD41EC100BFFF746BB002B44D1AE
:1080D000C1F114014AFA01F000FA01F151455AD0F8
:1080E0000093FFF717BB424A93425BDCDDE90012C5
:1080F0000291009146E634A3D3E9002351EC180B1A
:1081000000F04CFC30A3D3E9002300F047FC41EC25
:10811000100BFFF721BB009B012B7FF41DAB10EE72
:10812000901A10EE102A01F1004343EC102BFFF7D8
:1081300013BB9FED277BB0EE47CAF0EE67CA9FEDF9
:10814000267BB0EE47DAF0EE67DA9FED257B4FF441
:10815000802553EC172BFFF7EBBB45EC104B00923F
:1081600000F014F9009A002A7FF492AB0092FFF716
:1081700026BB41EC100B009800F0C2F951EC100B3B
:10818000B5E600F00100C0F102010091002B3FF4C0
:10819000C1AAFFF70DBB00F00100C0F1020300937C
:1081A000FFF7B8BA1B15BBE5000000604715F73FA5
:1081B00044DF5DF80BAE543E555555555555D53FEA
:1081C000FE822B654715F73F9C7500883CE4377E9F
:1081D0000000004003B8E23F06D0CF43EBFD4C3E29
:1081E000000000000000F83F0000F03F0000D03F1A
:1081F0000000E03F2DE9F041634A55EC104BAA43E3
:1082000000F09F80002D10EE10CA2B4654DD29157A
:1082100063D0C3F31303A1F2FF37C90743F48013FC
:1082200004D45B0003EBDC734FEA4C0C4FEADC72C6
:10823000002602EB43037F104FEA4C0C4FF0160E62
:1082400034464FF40012A118994202DC5B1A8C18D4
:1082500016445B00BEF1010E03EBDC734FEA5202E1
:108260004FEA4C0CEFD1754620204FF000420AE057
:1082700044D04FEADC71013801EB43034FEA4C0C68
:108280004FEA520243D0A34202EB0E01F0DD002977
:1082900001EB020E0ADBA0461B1B614588BF03F100
:1082A000FF33ACEB010C15444446E2E7BEF1000F8E
:1082B000F1DB04F10108EFE725F00042224338D05A
:1082C000002D4ED129464FEADC22153913464FEADC
:1082D0004C5C002AF7D0D60250D400205B00DD02AF
:1082E000044600F10100F9D51A4663460CFA00FC79
:1082F000C0F12000C340091B13438AE76145B8D889
:10830000002901EB020ED1DB98460023C9E753EAAE
:108310000C0310D168087110F30701F17F5101F5CA
:10832000001148BF40F0004001EB0753024643EC08
:10833000102BBDE8F0816A1C16BF681C013640088E
:10834000E9E710EE102A10EE100A2B46294600F03D
:1083500025FB22462B4600F06BF941EC100BBDE8E3
:10836000F08110EE102A2046294600F05FF90246FF
:108370000B4600F03DFC41EC100BDAE76346202091
:108380004FF0FF34B6E700BF0000F07F51EC100B58
:1083900010EE102A21F0004343EC102B704700BF71
:1083A00082B08DED000B019840F0004000F5801088
:1083B000C00F02B0704700BF9FED010B704700BFB8
:1083C000000000000000F87FF0B553EC102BC3F361
:1083D0000A5CACF2FF31132910EE100A83B01C4680
:1083E0004FEAD37E3ADC002930DB424D45FA01FCEE
:1083F00003EA0C0515432DD003EA5C0318434FEA4A
:108400005C0C0CD024EA0C0C4FF48024132944FAA1
:1084100001F10CBF4FF0004000204CEA0104364946
:1084200001EBCE0E2346DEE90045024629462046F2
:1084300000F0FEF8CDE90001DDE9000122462B46FF
:1084400000F0F4F841EC100B03B0F0BD23F0004154
:10845000114324D143EC102B03B0F0BD332908DDC8
:10846000B1F5806FF6D1194600F0E2F841EC100B3F
:10847000F2E7ACF2134C4FF0FF3121FA0CF10A4253
:10848000E8D010EA51024FEA5103C8D020EA0303B2
:108490004FF0804040FA0CFC43EA0C00BFE7C3F306
:1084A00013031843144A4342034302EBCE0E1B0B43
:1084B000620C03F40023520443EA02073B46DEE960
:1084C000006710EE102A3046394600F0B1F8CDE9C9
:1084D000000132463B46DDE9000100F0A7F804F058
:1084E000004421F00041024641EA040343EC102B12
:1084F00003B0F0BDFFFF0F0020EB0B0000000000F9
:1085000038B553EC102BC3F30A5104469C4689BB83
:1085100010EE101A23F0004C5CEA010129D0194634
:1085200000223D4B3D4D10EE100A00F037FAAC42F0
:1085300002460B4616DB8C46C1F30A5136392144FC
:1085400040F2FE70814221DC002947DC11F1350F39
:1085500034DA4CF250318C4218DC002B26A1D1E9E0
:10856000000144DB24A3D3E9002300F017FA41EC17
:10857000100B38BD40F2FF708142E0D110EE100ABE
:10858000194600F055F841EC100B38BD002B1CA12A
:10859000D1E9000107DB1AA3D3E9002300F0FEF9BB
:1085A00041EC100B38BD18A1D1E9000114A3D3E9A7
:1085B000002300F0F3F941EC100BF3E72CF0FF4C33
:1085C0002CF4E00C36314CEA0153104619460022D7
:1085D000134B00F0E3F941EC100B38BD2CF0FF4CCD
:1085E0002CF4E00C4CEA015343EC102B38BD08A1ED
:1085F000D1E90001B6E700BF59F3F8C21F6EA5012B
:108600009C7500883CE4377E9C7500883CE437FE0E
:1086100059F3F8C21F6EA58100005043B03CFFFF24
:108620000000903C81F0004102E000BF83F0004375
:1086300030B54FEA41044FEA430594EA050F08BFFD
:1086400090EA020F1FBF54EA000C55EA020C7FEAC1
:10865000645C7FEA655C00F0E2804FEA5454D4EB3E
:108660005555B8BF6D420CDD2C4480EA020281EA08
:10867000030382EA000083EA010180EA020281EA40
:108680000303362D88BF30BD11F0004F4FEA013192
:108690004FF4801C4CEA113102D0404261EB4101A1
:1086A00013F0004F4FEA03334CEA133302D0524227
:1086B00063EB430394EA050F00F0A780A4F10104E3
:1086C000D5F1200E0DDB02FA0EFC22FA05F280181D
:1086D00041F1000103FA0EF2801843FA05F3594103
:1086E0000EE0A5F120050EF1200E012A03FA0EFC82
:1086F00028BF4CF0020C43FA05F3C01851EBE371AC
:1087000001F0004507D54FF0000EDCF1000C7EEBC8
:1087100000006EEB0101B1F5801F1BD3B1F5001F06
:108720000CD349085FEA30004FEA3C0C04F1010425
:108730004FEA445212F5800F80F09A80BCF1004F4E
:1087400008BF5FEA500C50F1000041EB045141EAD0
:10875000050130BD5FEA4C0C404141EB0101013C99
:1087600028BFB1F5801FE9D291F0000F04BF014688
:108770000020B1FA81F308BF2033A3F10B03B3F15A
:1087800020020CDA0C3208DD02F1140CC2F10C02EA
:1087900001FA0CF021FA02F10CE002F11402D8BF48
:1087A000C2F1200C01FA02F120FA0CFCDCBF41EA14
:1087B0000C019040E41AA2BF01EB0451294330BDE3
:1087C0006FEA04041F3C1CDA0C340EDC04F11404C0
:1087D000C4F1200220FA04F001FA02F340EA030097
:1087E00021FA04F345EA030130BDC4F10C04C4F1DD
:1087F000200220FA02F001FA04F340EA03002946BD
:1088000030BD21FA04F0294630BD94F0000F83F406
:10881000801306BF81F480110134013D4EE77FEAE9
:10882000645C18BF7FEA655C29D094EA050F08BF35
:1088300090EA020F05D054EA000C04BF1946104616
:1088400030BD91EA030F1EBF0021002030BD5FEA5A
:10885000545C05D14000494128BF41F0004130BD82
:1088600014F580043CBF01F5801130BD01F00045D6
:1088700045F0FE4141F470014FF0000030BD7FEA49
:10888000645C1ABF194610467FEA655C1CBF0B4644
:10889000024650EA013406BF52EA033591EA030F5B
:1088A00041F4002130BD00BF90F0000F04BF002153
:1088B000704730B54FF4806404F132044FF0000586
:1088C0004FF0000150E700BF90F0000F04BF0021FF
:1088D000704730B54FF4806404F1320410F0004565
:1088E00048BF40424FF000013EE700BF42004FEA60
:1088F000E2014FEA31014FEA02701FBF12F07F43DD
:1089000093F07F4F81F06051704732F07F4208BF93
:10891000704793F07F4F04BF41F40021704730B59A
:108920004FF4607401F0004521F000411CE700BFE6
:1089300050EA010208BF704730B54FF000050AE069
:1089400050EA010208BF704730B511F0004502D56A
:10895000404261EB41014FF4806404F132045FEA6C
:10896000915C3FF4D8AE4FF003025FEADC0C18BF15
:1089700003325FEADC0C18BF033202EBDC02C2F107
:10898000200300FA03FC20FA02F001FA03FE40EA99
:108990000E0021FA02F11444BDE600BF70B54FF09D
:1089A000FF0C4CF4E06C1CEA11541DBF1CEA13557B
:1089B00094EA0C0F95EA0C0F00F0DEF82C4481EAE3
:1089C000030621EA4C5123EA4C5350EA013518BF03
:1089D00052EA033541F4801143F4801338D0A0FBF0
:1089E00002CE4FF00005E1FB02E506F00042E0FB9D
:1089F00003E54FF00006E1FB03569CF0000F18BFA3
:108A00004EF0010EA4F1FF04B6F5007F64F540744A
:108A100004D25FEA4E0E6D4146EB060642EAC621DD
:108A200041EA55514FEAC52040EA5E504FEACE2E4A
:108A3000B4F1FD0C88BFBCF5E06F1ED8BEF1004F4D
:108A400008BF5FEA500E50F1000041EB045170BDC9
:108A500006F0004646EA010140EA020081EA03010D
:108A6000B4EB5C04C2BFD4EB0C0541EA045170BD09
:108A700041F480114FF0000E013C00F3AB8014F183
:108A8000360FDEBF002001F0004170BDC4F10004CC
:108A9000203C35DA0C341BDC04F11404C4F120054D
:108AA00000FA05F320FA04F001FA05F240EA0200A8
:108AB00001F0004221F0004110EBD37021FA04F6DE
:108AC00042EB06015EEA430E08BF20EAD37070BD98
:108AD000C4F10C04C4F1200500FA04F320FA05F0F7
:108AE00001FA04F240EA020001F0004110EBD370F9
:108AF00041F100015EEA430E08BF20EAD37070BD69
:108B0000C4F1200500FA05F24EEA020E20FA04F341
:108B100001FA05F243EA020321FA04F001F00041F0
:108B200021FA04F220EA020000EBD3705EEA430E61
:108B300008BF20EAD37070BD94F0000F0FD101F090
:108B40000046400041EB010111F4801F08BF013CC9
:108B5000F7D041EA060195F0000F18BF704703F007
:108B60000046520043EB030313F4801F08BF013D8E
:108B7000F7D043EA0603704794EA0C0F0CEA13554A
:108B800018BF95EA0C0F0CD050EA410618BF52EA04
:108B90004306D1D181EA030101F000414FF000000A
:108BA00070BD50EA410606BF1046194652EA430618
:108BB00019D094EA0C0F02D150EA013613D195EA8C
:108BC0000C0F05D152EA03361CBF104619460AD1D4
:108BD00081EA030101F0004141F0FE4141F47001DE
:108BE0004FF0000070BD41F0FE4141F4780170BDCE
:108BF00070B54FF0FF0C4CF4E06C1CEA11541DBF33
:108C00001CEA135594EA0C0F95EA0C0F00F0A7F834
:108C1000A4EB050481EA030E52EA03354FEA013161
:108C200000F088804FEA03334FF0805545EA131374
:108C300043EA12634FEA022245EA111545EA10653C
:108C40004FEA00260EF000419D4208BF964244F1D3
:108C5000FD0404F5407402D25B084FEA3202B61AF2
:108C600065EB03055B084FEA32024FF480104FF4C6
:108C7000002CB6EB020E75EB030E22BFB61A75463A
:108C800040EA0C005B084FEA3202B6EB020E75EBCD
:108C9000030E22BFB61A754640EA5C005B084FEA35
:108CA0003202B6EB020E75EB030E22BFB61A754602
:108CB00040EA9C005B084FEA3202B6EB020E75EB0D
:108CC000030E22BFB61A754640EADC0055EA060ECE
:108CD00018D04FEA051545EA16754FEA06164FEA11
:108CE000C30343EA52734FEAC2025FEA1C1CC0D1BD
:108CF00011F4801F0BD141EA00014FF000004FF04A
:108D0000004CB6E711F4801F04BF01430020B4F10A
:108D1000FD0C88BFBCF5E06F3FF6AFAEB5EB030CC2
:108D200004BFB6EB020C5FEA500C50F1000041EBBF
:108D3000045170BD0EF0004E4EEA113114EB5C048C
:108D4000C2BFD4EB0C0541EA045170BD41F480115F
:108D50004FF0000E013C90E645EA060E8DE60CEA67
:108D6000135594EA0C0F08BF95EA0C0F3FF43BAF84
:108D700094EA0C0F0AD150EA01347FF434AF95EA3B
:108D80000C0F7FF425AF104619462CE795EA0C0F1F
:108D900006D152EA03353FF4FDAE1046194622E7EC
:108DA00050EA410618BF52EA43067FF4C5AE50EAC6
:108DB00041047FF40DAF52EA43057FF4EBAE12E7B6
:108DC0004FF0FF3C06E000BF4FF0010C02E000BF97
:108DD0004FF0010C4DF804CD4FEA410C7FEA6C5C7A
:108DE0004FEA430C18BF7FEA6C5C1BD001B050EA1D
:108DF000410C0CBF52EA430C91EA030F02BF90EA08
:108E0000020F0020704710F1000F91EA030F58BFC6
:108E1000994208BF90422CBFD8176FEAE37040F028
:108E2000010070474FEA410C7FEA6C5C02D150EAC6
:108E3000013C07D14FEA430C7FEA6C5CD6D152EA81
:108E4000033CD3D05DF8040B704700BF8446104646
:108E500062468C461946634600E000BF01B5FFF745
:108E6000B7FF002848BF10F1000F01BD4DF808ED15
:108E7000FFF7F4FF0CBF012000205DF808FB00BFE6
:108E80004DF808EDFFF7EAFF34BF012000205DF840
:108E900008FB00BF4DF808EDFFF7E0FF94BF01208D
:108EA00000205DF808FB00BF4DF808EDFFF7CEFF8E
:108EB00094BF012000205DF808FB00BF4DF808EDCD
:108EC000FFF7C4FF34BF012000205DF808FB00BF9E
:108ED0004FEA410C7FEA6C5C02D150EA013C0AD1B6
:108EE0004FEA430C7FEA6C5C02D152EA033C02D1A8
:108EF0004FF0000070474FF0010070474FEA410209
:108F0000B2F1E04324BFB3F5001CDCF1FE5C0DD9E7
:108F100001F0004C4FEAC0024CEA5070B2F1004F31
:108F200040EB830008BF20F00100704711F0804F34
:108F300021D113F13872BCBF01F00040704741F4F9
:108F400080114FEA5252C2F11802C2F1200C10FAFD
:108F50000CF320FA02F018BF40F001004FEAC123E1
:108F60004FEAD32303FA0CFC40EA0C0023FA02F385
:108F70004FEA4303CCE77FEA625307D150EA01335B
:108F80001EBF4FF0FE4040F44000704701F000402B
:108F900040F0FE4040F40000704700BF002301464F
:108FA0001A46184600F056B80A44914200F1FF33C1
:108FB00000D1704710B511F8014B03F8014F9142F1
:108FC000F9D110BD02440346934200D1704703F823
:108FD000011BF9E738B5104B1D68AB6B0446B3B9FC
:108FE0001820FCF7E9FF0246A86320B90B4B0C4898
:108FF0004221FDF709F80B490B4BC0E900130B4B5D
:1090000083600B23838100210120C2E90401AB6B43
:1090100000221C615A6138BD80E5032030EB0B0053
:1090200047EB0B000E33CDAB34126DE6ECDE0500E2
:1090300010F8012B11F8013B012A28BF9A42F7D002
:10904000D01A7047034613F8012B002AFBD1181AD7
:10905000013870472DE9F843DFF8B8800646D8F8A4
:1090600000001F460D46914600F056F8254B1C683F
:1090700034B9254C1C60254B13B11B68C4F88830EB
:1090800063681F2B07DDD8F8000000F047F84FF0A9
:10909000FF30BDE8F8834EB3D4F8880088B91C4B84
:1090A00023B9D8F8000000F038F8F0E74FF48470E6
:1090B000FCF782FF0028F4D00023C0E94033C4F855
:1090C0008800636840F8239001229A4000EB8301F6
:1090D000D0F800311343C0F80031022EC1F880707F
:1090E00002BFD0F804311343C0F804316368D8F8E4
:1090F00000005A1C0233626044F8235000F00EF85E
:109100000020C6E7E8E703205CE70320000000003A
:10911000B95F0B00E4E5032070477047704700001B
:1091200021400B005D400B0085400B0089400B0087
:109130000000000043616C6C206F6E2070757265DA
:10914000207669727475616C004E6F204368616EA1
:109150006765202D2043616E63656C6C696E6720C6
:10916000434D440A007B226F6E223A747275652C5F
:1091700022736174223A002C22627269223A002C16
:1091800022687565223A007B226F6E223A66616C16
:1091900073657D0053656E64696E6720436F6D6D06
:1091A000616E6420746F2048756500505554202FFF
:1091B0006170692F002F6C69676874732F002F73BB
:1091C0007461746520485454502F312E31006B6502
:1091D00065702D616C69766500486F73743A200084
:1091E000436F6E74656E742D4C656E6774683A20BB
:1091F00000436F6E74656E742D547970653A2074F7
:109200006578742F706C61696E3B63686172736519
:10921000743D5554462D380046726F6D2048756573
:10922000005363616C696E6720466163746F7220DE
:1092300069733A2025302E38660A00496F544E650E
:1092400074776F726B002E000A0A00416363656CCD
:1092500065726174696F6E20446174612028696E63
:1092600020472773293A20783D25302E33662C205D
:10927000793D25302E33662C207A3D25302E3366FD
:109280000A00583D2025302E33660A20593D2025FE
:10929000302E33660A205A3D2025302E33660A00D0
:1092A00000000000000000000000000000000000BE
:1092B00000000000000000000000000000000000AE
:1092C000000000000000000000000000000000009E
:1092D000000000000000000000000000000000008E
:1092E000000000000000000000000000000000007E
:1092F000000000000000000000000000000000006E
:10930000000000000000000000000000000000005D
:10931000000000000000000000000000000000004D
:10932000000000000000000000000000000000003D
:10933000000000000000000000000000000000002D
:10934000000000000000000000000000000000001D
:10935000000000000000000000000000000000000D
:1093600000000000000000000018000000000000E5
:1093700000000000000000000038000000000000B5
:109380000000000000000000005800000000000085
:1093900000000000000000000018000000000000B5
:1093A00000000000000000000018000000000000A5
:1093B0000000000000000000001800000000000095
:1093C0000000000000000000001800000000000085
:1093D0000000000000000000001800000000000075
:1093E0000000001F7803E03C3C1F803E00000000AE
:1093F0000000003BDC02F01C1018C06300000000FD
:10940000000000198C01B80E301860FF0000000049
:1094100000000019CE031C06201860C000000000E8
:1094200000000018C7030E07601860C000000000AD
:1094300000000018C3038F03C07CC06180000000DF
:109440000000003CF7C1F181803FC03E00000000F9
:109450000000000000000001800800000000000083
:1094600000000000000000FB000000000000000001
:10947000000000000000011F1000000000000000BC
:10948000000000000000010FE000000000000000EC
:1094900000000000000000B000000000000000001C
:1094A00000000000000000000000000000000000BC
:1094B00000000000000000000000000000000000AC
:1094C000000000000000000000000000000000009C
:1094D000000000000000000000000000000000008C
:1094E000000000000000000000000000000000007C
:1094F000000000000000000000000000000000006C
:10950000000000000000000000000000000000005B
:10951000000000000000000000000000000000004B
:10952000000000000000000000000000000000003B
:10953000000000000000000000000000000000002B
:109540000000000000000800004060000000000073
:10955000000000000000080000C0600000000000E3
:10956000000000000000180000C010000000000013
:10957000003E007C071C7C0003E0701F7800F800B0
:10958000007300C30798180000C0303BDC01860060
:10959000003301FF01F0180000C030198C03FE00F9
:1095A0000031818000E0180000C03019CE030000B7
:1095B0000031818100E0180000C03018C7030200AC
:1095C0000031C0C301FC1B0000D03018C30186006D
:1095D0000079E07E073C1D0000D0783CF7C0FC001D
:1095E000000000000000000000000000000000007B
:1095F000000000000000000000000000000000006B
:10960000000000000000000000000000000000005A
:10961000000000000000000000000000000000004A
:10962000000000000000000000000000000000003A
:10963000000000000000000000000000000000002A
:10964000000000000000000000000000000000001A
:10965000000000000000000000000000000000000A
:1096600000000000000000000000000000000000FA
:1096700000000000000000000000000000000000EA
:1096800000000000000000000000000000000000DA
:1096900000000000000000000000000000000000CA
:1096A00000000000000000000000000000000000BA
:1096B00000000000000000000000000000000000AA
:1096C000000000000000000000000000000000009A
:1096D000000000000000000000000000000000008A
:1096E000000000000000000000000000000000007A
:1096F000000000000000000000000000000000006A
:109700000000000000000000000000000000000059
:109710000000000000000000000000000000000049
:109720000000000000000000000000000000000039
:10973000000000000003CF0F876000000000000061
:10974000000000000001C61E8EE0000000000000C6
:10975000000000000000CC3986600000000000001E
:10976000000000000000EC338660000000000000F4
:10977000000000000000783F0778000000000000B3
:10978000000000000000381E03F000000000000090
:109790000000000000003000000000000000000099
:1097A00000000000000FE4000000000000000000C6
:1097B000000000000008FC000000000000000000A5
:1097C00000000000000F800000000000000000000A
:1097D0000000000000000000000000000000000089
:1097E0000000000000000000000000000000000079
:1097F0000000000000000000000000000000000069
:109800000000000000000000000000000000000058
:1098100000000000000000001800007000000000C0
:109820000000000000000000780000F000000000D0
:1098300000000000000000001800003000000000E0
:1098400000000000000000001800003000000000D0
:1098500000000000000000001800003000000000C0
:1098600000000000000000001800003000000000B0
:1098700000000003C07E0F81F81F03F0000000000D
:1098800000000007E0E71CC3983986700000000064
:109890000000000360FF1FC3183F8C300000000071
:1098A0000000000370C0180318300C3000000000E6
:1098B0000000000330E31C633E38CE780000000057
:1098C000000000073C7E0FC1F81F87F00000000079
:1098D0000000000000000000000000000000000088
:1098E0000000000000000000000000000000000078
:1098F0000000000000000000000000000000000068
:109900000000000000000000000000000000000057
:109910000000000000000000000000000000000047
:109920000000000000000000000000000000000037
:109930000000000000000000000000000000000027
:109940000000000000000000000000000000000017
:109950000000000000000400000000000000000003
:109960000000000000000C000000000000000000EB
:109970000000000000001C000000000000000000CB
:109980000000000000000C000000000000000000CB
:109990000000000000040C0000180000000000009F
:1099A00000000000000C0C00001800000000000087
:1099B00000000000001E0F83C078000000000000BF
:1099C00000000000000C0F83E01800000000000001
:1099D00000000000000C0DC1301800000000000065
:1099E00000000000000C0CC318180000000000006C
:1099F00000000000000F0CE3DC1C00000000000071
:109A000000000000000F1EF1F61C00000000000026
:109A10000000000000000000000000000000000046
:109A20000000000000000000000000000000000036
:109A30000000000000000000000000000000000026
:109A40000000000000000000000000000000000016
:109A50000000000000000000000000000000000006
:109A600000000000000000000000000000000000F6
:109A700000000000000000000000000000000000E6
:109A800000000000000000000000000000000000D6
:109A900000000000000000000000000000000000C6
:109AA00000000000000000000000000000000000B6
:109AB00000000000000000000000000000000000A6
:109AC0000000000000000000000000000000000096
:109AD0000000000000000000000000000000000086
